{
  "_format": "hh-sol-artifact-1",
  "contractName": "RegistrarAccessControl",
  "sourceName": "contracts/Access/RegistrarAccessControl.sol",
  "abi": [
    {
      "inputs": [],
      "stateMutability": "nonpayable",
      "type": "constructor"
    },
    {
      "inputs": [
        {
          "internalType": "address",
          "name": "sender",
          "type": "address"
        }
      ],
      "name": "OnlyOwner",
      "type": "error"
    },
    {
      "anonymous": false,
      "inputs": [
        {
          "indexed": true,
          "internalType": "bytes32",
          "name": "role",
          "type": "bytes32"
        },
        {
          "indexed": true,
          "internalType": "bytes32",
          "name": "previousAdminRole",
          "type": "bytes32"
        },
        {
          "indexed": true,
          "internalType": "bytes32",
          "name": "newAdminRole",
          "type": "bytes32"
        }
      ],
      "name": "RoleAdminChanged",
      "type": "event"
    },
    {
      "anonymous": false,
      "inputs": [
        {
          "indexed": true,
          "internalType": "bytes32",
          "name": "role",
          "type": "bytes32"
        },
        {
          "indexed": true,
          "internalType": "address",
          "name": "account",
          "type": "address"
        },
        {
          "indexed": true,
          "internalType": "address",
          "name": "sender",
          "type": "address"
        }
      ],
      "name": "RoleGranted",
      "type": "event"
    },
    {
      "anonymous": false,
      "inputs": [
        {
          "indexed": true,
          "internalType": "bytes32",
          "name": "role",
          "type": "bytes32"
        },
        {
          "indexed": true,
          "internalType": "address",
          "name": "account",
          "type": "address"
        },
        {
          "indexed": true,
          "internalType": "address",
          "name": "sender",
          "type": "address"
        }
      ],
      "name": "RoleRevoked",
      "type": "event"
    },
    {
      "inputs": [],
      "name": "DEFAULT_ADMIN_ROLE",
      "outputs": [
        {
          "internalType": "bytes32",
          "name": "",
          "type": "bytes32"
        }
      ],
      "stateMutability": "view",
      "type": "function"
    },
    {
      "inputs": [
        {
          "internalType": "address",
          "name": "highLevelOperator",
          "type": "address"
        }
      ],
      "name": "addHighLevelOperator",
      "outputs": [],
      "stateMutability": "nonpayable",
      "type": "function"
    },
    {
      "inputs": [
        {
          "internalType": "bytes32",
          "name": "role",
          "type": "bytes32"
        }
      ],
      "name": "getRoleAdmin",
      "outputs": [
        {
          "internalType": "bytes32",
          "name": "",
          "type": "bytes32"
        }
      ],
      "stateMutability": "view",
      "type": "function"
    },
    {
      "inputs": [
        {
          "internalType": "bytes32",
          "name": "role",
          "type": "bytes32"
        },
        {
          "internalType": "address",
          "name": "account",
          "type": "address"
        }
      ],
      "name": "grantRole",
      "outputs": [],
      "stateMutability": "nonpayable",
      "type": "function"
    },
    {
      "inputs": [
        {
          "internalType": "bytes32",
          "name": "role",
          "type": "bytes32"
        },
        {
          "internalType": "address",
          "name": "account",
          "type": "address"
        }
      ],
      "name": "hasRole",
      "outputs": [
        {
          "internalType": "bool",
          "name": "",
          "type": "bool"
        }
      ],
      "stateMutability": "view",
      "type": "function"
    },
    {
      "inputs": [
        {
          "internalType": "address",
          "name": "highLevelOperator",
          "type": "address"
        }
      ],
      "name": "isHighLevelOperator",
      "outputs": [
        {
          "internalType": "bool",
          "name": "",
          "type": "bool"
        }
      ],
      "stateMutability": "view",
      "type": "function"
    },
    {
      "inputs": [
        {
          "internalType": "address",
          "name": "owner",
          "type": "address"
        }
      ],
      "name": "isOwnerRole",
      "outputs": [
        {
          "internalType": "bool",
          "name": "",
          "type": "bool"
        }
      ],
      "stateMutability": "view",
      "type": "function"
    },
    {
      "inputs": [
        {
          "internalType": "address",
          "name": "highLevelOperator",
          "type": "address"
        }
      ],
      "name": "removeHighLevelOperator",
      "outputs": [],
      "stateMutability": "nonpayable",
      "type": "function"
    },
    {
      "inputs": [
        {
          "internalType": "bytes32",
          "name": "role",
          "type": "bytes32"
        },
        {
          "internalType": "address",
          "name": "account",
          "type": "address"
        }
      ],
      "name": "renounceRole",
      "outputs": [],
      "stateMutability": "nonpayable",
      "type": "function"
    },
    {
      "inputs": [
        {
          "internalType": "bytes32",
          "name": "role",
          "type": "bytes32"
        },
        {
          "internalType": "address",
          "name": "account",
          "type": "address"
        }
      ],
      "name": "revokeRole",
      "outputs": [],
      "stateMutability": "nonpayable",
      "type": "function"
    },
    {
      "inputs": [
        {
          "internalType": "bytes4",
          "name": "interfaceId",
          "type": "bytes4"
        }
      ],
      "name": "supportsInterface",
      "outputs": [
        {
          "internalType": "bool",
          "name": "",
          "type": "bool"
        }
      ],
      "stateMutability": "view",
      "type": "function"
    },
    {
      "inputs": [
        {
          "internalType": "address",
          "name": "newOwner",
          "type": "address"
        }
      ],
      "name": "transferOwnership",
      "outputs": [],
      "stateMutability": "nonpayable",
      "type": "function"
    }
  ],
  "bytecode": "0x608060405234801561001057600080fd5b503361002a600080516020610d8983398151915280610086565b610050600080516020610d69833981519152600080516020610d89833981519152610086565b610068600080516020610d89833981519152826100d1565b610080600080516020610d69833981519152826100d1565b5061017d565b600082815260208190526040808220600101805490849055905190918391839186917fbd79b86ffe0ab8e8776151514217cd7cacd52c909f66475c3af44e129f0b00ff9190a4505050565b6100db82826100df565b5050565b6000828152602081815260408083206001600160a01b038516845290915290205460ff166100db576000828152602081815260408083206001600160a01b03851684529091529020805460ff191660011790556101393390565b6001600160a01b0316816001600160a01b0316837f2f8788117e7eff1d82e926ec794901d17c78024a50270940304540a733656f0d60405160405180910390a45050565b610bdd8061018c6000396000f3fe608060405234801561001057600080fd5b50600436106100d45760003560e01c80634989d54211610081578063a217fddf1161005b578063a217fddf14610218578063d547741f14610220578063f2fde38b1461023357600080fd5b80634989d542146101805780635a4c17ce1461019357806391d14854146101e157600080fd5b8063248a9ca3116100b2578063248a9ca3146101295780632f2ff15d1461015a57806336568abe1461016d57600080fd5b806301ffc9a7146100d95780630e7af6aa146101015780631db79e8914610116575b600080fd5b6100ec6100e7366004610986565b610246565b60405190151581526020015b60405180910390f35b61011461010f3660046109e4565b6102df565b005b6100ec6101243660046109e4565b610362565b61014c6101373660046109ff565b60009081526020819052604090206001015490565b6040519081526020016100f8565b610114610168366004610a18565b6103a2565b61011461017b366004610a18565b6103cc565b61011461018e3660046109e4565b610458565b6100ec6101a13660046109e4565b6001600160a01b03811660009081527f737eb5e19f2026ff367abd61ab0af93ebe48731ede9deb31ef641facd08ddae4602052604081205460ff166102d9565b6100ec6101ef366004610a18565b6000918252602082815260408084206001600160a01b0393909316845291905290205460ff1690565b61014c600081565b61011461022e366004610a18565b6104d3565b6101146102413660046109e4565b6104f8565b60007fffffffff0000000000000000000000000000000000000000000000000000000082167f7965db0b0000000000000000000000000000000000000000000000000000000014806102d957507f01ffc9a7000000000000000000000000000000000000000000000000000000007fffffffff000000000000000000000000000000000000000000000000000000008316145b92915050565b3360009081527f1299b6a38f4cd1a4aadffdac39262d30244a01098753e138ed68abcfd87ee481602052604090205460ff1661033557604051630543601560e11b81523360048201526024015b60405180910390fd5b61035f7ff1dc8234e5d4095ae2606af5c3469409b4777c23b2b1272e4dbca9387c994722826104d3565b50565b6001600160a01b03811660009081527f1299b6a38f4cd1a4aadffdac39262d30244a01098753e138ed68abcfd87ee481602052604081205460ff166102d9565b6000828152602081905260409020600101546103bd816105f2565b6103c783836105fc565b505050565b6001600160a01b038116331461044a5760405162461bcd60e51b815260206004820152602f60248201527f416363657373436f6e74726f6c3a2063616e206f6e6c792072656e6f756e636560448201527f20726f6c657320666f722073656c660000000000000000000000000000000000606482015260840161032c565b610454828261069a565b5050565b3360009081527f1299b6a38f4cd1a4aadffdac39262d30244a01098753e138ed68abcfd87ee481602052604090205460ff166104a957604051630543601560e11b815233600482015260240161032c565b61035f7ff1dc8234e5d4095ae2606af5c3469409b4777c23b2b1272e4dbca9387c994722826103a2565b6000828152602081905260409020600101546104ee816105f2565b6103c7838361069a565b3360009081527f1299b6a38f4cd1a4aadffdac39262d30244a01098753e138ed68abcfd87ee481602052604090205460ff1661054957604051630543601560e11b815233600482015260240161032c565b6105737f6270edb7c868f86fda4adedba75108201087268ea345934db8bad688e1feb91b826103a2565b61059d7ff1dc8234e5d4095ae2606af5c3469409b4777c23b2b1272e4dbca9387c994722826103a2565b336105c87ff1dc8234e5d4095ae2606af5c3469409b4777c23b2b1272e4dbca9387c994722826104d3565b6104547f6270edb7c868f86fda4adedba75108201087268ea345934db8bad688e1feb91b826104d3565b61035f8133610719565b6000828152602081815260408083206001600160a01b038516845290915290205460ff16610454576000828152602081815260408083206001600160a01b03851684529091529020805460ff191660011790556106563390565b6001600160a01b0316816001600160a01b0316837f2f8788117e7eff1d82e926ec794901d17c78024a50270940304540a733656f0d60405160405180910390a45050565b6000828152602081815260408083206001600160a01b038516845290915290205460ff1615610454576000828152602081815260408083206001600160a01b0385168085529252808320805460ff1916905551339285917ff6391f5c32d9c69d2a47ea670b442974b53935d1edc7fd64eb21e047a839171b9190a45050565b6000828152602081815260408083206001600160a01b038516845290915290205460ff166104545761074a8161078c565b61075583602061079e565b604051602001610766929190610a68565b60408051601f198184030181529082905262461bcd60e51b825261032c91600401610ae9565b60606102d96001600160a01b03831660145b606060006107ad836002610b32565b6107b8906002610b51565b67ffffffffffffffff8111156107d0576107d0610b64565b6040519080825280601f01601f1916602001820160405280156107fa576020820181803683370190505b5090507f30000000000000000000000000000000000000000000000000000000000000008160008151811061083157610831610b7a565b60200101906001600160f81b031916908160001a9053507f78000000000000000000000000000000000000000000000000000000000000008160018151811061087c5761087c610b7a565b60200101906001600160f81b031916908160001a90535060006108a0846002610b32565b6108ab906001610b51565b90505b6001811115610930577f303132333435363738396162636465660000000000000000000000000000000085600f16601081106108ec576108ec610b7a565b1a60f81b82828151811061090257610902610b7a565b60200101906001600160f81b031916908160001a90535060049490941c9361092981610b90565b90506108ae565b50831561097f5760405162461bcd60e51b815260206004820181905260248201527f537472696e67733a20686578206c656e67746820696e73756666696369656e74604482015260640161032c565b9392505050565b60006020828403121561099857600080fd5b81357fffffffff000000000000000000000000000000000000000000000000000000008116811461097f57600080fd5b80356001600160a01b03811681146109df57600080fd5b919050565b6000602082840312156109f657600080fd5b61097f826109c8565b600060208284031215610a1157600080fd5b5035919050565b60008060408385031215610a2b57600080fd5b82359150610a3b602084016109c8565b90509250929050565b60005b83811015610a5f578181015183820152602001610a47565b50506000910152565b7f416363657373436f6e74726f6c3a206163636f756e7420000000000000000000815260008351610aa0816017850160208801610a44565b7f206973206d697373696e6720726f6c65200000000000000000000000000000006017918401918201528351610add816028840160208801610a44565b01602801949350505050565b6020815260008251806020840152610b08816040850160208701610a44565b601f01601f19169190910160400192915050565b634e487b7160e01b600052601160045260246000fd5b6000816000190483118215151615610b4c57610b4c610b1c565b500290565b808201808211156102d9576102d9610b1c565b634e487b7160e01b600052604160045260246000fd5b634e487b7160e01b600052603260045260246000fd5b600081610b9f57610b9f610b1c565b50600019019056fea26469706673582212200eec3fe6b123713599a43153c253785a6237a339b9492c5b62112d0e808317f864736f6c63430008100033f1dc8234e5d4095ae2606af5c3469409b4777c23b2b1272e4dbca9387c9947226270edb7c868f86fda4adedba75108201087268ea345934db8bad688e1feb91b",
  "linkReferences": {},
  "deployedLinkReferences": {}
}