{
  "_format": "hh-sol-artifact-1",
  "contractName": "PartnerConfiguration",
  "sourceName": "contracts/PartnerConfiguration/PartnerConfiguration.sol",
  "abi": [
    {
      "inputs": [
        {
          "internalType": "contract IAccessControl",
          "name": "accessControl",
          "type": "address"
        },
        {
          "internalType": "uint256",
          "name": "minLength",
          "type": "uint256"
        },
        {
          "internalType": "uint256",
          "name": "maxLength",
          "type": "uint256"
        },
        {
          "internalType": "uint256",
          "name": "minDuration",
          "type": "uint256"
        },
        {
          "internalType": "uint256",
          "name": "maxDuration",
          "type": "uint256"
        },
        {
          "internalType": "uint256",
          "name": "feePercentage",
          "type": "uint256"
        },
        {
          "internalType": "uint256",
          "name": "discount",
          "type": "uint256"
        },
        {
          "internalType": "uint256",
          "name": "minCommitmentAge",
          "type": "uint256"
        }
      ],
      "stateMutability": "nonpayable",
      "type": "constructor"
    },
    {
      "inputs": [
        {
          "internalType": "uint256",
          "name": "duration",
          "type": "uint256"
        },
        {
          "internalType": "string",
          "name": "reason",
          "type": "string"
        }
      ],
      "name": "InvalidDuration",
      "type": "error"
    },
    {
      "inputs": [
        {
          "internalType": "uint256",
          "name": "length",
          "type": "uint256"
        },
        {
          "internalType": "string",
          "name": "reason",
          "type": "string"
        }
      ],
      "name": "InvalidLength",
      "type": "error"
    },
    {
      "inputs": [
        {
          "internalType": "string",
          "name": "name",
          "type": "string"
        },
        {
          "internalType": "string",
          "name": "reason",
          "type": "string"
        }
      ],
      "name": "InvalidName",
      "type": "error"
    },
    {
      "inputs": [
        {
          "internalType": "address",
          "name": "sender",
          "type": "address"
        }
      ],
      "name": "OnlyHighLevelOperator",
      "type": "error"
    },
    {
      "anonymous": false,
      "inputs": [
        {
          "indexed": false,
          "internalType": "uint256",
          "name": "previousValue",
          "type": "uint256"
        },
        {
          "indexed": false,
          "internalType": "uint256",
          "name": "newValue",
          "type": "uint256"
        }
      ],
      "name": "DiscountChanged",
      "type": "event"
    },
    {
      "anonymous": false,
      "inputs": [
        {
          "indexed": false,
          "internalType": "uint256",
          "name": "previousValue",
          "type": "uint256"
        },
        {
          "indexed": false,
          "internalType": "uint256",
          "name": "newValue",
          "type": "uint256"
        }
      ],
      "name": "FeePercentageChanged",
      "type": "event"
    },
    {
      "anonymous": false,
      "inputs": [
        {
          "indexed": false,
          "internalType": "uint256",
          "name": "previousValue",
          "type": "uint256"
        },
        {
          "indexed": false,
          "internalType": "uint256",
          "name": "newValue",
          "type": "uint256"
        }
      ],
      "name": "MaxDurationChanged",
      "type": "event"
    },
    {
      "anonymous": false,
      "inputs": [
        {
          "indexed": false,
          "internalType": "uint256",
          "name": "previousValue",
          "type": "uint256"
        },
        {
          "indexed": false,
          "internalType": "uint256",
          "name": "newValue",
          "type": "uint256"
        }
      ],
      "name": "MaxLengthChanged",
      "type": "event"
    },
    {
      "anonymous": false,
      "inputs": [
        {
          "indexed": false,
          "internalType": "uint256",
          "name": "previousValue",
          "type": "uint256"
        },
        {
          "indexed": false,
          "internalType": "uint256",
          "name": "newValue",
          "type": "uint256"
        }
      ],
      "name": "MinCommitmentAgeChanged",
      "type": "event"
    },
    {
      "anonymous": false,
      "inputs": [
        {
          "indexed": false,
          "internalType": "uint256",
          "name": "previousValue",
          "type": "uint256"
        },
        {
          "indexed": false,
          "internalType": "uint256",
          "name": "newValue",
          "type": "uint256"
        }
      ],
      "name": "MinDurationChanged",
      "type": "event"
    },
    {
      "anonymous": false,
      "inputs": [
        {
          "indexed": false,
          "internalType": "uint256",
          "name": "previousValue",
          "type": "uint256"
        },
        {
          "indexed": false,
          "internalType": "uint256",
          "name": "newValue",
          "type": "uint256"
        }
      ],
      "name": "MinLengthChanged",
      "type": "event"
    },
    {
      "inputs": [],
      "name": "getDiscount",
      "outputs": [
        {
          "internalType": "uint256",
          "name": "",
          "type": "uint256"
        }
      ],
      "stateMutability": "view",
      "type": "function"
    },
    {
      "inputs": [],
      "name": "getFeePercentage",
      "outputs": [
        {
          "internalType": "uint256",
          "name": "",
          "type": "uint256"
        }
      ],
      "stateMutability": "view",
      "type": "function"
    },
    {
      "inputs": [],
      "name": "getMaxDuration",
      "outputs": [
        {
          "internalType": "uint256",
          "name": "",
          "type": "uint256"
        }
      ],
      "stateMutability": "view",
      "type": "function"
    },
    {
      "inputs": [],
      "name": "getMaxLength",
      "outputs": [
        {
          "internalType": "uint256",
          "name": "",
          "type": "uint256"
        }
      ],
      "stateMutability": "view",
      "type": "function"
    },
    {
      "inputs": [],
      "name": "getMinCommitmentAge",
      "outputs": [
        {
          "internalType": "uint256",
          "name": "",
          "type": "uint256"
        }
      ],
      "stateMutability": "view",
      "type": "function"
    },
    {
      "inputs": [],
      "name": "getMinDuration",
      "outputs": [
        {
          "internalType": "uint256",
          "name": "",
          "type": "uint256"
        }
      ],
      "stateMutability": "view",
      "type": "function"
    },
    {
      "inputs": [],
      "name": "getMinLength",
      "outputs": [
        {
          "internalType": "uint256",
          "name": "",
          "type": "uint256"
        }
      ],
      "stateMutability": "view",
      "type": "function"
    },
    {
      "inputs": [
        {
          "internalType": "string",
          "name": "",
          "type": "string"
        },
        {
          "internalType": "uint256",
          "name": "",
          "type": "uint256"
        },
        {
          "internalType": "uint256",
          "name": "duration",
          "type": "uint256"
        }
      ],
      "name": "getPrice",
      "outputs": [
        {
          "internalType": "uint256",
          "name": "",
          "type": "uint256"
        }
      ],
      "stateMutability": "view",
      "type": "function"
    },
    {
      "inputs": [
        {
          "internalType": "uint256",
          "name": "discount",
          "type": "uint256"
        }
      ],
      "name": "setDiscount",
      "outputs": [],
      "stateMutability": "nonpayable",
      "type": "function"
    },
    {
      "inputs": [
        {
          "internalType": "uint256",
          "name": "feePercentage",
          "type": "uint256"
        }
      ],
      "name": "setFeePercentage",
      "outputs": [],
      "stateMutability": "nonpayable",
      "type": "function"
    },
    {
      "inputs": [
        {
          "internalType": "uint256",
          "name": "maxDuration",
          "type": "uint256"
        }
      ],
      "name": "setMaxDuration",
      "outputs": [],
      "stateMutability": "nonpayable",
      "type": "function"
    },
    {
      "inputs": [
        {
          "internalType": "uint256",
          "name": "maxLength",
          "type": "uint256"
        }
      ],
      "name": "setMaxLength",
      "outputs": [],
      "stateMutability": "nonpayable",
      "type": "function"
    },
    {
      "inputs": [
        {
          "internalType": "uint256",
          "name": "minCommitmentAge",
          "type": "uint256"
        }
      ],
      "name": "setMinCommitmentAge",
      "outputs": [],
      "stateMutability": "nonpayable",
      "type": "function"
    },
    {
      "inputs": [
        {
          "internalType": "uint256",
          "name": "minDuration",
          "type": "uint256"
        }
      ],
      "name": "setMinDuration",
      "outputs": [],
      "stateMutability": "nonpayable",
      "type": "function"
    },
    {
      "inputs": [
        {
          "internalType": "uint256",
          "name": "minLength",
          "type": "uint256"
        }
      ],
      "name": "setMinLength",
      "outputs": [],
      "stateMutability": "nonpayable",
      "type": "function"
    },
    {
      "inputs": [
        {
          "internalType": "string",
          "name": "name",
          "type": "string"
        },
        {
          "internalType": "uint256",
          "name": "duration",
          "type": "uint256"
        }
      ],
      "name": "validateName",
      "outputs": [],
      "stateMutability": "view",
      "type": "function"
    }
  ],
  "bytecode": "0x60806040523480156200001157600080fd5b506040516200178f3803806200178f83398101604081905262000034916200021c565b600080546001600160a01b0319166001600160a01b038a16178155879003620000b3578660405163023d531160e01b8152600401620000aa918152604060208201819052601a908201527f4d696e696d756d206c656e6774682063616e6e6f742062652030000000000000606082015260800190565b60405180910390fd5b8686101562000125578560405163023d531160e01b8152600401620000aa918152604060208201819052602d908201527f4d6178206c656e6774682063616e6e6f74206265206c657373207468616e207460608201526c0d0ca40dad2dc40d8cadccee8d609b1b608082015260a00190565b8460000362000181578460405163bfbe7a1360e01b8152600401620000aa918152604060208201819052601c908201527f4d696e696d756d206475726174696f6e2063616e6e6f74206265203000000000606082015260800190565b84841015620001f7578360405163bfbe7a1360e01b8152600401620000aa9181526040602082018190526031908201527f4d6178206475726174696f6e2063616e6e6f74206265206c657373207468616e606082015270103a34329036b4b710323ab930ba34b7b760791b608082015260a00190565b6001969096556002949094556003929092556004556005556006556007555062000294565b600080600080600080600080610100898b0312156200023a57600080fd5b88516001600160a01b03811681146200025257600080fd5b809850506020890151965060408901519550606089015194506080890151935060a0890151925060c0890151915060e089015190509295985092959890939650565b6114eb80620002a46000396000f3fe608060405234801561001057600080fd5b50600436106101005760003560e01c8063ae06c1b711610097578063cf0f34c411610066578063cf0f34c4146101b7578063d137874b146101ca578063dabd2719146101d2578063dc2f7867146101e557600080fd5b8063ae06c1b714610176578063b49a2db914610189578063b7fc1b9414610191578063be47152e146101a457600080fd5b806317215250116100d357806317215250146101405780632e4c5d9014610148578063857050a11461015b5780638e99a4221461016357600080fd5b806301a400fa14610105578063034d501b1461011b57806311efbf61146101235780631674bade1461012b575b600080fd5b6002545b60405190815260200160405180910390f35b600354610109565b600554610109565b61013e610139366004611187565b6101f8565b005b600754610109565b61013e610156366004611187565b610405565b600154610109565b61013e610171366004611187565b610524565b61013e610184366004611187565b61072c565b600454610109565b61010961019f3660046111e9565b61088e565b61013e6101b236600461123a565b61091b565b61013e6101c5366004611187565b610aee565b600654610109565b61013e6101e0366004611187565b610c8f565b61013e6101f3366004611187565b610df1565b600054604051632d260be760e11b81523360048201526001600160a01b0390911690635a4c17ce90602401602060405180830381865afa158015610240573d6000803e3d6000fd5b505050506040513d601f19601f820116820180604052508101906102649190611286565b610288576040516307d92ddb60e51b81523360048201526024015b60405180910390fd5b60035460045460408051838152602081018590527f8b85dfe026c89230040eed7faae47e64a506586518e088fb022c34c05aaac682910160405180910390a182820361031957604080518082018252601e81527f6f6c642076616c75652069732073616d65206173206e65772076616c756500006020820152905162461bcd60e51b815261027f91906004016112af565b82600003610373578260405163bfbe7a1360e01b815260040161027f918152604060208201819052601c908201527f4d696e696d756d206475726174696f6e2063616e6e6f74206265203000000000606082015260800190565b801580159061038157508083115b156103fe578260405163bfbe7a1360e01b815260040161027f9181526040602082018190526039908201527f4d696e696d756d206475726174696f6e2063616e6e6f74206265206d6f72652060608201527f7468616e20746865206d6178696d756d206475726174696f6e00000000000000608082015260a00190565b5050600355565b600054604051632d260be760e11b81523360048201526001600160a01b0390911690635a4c17ce90602401602060405180830381865afa15801561044d573d6000803e3d6000fd5b505050506040513d601f19601f820116820180604052508101906104719190611286565b610490576040516307d92ddb60e51b815233600482015260240161027f565b60075460408051828152602081018490527f9373c9efcdb15a5f76f41e32d76f6ddf07db90d0a8ba833c839d7b37e23271e3910160405180910390a181810361051e57604080518082018252601e81527f6f6c642076616c75652069732073616d65206173206e65772076616c756500006020820152905162461bcd60e51b815261027f91906004016112af565b50600755565b600054604051632d260be760e11b81523360048201526001600160a01b0390911690635a4c17ce90602401602060405180830381865afa15801561056c573d6000803e3d6000fd5b505050506040513d601f19601f820116820180604052508101906105909190611286565b6105af576040516307d92ddb60e51b815233600482015260240161027f565b60015460025460408051838152602081018590527f2e1e7828777a0695a640c72a0e441e50706c1f286a0a8e21da57d572b43e3ea4910160405180910390a182820361064057604080518082018252601e81527f6f6c642076616c75652069732073616d65206173206e65772076616c756500006020820152905162461bcd60e51b815261027f91906004016112af565b8260000361069a578260405163023d531160e01b815260040161027f918152604060208201819052601a908201527f4d696e696d756d206c656e6774682063616e6e6f742062652030000000000000606082015260800190565b80158015906106a857508083115b15610725578260405163023d531160e01b815260040161027f9181526040602082018190526031908201527f4d696e696d756d206c656e6774682063616e6e6f74206265206d6f726520746860608201527f616e20746865206d6178206c656e677468000000000000000000000000000000608082015260a00190565b5050600155565b600054604051632d260be760e11b81523360048201526001600160a01b0390911690635a4c17ce90602401602060405180830381865afa158015610774573d6000803e3d6000fd5b505050506040513d601f19601f820116820180604052508101906107989190611286565b6107b7576040516307d92ddb60e51b815233600482015260240161027f565b60055460408051828152602081018490527f2235d343de14bfe1d7efed850d828da476e76eb894c4831ccfa097efc5a45444910160405180910390a181810361084557604080518082018252601e81527f6f6c642076616c75652069732073616d65206173206e65772076616c756500006020820152905162461bcd60e51b815261027f91906004016112af565b68056bc75e2d63100000821115610888576040518060600160405280603581526020016114816035913960405162461bcd60e51b815260040161027f91906112af565b50600555565b60008068056bc75e2d63100000600654036108ad576000915050610913565b600283116108e657670de0b6b3a76400006108c9846002611313565b6108d39190611313565b90506108de81610f92565b915050610913565b670de0b6b3a76400006108fa846002611332565b6109049190611313565b905061090f81610f92565b9150505b949350505050565b60035481101561099d578060405163bfbe7a1360e01b815260040161027f9181526040602082018190526023908201527f4475726174696f6e206c657373207468616e206d696e696d756d20647572617460608201527f696f6e0000000000000000000000000000000000000000000000000000000000608082015260a00190565b600454811115610a1f578060405163bfbe7a1360e01b815260040161027f9181526040602082018190526022908201527f4475726174696f6e206973206d6f7265207468616e206d61782064757261746960608201527f6f6e000000000000000000000000000000000000000000000000000000000000608082015260a00190565b600154610a6184848080601f016020809104026020016040519081016040528093929190818152602001838380828437600092019190915250610ff892505050565b1015610a84578282604051633c11cc7360e21b815260040161027f929190611374565b600254610ac684848080601f016020809104026020016040519081016040528093929190818152602001838380828437600092019190915250610ff892505050565b1115610ae9578282604051633c11cc7360e21b815260040161027f9291906113c8565b505050565b600054604051632d260be760e11b81523360048201526001600160a01b0390911690635a4c17ce90602401602060405180830381865afa158015610b36573d6000803e3d6000fd5b505050506040513d601f19601f82011682018060405250810190610b5a9190611286565b610b79576040516307d92ddb60e51b815233600482015260240161027f565b60045460408051828152602081018490527f857e15edf1573f3e12a56af84632c9624ada2fb1c4b771bfdcc6385926fd9b3c910160405180910390a1818103610c0757604080518082018252601e81527f6f6c642076616c75652069732073616d65206173206e65772076616c756500006020820152905162461bcd60e51b815261027f91906004016112af565b600354821015610c89578160405163bfbe7a1360e01b815260040161027f9181526040602082018190526031908201527f4d6178206475726174696f6e2063616e6e6f74206265206c657373207468616e60608201527f20746865206d696e206475726174696f6e000000000000000000000000000000608082015260a00190565b50600455565b600054604051632d260be760e11b81523360048201526001600160a01b0390911690635a4c17ce90602401602060405180830381865afa158015610cd7573d6000803e3d6000fd5b505050506040513d601f19601f82011682018060405250810190610cfb9190611286565b610d1a576040516307d92ddb60e51b815233600482015260240161027f565b60065460408051828152602081018490527ffc412359346d4878705d935e022c5bf7c40a385b4e462962f31eb785ad7daec2910160405180910390a1818103610da857604080518082018252601e81527f6f6c642076616c75652069732073616d65206173206e65772076616c756500006020820152905162461bcd60e51b815261027f91906004016112af565b68056bc75e2d63100000821115610deb576040518060600160405280603581526020016114816035913960405162461bcd60e51b815260040161027f91906112af565b50600655565b600054604051632d260be760e11b81523360048201526001600160a01b0390911690635a4c17ce90602401602060405180830381865afa158015610e39573d6000803e3d6000fd5b505050506040513d601f19601f82011682018060405250810190610e5d9190611286565b610e7c576040516307d92ddb60e51b815233600482015260240161027f565b60025460408051828152602081018490527f9c1c60340d90a8e95f956f9277d69d2aa09de2bd429705a3bb9713cee078182d910160405180910390a1818103610f0a57604080518082018252601e81527f6f6c642076616c75652069732073616d65206173206e65772076616c756500006020820152905162461bcd60e51b815261027f91906004016112af565b600154821015610f8c578160405163023d531160e01b815260040161027f918152604060208201819052602d908201527f4d6178206c656e6774682063616e6e6f74206265206c657373207468616e207460608201527f6865206d696e206c656e67746800000000000000000000000000000000000000608082015260a00190565b50600255565b60065460009068056bc75e2d630fffff198101610fb25750600092915050565b80600003610fc1575090919050565b600068056bc75e2d63100000610fd78386611313565b610fe1919061141c565b90506000610fef828661143e565b95945050505050565b8051600090819081905b8082101561117e57600085838151811061101e5761101e611451565b01602001516001600160f81b03191690507f800000000000000000000000000000000000000000000000000000000000000081101561106957611062600184611332565b925061116b565b7fe0000000000000000000000000000000000000000000000000000000000000006001600160f81b0319821610156110a657611062600284611332565b7ff0000000000000000000000000000000000000000000000000000000000000006001600160f81b0319821610156110e357611062600384611332565b7ff8000000000000000000000000000000000000000000000000000000000000006001600160f81b03198216101561112057611062600484611332565b7ffc000000000000000000000000000000000000000000000000000000000000006001600160f81b03198216101561115d57611062600584611332565b611168600684611332565b92505b508261117681611467565b935050611002565b50909392505050565b60006020828403121561119957600080fd5b5035919050565b60008083601f8401126111b257600080fd5b50813567ffffffffffffffff8111156111ca57600080fd5b6020830191508360208285010111156111e257600080fd5b9250929050565b600080600080606085870312156111ff57600080fd5b843567ffffffffffffffff81111561121657600080fd5b611222878288016111a0565b90989097506020870135966040013595509350505050565b60008060006040848603121561124f57600080fd5b833567ffffffffffffffff81111561126657600080fd5b611272868287016111a0565b909790965060209590950135949350505050565b60006020828403121561129857600080fd5b815180151581146112a857600080fd5b9392505050565b600060208083528351808285015260005b818110156112dc578581018301518582016040015282016112c0565b506000604082860101526040601f19601f8301168501019250505092915050565b634e487b7160e01b600052601160045260246000fd5b600081600019048311821515161561132d5761132d6112fd565b500290565b80820180821115611345576113456112fd565b92915050565b81835281816020850137506000828201602090810191909152601f909101601f19169091010190565b60408152600061138860408301848661134b565b8281036020840152602081527f4e616d65206973206c657373207468616e206d696e696d756d206c656e6774686020820152604081019150509392505050565b6040815260006113dc60408301848661134b565b8281036020840152601c81527f4e616d65206973206d6f7265207468616e206d6178206c656e677468000000006020820152604081019150509392505050565b60008261143957634e487b7160e01b600052601260045260246000fd5b500490565b81810381811115611345576113456112fd565b634e487b7160e01b600052603260045260246000fd5b600060018201611479576114796112fd565b506001019056fe56616c7565206d7573742062652077697468696e2072616e6765203020746f20313030303030303030303030303030303030303030a26469706673582212205c66f65539bfc88b5e51494d89489fff9f56c8b87bc27e02812477766a73ac4064736f6c63430008100033",
  "linkReferences": {},
  "deployedLinkReferences": {}
}