{"contracts/Access/RegistrarAccessControl.sol":{"RegistrarAccessControl":{"abi":[{"inputs":[],"stateMutability":"nonpayable","type":"constructor"},{"inputs":[{"internalType":"address","name":"sender","type":"address"}],"name":"OnlyOwner","type":"error"},{"anonymous":false,"inputs":[{"indexed":true,"internalType":"bytes32","name":"role","type":"bytes32"},{"indexed":true,"internalType":"bytes32","name":"previousAdminRole","type":"bytes32"},{"indexed":true,"internalType":"bytes32","name":"newAdminRole","type":"bytes32"}],"name":"RoleAdminChanged","type":"event"},{"anonymous":false,"inputs":[{"indexed":true,"internalType":"bytes32","name":"role","type":"bytes32"},{"indexed":true,"internalType":"address","name":"account","type":"address"},{"indexed":true,"internalType":"address","name":"sender","type":"address"}],"name":"RoleGranted","type":"event"},{"anonymous":false,"inputs":[{"indexed":true,"internalType":"bytes32","name":"role","type":"bytes32"},{"indexed":true,"internalType":"address","name":"account","type":"address"},{"indexed":true,"internalType":"address","name":"sender","type":"address"}],"name":"RoleRevoked","type":"event"},{"inputs":[],"name":"DEFAULT_ADMIN_ROLE","outputs":[{"internalType":"bytes32","name":"","type":"bytes32"}],"stateMutability":"view","type":"function"},{"inputs":[{"internalType":"address","name":"highLevelOperator","type":"address"}],"name":"addHighLevelOperator","outputs":[],"stateMutability":"nonpayable","type":"function"},{"inputs":[{"internalType":"bytes32","name":"role","type":"bytes32"}],"name":"getRoleAdmin","outputs":[{"internalType":"bytes32","name":"","type":"bytes32"}],"stateMutability":"view","type":"function"},{"inputs":[{"internalType":"bytes32","name":"role","type":"bytes32"},{"internalType":"address","name":"account","type":"address"}],"name":"grantRole","outputs":[],"stateMutability":"nonpayable","type":"function"},{"inputs":[{"internalType":"bytes32","name":"role","type":"bytes32"},{"internalType":"address","name":"account","type":"address"}],"name":"hasRole","outputs":[{"internalType":"bool","name":"","type":"bool"}],"stateMutability":"view","type":"function"},{"inputs":[{"internalType":"address","name":"highLevelOperator","type":"address"}],"name":"isHighLevelOperator","outputs":[{"internalType":"bool","name":"","type":"bool"}],"stateMutability":"view","type":"function"},{"inputs":[{"internalType":"address","name":"owner","type":"address"}],"name":"isOwnerRole","outputs":[{"internalType":"bool","name":"","type":"bool"}],"stateMutability":"view","type":"function"},{"inputs":[{"internalType":"address","name":"highLevelOperator","type":"address"}],"name":"removeHighLevelOperator","outputs":[],"stateMutability":"nonpayable","type":"function"},{"inputs":[{"internalType":"bytes32","name":"role","type":"bytes32"},{"internalType":"address","name":"account","type":"address"}],"name":"renounceRole","outputs":[],"stateMutability":"nonpayable","type":"function"},{"inputs":[{"internalType":"bytes32","name":"role","type":"bytes32"},{"internalType":"address","name":"account","type":"address"}],"name":"revokeRole","outputs":[],"stateMutability":"nonpayable","type":"function"},{"inputs":[{"internalType":"bytes4","name":"interfaceId","type":"bytes4"}],"name":"supportsInterface","outputs":[{"internalType":"bool","name":"","type":"bool"}],"stateMutability":"view","type":"function"},{"inputs":[{"internalType":"address","name":"newOwner","type":"address"}],"name":"transferOwnership","outputs":[],"stateMutability":"nonpayable","type":"function"}],"devdoc":{"author":"Identity Team @IOVLabs","kind":"dev","methods":{"addHighLevelOperator(address)":{"details":"only user granted as OWNER can perform this operation","params":{"highLevelOperator":"address to grant HIGH_LEVEL_OPERATOR role"}},"constructor":{"details":"Sets OWNER the HIGH_LEVEL_OPERATOR and OWNER roles' admin. Grants deployer address IAccessControl and OWNER roles."},"getRoleAdmin(bytes32)":{"details":"Returns the admin role that controls `role`. See {grantRole} and {revokeRole}. To change a role's admin, use {_setRoleAdmin}."},"grantRole(bytes32,address)":{"details":"Grants `role` to `account`. If `account` had not been already granted `role`, emits a {RoleGranted} event. Requirements: - the caller must have ``role``'s admin role. May emit a {RoleGranted} event."},"hasRole(bytes32,address)":{"details":"Returns `true` if `account` has been granted `role`."},"isHighLevelOperator(address)":{"params":{"highLevelOperator":"address to evaluate if has HIGH_LEVEL_OPERATOR role"},"returns":{"_0":"bool - true if the address has HIGH_LEVEL_OPERATOR role"}},"isOwnerRole(address)":{"params":{"owner":"address to evaluate if has OWNER role"},"returns":{"_0":"bool - true if the owner address has OWNER role"}},"removeHighLevelOperator(address)":{"details":"only user granted as OWNER can perform this operation","params":{"highLevelOperator":"address to revoke HIGH_LEVEL_OPERATOR role"}},"renounceRole(bytes32,address)":{"details":"Revokes `role` from the calling account. Roles are often managed via {grantRole} and {revokeRole}: this function's purpose is to provide a mechanism for accounts to lose their privileges if they are compromised (such as when a trusted device is misplaced). If the calling account had been revoked `role`, emits a {RoleRevoked} event. Requirements: - the caller must be `account`. May emit a {RoleRevoked} event."},"revokeRole(bytes32,address)":{"details":"Revokes `role` from `account`. If `account` had been granted `role`, emits a {RoleRevoked} event. Requirements: - the caller must have ``role``'s admin role. May emit a {RoleRevoked} event."},"supportsInterface(bytes4)":{"details":"See {IERC165-supportsInterface}."},"transferOwnership(address)":{"params":{"newOwner":"address to be grant OWNER and all MANAGER roles."}}},"title":"RegistrarAccessControl","version":1},"evm":{"bytecode":{"linkReferences":{},"object":"608060405234801561001057600080fd5b503361002a600080516020610d8983398151915280610086565b610050600080516020610d69833981519152600080516020610d89833981519152610086565b610068600080516020610d89833981519152826100d1565b610080600080516020610d69833981519152826100d1565b5061017d565b600082815260208190526040808220600101805490849055905190918391839186917fbd79b86ffe0ab8e8776151514217cd7cacd52c909f66475c3af44e129f0b00ff9190a4505050565b6100db82826100df565b5050565b6000828152602081815260408083206001600160a01b038516845290915290205460ff166100db576000828152602081815260408083206001600160a01b03851684529091529020805460ff191660011790556101393390565b6001600160a01b0316816001600160a01b0316837f2f8788117e7eff1d82e926ec794901d17c78024a50270940304540a733656f0d60405160405180910390a45050565b610bdd8061018c6000396000f3fe608060405234801561001057600080fd5b50600436106100d45760003560e01c80634989d54211610081578063a217fddf1161005b578063a217fddf14610218578063d547741f14610220578063f2fde38b1461023357600080fd5b80634989d542146101805780635a4c17ce1461019357806391d14854146101e157600080fd5b8063248a9ca3116100b2578063248a9ca3146101295780632f2ff15d1461015a57806336568abe1461016d57600080fd5b806301ffc9a7146100d95780630e7af6aa146101015780631db79e8914610116575b600080fd5b6100ec6100e7366004610986565b610246565b60405190151581526020015b60405180910390f35b61011461010f3660046109e4565b6102df565b005b6100ec6101243660046109e4565b610362565b61014c6101373660046109ff565b60009081526020819052604090206001015490565b6040519081526020016100f8565b610114610168366004610a18565b6103a2565b61011461017b366004610a18565b6103cc565b61011461018e3660046109e4565b610458565b6100ec6101a13660046109e4565b6001600160a01b03811660009081527f737eb5e19f2026ff367abd61ab0af93ebe48731ede9deb31ef641facd08ddae4602052604081205460ff166102d9565b6100ec6101ef366004610a18565b6000918252602082815260408084206001600160a01b0393909316845291905290205460ff1690565b61014c600081565b61011461022e366004610a18565b6104d3565b6101146102413660046109e4565b6104f8565b60007fffffffff0000000000000000000000000000000000000000000000000000000082167f7965db0b0000000000000000000000000000000000000000000000000000000014806102d957507f01ffc9a7000000000000000000000000000000000000000000000000000000007fffffffff000000000000000000000000000000000000000000000000000000008316145b92915050565b3360009081527f1299b6a38f4cd1a4aadffdac39262d30244a01098753e138ed68abcfd87ee481602052604090205460ff1661033557604051630543601560e11b81523360048201526024015b60405180910390fd5b61035f7ff1dc8234e5d4095ae2606af5c3469409b4777c23b2b1272e4dbca9387c994722826104d3565b50565b6001600160a01b03811660009081527f1299b6a38f4cd1a4aadffdac39262d30244a01098753e138ed68abcfd87ee481602052604081205460ff166102d9565b6000828152602081905260409020600101546103bd816105f2565b6103c783836105fc565b505050565b6001600160a01b038116331461044a5760405162461bcd60e51b815260206004820152602f60248201527f416363657373436f6e74726f6c3a2063616e206f6e6c792072656e6f756e636560448201527f20726f6c657320666f722073656c660000000000000000000000000000000000606482015260840161032c565b610454828261069a565b5050565b3360009081527f1299b6a38f4cd1a4aadffdac39262d30244a01098753e138ed68abcfd87ee481602052604090205460ff166104a957604051630543601560e11b815233600482015260240161032c565b61035f7ff1dc8234e5d4095ae2606af5c3469409b4777c23b2b1272e4dbca9387c994722826103a2565b6000828152602081905260409020600101546104ee816105f2565b6103c7838361069a565b3360009081527f1299b6a38f4cd1a4aadffdac39262d30244a01098753e138ed68abcfd87ee481602052604090205460ff1661054957604051630543601560e11b815233600482015260240161032c565b6105737f6270edb7c868f86fda4adedba75108201087268ea345934db8bad688e1feb91b826103a2565b61059d7ff1dc8234e5d4095ae2606af5c3469409b4777c23b2b1272e4dbca9387c994722826103a2565b336105c87ff1dc8234e5d4095ae2606af5c3469409b4777c23b2b1272e4dbca9387c994722826104d3565b6104547f6270edb7c868f86fda4adedba75108201087268ea345934db8bad688e1feb91b826104d3565b61035f8133610719565b6000828152602081815260408083206001600160a01b038516845290915290205460ff16610454576000828152602081815260408083206001600160a01b03851684529091529020805460ff191660011790556106563390565b6001600160a01b0316816001600160a01b0316837f2f8788117e7eff1d82e926ec794901d17c78024a50270940304540a733656f0d60405160405180910390a45050565b6000828152602081815260408083206001600160a01b038516845290915290205460ff1615610454576000828152602081815260408083206001600160a01b0385168085529252808320805460ff1916905551339285917ff6391f5c32d9c69d2a47ea670b442974b53935d1edc7fd64eb21e047a839171b9190a45050565b6000828152602081815260408083206001600160a01b038516845290915290205460ff166104545761074a8161078c565b61075583602061079e565b604051602001610766929190610a68565b60408051601f198184030181529082905262461bcd60e51b825261032c91600401610ae9565b60606102d96001600160a01b03831660145b606060006107ad836002610b32565b6107b8906002610b51565b67ffffffffffffffff8111156107d0576107d0610b64565b6040519080825280601f01601f1916602001820160405280156107fa576020820181803683370190505b5090507f30000000000000000000000000000000000000000000000000000000000000008160008151811061083157610831610b7a565b60200101906001600160f81b031916908160001a9053507f78000000000000000000000000000000000000000000000000000000000000008160018151811061087c5761087c610b7a565b60200101906001600160f81b031916908160001a90535060006108a0846002610b32565b6108ab906001610b51565b90505b6001811115610930577f303132333435363738396162636465660000000000000000000000000000000085600f16601081106108ec576108ec610b7a565b1a60f81b82828151811061090257610902610b7a565b60200101906001600160f81b031916908160001a90535060049490941c9361092981610b90565b90506108ae565b50831561097f5760405162461bcd60e51b815260206004820181905260248201527f537472696e67733a20686578206c656e67746820696e73756666696369656e74604482015260640161032c565b9392505050565b60006020828403121561099857600080fd5b81357fffffffff000000000000000000000000000000000000000000000000000000008116811461097f57600080fd5b80356001600160a01b03811681146109df57600080fd5b919050565b6000602082840312156109f657600080fd5b61097f826109c8565b600060208284031215610a1157600080fd5b5035919050565b60008060408385031215610a2b57600080fd5b82359150610a3b602084016109c8565b90509250929050565b60005b83811015610a5f578181015183820152602001610a47565b50506000910152565b7f416363657373436f6e74726f6c3a206163636f756e7420000000000000000000815260008351610aa0816017850160208801610a44565b7f206973206d697373696e6720726f6c65200000000000000000000000000000006017918401918201528351610add816028840160208801610a44565b01602801949350505050565b6020815260008251806020840152610b08816040850160208701610a44565b601f01601f19169190910160400192915050565b634e487b7160e01b600052601160045260246000fd5b6000816000190483118215151615610b4c57610b4c610b1c565b500290565b808201808211156102d9576102d9610b1c565b634e487b7160e01b600052604160045260246000fd5b634e487b7160e01b600052603260045260246000fd5b600081610b9f57610b9f610b1c565b50600019019056fea26469706673582212200eec3fe6b123713599a43153c253785a6237a339b9492c5b62112d0e808317f864736f6c63430008100033f1dc8234e5d4095ae2606af5c3469409b4777c23b2b1272e4dbca9387c9947226270edb7c868f86fda4adedba75108201087268ea345934db8bad688e1feb91b","opcodes":"PUSH1 0x80 PUSH1 0x40 MSTORE CALLVALUE DUP1 ISZERO PUSH2 0x10 JUMPI PUSH1 0x0 DUP1 REVERT JUMPDEST POP CALLER PUSH2 0x2A PUSH1 0x0 DUP1 MLOAD PUSH1 0x20 PUSH2 0xD89 DUP4 CODECOPY DUP2 MLOAD SWAP2 MSTORE DUP1 PUSH2 0x86 JUMP JUMPDEST PUSH2 0x50 PUSH1 0x0 DUP1 MLOAD PUSH1 0x20 PUSH2 0xD69 DUP4 CODECOPY DUP2 MLOAD SWAP2 MSTORE PUSH1 0x0 DUP1 MLOAD PUSH1 0x20 PUSH2 0xD89 DUP4 CODECOPY DUP2 MLOAD SWAP2 MSTORE PUSH2 0x86 JUMP JUMPDEST PUSH2 0x68 PUSH1 0x0 DUP1 MLOAD PUSH1 0x20 PUSH2 0xD89 DUP4 CODECOPY DUP2 MLOAD SWAP2 MSTORE DUP3 PUSH2 0xD1 JUMP JUMPDEST PUSH2 0x80 PUSH1 0x0 DUP1 MLOAD PUSH1 0x20 PUSH2 0xD69 DUP4 CODECOPY DUP2 MLOAD SWAP2 MSTORE DUP3 PUSH2 0xD1 JUMP JUMPDEST POP PUSH2 0x17D JUMP JUMPDEST PUSH1 0x0 DUP3 DUP2 MSTORE PUSH1 0x20 DUP2 SWAP1 MSTORE PUSH1 0x40 DUP1 DUP3 KECCAK256 PUSH1 0x1 ADD DUP1 SLOAD SWAP1 DUP5 SWAP1 SSTORE SWAP1 MLOAD SWAP1 SWAP2 DUP4 SWAP2 DUP4 SWAP2 DUP7 SWAP2 PUSH32 0xBD79B86FFE0AB8E8776151514217CD7CACD52C909F66475C3AF44E129F0B00FF SWAP2 SWAP1 LOG4 POP POP POP JUMP JUMPDEST PUSH2 0xDB DUP3 DUP3 PUSH2 0xDF JUMP JUMPDEST POP POP JUMP JUMPDEST PUSH1 0x0 DUP3 DUP2 MSTORE PUSH1 0x20 DUP2 DUP2 MSTORE PUSH1 0x40 DUP1 DUP4 KECCAK256 PUSH1 0x1 PUSH1 0x1 PUSH1 0xA0 SHL SUB DUP6 AND DUP5 MSTORE SWAP1 SWAP2 MSTORE SWAP1 KECCAK256 SLOAD PUSH1 0xFF AND PUSH2 0xDB JUMPI PUSH1 0x0 DUP3 DUP2 MSTORE PUSH1 0x20 DUP2 DUP2 MSTORE PUSH1 0x40 DUP1 DUP4 KECCAK256 PUSH1 0x1 PUSH1 0x1 PUSH1 0xA0 SHL SUB DUP6 AND DUP5 MSTORE SWAP1 SWAP2 MSTORE SWAP1 KECCAK256 DUP1 SLOAD PUSH1 0xFF NOT AND PUSH1 0x1 OR SWAP1 SSTORE PUSH2 0x139 CALLER SWAP1 JUMP JUMPDEST PUSH1 0x1 PUSH1 0x1 PUSH1 0xA0 SHL SUB AND DUP2 PUSH1 0x1 PUSH1 0x1 PUSH1 0xA0 SHL SUB AND DUP4 PUSH32 0x2F8788117E7EFF1D82E926EC794901D17C78024A50270940304540A733656F0D PUSH1 0x40 MLOAD PUSH1 0x40 MLOAD DUP1 SWAP2 SUB SWAP1 LOG4 POP POP JUMP JUMPDEST PUSH2 0xBDD DUP1 PUSH2 0x18C PUSH1 0x0 CODECOPY PUSH1 0x0 RETURN INVALID PUSH1 0x80 PUSH1 0x40 MSTORE CALLVALUE DUP1 ISZERO PUSH2 0x10 JUMPI PUSH1 0x0 DUP1 REVERT JUMPDEST POP PUSH1 0x4 CALLDATASIZE LT PUSH2 0xD4 JUMPI PUSH1 0x0 CALLDATALOAD PUSH1 0xE0 SHR DUP1 PUSH4 0x4989D542 GT PUSH2 0x81 JUMPI DUP1 PUSH4 0xA217FDDF GT PUSH2 0x5B JUMPI DUP1 PUSH4 0xA217FDDF EQ PUSH2 0x218 JUMPI DUP1 PUSH4 0xD547741F EQ PUSH2 0x220 JUMPI DUP1 PUSH4 0xF2FDE38B EQ PUSH2 0x233 JUMPI PUSH1 0x0 DUP1 REVERT JUMPDEST DUP1 PUSH4 0x4989D542 EQ PUSH2 0x180 JUMPI DUP1 PUSH4 0x5A4C17CE EQ PUSH2 0x193 JUMPI DUP1 PUSH4 0x91D14854 EQ PUSH2 0x1E1 JUMPI PUSH1 0x0 DUP1 REVERT JUMPDEST DUP1 PUSH4 0x248A9CA3 GT PUSH2 0xB2 JUMPI DUP1 PUSH4 0x248A9CA3 EQ PUSH2 0x129 JUMPI DUP1 PUSH4 0x2F2FF15D EQ PUSH2 0x15A JUMPI DUP1 PUSH4 0x36568ABE EQ PUSH2 0x16D JUMPI PUSH1 0x0 DUP1 REVERT JUMPDEST DUP1 PUSH4 0x1FFC9A7 EQ PUSH2 0xD9 JUMPI DUP1 PUSH4 0xE7AF6AA EQ PUSH2 0x101 JUMPI DUP1 PUSH4 0x1DB79E89 EQ PUSH2 0x116 JUMPI JUMPDEST PUSH1 0x0 DUP1 REVERT JUMPDEST PUSH2 0xEC PUSH2 0xE7 CALLDATASIZE PUSH1 0x4 PUSH2 0x986 JUMP JUMPDEST PUSH2 0x246 JUMP JUMPDEST PUSH1 0x40 MLOAD SWAP1 ISZERO ISZERO DUP2 MSTORE PUSH1 0x20 ADD JUMPDEST PUSH1 0x40 MLOAD DUP1 SWAP2 SUB SWAP1 RETURN JUMPDEST PUSH2 0x114 PUSH2 0x10F CALLDATASIZE PUSH1 0x4 PUSH2 0x9E4 JUMP JUMPDEST PUSH2 0x2DF JUMP JUMPDEST STOP JUMPDEST PUSH2 0xEC PUSH2 0x124 CALLDATASIZE PUSH1 0x4 PUSH2 0x9E4 JUMP JUMPDEST PUSH2 0x362 JUMP JUMPDEST PUSH2 0x14C PUSH2 0x137 CALLDATASIZE PUSH1 0x4 PUSH2 0x9FF JUMP JUMPDEST PUSH1 0x0 SWAP1 DUP2 MSTORE PUSH1 0x20 DUP2 SWAP1 MSTORE PUSH1 0x40 SWAP1 KECCAK256 PUSH1 0x1 ADD SLOAD SWAP1 JUMP JUMPDEST PUSH1 0x40 MLOAD SWAP1 DUP2 MSTORE PUSH1 0x20 ADD PUSH2 0xF8 JUMP JUMPDEST PUSH2 0x114 PUSH2 0x168 CALLDATASIZE PUSH1 0x4 PUSH2 0xA18 JUMP JUMPDEST PUSH2 0x3A2 JUMP JUMPDEST PUSH2 0x114 PUSH2 0x17B CALLDATASIZE PUSH1 0x4 PUSH2 0xA18 JUMP JUMPDEST PUSH2 0x3CC JUMP JUMPDEST PUSH2 0x114 PUSH2 0x18E CALLDATASIZE PUSH1 0x4 PUSH2 0x9E4 JUMP JUMPDEST PUSH2 0x458 JUMP JUMPDEST PUSH2 0xEC PUSH2 0x1A1 CALLDATASIZE PUSH1 0x4 PUSH2 0x9E4 JUMP JUMPDEST PUSH1 0x1 PUSH1 0x1 PUSH1 0xA0 SHL SUB DUP2 AND PUSH1 0x0 SWAP1 DUP2 MSTORE PUSH32 0x737EB5E19F2026FF367ABD61AB0AF93EBE48731EDE9DEB31EF641FACD08DDAE4 PUSH1 0x20 MSTORE PUSH1 0x40 DUP2 KECCAK256 SLOAD PUSH1 0xFF AND PUSH2 0x2D9 JUMP JUMPDEST PUSH2 0xEC PUSH2 0x1EF CALLDATASIZE PUSH1 0x4 PUSH2 0xA18 JUMP JUMPDEST PUSH1 0x0 SWAP2 DUP3 MSTORE PUSH1 0x20 DUP3 DUP2 MSTORE PUSH1 0x40 DUP1 DUP5 KECCAK256 PUSH1 0x1 PUSH1 0x1 PUSH1 0xA0 SHL SUB SWAP4 SWAP1 SWAP4 AND DUP5 MSTORE SWAP2 SWAP1 MSTORE SWAP1 KECCAK256 SLOAD PUSH1 0xFF AND SWAP1 JUMP JUMPDEST PUSH2 0x14C PUSH1 0x0 DUP2 JUMP JUMPDEST PUSH2 0x114 PUSH2 0x22E CALLDATASIZE PUSH1 0x4 PUSH2 0xA18 JUMP JUMPDEST PUSH2 0x4D3 JUMP JUMPDEST PUSH2 0x114 PUSH2 0x241 CALLDATASIZE PUSH1 0x4 PUSH2 0x9E4 JUMP JUMPDEST PUSH2 0x4F8 JUMP JUMPDEST PUSH1 0x0 PUSH32 0xFFFFFFFF00000000000000000000000000000000000000000000000000000000 DUP3 AND PUSH32 0x7965DB0B00000000000000000000000000000000000000000000000000000000 EQ DUP1 PUSH2 0x2D9 JUMPI POP PUSH32 0x1FFC9A700000000000000000000000000000000000000000000000000000000 PUSH32 0xFFFFFFFF00000000000000000000000000000000000000000000000000000000 DUP4 AND EQ JUMPDEST SWAP3 SWAP2 POP POP JUMP JUMPDEST CALLER PUSH1 0x0 SWAP1 DUP2 MSTORE PUSH32 0x1299B6A38F4CD1A4AADFFDAC39262D30244A01098753E138ED68ABCFD87EE481 PUSH1 0x20 MSTORE PUSH1 0x40 SWAP1 KECCAK256 SLOAD PUSH1 0xFF AND PUSH2 0x335 JUMPI PUSH1 0x40 MLOAD PUSH4 0x5436015 PUSH1 0xE1 SHL DUP2 MSTORE CALLER PUSH1 0x4 DUP3 ADD MSTORE PUSH1 0x24 ADD JUMPDEST PUSH1 0x40 MLOAD DUP1 SWAP2 SUB SWAP1 REVERT JUMPDEST PUSH2 0x35F PUSH32 0xF1DC8234E5D4095AE2606AF5C3469409B4777C23B2B1272E4DBCA9387C994722 DUP3 PUSH2 0x4D3 JUMP JUMPDEST POP JUMP JUMPDEST PUSH1 0x1 PUSH1 0x1 PUSH1 0xA0 SHL SUB DUP2 AND PUSH1 0x0 SWAP1 DUP2 MSTORE PUSH32 0x1299B6A38F4CD1A4AADFFDAC39262D30244A01098753E138ED68ABCFD87EE481 PUSH1 0x20 MSTORE PUSH1 0x40 DUP2 KECCAK256 SLOAD PUSH1 0xFF AND PUSH2 0x2D9 JUMP JUMPDEST PUSH1 0x0 DUP3 DUP2 MSTORE PUSH1 0x20 DUP2 SWAP1 MSTORE PUSH1 0x40 SWAP1 KECCAK256 PUSH1 0x1 ADD SLOAD PUSH2 0x3BD DUP2 PUSH2 0x5F2 JUMP JUMPDEST PUSH2 0x3C7 DUP4 DUP4 PUSH2 0x5FC JUMP JUMPDEST POP POP POP JUMP JUMPDEST PUSH1 0x1 PUSH1 0x1 PUSH1 0xA0 SHL SUB DUP2 AND CALLER EQ PUSH2 0x44A JUMPI PUSH1 0x40 MLOAD PUSH3 0x461BCD PUSH1 0xE5 SHL DUP2 MSTORE PUSH1 0x20 PUSH1 0x4 DUP3 ADD MSTORE PUSH1 0x2F PUSH1 0x24 DUP3 ADD MSTORE PUSH32 0x416363657373436F6E74726F6C3A2063616E206F6E6C792072656E6F756E6365 PUSH1 0x44 DUP3 ADD MSTORE PUSH32 0x20726F6C657320666F722073656C660000000000000000000000000000000000 PUSH1 0x64 DUP3 ADD MSTORE PUSH1 0x84 ADD PUSH2 0x32C JUMP JUMPDEST PUSH2 0x454 DUP3 DUP3 PUSH2 0x69A JUMP JUMPDEST POP POP JUMP JUMPDEST CALLER PUSH1 0x0 SWAP1 DUP2 MSTORE PUSH32 0x1299B6A38F4CD1A4AADFFDAC39262D30244A01098753E138ED68ABCFD87EE481 PUSH1 0x20 MSTORE PUSH1 0x40 SWAP1 KECCAK256 SLOAD PUSH1 0xFF AND PUSH2 0x4A9 JUMPI PUSH1 0x40 MLOAD PUSH4 0x5436015 PUSH1 0xE1 SHL DUP2 MSTORE CALLER PUSH1 0x4 DUP3 ADD MSTORE PUSH1 0x24 ADD PUSH2 0x32C JUMP JUMPDEST PUSH2 0x35F PUSH32 0xF1DC8234E5D4095AE2606AF5C3469409B4777C23B2B1272E4DBCA9387C994722 DUP3 PUSH2 0x3A2 JUMP JUMPDEST PUSH1 0x0 DUP3 DUP2 MSTORE PUSH1 0x20 DUP2 SWAP1 MSTORE PUSH1 0x40 SWAP1 KECCAK256 PUSH1 0x1 ADD SLOAD PUSH2 0x4EE DUP2 PUSH2 0x5F2 JUMP JUMPDEST PUSH2 0x3C7 DUP4 DUP4 PUSH2 0x69A JUMP JUMPDEST CALLER PUSH1 0x0 SWAP1 DUP2 MSTORE PUSH32 0x1299B6A38F4CD1A4AADFFDAC39262D30244A01098753E138ED68ABCFD87EE481 PUSH1 0x20 MSTORE PUSH1 0x40 SWAP1 KECCAK256 SLOAD PUSH1 0xFF AND PUSH2 0x549 JUMPI PUSH1 0x40 MLOAD PUSH4 0x5436015 PUSH1 0xE1 SHL DUP2 MSTORE CALLER PUSH1 0x4 DUP3 ADD MSTORE PUSH1 0x24 ADD PUSH2 0x32C JUMP JUMPDEST PUSH2 0x573 PUSH32 0x6270EDB7C868F86FDA4ADEDBA75108201087268EA345934DB8BAD688E1FEB91B DUP3 PUSH2 0x3A2 JUMP JUMPDEST PUSH2 0x59D PUSH32 0xF1DC8234E5D4095AE2606AF5C3469409B4777C23B2B1272E4DBCA9387C994722 DUP3 PUSH2 0x3A2 JUMP JUMPDEST CALLER PUSH2 0x5C8 PUSH32 0xF1DC8234E5D4095AE2606AF5C3469409B4777C23B2B1272E4DBCA9387C994722 DUP3 PUSH2 0x4D3 JUMP JUMPDEST PUSH2 0x454 PUSH32 0x6270EDB7C868F86FDA4ADEDBA75108201087268EA345934DB8BAD688E1FEB91B DUP3 PUSH2 0x4D3 JUMP JUMPDEST PUSH2 0x35F DUP2 CALLER PUSH2 0x719 JUMP JUMPDEST PUSH1 0x0 DUP3 DUP2 MSTORE PUSH1 0x20 DUP2 DUP2 MSTORE PUSH1 0x40 DUP1 DUP4 KECCAK256 PUSH1 0x1 PUSH1 0x1 PUSH1 0xA0 SHL SUB DUP6 AND DUP5 MSTORE SWAP1 SWAP2 MSTORE SWAP1 KECCAK256 SLOAD PUSH1 0xFF AND PUSH2 0x454 JUMPI PUSH1 0x0 DUP3 DUP2 MSTORE PUSH1 0x20 DUP2 DUP2 MSTORE PUSH1 0x40 DUP1 DUP4 KECCAK256 PUSH1 0x1 PUSH1 0x1 PUSH1 0xA0 SHL SUB DUP6 AND DUP5 MSTORE SWAP1 SWAP2 MSTORE SWAP1 KECCAK256 DUP1 SLOAD PUSH1 0xFF NOT AND PUSH1 0x1 OR SWAP1 SSTORE PUSH2 0x656 CALLER SWAP1 JUMP JUMPDEST PUSH1 0x1 PUSH1 0x1 PUSH1 0xA0 SHL SUB AND DUP2 PUSH1 0x1 PUSH1 0x1 PUSH1 0xA0 SHL SUB AND DUP4 PUSH32 0x2F8788117E7EFF1D82E926EC794901D17C78024A50270940304540A733656F0D PUSH1 0x40 MLOAD PUSH1 0x40 MLOAD DUP1 SWAP2 SUB SWAP1 LOG4 POP POP JUMP JUMPDEST PUSH1 0x0 DUP3 DUP2 MSTORE PUSH1 0x20 DUP2 DUP2 MSTORE PUSH1 0x40 DUP1 DUP4 KECCAK256 PUSH1 0x1 PUSH1 0x1 PUSH1 0xA0 SHL SUB DUP6 AND DUP5 MSTORE SWAP1 SWAP2 MSTORE SWAP1 KECCAK256 SLOAD PUSH1 0xFF AND ISZERO PUSH2 0x454 JUMPI PUSH1 0x0 DUP3 DUP2 MSTORE PUSH1 0x20 DUP2 DUP2 MSTORE PUSH1 0x40 DUP1 DUP4 KECCAK256 PUSH1 0x1 PUSH1 0x1 PUSH1 0xA0 SHL SUB DUP6 AND DUP1 DUP6 MSTORE SWAP3 MSTORE DUP1 DUP4 KECCAK256 DUP1 SLOAD PUSH1 0xFF NOT AND SWAP1 SSTORE MLOAD CALLER SWAP3 DUP6 SWAP2 PUSH32 0xF6391F5C32D9C69D2A47EA670B442974B53935D1EDC7FD64EB21E047A839171B SWAP2 SWAP1 LOG4 POP POP JUMP JUMPDEST PUSH1 0x0 DUP3 DUP2 MSTORE PUSH1 0x20 DUP2 DUP2 MSTORE PUSH1 0x40 DUP1 DUP4 KECCAK256 PUSH1 0x1 PUSH1 0x1 PUSH1 0xA0 SHL SUB DUP6 AND DUP5 MSTORE SWAP1 SWAP2 MSTORE SWAP1 KECCAK256 SLOAD PUSH1 0xFF AND PUSH2 0x454 JUMPI PUSH2 0x74A DUP2 PUSH2 0x78C JUMP JUMPDEST PUSH2 0x755 DUP4 PUSH1 0x20 PUSH2 0x79E JUMP JUMPDEST PUSH1 0x40 MLOAD PUSH1 0x20 ADD PUSH2 0x766 SWAP3 SWAP2 SWAP1 PUSH2 0xA68 JUMP JUMPDEST PUSH1 0x40 DUP1 MLOAD PUSH1 0x1F NOT DUP2 DUP5 SUB ADD DUP2 MSTORE SWAP1 DUP3 SWAP1 MSTORE PUSH3 0x461BCD PUSH1 0xE5 SHL DUP3 MSTORE PUSH2 0x32C SWAP2 PUSH1 0x4 ADD PUSH2 0xAE9 JUMP JUMPDEST PUSH1 0x60 PUSH2 0x2D9 PUSH1 0x1 PUSH1 0x1 PUSH1 0xA0 SHL SUB DUP4 AND PUSH1 0x14 JUMPDEST PUSH1 0x60 PUSH1 0x0 PUSH2 0x7AD DUP4 PUSH1 0x2 PUSH2 0xB32 JUMP JUMPDEST PUSH2 0x7B8 SWAP1 PUSH1 0x2 PUSH2 0xB51 JUMP JUMPDEST PUSH8 0xFFFFFFFFFFFFFFFF DUP2 GT ISZERO PUSH2 0x7D0 JUMPI PUSH2 0x7D0 PUSH2 0xB64 JUMP JUMPDEST PUSH1 0x40 MLOAD SWAP1 DUP1 DUP3 MSTORE DUP1 PUSH1 0x1F ADD PUSH1 0x1F NOT AND PUSH1 0x20 ADD DUP3 ADD PUSH1 0x40 MSTORE DUP1 ISZERO PUSH2 0x7FA JUMPI PUSH1 0x20 DUP3 ADD DUP2 DUP1 CALLDATASIZE DUP4 CALLDATACOPY ADD SWAP1 POP JUMPDEST POP SWAP1 POP PUSH32 0x3000000000000000000000000000000000000000000000000000000000000000 DUP2 PUSH1 0x0 DUP2 MLOAD DUP2 LT PUSH2 0x831 JUMPI PUSH2 0x831 PUSH2 0xB7A JUMP JUMPDEST PUSH1 0x20 ADD ADD SWAP1 PUSH1 0x1 PUSH1 0x1 PUSH1 0xF8 SHL SUB NOT AND SWAP1 DUP2 PUSH1 0x0 BYTE SWAP1 MSTORE8 POP PUSH32 0x7800000000000000000000000000000000000000000000000000000000000000 DUP2 PUSH1 0x1 DUP2 MLOAD DUP2 LT PUSH2 0x87C JUMPI PUSH2 0x87C PUSH2 0xB7A JUMP JUMPDEST PUSH1 0x20 ADD ADD SWAP1 PUSH1 0x1 PUSH1 0x1 PUSH1 0xF8 SHL SUB NOT AND SWAP1 DUP2 PUSH1 0x0 BYTE SWAP1 MSTORE8 POP PUSH1 0x0 PUSH2 0x8A0 DUP5 PUSH1 0x2 PUSH2 0xB32 JUMP JUMPDEST PUSH2 0x8AB SWAP1 PUSH1 0x1 PUSH2 0xB51 JUMP JUMPDEST SWAP1 POP JUMPDEST PUSH1 0x1 DUP2 GT ISZERO PUSH2 0x930 JUMPI PUSH32 0x3031323334353637383961626364656600000000000000000000000000000000 DUP6 PUSH1 0xF AND PUSH1 0x10 DUP2 LT PUSH2 0x8EC JUMPI PUSH2 0x8EC PUSH2 0xB7A JUMP JUMPDEST BYTE PUSH1 0xF8 SHL DUP3 DUP3 DUP2 MLOAD DUP2 LT PUSH2 0x902 JUMPI PUSH2 0x902 PUSH2 0xB7A JUMP JUMPDEST PUSH1 0x20 ADD ADD SWAP1 PUSH1 0x1 PUSH1 0x1 PUSH1 0xF8 SHL SUB NOT AND SWAP1 DUP2 PUSH1 0x0 BYTE SWAP1 MSTORE8 POP PUSH1 0x4 SWAP5 SWAP1 SWAP5 SHR SWAP4 PUSH2 0x929 DUP2 PUSH2 0xB90 JUMP JUMPDEST SWAP1 POP PUSH2 0x8AE JUMP JUMPDEST POP DUP4 ISZERO PUSH2 0x97F JUMPI PUSH1 0x40 MLOAD PUSH3 0x461BCD PUSH1 0xE5 SHL DUP2 MSTORE PUSH1 0x20 PUSH1 0x4 DUP3 ADD DUP2 SWAP1 MSTORE PUSH1 0x24 DUP3 ADD MSTORE PUSH32 0x537472696E67733A20686578206C656E67746820696E73756666696369656E74 PUSH1 0x44 DUP3 ADD MSTORE PUSH1 0x64 ADD PUSH2 0x32C JUMP JUMPDEST SWAP4 SWAP3 POP POP POP JUMP JUMPDEST PUSH1 0x0 PUSH1 0x20 DUP3 DUP5 SUB SLT ISZERO PUSH2 0x998 JUMPI PUSH1 0x0 DUP1 REVERT JUMPDEST DUP2 CALLDATALOAD PUSH32 0xFFFFFFFF00000000000000000000000000000000000000000000000000000000 DUP2 AND DUP2 EQ PUSH2 0x97F JUMPI PUSH1 0x0 DUP1 REVERT JUMPDEST DUP1 CALLDATALOAD PUSH1 0x1 PUSH1 0x1 PUSH1 0xA0 SHL SUB DUP2 AND DUP2 EQ PUSH2 0x9DF JUMPI PUSH1 0x0 DUP1 REVERT JUMPDEST SWAP2 SWAP1 POP JUMP JUMPDEST PUSH1 0x0 PUSH1 0x20 DUP3 DUP5 SUB SLT ISZERO PUSH2 0x9F6 JUMPI PUSH1 0x0 DUP1 REVERT JUMPDEST PUSH2 0x97F DUP3 PUSH2 0x9C8 JUMP JUMPDEST PUSH1 0x0 PUSH1 0x20 DUP3 DUP5 SUB SLT ISZERO PUSH2 0xA11 JUMPI PUSH1 0x0 DUP1 REVERT JUMPDEST POP CALLDATALOAD SWAP2 SWAP1 POP JUMP JUMPDEST PUSH1 0x0 DUP1 PUSH1 0x40 DUP4 DUP6 SUB SLT ISZERO PUSH2 0xA2B JUMPI PUSH1 0x0 DUP1 REVERT JUMPDEST DUP3 CALLDATALOAD SWAP2 POP PUSH2 0xA3B PUSH1 0x20 DUP5 ADD PUSH2 0x9C8 JUMP JUMPDEST SWAP1 POP SWAP3 POP SWAP3 SWAP1 POP JUMP JUMPDEST PUSH1 0x0 JUMPDEST DUP4 DUP2 LT ISZERO PUSH2 0xA5F JUMPI DUP2 DUP2 ADD MLOAD DUP4 DUP3 ADD MSTORE PUSH1 0x20 ADD PUSH2 0xA47 JUMP JUMPDEST POP POP PUSH1 0x0 SWAP2 ADD MSTORE JUMP JUMPDEST PUSH32 0x416363657373436F6E74726F6C3A206163636F756E7420000000000000000000 DUP2 MSTORE PUSH1 0x0 DUP4 MLOAD PUSH2 0xAA0 DUP2 PUSH1 0x17 DUP6 ADD PUSH1 0x20 DUP9 ADD PUSH2 0xA44 JUMP JUMPDEST PUSH32 0x206973206D697373696E6720726F6C6520000000000000000000000000000000 PUSH1 0x17 SWAP2 DUP5 ADD SWAP2 DUP3 ADD MSTORE DUP4 MLOAD PUSH2 0xADD DUP2 PUSH1 0x28 DUP5 ADD PUSH1 0x20 DUP9 ADD PUSH2 0xA44 JUMP JUMPDEST ADD PUSH1 0x28 ADD SWAP5 SWAP4 POP POP POP POP JUMP JUMPDEST PUSH1 0x20 DUP2 MSTORE PUSH1 0x0 DUP3 MLOAD DUP1 PUSH1 0x20 DUP5 ADD MSTORE PUSH2 0xB08 DUP2 PUSH1 0x40 DUP6 ADD PUSH1 0x20 DUP8 ADD PUSH2 0xA44 JUMP JUMPDEST PUSH1 0x1F ADD PUSH1 0x1F NOT AND SWAP2 SWAP1 SWAP2 ADD PUSH1 0x40 ADD SWAP3 SWAP2 POP POP JUMP JUMPDEST PUSH4 0x4E487B71 PUSH1 0xE0 SHL PUSH1 0x0 MSTORE PUSH1 0x11 PUSH1 0x4 MSTORE PUSH1 0x24 PUSH1 0x0 REVERT JUMPDEST PUSH1 0x0 DUP2 PUSH1 0x0 NOT DIV DUP4 GT DUP3 ISZERO ISZERO AND ISZERO PUSH2 0xB4C JUMPI PUSH2 0xB4C PUSH2 0xB1C JUMP JUMPDEST POP MUL SWAP1 JUMP JUMPDEST DUP1 DUP3 ADD DUP1 DUP3 GT ISZERO PUSH2 0x2D9 JUMPI PUSH2 0x2D9 PUSH2 0xB1C JUMP JUMPDEST PUSH4 0x4E487B71 PUSH1 0xE0 SHL PUSH1 0x0 MSTORE PUSH1 0x41 PUSH1 0x4 MSTORE PUSH1 0x24 PUSH1 0x0 REVERT JUMPDEST PUSH4 0x4E487B71 PUSH1 0xE0 SHL PUSH1 0x0 MSTORE PUSH1 0x32 PUSH1 0x4 MSTORE PUSH1 0x24 PUSH1 0x0 REVERT JUMPDEST PUSH1 0x0 DUP2 PUSH2 0xB9F JUMPI PUSH2 0xB9F PUSH2 0xB1C JUMP JUMPDEST POP PUSH1 0x0 NOT ADD SWAP1 JUMP INVALID LOG2 PUSH5 0x6970667358 0x22 SLT KECCAK256 0xE 0xEC EXTCODEHASH 0xE6 0xB1 0x23 PUSH18 0x3599A43153C253785A6237A339B9492C5B62 GT 0x2D 0xE DUP1 DUP4 OR 0xF8 PUSH5 0x736F6C6343 STOP ADDMOD LT STOP CALLER CALL 0xDC DUP3 CALLVALUE 0xE5 0xD4 MULMOD GAS 0xE2 PUSH1 0x6A CREATE2 0xC3 CHAINID SWAP5 MULMOD 0xB4 PUSH24 0x7C23B2B1272E4DBCA9387C9947226270EDB7C868F86FDA4A 0xDE 0xDB 0xA7 MLOAD ADDMOD KECCAK256 LT DUP8 0x26 DUP15 LOG3 GASLIMIT SWAP4 0x4D 0xB8 0xBA 0xD6 DUP9 0xE1 INVALID 0xB9 SHL "},"methodIdentifiers":{"DEFAULT_ADMIN_ROLE()":"a217fddf","addHighLevelOperator(address)":"4989d542","getRoleAdmin(bytes32)":"248a9ca3","grantRole(bytes32,address)":"2f2ff15d","hasRole(bytes32,address)":"91d14854","isHighLevelOperator(address)":"5a4c17ce","isOwnerRole(address)":"1db79e89","removeHighLevelOperator(address)":"0e7af6aa","renounceRole(bytes32,address)":"36568abe","revokeRole(bytes32,address)":"d547741f","supportsInterface(bytes4)":"01ffc9a7","transferOwnership(address)":"f2fde38b"}},"storageLayout":{"storage":[{"astId":24,"contract":"contracts/Access/RegistrarAccessControl.sol:RegistrarAccessControl","label":"_roles","offset":0,"slot":"0","type":"t_mapping(t_bytes32,t_struct(RoleData)19_storage)"}],"types":{"t_address":{"encoding":"inplace","label":"address","numberOfBytes":"20"},"t_bool":{"encoding":"inplace","label":"bool","numberOfBytes":"1"},"t_bytes32":{"encoding":"inplace","label":"bytes32","numberOfBytes":"32"},"t_mapping(t_address,t_bool)":{"encoding":"mapping","key":"t_address","label":"mapping(address => bool)","numberOfBytes":"32","value":"t_bool"},"t_mapping(t_bytes32,t_struct(RoleData)19_storage)":{"encoding":"mapping","key":"t_bytes32","label":"mapping(bytes32 => struct AccessControl.RoleData)","numberOfBytes":"32","value":"t_struct(RoleData)19_storage"},"t_struct(RoleData)19_storage":{"encoding":"inplace","label":"struct AccessControl.RoleData","members":[{"astId":16,"contract":"contracts/Access/RegistrarAccessControl.sol:RegistrarAccessControl","label":"members","offset":0,"slot":"0","type":"t_mapping(t_address,t_bool)"},{"astId":18,"contract":"contracts/Access/RegistrarAccessControl.sol:RegistrarAccessControl","label":"adminRole","offset":0,"slot":"1","type":"t_bytes32"}],"numberOfBytes":"64"}}},"userdoc":{"kind":"user","methods":{"addHighLevelOperator(address)":{"notice":"Grants address all HIGH_LEVEL_OPERATOR roles. Only executable by the owner."},"isHighLevelOperator(address)":{"notice":"Returns `true` if address has been granted the HIGH_LEVEL_OPERATOR role."},"isOwnerRole(address)":{"notice":"Returns `true` if address has been granted the OWNER role."},"removeHighLevelOperator(address)":{"notice":"Revokes address all HIGH_LEVEL_OPERATOR roles. Only executable by the owner."},"transferOwnership(address)":{"notice":"Transfers all OWNER and HIGH_LEVEL_OPERATOR roles to the given address."}},"notice":"Defines Access Control roles management","version":1}}}}