{"contracts/Registrar/PartnerRegistrar.sol":{"PartnerRegistrar":{"abi":[{"inputs":[{"internalType":"contract IAccessControl","name":"accessControl","type":"address"},{"internalType":"contract NodeOwner","name":"nodeOwner","type":"address"},{"internalType":"contract IERC677","name":"rif","type":"address"},{"internalType":"contract IPartnerManager","name":"partnerManager","type":"address"},{"internalType":"contract RNS","name":"rns","type":"address"},{"internalType":"bytes32","name":"rootNode","type":"bytes32"}],"stateMutability":"nonpayable","type":"constructor"},{"inputs":[{"internalType":"address","name":"sender","type":"address"}],"name":"OnlyHighLevelOperator","type":"error"},{"anonymous":false,"inputs":[{"indexed":false,"internalType":"address","name":"hostContract","type":"address"},{"indexed":false,"internalType":"address","name":"feeManagerContract","type":"address"}],"name":"FeeManagerChanged","type":"event"},{"anonymous":false,"inputs":[{"indexed":true,"internalType":"address","name":"partner","type":"address"},{"indexed":false,"internalType":"uint256","name":"duration","type":"uint256"}],"name":"NameRegistered","type":"event"},{"inputs":[{"internalType":"bytes32","name":"commitment","type":"bytes32"}],"name":"canReveal","outputs":[{"internalType":"bool","name":"","type":"bool"}],"stateMutability":"view","type":"function"},{"inputs":[{"internalType":"bytes32","name":"commitment","type":"bytes32"},{"internalType":"address","name":"partner","type":"address"}],"name":"commit","outputs":[],"stateMutability":"nonpayable","type":"function"},{"inputs":[],"name":"getPartnerManager","outputs":[{"internalType":"contract IPartnerManager","name":"","type":"address"}],"stateMutability":"view","type":"function"},{"inputs":[{"internalType":"bytes32","name":"label","type":"bytes32"},{"internalType":"address","name":"nameOwner","type":"address"},{"internalType":"bytes32","name":"secret","type":"bytes32"},{"internalType":"uint256","name":"duration","type":"uint256"},{"internalType":"address","name":"addr","type":"address"}],"name":"makeCommitment","outputs":[{"internalType":"bytes32","name":"","type":"bytes32"}],"stateMutability":"pure","type":"function"},{"inputs":[{"internalType":"string","name":"name","type":"string"},{"internalType":"uint256","name":"expires","type":"uint256"},{"internalType":"uint256","name":"duration","type":"uint256"},{"internalType":"address","name":"partner","type":"address"}],"name":"price","outputs":[{"internalType":"uint256","name":"","type":"uint256"}],"stateMutability":"view","type":"function"},{"inputs":[{"internalType":"string","name":"name","type":"string"},{"internalType":"address","name":"nameOwner","type":"address"},{"internalType":"bytes32","name":"secret","type":"bytes32"},{"internalType":"uint256","name":"duration","type":"uint256"},{"internalType":"address","name":"addr","type":"address"},{"internalType":"address","name":"partner","type":"address"}],"name":"register","outputs":[],"stateMutability":"nonpayable","type":"function"},{"inputs":[{"internalType":"contract IFeeManager","name":"feeManager","type":"address"}],"name":"setFeeManager","outputs":[],"stateMutability":"nonpayable","type":"function"},{"inputs":[{"internalType":"address","name":"from","type":"address"},{"internalType":"uint256","name":"value","type":"uint256"},{"internalType":"bytes","name":"data","type":"bytes"}],"name":"tokenFallback","outputs":[{"internalType":"bool","name":"","type":"bool"}],"stateMutability":"nonpayable","type":"function"}],"devdoc":{"author":"Identity Team @IOVLabs","kind":"dev","methods":{"canReveal(bytes32)":{"params":{"commitment":"the commitment of the name"},"returns":{"_0":"true if the name is ready to be registered"}},"commit(bytes32,address)":{"params":{"commitment":"the commitment of the name","partner":"Partner address"}},"makeCommitment(bytes32,address,bytes32,uint256,address)":{"params":{"addr":"to be resolved to the name as default","duration":"the duration of the registration in years","label":"the label of the name","nameOwner":"the owner of the name","secret":"used in the commitment step if required"},"returns":{"_0":"the commitment of the name"}},"price(string,uint256,uint256,address)":{"params":{"duration":"the duration of the registration in years","expires":"the expiration date of the name","name":"the name to register","partner":"Partner address"},"returns":{"_0":"the price of the name"}},"register(string,address,bytes32,uint256,address,address)":{"custom:emits-event":"emits the NameRegistered event","details":"This method must be called after commiting.","params":{"addr":"Address to set as addr resolution.","duration":"Time to register in years.","name":"The name to register.","nameOwner":"The owner of the name to regiter.","partner":"Partner address","secret":"The secret used to make the commitment."}},"setFeeManager(address)":{"params":{"feeManager":"the fee manager to use"}},"tokenFallback(address,uint256,bytes)":{"details":"Follow 'Register encoding' to execute a one-transaction regitration.","params":{"data":"data associated with transaction.","from":"token sender.","value":"amount of tokens sent."},"returns":{"_0":"true if successfull."}}},"title":"Implements the interface IBaseRegistrar to register names in RNS. Takes into account the partners for the revenue sharing.","version":1},"evm":{"bytecode":{"linkReferences":{},"object":"60806040523480156200001157600080fd5b5060405162001cb638038062001cb68339810160408190526200003491620000b4565b600080546001600160a01b03199081166001600160a01b03988916179091556002805482169688169690961790955560038054861694871694909417909355600480548516928616929092179091556006805490931693169290921790556007556200013c565b6001600160a01b0381168114620000b157600080fd5b50565b60008060008060008060c08789031215620000ce57600080fd5b8651620000db816200009b565b6020880151909650620000ee816200009b565b604088015190955062000101816200009b565b606088015190945062000114816200009b565b608088015190935062000127816200009b565b8092505060a087015190509295509295509295565b611b6a806200014c6000396000f3fe608060405234801561001057600080fd5b50600436106100885760003560e01c8063e0dfa3c81161005b578063e0dfa3c8146100fe578063e4f396aa14610166578063ed18658214610181578063ed80c1a71461019457600080fd5b8063472d35b91461008d5780635a746101146100a257806389fce619146100b5578063c0ee0b8a146100db575b600080fd5b6100a061009b366004611727565b6101a7565b005b6100a06100b0366004611744565b610341565b6100c86100c33660046117bd565b6104de565b6040519081526020015b60405180910390f35b6100ee6100e9366004611828565b610584565b60405190151581526020016100d2565b6100c861010c366004611884565b604080516020808201979097526bffffffffffffffffffffffff19606096871b81168284015260548201959095526074810193909352931b90911660948201528151808203608801815260a8909101909152805191012090565b6004546040516001600160a01b0390911681526020016100d2565b6100ee61018f3660046118cc565b6108e7565b6100a06101a23660046118e5565b61090c565b6000546040517f5a4c17ce0000000000000000000000000000000000000000000000000000000081523360048201526001600160a01b0390911690635a4c17ce90602401602060405180830381865afa158015610208573d6000803e3d6000fd5b505050506040513d601f19601f8201168201806040525081019061022c9190611975565b610269576040517ffb25bb600000000000000000000000000000000000000000000000000000000081523360048201526024015b60405180910390fd5b6005546001600160a01b038083169116036102c65760405162461bcd60e51b815260206004820152601e60248201527f6f6c642076616c75652069732073616d65206173206e65772076616c756500006044820152606401610260565b604080513081526001600160a01b03831660208201527facbd074db1a997c1632eb3d55a4c9813e0883267f14740568d0535dc23077ce4910160405180910390a1600580547fffffffffffffffffffffffff0000000000000000000000000000000000000000166001600160a01b0392909216919091179055565b600061034c82610b22565b9050806001600160a01b031663172152506040518163ffffffff1660e01b8152600401602060405180830381865afa15801561038c573d6000803e3d6000fd5b505050506040513d601f19601f820116820180604052508101906103b09190611997565b6000036103ff5760405162461bcd60e51b815260206004820152601760248201527f436f6d6d69746d656e74206e6f742072657175697265640000000000000000006044820152606401610260565b6000838152600160205260409020541561045b5760405162461bcd60e51b815260206004820152601360248201527f4578697374656e7420636f6d6d69746d656e74000000000000000000000000006044820152606401610260565b806001600160a01b031663172152506040518163ffffffff1660e01b8152600401602060405180830381865afa158015610499573d6000803e3d6000fd5b505050506040513d601f19601f820116820180604052508101906104bd9190611997565b6104c790426119df565b600093845260016020526040909320929092555050565b6000806104ea83610b22565b6040517fb7fc1b940000000000000000000000000000000000000000000000000000000081529091506001600160a01b0382169063b7fc1b9490610538908a908a908a908a906004016119f2565b602060405180830381865afa158015610555573d6000803e3d6000fd5b505050506040513d601f19601f820116820180604052508101906105799190611997565b979650505050505050565b6003546000906001600160a01b031633146105e15760405162461bcd60e51b815260206004820152600e60248201527f4f6e6c792052494620746f6b656e0000000000000000000000000000000000006044820152606401610260565b608082116106315760405162461bcd60e51b815260206004820152600c60248201527f496e76616c6964206461746100000000000000000000000000000000000000006044820152606401610260565b6000610677600085858080601f0160208091040260200160405190810160405280939291908181526020018383808284376000920191909152509293925050610c619050565b90507fffffffff0000000000000000000000000000000000000000000000000000000081167f646c3681000000000000000000000000000000000000000000000000000000001461070a5760405162461bcd60e51b815260206004820152601160248201527f496e76616c6964207369676e61747572650000000000000000000000000000006044820152606401610260565b6000610750600486868080601f0160208091040260200160405190810160405280939291908181526020018383808284376000920191909152509293925050610cbc9050565b90506000610798601887878080601f0160208091040260200160405190810160405280939291908181526020018383808284376000920191909152509293925050610d1a9050565b905060006107e0603888888080601f0160208091040260200160405190810160405280939291908181526020018383808284376000920191909152509293925050610d2c9050565b90506000610828605889898080601f0160208091040260200160405190810160405280939291908181526020018383808284376000920191909152509293925050610cbc9050565b90506000610870606c8a8a8080601f0160208091040260200160405190810160405280939291908181526020018383808284376000920191909152509293925050610cbc9050565b905060006108c36080610883818c611a32565b8c8c8080601f016020809104026020016040519081016040528093929190818152602001838380828437600092019190915250929493925050610d389050565b90506108d58c8c8388888b8989610df7565b5060019b9a5050505050505050505050565b60008181526001602052604081205480158015906109055750428111155b9392505050565b60048054604051632303e6ab60e21b81526001600160a01b0380851693820193909352839290911690638c0f9aac90602401602060405180830381865afa15801561095b573d6000803e3d6000fd5b505050506040513d601f19601f8201168201806040525081019061097f9190611975565b6109bb5760405162461bcd60e51b815260206004820152600d60248201526c2737ba1030903830b93a3732b960991b6044820152606401610260565b60405184815233907fa16a86dce192b28e0a25d7c2075a482a185ca559c6bf11f5d9329a888e74567a9060200160405180910390a26000610a3889898080601f0160208091040260200160405190810160405280939291908181526020018383808284376000920191909152508b92508a91508990508888610fad565b90508015610b17576003546040516323b872dd60e01b8152336004820152306024820152604481018390526000916001600160a01b0316906323b872dd906064016020604051808303816000875af1158015610a98573d6000803e3d6000fd5b505050506040513d601f19601f82011682018060405250810190610abc9190611975565b905080610b0b5760405162461bcd60e51b815260206004820152601560248201527f546f6b656e207472616e73666572206661696c656400000000000000000000006044820152606401610260565b610b15848361154d565b505b505050505050505050565b60048054604051632303e6ab60e21b81526001600160a01b038481169382019390935260009290911690638c0f9aac90602401602060405180830381865afa158015610b72573d6000803e3d6000fd5b505050506040513d601f19601f82011682018060405250810190610b969190611975565b610bd25760405162461bcd60e51b815260206004820152600d60248201526c2737ba1030903830b93a3732b960991b6044820152606401610260565b600480546040517f14049bd90000000000000000000000000000000000000000000000000000000081526001600160a01b03858116938201939093529116906314049bd990602401602060405180830381865afa158015610c37573d6000803e3d6000fd5b505050506040513d601f19601f82011682018060405250810190610c5b9190611a45565b92915050565b8151600090826004610c7381836119df565b831015610cb05760405162461bcd60e51b815260206004820152600b60248201526a14da1bdc9d081a5b9c1d5d60aa1b6044820152606401610260565b50505050016020015190565b8151600090826014610cce81836119df565b831015610d0b5760405162461bcd60e51b815260206004820152600b60248201526a14da1bdc9d081a5b9c1d5d60aa1b6044820152606401610260565b50505050016020015160601c90565b8151600090826020610c7381836119df565b60006109058383610d1a565b82516060908383610d4981836119df565b831015610d865760405162461bcd60e51b815260206004820152600b60248201526a14da1bdc9d081a5b9c1d5d60aa1b6044820152606401610260565b606085158015610da157604051915060208201604052610deb565b6040519150601f87168015602002818401018881018a8315602002848e0101015b81831015610dda578051835260209283019201610dc2565b5050888452601f01601f1916604052505b50979650505050505050565b876001600160a01b03167fa16a86dce192b28e0a25d7c2075a482a185ca559c6bf11f5d9329a888e74567a85604051610e3291815260200190565b60405180910390a26000610e4a878588888787610fad565b90508015610b175780881015610ea25760405162461bcd60e51b815260206004820152601f60248201527f496e73756666696369656e7420746f6b656e73207472616e73666572726564006044820152606401610260565b610eac828261154d565b6000610eb8828a611a32565b90508015610b15576003546040517fa9059cbb0000000000000000000000000000000000000000000000000000000081526001600160a01b038c8116600483015260248201849052600092169063a9059cbb906044016020604051808303816000875af1158015610f2d573d6000803e3d6000fd5b505050506040513d601f19601f82011682018060405250810190610f519190611975565b905080610fa05760405162461bcd60e51b815260206004820152601560248201527f546f6b656e207472616e73666572206661696c656400000000000000000000006044820152606401610260565b5050505050505050505050565b600080610fb983610b22565b6040517fbe47152e0000000000000000000000000000000000000000000000000000000081529091506001600160a01b0382169063be47152e90611003908b908990600401611ab2565b60006040518083038186803b15801561101b57600080fd5b505afa15801561102f573d6000803e3d6000fd5b505050506000886040516020016110469190611ad4565b604051602081830303815290604052805190602001209050816001600160a01b031663172152506040518163ffffffff1660e01b8152600401602060405180830381865afa15801561109c573d6000803e3d6000fd5b505050506040513d601f19601f820116820180604052508101906110c09190611997565b1561117d576040805160208082018490526bffffffffffffffffffffffff1960608c811b821684860152605484018c9052607484018b905289901b1660948301528251808303608801815260a89092019092528051910120611121816108e7565b61116d5760405162461bcd60e51b815260206004820152601360248201527f4e6f20636f6d6d69746d656e7420666f756e64000000000000000000000000006044820152606401610260565b6000908152600160205260408120555b6002546001600160a01b031663a5b0d68c823061119e8a6301e13380611af0565b6040517fffffffff0000000000000000000000000000000000000000000000000000000060e086901b16815260048101939093526001600160a01b0390911660248301526044820152606401600060405180830381600087803b15801561120457600080fd5b505af1158015611218573d6000803e3d6000fd5b50506006546007546040517f0178b8bf0000000000000000000000000000000000000000000000000000000081526001600160a01b039092169350630178b8bf925061126a9160040190815260200190565b602060405180830381865afa158015611287573d6000803e3d6000fd5b505050506040513d601f19601f820116820180604052508101906112ab9190611a45565b6001600160a01b031663d5fa2b00600754836040516020016112d7929190918252602082015260400190565b60408051601f198184030181529082905280516020909101207fffffffff0000000000000000000000000000000000000000000000000000000060e084901b16825260048201526001600160a01b0388166024820152604401600060405180830381600087803b15801561134a57600080fd5b505af115801561135e573d6000803e3d6000fd5b50506002546040517f28ed4f6c000000000000000000000000000000000000000000000000000000008152600481018590526001600160a01b038c8116602483015285945090911691506328ed4f6c90604401600060405180830381600087803b1580156113cb57600080fd5b505af11580156113df573d6000803e3d6000fd5b50506002546040516323b872dd60e01b81523060048201526001600160a01b038d811660248301526044820186905290911692506323b872dd9150606401600060405180830381600087803b15801561143757600080fd5b505af115801561144b573d6000803e3d6000fd5b50506002546040517f7409e4a2000000000000000000000000000000000000000000000000000000008152600481018690526001600160a01b03878116945063b7fc1b9493508e921690637409e4a290602401602060405180830381865afa1580156114bb573d6000803e3d6000fd5b505050506040513d601f19601f820116820180604052508101906114df9190611997565b8a6040518463ffffffff1660e01b81526004016114fe93929190611b0f565b602060405180830381865afa15801561151b573d6000803e3d6000fd5b505050506040513d601f19601f8201168201806040525081019061153f9190611997565b9a9950505050505050505050565b6005546001600160a01b03166115a55760405162461bcd60e51b815260206004820152601360248201527f466565204d616e61676572206e6f7420736574000000000000000000000000006044820152606401610260565b6003546005546040517f095ea7b30000000000000000000000000000000000000000000000000000000081526001600160a01b03918216600482015260248101849052600092919091169063095ea7b3906044016020604051808303816000875af1158015611618573d6000803e3d6000fd5b505050506040513d601f19601f8201168201806040525081019061163c9190611975565b90508061168b5760405162461bcd60e51b815260206004820152601560248201527f546f6b656e20617070726f76616c206661696c656400000000000000000000006044820152606401610260565b6005546040517f47e7ef240000000000000000000000000000000000000000000000000000000081526001600160a01b03858116600483015260248201859052909116906347e7ef2490604401600060405180830381600087803b1580156116f257600080fd5b505af1158015611706573d6000803e3d6000fd5b50505050505050565b6001600160a01b038116811461172457600080fd5b50565b60006020828403121561173957600080fd5b81356109058161170f565b6000806040838503121561175757600080fd5b8235915060208301356117698161170f565b809150509250929050565b60008083601f84011261178657600080fd5b50813567ffffffffffffffff81111561179e57600080fd5b6020830191508360208285010111156117b657600080fd5b9250929050565b6000806000806000608086880312156117d557600080fd5b853567ffffffffffffffff8111156117ec57600080fd5b6117f888828901611774565b9096509450506020860135925060408601359150606086013561181a8161170f565b809150509295509295909350565b6000806000806060858703121561183e57600080fd5b84356118498161170f565b935060208501359250604085013567ffffffffffffffff81111561186c57600080fd5b61187887828801611774565b95989497509550505050565b600080600080600060a0868803121561189c57600080fd5b8535945060208601356118ae8161170f565b93506040860135925060608601359150608086013561181a8161170f565b6000602082840312156118de57600080fd5b5035919050565b600080600080600080600060c0888a03121561190057600080fd5b873567ffffffffffffffff81111561191757600080fd5b6119238a828b01611774565b90985096505060208801356119378161170f565b9450604088013593506060880135925060808801356119558161170f565b915060a08801356119658161170f565b8091505092959891949750929550565b60006020828403121561198757600080fd5b8151801515811461090557600080fd5b6000602082840312156119a957600080fd5b5051919050565b7f4e487b7100000000000000000000000000000000000000000000000000000000600052601160045260246000fd5b80820180821115610c5b57610c5b6119b0565b606081528360608201528385608083013760006080858301015260006080601f19601f870116830101905083602083015282604083015295945050505050565b81810381811115610c5b57610c5b6119b0565b600060208284031215611a5757600080fd5b81516109058161170f565b60005b83811015611a7d578181015183820152602001611a65565b50506000910152565b60008151808452611a9e816020860160208601611a62565b601f01601f19169290920160200192915050565b604081526000611ac56040830185611a86565b90508260208301529392505050565b60008251611ae6818460208701611a62565b9190910192915050565b6000816000190483118215151615611b0a57611b0a6119b0565b500290565b606081526000611b226060830186611a86565b6020830194909452506040015291905056fea2646970667358221220bccae5fae7e759a13bc418084acbf5ca4f9e311cd9904f6044cddd478ef6c91f64736f6c63430008100033","opcodes":"PUSH1 0x80 PUSH1 0x40 MSTORE CALLVALUE DUP1 ISZERO PUSH3 0x11 JUMPI PUSH1 0x0 DUP1 REVERT JUMPDEST POP PUSH1 0x40 MLOAD PUSH3 0x1CB6 CODESIZE SUB DUP1 PUSH3 0x1CB6 DUP4 CODECOPY DUP2 ADD PUSH1 0x40 DUP2 SWAP1 MSTORE PUSH3 0x34 SWAP2 PUSH3 0xB4 JUMP JUMPDEST PUSH1 0x0 DUP1 SLOAD PUSH1 0x1 PUSH1 0x1 PUSH1 0xA0 SHL SUB NOT SWAP1 DUP2 AND PUSH1 0x1 PUSH1 0x1 PUSH1 0xA0 SHL SUB SWAP9 DUP10 AND OR SWAP1 SWAP2 SSTORE PUSH1 0x2 DUP1 SLOAD DUP3 AND SWAP7 DUP9 AND SWAP7 SWAP1 SWAP7 OR SWAP1 SWAP6 SSTORE PUSH1 0x3 DUP1 SLOAD DUP7 AND SWAP5 DUP8 AND SWAP5 SWAP1 SWAP5 OR SWAP1 SWAP4 SSTORE PUSH1 0x4 DUP1 SLOAD DUP6 AND SWAP3 DUP7 AND SWAP3 SWAP1 SWAP3 OR SWAP1 SWAP2 SSTORE PUSH1 0x6 DUP1 SLOAD SWAP1 SWAP4 AND SWAP4 AND SWAP3 SWAP1 SWAP3 OR SWAP1 SSTORE PUSH1 0x7 SSTORE PUSH3 0x13C JUMP JUMPDEST PUSH1 0x1 PUSH1 0x1 PUSH1 0xA0 SHL SUB DUP2 AND DUP2 EQ PUSH3 0xB1 JUMPI PUSH1 0x0 DUP1 REVERT JUMPDEST POP JUMP JUMPDEST PUSH1 0x0 DUP1 PUSH1 0x0 DUP1 PUSH1 0x0 DUP1 PUSH1 0xC0 DUP8 DUP10 SUB SLT ISZERO PUSH3 0xCE JUMPI PUSH1 0x0 DUP1 REVERT JUMPDEST DUP7 MLOAD PUSH3 0xDB DUP2 PUSH3 0x9B JUMP JUMPDEST PUSH1 0x20 DUP9 ADD MLOAD SWAP1 SWAP7 POP PUSH3 0xEE DUP2 PUSH3 0x9B JUMP JUMPDEST PUSH1 0x40 DUP9 ADD MLOAD SWAP1 SWAP6 POP PUSH3 0x101 DUP2 PUSH3 0x9B JUMP JUMPDEST PUSH1 0x60 DUP9 ADD MLOAD SWAP1 SWAP5 POP PUSH3 0x114 DUP2 PUSH3 0x9B JUMP JUMPDEST PUSH1 0x80 DUP9 ADD MLOAD SWAP1 SWAP4 POP PUSH3 0x127 DUP2 PUSH3 0x9B JUMP JUMPDEST DUP1 SWAP3 POP POP PUSH1 0xA0 DUP8 ADD MLOAD SWAP1 POP SWAP3 SWAP6 POP SWAP3 SWAP6 POP SWAP3 SWAP6 JUMP JUMPDEST PUSH2 0x1B6A DUP1 PUSH3 0x14C PUSH1 0x0 CODECOPY PUSH1 0x0 RETURN INVALID PUSH1 0x80 PUSH1 0x40 MSTORE CALLVALUE DUP1 ISZERO PUSH2 0x10 JUMPI PUSH1 0x0 DUP1 REVERT JUMPDEST POP PUSH1 0x4 CALLDATASIZE LT PUSH2 0x88 JUMPI PUSH1 0x0 CALLDATALOAD PUSH1 0xE0 SHR DUP1 PUSH4 0xE0DFA3C8 GT PUSH2 0x5B JUMPI DUP1 PUSH4 0xE0DFA3C8 EQ PUSH2 0xFE JUMPI DUP1 PUSH4 0xE4F396AA EQ PUSH2 0x166 JUMPI DUP1 PUSH4 0xED186582 EQ PUSH2 0x181 JUMPI DUP1 PUSH4 0xED80C1A7 EQ PUSH2 0x194 JUMPI PUSH1 0x0 DUP1 REVERT JUMPDEST DUP1 PUSH4 0x472D35B9 EQ PUSH2 0x8D JUMPI DUP1 PUSH4 0x5A746101 EQ PUSH2 0xA2 JUMPI DUP1 PUSH4 0x89FCE619 EQ PUSH2 0xB5 JUMPI DUP1 PUSH4 0xC0EE0B8A EQ PUSH2 0xDB JUMPI JUMPDEST PUSH1 0x0 DUP1 REVERT JUMPDEST PUSH2 0xA0 PUSH2 0x9B CALLDATASIZE PUSH1 0x4 PUSH2 0x1727 JUMP JUMPDEST PUSH2 0x1A7 JUMP JUMPDEST STOP JUMPDEST PUSH2 0xA0 PUSH2 0xB0 CALLDATASIZE PUSH1 0x4 PUSH2 0x1744 JUMP JUMPDEST PUSH2 0x341 JUMP JUMPDEST PUSH2 0xC8 PUSH2 0xC3 CALLDATASIZE PUSH1 0x4 PUSH2 0x17BD JUMP JUMPDEST PUSH2 0x4DE JUMP JUMPDEST PUSH1 0x40 MLOAD SWAP1 DUP2 MSTORE PUSH1 0x20 ADD JUMPDEST PUSH1 0x40 MLOAD DUP1 SWAP2 SUB SWAP1 RETURN JUMPDEST PUSH2 0xEE PUSH2 0xE9 CALLDATASIZE PUSH1 0x4 PUSH2 0x1828 JUMP JUMPDEST PUSH2 0x584 JUMP JUMPDEST PUSH1 0x40 MLOAD SWAP1 ISZERO ISZERO DUP2 MSTORE PUSH1 0x20 ADD PUSH2 0xD2 JUMP JUMPDEST PUSH2 0xC8 PUSH2 0x10C CALLDATASIZE PUSH1 0x4 PUSH2 0x1884 JUMP JUMPDEST PUSH1 0x40 DUP1 MLOAD PUSH1 0x20 DUP1 DUP3 ADD SWAP8 SWAP1 SWAP8 MSTORE PUSH12 0xFFFFFFFFFFFFFFFFFFFFFFFF NOT PUSH1 0x60 SWAP7 DUP8 SHL DUP2 AND DUP3 DUP5 ADD MSTORE PUSH1 0x54 DUP3 ADD SWAP6 SWAP1 SWAP6 MSTORE PUSH1 0x74 DUP2 ADD SWAP4 SWAP1 SWAP4 MSTORE SWAP4 SHL SWAP1 SWAP2 AND PUSH1 0x94 DUP3 ADD MSTORE DUP2 MLOAD DUP1 DUP3 SUB PUSH1 0x88 ADD DUP2 MSTORE PUSH1 0xA8 SWAP1 SWAP2 ADD SWAP1 SWAP2 MSTORE DUP1 MLOAD SWAP2 ADD KECCAK256 SWAP1 JUMP JUMPDEST PUSH1 0x4 SLOAD PUSH1 0x40 MLOAD PUSH1 0x1 PUSH1 0x1 PUSH1 0xA0 SHL SUB SWAP1 SWAP2 AND DUP2 MSTORE PUSH1 0x20 ADD PUSH2 0xD2 JUMP JUMPDEST PUSH2 0xEE PUSH2 0x18F CALLDATASIZE PUSH1 0x4 PUSH2 0x18CC JUMP JUMPDEST PUSH2 0x8E7 JUMP JUMPDEST PUSH2 0xA0 PUSH2 0x1A2 CALLDATASIZE PUSH1 0x4 PUSH2 0x18E5 JUMP JUMPDEST PUSH2 0x90C JUMP JUMPDEST PUSH1 0x0 SLOAD PUSH1 0x40 MLOAD PUSH32 0x5A4C17CE00000000000000000000000000000000000000000000000000000000 DUP2 MSTORE CALLER PUSH1 0x4 DUP3 ADD MSTORE PUSH1 0x1 PUSH1 0x1 PUSH1 0xA0 SHL SUB SWAP1 SWAP2 AND SWAP1 PUSH4 0x5A4C17CE SWAP1 PUSH1 0x24 ADD PUSH1 0x20 PUSH1 0x40 MLOAD DUP1 DUP4 SUB DUP2 DUP7 GAS STATICCALL ISZERO DUP1 ISZERO PUSH2 0x208 JUMPI RETURNDATASIZE PUSH1 0x0 DUP1 RETURNDATACOPY RETURNDATASIZE PUSH1 0x0 REVERT JUMPDEST POP POP POP POP PUSH1 0x40 MLOAD RETURNDATASIZE PUSH1 0x1F NOT PUSH1 0x1F DUP3 ADD AND DUP3 ADD DUP1 PUSH1 0x40 MSTORE POP DUP2 ADD SWAP1 PUSH2 0x22C SWAP2 SWAP1 PUSH2 0x1975 JUMP JUMPDEST PUSH2 0x269 JUMPI PUSH1 0x40 MLOAD PUSH32 0xFB25BB6000000000000000000000000000000000000000000000000000000000 DUP2 MSTORE CALLER PUSH1 0x4 DUP3 ADD MSTORE PUSH1 0x24 ADD JUMPDEST PUSH1 0x40 MLOAD DUP1 SWAP2 SUB SWAP1 REVERT JUMPDEST PUSH1 0x5 SLOAD PUSH1 0x1 PUSH1 0x1 PUSH1 0xA0 SHL SUB DUP1 DUP4 AND SWAP2 AND SUB PUSH2 0x2C6 JUMPI PUSH1 0x40 MLOAD PUSH3 0x461BCD PUSH1 0xE5 SHL DUP2 MSTORE PUSH1 0x20 PUSH1 0x4 DUP3 ADD MSTORE PUSH1 0x1E PUSH1 0x24 DUP3 ADD MSTORE PUSH32 0x6F6C642076616C75652069732073616D65206173206E65772076616C75650000 PUSH1 0x44 DUP3 ADD MSTORE PUSH1 0x64 ADD PUSH2 0x260 JUMP JUMPDEST PUSH1 0x40 DUP1 MLOAD ADDRESS DUP2 MSTORE PUSH1 0x1 PUSH1 0x1 PUSH1 0xA0 SHL SUB DUP4 AND PUSH1 0x20 DUP3 ADD MSTORE PUSH32 0xACBD074DB1A997C1632EB3D55A4C9813E0883267F14740568D0535DC23077CE4 SWAP2 ADD PUSH1 0x40 MLOAD DUP1 SWAP2 SUB SWAP1 LOG1 PUSH1 0x5 DUP1 SLOAD PUSH32 0xFFFFFFFFFFFFFFFFFFFFFFFF0000000000000000000000000000000000000000 AND PUSH1 0x1 PUSH1 0x1 PUSH1 0xA0 SHL SUB SWAP3 SWAP1 SWAP3 AND SWAP2 SWAP1 SWAP2 OR SWAP1 SSTORE JUMP JUMPDEST PUSH1 0x0 PUSH2 0x34C DUP3 PUSH2 0xB22 JUMP JUMPDEST SWAP1 POP DUP1 PUSH1 0x1 PUSH1 0x1 PUSH1 0xA0 SHL SUB AND PUSH4 0x17215250 PUSH1 0x40 MLOAD DUP2 PUSH4 0xFFFFFFFF AND PUSH1 0xE0 SHL DUP2 MSTORE PUSH1 0x4 ADD PUSH1 0x20 PUSH1 0x40 MLOAD DUP1 DUP4 SUB DUP2 DUP7 GAS STATICCALL ISZERO DUP1 ISZERO PUSH2 0x38C JUMPI RETURNDATASIZE PUSH1 0x0 DUP1 RETURNDATACOPY RETURNDATASIZE PUSH1 0x0 REVERT JUMPDEST POP POP POP POP PUSH1 0x40 MLOAD RETURNDATASIZE PUSH1 0x1F NOT PUSH1 0x1F DUP3 ADD AND DUP3 ADD DUP1 PUSH1 0x40 MSTORE POP DUP2 ADD SWAP1 PUSH2 0x3B0 SWAP2 SWAP1 PUSH2 0x1997 JUMP JUMPDEST PUSH1 0x0 SUB PUSH2 0x3FF JUMPI PUSH1 0x40 MLOAD PUSH3 0x461BCD PUSH1 0xE5 SHL DUP2 MSTORE PUSH1 0x20 PUSH1 0x4 DUP3 ADD MSTORE PUSH1 0x17 PUSH1 0x24 DUP3 ADD MSTORE PUSH32 0x436F6D6D69746D656E74206E6F74207265717569726564000000000000000000 PUSH1 0x44 DUP3 ADD MSTORE PUSH1 0x64 ADD PUSH2 0x260 JUMP JUMPDEST PUSH1 0x0 DUP4 DUP2 MSTORE PUSH1 0x1 PUSH1 0x20 MSTORE PUSH1 0x40 SWAP1 KECCAK256 SLOAD ISZERO PUSH2 0x45B JUMPI PUSH1 0x40 MLOAD PUSH3 0x461BCD PUSH1 0xE5 SHL DUP2 MSTORE PUSH1 0x20 PUSH1 0x4 DUP3 ADD MSTORE PUSH1 0x13 PUSH1 0x24 DUP3 ADD MSTORE PUSH32 0x4578697374656E7420636F6D6D69746D656E7400000000000000000000000000 PUSH1 0x44 DUP3 ADD MSTORE PUSH1 0x64 ADD PUSH2 0x260 JUMP JUMPDEST DUP1 PUSH1 0x1 PUSH1 0x1 PUSH1 0xA0 SHL SUB AND PUSH4 0x17215250 PUSH1 0x40 MLOAD DUP2 PUSH4 0xFFFFFFFF AND PUSH1 0xE0 SHL DUP2 MSTORE PUSH1 0x4 ADD PUSH1 0x20 PUSH1 0x40 MLOAD DUP1 DUP4 SUB DUP2 DUP7 GAS STATICCALL ISZERO DUP1 ISZERO PUSH2 0x499 JUMPI RETURNDATASIZE PUSH1 0x0 DUP1 RETURNDATACOPY RETURNDATASIZE PUSH1 0x0 REVERT JUMPDEST POP POP POP POP PUSH1 0x40 MLOAD RETURNDATASIZE PUSH1 0x1F NOT PUSH1 0x1F DUP3 ADD AND DUP3 ADD DUP1 PUSH1 0x40 MSTORE POP DUP2 ADD SWAP1 PUSH2 0x4BD SWAP2 SWAP1 PUSH2 0x1997 JUMP JUMPDEST PUSH2 0x4C7 SWAP1 TIMESTAMP PUSH2 0x19DF JUMP JUMPDEST PUSH1 0x0 SWAP4 DUP5 MSTORE PUSH1 0x1 PUSH1 0x20 MSTORE PUSH1 0x40 SWAP1 SWAP4 KECCAK256 SWAP3 SWAP1 SWAP3 SSTORE POP POP JUMP JUMPDEST PUSH1 0x0 DUP1 PUSH2 0x4EA DUP4 PUSH2 0xB22 JUMP JUMPDEST PUSH1 0x40 MLOAD PUSH32 0xB7FC1B9400000000000000000000000000000000000000000000000000000000 DUP2 MSTORE SWAP1 SWAP2 POP PUSH1 0x1 PUSH1 0x1 PUSH1 0xA0 SHL SUB DUP3 AND SWAP1 PUSH4 0xB7FC1B94 SWAP1 PUSH2 0x538 SWAP1 DUP11 SWAP1 DUP11 SWAP1 DUP11 SWAP1 DUP11 SWAP1 PUSH1 0x4 ADD PUSH2 0x19F2 JUMP JUMPDEST PUSH1 0x20 PUSH1 0x40 MLOAD DUP1 DUP4 SUB DUP2 DUP7 GAS STATICCALL ISZERO DUP1 ISZERO PUSH2 0x555 JUMPI RETURNDATASIZE PUSH1 0x0 DUP1 RETURNDATACOPY RETURNDATASIZE PUSH1 0x0 REVERT JUMPDEST POP POP POP POP PUSH1 0x40 MLOAD RETURNDATASIZE PUSH1 0x1F NOT PUSH1 0x1F DUP3 ADD AND DUP3 ADD DUP1 PUSH1 0x40 MSTORE POP DUP2 ADD SWAP1 PUSH2 0x579 SWAP2 SWAP1 PUSH2 0x1997 JUMP JUMPDEST SWAP8 SWAP7 POP POP POP POP POP POP POP JUMP JUMPDEST PUSH1 0x3 SLOAD PUSH1 0x0 SWAP1 PUSH1 0x1 PUSH1 0x1 PUSH1 0xA0 SHL SUB AND CALLER EQ PUSH2 0x5E1 JUMPI PUSH1 0x40 MLOAD PUSH3 0x461BCD PUSH1 0xE5 SHL DUP2 MSTORE PUSH1 0x20 PUSH1 0x4 DUP3 ADD MSTORE PUSH1 0xE PUSH1 0x24 DUP3 ADD MSTORE PUSH32 0x4F6E6C792052494620746F6B656E000000000000000000000000000000000000 PUSH1 0x44 DUP3 ADD MSTORE PUSH1 0x64 ADD PUSH2 0x260 JUMP JUMPDEST PUSH1 0x80 DUP3 GT PUSH2 0x631 JUMPI PUSH1 0x40 MLOAD PUSH3 0x461BCD PUSH1 0xE5 SHL DUP2 MSTORE PUSH1 0x20 PUSH1 0x4 DUP3 ADD MSTORE PUSH1 0xC PUSH1 0x24 DUP3 ADD MSTORE PUSH32 0x496E76616C696420646174610000000000000000000000000000000000000000 PUSH1 0x44 DUP3 ADD MSTORE PUSH1 0x64 ADD PUSH2 0x260 JUMP JUMPDEST PUSH1 0x0 PUSH2 0x677 PUSH1 0x0 DUP6 DUP6 DUP1 DUP1 PUSH1 0x1F ADD PUSH1 0x20 DUP1 SWAP2 DIV MUL PUSH1 0x20 ADD PUSH1 0x40 MLOAD SWAP1 DUP2 ADD PUSH1 0x40 MSTORE DUP1 SWAP4 SWAP3 SWAP2 SWAP1 DUP2 DUP2 MSTORE PUSH1 0x20 ADD DUP4 DUP4 DUP1 DUP3 DUP5 CALLDATACOPY PUSH1 0x0 SWAP3 ADD SWAP2 SWAP1 SWAP2 MSTORE POP SWAP3 SWAP4 SWAP3 POP POP PUSH2 0xC61 SWAP1 POP JUMP JUMPDEST SWAP1 POP PUSH32 0xFFFFFFFF00000000000000000000000000000000000000000000000000000000 DUP2 AND PUSH32 0x646C368100000000000000000000000000000000000000000000000000000000 EQ PUSH2 0x70A JUMPI PUSH1 0x40 MLOAD PUSH3 0x461BCD PUSH1 0xE5 SHL DUP2 MSTORE PUSH1 0x20 PUSH1 0x4 DUP3 ADD MSTORE PUSH1 0x11 PUSH1 0x24 DUP3 ADD MSTORE PUSH32 0x496E76616C6964207369676E6174757265000000000000000000000000000000 PUSH1 0x44 DUP3 ADD MSTORE PUSH1 0x64 ADD PUSH2 0x260 JUMP JUMPDEST PUSH1 0x0 PUSH2 0x750 PUSH1 0x4 DUP7 DUP7 DUP1 DUP1 PUSH1 0x1F ADD PUSH1 0x20 DUP1 SWAP2 DIV MUL PUSH1 0x20 ADD PUSH1 0x40 MLOAD SWAP1 DUP2 ADD PUSH1 0x40 MSTORE DUP1 SWAP4 SWAP3 SWAP2 SWAP1 DUP2 DUP2 MSTORE PUSH1 0x20 ADD DUP4 DUP4 DUP1 DUP3 DUP5 CALLDATACOPY PUSH1 0x0 SWAP3 ADD SWAP2 SWAP1 SWAP2 MSTORE POP SWAP3 SWAP4 SWAP3 POP POP PUSH2 0xCBC SWAP1 POP JUMP JUMPDEST SWAP1 POP PUSH1 0x0 PUSH2 0x798 PUSH1 0x18 DUP8 DUP8 DUP1 DUP1 PUSH1 0x1F ADD PUSH1 0x20 DUP1 SWAP2 DIV MUL PUSH1 0x20 ADD PUSH1 0x40 MLOAD SWAP1 DUP2 ADD PUSH1 0x40 MSTORE DUP1 SWAP4 SWAP3 SWAP2 SWAP1 DUP2 DUP2 MSTORE PUSH1 0x20 ADD DUP4 DUP4 DUP1 DUP3 DUP5 CALLDATACOPY PUSH1 0x0 SWAP3 ADD SWAP2 SWAP1 SWAP2 MSTORE POP SWAP3 SWAP4 SWAP3 POP POP PUSH2 0xD1A SWAP1 POP JUMP JUMPDEST SWAP1 POP PUSH1 0x0 PUSH2 0x7E0 PUSH1 0x38 DUP9 DUP9 DUP1 DUP1 PUSH1 0x1F ADD PUSH1 0x20 DUP1 SWAP2 DIV MUL PUSH1 0x20 ADD PUSH1 0x40 MLOAD SWAP1 DUP2 ADD PUSH1 0x40 MSTORE DUP1 SWAP4 SWAP3 SWAP2 SWAP1 DUP2 DUP2 MSTORE PUSH1 0x20 ADD DUP4 DUP4 DUP1 DUP3 DUP5 CALLDATACOPY PUSH1 0x0 SWAP3 ADD SWAP2 SWAP1 SWAP2 MSTORE POP SWAP3 SWAP4 SWAP3 POP POP PUSH2 0xD2C SWAP1 POP JUMP JUMPDEST SWAP1 POP PUSH1 0x0 PUSH2 0x828 PUSH1 0x58 DUP10 DUP10 DUP1 DUP1 PUSH1 0x1F ADD PUSH1 0x20 DUP1 SWAP2 DIV MUL PUSH1 0x20 ADD PUSH1 0x40 MLOAD SWAP1 DUP2 ADD PUSH1 0x40 MSTORE DUP1 SWAP4 SWAP3 SWAP2 SWAP1 DUP2 DUP2 MSTORE PUSH1 0x20 ADD DUP4 DUP4 DUP1 DUP3 DUP5 CALLDATACOPY PUSH1 0x0 SWAP3 ADD SWAP2 SWAP1 SWAP2 MSTORE POP SWAP3 SWAP4 SWAP3 POP POP PUSH2 0xCBC SWAP1 POP JUMP JUMPDEST SWAP1 POP PUSH1 0x0 PUSH2 0x870 PUSH1 0x6C DUP11 DUP11 DUP1 DUP1 PUSH1 0x1F ADD PUSH1 0x20 DUP1 SWAP2 DIV MUL PUSH1 0x20 ADD PUSH1 0x40 MLOAD SWAP1 DUP2 ADD PUSH1 0x40 MSTORE DUP1 SWAP4 SWAP3 SWAP2 SWAP1 DUP2 DUP2 MSTORE PUSH1 0x20 ADD DUP4 DUP4 DUP1 DUP3 DUP5 CALLDATACOPY PUSH1 0x0 SWAP3 ADD SWAP2 SWAP1 SWAP2 MSTORE POP SWAP3 SWAP4 SWAP3 POP POP PUSH2 0xCBC SWAP1 POP JUMP JUMPDEST SWAP1 POP PUSH1 0x0 PUSH2 0x8C3 PUSH1 0x80 PUSH2 0x883 DUP2 DUP13 PUSH2 0x1A32 JUMP JUMPDEST DUP13 DUP13 DUP1 DUP1 PUSH1 0x1F ADD PUSH1 0x20 DUP1 SWAP2 DIV MUL PUSH1 0x20 ADD PUSH1 0x40 MLOAD SWAP1 DUP2 ADD PUSH1 0x40 MSTORE DUP1 SWAP4 SWAP3 SWAP2 SWAP1 DUP2 DUP2 MSTORE PUSH1 0x20 ADD DUP4 DUP4 DUP1 DUP3 DUP5 CALLDATACOPY PUSH1 0x0 SWAP3 ADD SWAP2 SWAP1 SWAP2 MSTORE POP SWAP3 SWAP5 SWAP4 SWAP3 POP POP PUSH2 0xD38 SWAP1 POP JUMP JUMPDEST SWAP1 POP PUSH2 0x8D5 DUP13 DUP13 DUP4 DUP9 DUP9 DUP12 DUP10 DUP10 PUSH2 0xDF7 JUMP JUMPDEST POP PUSH1 0x1 SWAP12 SWAP11 POP POP POP POP POP POP POP POP POP POP POP JUMP JUMPDEST PUSH1 0x0 DUP2 DUP2 MSTORE PUSH1 0x1 PUSH1 0x20 MSTORE PUSH1 0x40 DUP2 KECCAK256 SLOAD DUP1 ISZERO DUP1 ISZERO SWAP1 PUSH2 0x905 JUMPI POP TIMESTAMP DUP2 GT ISZERO JUMPDEST SWAP4 SWAP3 POP POP POP JUMP JUMPDEST PUSH1 0x4 DUP1 SLOAD PUSH1 0x40 MLOAD PUSH4 0x2303E6AB PUSH1 0xE2 SHL DUP2 MSTORE PUSH1 0x1 PUSH1 0x1 PUSH1 0xA0 SHL SUB DUP1 DUP6 AND SWAP4 DUP3 ADD SWAP4 SWAP1 SWAP4 MSTORE DUP4 SWAP3 SWAP1 SWAP2 AND SWAP1 PUSH4 0x8C0F9AAC SWAP1 PUSH1 0x24 ADD PUSH1 0x20 PUSH1 0x40 MLOAD DUP1 DUP4 SUB DUP2 DUP7 GAS STATICCALL ISZERO DUP1 ISZERO PUSH2 0x95B JUMPI RETURNDATASIZE PUSH1 0x0 DUP1 RETURNDATACOPY RETURNDATASIZE PUSH1 0x0 REVERT JUMPDEST POP POP POP POP PUSH1 0x40 MLOAD RETURNDATASIZE PUSH1 0x1F NOT PUSH1 0x1F DUP3 ADD AND DUP3 ADD DUP1 PUSH1 0x40 MSTORE POP DUP2 ADD SWAP1 PUSH2 0x97F SWAP2 SWAP1 PUSH2 0x1975 JUMP JUMPDEST PUSH2 0x9BB JUMPI PUSH1 0x40 MLOAD PUSH3 0x461BCD PUSH1 0xE5 SHL DUP2 MSTORE PUSH1 0x20 PUSH1 0x4 DUP3 ADD MSTORE PUSH1 0xD PUSH1 0x24 DUP3 ADD MSTORE PUSH13 0x2737BA1030903830B93A3732B9 PUSH1 0x99 SHL PUSH1 0x44 DUP3 ADD MSTORE PUSH1 0x64 ADD PUSH2 0x260 JUMP JUMPDEST PUSH1 0x40 MLOAD DUP5 DUP2 MSTORE CALLER SWAP1 PUSH32 0xA16A86DCE192B28E0A25D7C2075A482A185CA559C6BF11F5D9329A888E74567A SWAP1 PUSH1 0x20 ADD PUSH1 0x40 MLOAD DUP1 SWAP2 SUB SWAP1 LOG2 PUSH1 0x0 PUSH2 0xA38 DUP10 DUP10 DUP1 DUP1 PUSH1 0x1F ADD PUSH1 0x20 DUP1 SWAP2 DIV MUL PUSH1 0x20 ADD PUSH1 0x40 MLOAD SWAP1 DUP2 ADD PUSH1 0x40 MSTORE DUP1 SWAP4 SWAP3 SWAP2 SWAP1 DUP2 DUP2 MSTORE PUSH1 0x20 ADD DUP4 DUP4 DUP1 DUP3 DUP5 CALLDATACOPY PUSH1 0x0 SWAP3 ADD SWAP2 SWAP1 SWAP2 MSTORE POP DUP12 SWAP3 POP DUP11 SWAP2 POP DUP10 SWAP1 POP DUP9 DUP9 PUSH2 0xFAD JUMP JUMPDEST SWAP1 POP DUP1 ISZERO PUSH2 0xB17 JUMPI PUSH1 0x3 SLOAD PUSH1 0x40 MLOAD PUSH4 0x23B872DD PUSH1 0xE0 SHL DUP2 MSTORE CALLER PUSH1 0x4 DUP3 ADD MSTORE ADDRESS PUSH1 0x24 DUP3 ADD MSTORE PUSH1 0x44 DUP2 ADD DUP4 SWAP1 MSTORE PUSH1 0x0 SWAP2 PUSH1 0x1 PUSH1 0x1 PUSH1 0xA0 SHL SUB AND SWAP1 PUSH4 0x23B872DD SWAP1 PUSH1 0x64 ADD PUSH1 0x20 PUSH1 0x40 MLOAD DUP1 DUP4 SUB DUP2 PUSH1 0x0 DUP8 GAS CALL ISZERO DUP1 ISZERO PUSH2 0xA98 JUMPI RETURNDATASIZE PUSH1 0x0 DUP1 RETURNDATACOPY RETURNDATASIZE PUSH1 0x0 REVERT JUMPDEST POP POP POP POP PUSH1 0x40 MLOAD RETURNDATASIZE PUSH1 0x1F NOT PUSH1 0x1F DUP3 ADD AND DUP3 ADD DUP1 PUSH1 0x40 MSTORE POP DUP2 ADD SWAP1 PUSH2 0xABC SWAP2 SWAP1 PUSH2 0x1975 JUMP JUMPDEST SWAP1 POP DUP1 PUSH2 0xB0B JUMPI PUSH1 0x40 MLOAD PUSH3 0x461BCD PUSH1 0xE5 SHL DUP2 MSTORE PUSH1 0x20 PUSH1 0x4 DUP3 ADD MSTORE PUSH1 0x15 PUSH1 0x24 DUP3 ADD MSTORE PUSH32 0x546F6B656E207472616E73666572206661696C65640000000000000000000000 PUSH1 0x44 DUP3 ADD MSTORE PUSH1 0x64 ADD PUSH2 0x260 JUMP JUMPDEST PUSH2 0xB15 DUP5 DUP4 PUSH2 0x154D JUMP JUMPDEST POP JUMPDEST POP POP POP POP POP POP POP POP POP JUMP JUMPDEST PUSH1 0x4 DUP1 SLOAD PUSH1 0x40 MLOAD PUSH4 0x2303E6AB PUSH1 0xE2 SHL DUP2 MSTORE PUSH1 0x1 PUSH1 0x1 PUSH1 0xA0 SHL SUB DUP5 DUP2 AND SWAP4 DUP3 ADD SWAP4 SWAP1 SWAP4 MSTORE PUSH1 0x0 SWAP3 SWAP1 SWAP2 AND SWAP1 PUSH4 0x8C0F9AAC SWAP1 PUSH1 0x24 ADD PUSH1 0x20 PUSH1 0x40 MLOAD DUP1 DUP4 SUB DUP2 DUP7 GAS STATICCALL ISZERO DUP1 ISZERO PUSH2 0xB72 JUMPI RETURNDATASIZE PUSH1 0x0 DUP1 RETURNDATACOPY RETURNDATASIZE PUSH1 0x0 REVERT JUMPDEST POP POP POP POP PUSH1 0x40 MLOAD RETURNDATASIZE PUSH1 0x1F NOT PUSH1 0x1F DUP3 ADD AND DUP3 ADD DUP1 PUSH1 0x40 MSTORE POP DUP2 ADD SWAP1 PUSH2 0xB96 SWAP2 SWAP1 PUSH2 0x1975 JUMP JUMPDEST PUSH2 0xBD2 JUMPI PUSH1 0x40 MLOAD PUSH3 0x461BCD PUSH1 0xE5 SHL DUP2 MSTORE PUSH1 0x20 PUSH1 0x4 DUP3 ADD MSTORE PUSH1 0xD PUSH1 0x24 DUP3 ADD MSTORE PUSH13 0x2737BA1030903830B93A3732B9 PUSH1 0x99 SHL PUSH1 0x44 DUP3 ADD MSTORE PUSH1 0x64 ADD PUSH2 0x260 JUMP JUMPDEST PUSH1 0x4 DUP1 SLOAD PUSH1 0x40 MLOAD PUSH32 0x14049BD900000000000000000000000000000000000000000000000000000000 DUP2 MSTORE PUSH1 0x1 PUSH1 0x1 PUSH1 0xA0 SHL SUB DUP6 DUP2 AND SWAP4 DUP3 ADD SWAP4 SWAP1 SWAP4 MSTORE SWAP2 AND SWAP1 PUSH4 0x14049BD9 SWAP1 PUSH1 0x24 ADD PUSH1 0x20 PUSH1 0x40 MLOAD DUP1 DUP4 SUB DUP2 DUP7 GAS STATICCALL ISZERO DUP1 ISZERO PUSH2 0xC37 JUMPI RETURNDATASIZE PUSH1 0x0 DUP1 RETURNDATACOPY RETURNDATASIZE PUSH1 0x0 REVERT JUMPDEST POP POP POP POP PUSH1 0x40 MLOAD RETURNDATASIZE PUSH1 0x1F NOT PUSH1 0x1F DUP3 ADD AND DUP3 ADD DUP1 PUSH1 0x40 MSTORE POP DUP2 ADD SWAP1 PUSH2 0xC5B SWAP2 SWAP1 PUSH2 0x1A45 JUMP JUMPDEST SWAP3 SWAP2 POP POP JUMP JUMPDEST DUP2 MLOAD PUSH1 0x0 SWAP1 DUP3 PUSH1 0x4 PUSH2 0xC73 DUP2 DUP4 PUSH2 0x19DF JUMP JUMPDEST DUP4 LT ISZERO PUSH2 0xCB0 JUMPI PUSH1 0x40 MLOAD PUSH3 0x461BCD PUSH1 0xE5 SHL DUP2 MSTORE PUSH1 0x20 PUSH1 0x4 DUP3 ADD MSTORE PUSH1 0xB PUSH1 0x24 DUP3 ADD MSTORE PUSH11 0x14DA1BDC9D081A5B9C1D5D PUSH1 0xAA SHL PUSH1 0x44 DUP3 ADD MSTORE PUSH1 0x64 ADD PUSH2 0x260 JUMP JUMPDEST POP POP POP POP ADD PUSH1 0x20 ADD MLOAD SWAP1 JUMP JUMPDEST DUP2 MLOAD PUSH1 0x0 SWAP1 DUP3 PUSH1 0x14 PUSH2 0xCCE DUP2 DUP4 PUSH2 0x19DF JUMP JUMPDEST DUP4 LT ISZERO PUSH2 0xD0B JUMPI PUSH1 0x40 MLOAD PUSH3 0x461BCD PUSH1 0xE5 SHL DUP2 MSTORE PUSH1 0x20 PUSH1 0x4 DUP3 ADD MSTORE PUSH1 0xB PUSH1 0x24 DUP3 ADD MSTORE PUSH11 0x14DA1BDC9D081A5B9C1D5D PUSH1 0xAA SHL PUSH1 0x44 DUP3 ADD MSTORE PUSH1 0x64 ADD PUSH2 0x260 JUMP JUMPDEST POP POP POP POP ADD PUSH1 0x20 ADD MLOAD PUSH1 0x60 SHR SWAP1 JUMP JUMPDEST DUP2 MLOAD PUSH1 0x0 SWAP1 DUP3 PUSH1 0x20 PUSH2 0xC73 DUP2 DUP4 PUSH2 0x19DF JUMP JUMPDEST PUSH1 0x0 PUSH2 0x905 DUP4 DUP4 PUSH2 0xD1A JUMP JUMPDEST DUP3 MLOAD PUSH1 0x60 SWAP1 DUP4 DUP4 PUSH2 0xD49 DUP2 DUP4 PUSH2 0x19DF JUMP JUMPDEST DUP4 LT ISZERO PUSH2 0xD86 JUMPI PUSH1 0x40 MLOAD PUSH3 0x461BCD PUSH1 0xE5 SHL DUP2 MSTORE PUSH1 0x20 PUSH1 0x4 DUP3 ADD MSTORE PUSH1 0xB PUSH1 0x24 DUP3 ADD MSTORE PUSH11 0x14DA1BDC9D081A5B9C1D5D PUSH1 0xAA SHL PUSH1 0x44 DUP3 ADD MSTORE PUSH1 0x64 ADD PUSH2 0x260 JUMP JUMPDEST PUSH1 0x60 DUP6 ISZERO DUP1 ISZERO PUSH2 0xDA1 JUMPI PUSH1 0x40 MLOAD SWAP2 POP PUSH1 0x20 DUP3 ADD PUSH1 0x40 MSTORE PUSH2 0xDEB JUMP JUMPDEST PUSH1 0x40 MLOAD SWAP2 POP PUSH1 0x1F DUP8 AND DUP1 ISZERO PUSH1 0x20 MUL DUP2 DUP5 ADD ADD DUP9 DUP2 ADD DUP11 DUP4 ISZERO PUSH1 0x20 MUL DUP5 DUP15 ADD ADD ADD JUMPDEST DUP2 DUP4 LT ISZERO PUSH2 0xDDA JUMPI DUP1 MLOAD DUP4 MSTORE PUSH1 0x20 SWAP3 DUP4 ADD SWAP3 ADD PUSH2 0xDC2 JUMP JUMPDEST POP POP DUP9 DUP5 MSTORE PUSH1 0x1F ADD PUSH1 0x1F NOT AND PUSH1 0x40 MSTORE POP JUMPDEST POP SWAP8 SWAP7 POP POP POP POP POP POP POP JUMP JUMPDEST DUP8 PUSH1 0x1 PUSH1 0x1 PUSH1 0xA0 SHL SUB AND PUSH32 0xA16A86DCE192B28E0A25D7C2075A482A185CA559C6BF11F5D9329A888E74567A DUP6 PUSH1 0x40 MLOAD PUSH2 0xE32 SWAP2 DUP2 MSTORE PUSH1 0x20 ADD SWAP1 JUMP JUMPDEST PUSH1 0x40 MLOAD DUP1 SWAP2 SUB SWAP1 LOG2 PUSH1 0x0 PUSH2 0xE4A DUP8 DUP6 DUP9 DUP9 DUP8 DUP8 PUSH2 0xFAD JUMP JUMPDEST SWAP1 POP DUP1 ISZERO PUSH2 0xB17 JUMPI DUP1 DUP9 LT ISZERO PUSH2 0xEA2 JUMPI PUSH1 0x40 MLOAD PUSH3 0x461BCD PUSH1 0xE5 SHL DUP2 MSTORE PUSH1 0x20 PUSH1 0x4 DUP3 ADD MSTORE PUSH1 0x1F PUSH1 0x24 DUP3 ADD MSTORE PUSH32 0x496E73756666696369656E7420746F6B656E73207472616E7366657272656400 PUSH1 0x44 DUP3 ADD MSTORE PUSH1 0x64 ADD PUSH2 0x260 JUMP JUMPDEST PUSH2 0xEAC DUP3 DUP3 PUSH2 0x154D JUMP JUMPDEST PUSH1 0x0 PUSH2 0xEB8 DUP3 DUP11 PUSH2 0x1A32 JUMP JUMPDEST SWAP1 POP DUP1 ISZERO PUSH2 0xB15 JUMPI PUSH1 0x3 SLOAD PUSH1 0x40 MLOAD PUSH32 0xA9059CBB00000000000000000000000000000000000000000000000000000000 DUP2 MSTORE PUSH1 0x1 PUSH1 0x1 PUSH1 0xA0 SHL SUB DUP13 DUP2 AND PUSH1 0x4 DUP4 ADD MSTORE PUSH1 0x24 DUP3 ADD DUP5 SWAP1 MSTORE PUSH1 0x0 SWAP3 AND SWAP1 PUSH4 0xA9059CBB SWAP1 PUSH1 0x44 ADD PUSH1 0x20 PUSH1 0x40 MLOAD DUP1 DUP4 SUB DUP2 PUSH1 0x0 DUP8 GAS CALL ISZERO DUP1 ISZERO PUSH2 0xF2D JUMPI RETURNDATASIZE PUSH1 0x0 DUP1 RETURNDATACOPY RETURNDATASIZE PUSH1 0x0 REVERT JUMPDEST POP POP POP POP PUSH1 0x40 MLOAD RETURNDATASIZE PUSH1 0x1F NOT PUSH1 0x1F DUP3 ADD AND DUP3 ADD DUP1 PUSH1 0x40 MSTORE POP DUP2 ADD SWAP1 PUSH2 0xF51 SWAP2 SWAP1 PUSH2 0x1975 JUMP JUMPDEST SWAP1 POP DUP1 PUSH2 0xFA0 JUMPI PUSH1 0x40 MLOAD PUSH3 0x461BCD PUSH1 0xE5 SHL DUP2 MSTORE PUSH1 0x20 PUSH1 0x4 DUP3 ADD MSTORE PUSH1 0x15 PUSH1 0x24 DUP3 ADD MSTORE PUSH32 0x546F6B656E207472616E73666572206661696C65640000000000000000000000 PUSH1 0x44 DUP3 ADD MSTORE PUSH1 0x64 ADD PUSH2 0x260 JUMP JUMPDEST POP POP POP POP POP POP POP POP POP POP POP JUMP JUMPDEST PUSH1 0x0 DUP1 PUSH2 0xFB9 DUP4 PUSH2 0xB22 JUMP JUMPDEST PUSH1 0x40 MLOAD PUSH32 0xBE47152E00000000000000000000000000000000000000000000000000000000 DUP2 MSTORE SWAP1 SWAP2 POP PUSH1 0x1 PUSH1 0x1 PUSH1 0xA0 SHL SUB DUP3 AND SWAP1 PUSH4 0xBE47152E SWAP1 PUSH2 0x1003 SWAP1 DUP12 SWAP1 DUP10 SWAP1 PUSH1 0x4 ADD PUSH2 0x1AB2 JUMP JUMPDEST PUSH1 0x0 PUSH1 0x40 MLOAD DUP1 DUP4 SUB DUP2 DUP7 DUP1 EXTCODESIZE ISZERO DUP1 ISZERO PUSH2 0x101B JUMPI PUSH1 0x0 DUP1 REVERT JUMPDEST POP GAS STATICCALL ISZERO DUP1 ISZERO PUSH2 0x102F JUMPI RETURNDATASIZE PUSH1 0x0 DUP1 RETURNDATACOPY RETURNDATASIZE PUSH1 0x0 REVERT JUMPDEST POP POP POP POP PUSH1 0x0 DUP9 PUSH1 0x40 MLOAD PUSH1 0x20 ADD PUSH2 0x1046 SWAP2 SWAP1 PUSH2 0x1AD4 JUMP JUMPDEST PUSH1 0x40 MLOAD PUSH1 0x20 DUP2 DUP4 SUB SUB DUP2 MSTORE SWAP1 PUSH1 0x40 MSTORE DUP1 MLOAD SWAP1 PUSH1 0x20 ADD KECCAK256 SWAP1 POP DUP2 PUSH1 0x1 PUSH1 0x1 PUSH1 0xA0 SHL SUB AND PUSH4 0x17215250 PUSH1 0x40 MLOAD DUP2 PUSH4 0xFFFFFFFF AND PUSH1 0xE0 SHL DUP2 MSTORE PUSH1 0x4 ADD PUSH1 0x20 PUSH1 0x40 MLOAD DUP1 DUP4 SUB DUP2 DUP7 GAS STATICCALL ISZERO DUP1 ISZERO PUSH2 0x109C JUMPI RETURNDATASIZE PUSH1 0x0 DUP1 RETURNDATACOPY RETURNDATASIZE PUSH1 0x0 REVERT JUMPDEST POP POP POP POP PUSH1 0x40 MLOAD RETURNDATASIZE PUSH1 0x1F NOT PUSH1 0x1F DUP3 ADD AND DUP3 ADD DUP1 PUSH1 0x40 MSTORE POP DUP2 ADD SWAP1 PUSH2 0x10C0 SWAP2 SWAP1 PUSH2 0x1997 JUMP JUMPDEST ISZERO PUSH2 0x117D JUMPI PUSH1 0x40 DUP1 MLOAD PUSH1 0x20 DUP1 DUP3 ADD DUP5 SWAP1 MSTORE PUSH12 0xFFFFFFFFFFFFFFFFFFFFFFFF NOT PUSH1 0x60 DUP13 DUP2 SHL DUP3 AND DUP5 DUP7 ADD MSTORE PUSH1 0x54 DUP5 ADD DUP13 SWAP1 MSTORE PUSH1 0x74 DUP5 ADD DUP12 SWAP1 MSTORE DUP10 SWAP1 SHL AND PUSH1 0x94 DUP4 ADD MSTORE DUP3 MLOAD DUP1 DUP4 SUB PUSH1 0x88 ADD DUP2 MSTORE PUSH1 0xA8 SWAP1 SWAP3 ADD SWAP1 SWAP3 MSTORE DUP1 MLOAD SWAP2 ADD KECCAK256 PUSH2 0x1121 DUP2 PUSH2 0x8E7 JUMP JUMPDEST PUSH2 0x116D JUMPI PUSH1 0x40 MLOAD PUSH3 0x461BCD PUSH1 0xE5 SHL DUP2 MSTORE PUSH1 0x20 PUSH1 0x4 DUP3 ADD MSTORE PUSH1 0x13 PUSH1 0x24 DUP3 ADD MSTORE PUSH32 0x4E6F20636F6D6D69746D656E7420666F756E6400000000000000000000000000 PUSH1 0x44 DUP3 ADD MSTORE PUSH1 0x64 ADD PUSH2 0x260 JUMP JUMPDEST PUSH1 0x0 SWAP1 DUP2 MSTORE PUSH1 0x1 PUSH1 0x20 MSTORE PUSH1 0x40 DUP2 KECCAK256 SSTORE JUMPDEST PUSH1 0x2 SLOAD PUSH1 0x1 PUSH1 0x1 PUSH1 0xA0 SHL SUB AND PUSH4 0xA5B0D68C DUP3 ADDRESS PUSH2 0x119E DUP11 PUSH4 0x1E13380 PUSH2 0x1AF0 JUMP JUMPDEST PUSH1 0x40 MLOAD PUSH32 0xFFFFFFFF00000000000000000000000000000000000000000000000000000000 PUSH1 0xE0 DUP7 SWAP1 SHL AND DUP2 MSTORE PUSH1 0x4 DUP2 ADD SWAP4 SWAP1 SWAP4 MSTORE PUSH1 0x1 PUSH1 0x1 PUSH1 0xA0 SHL SUB SWAP1 SWAP2 AND PUSH1 0x24 DUP4 ADD MSTORE PUSH1 0x44 DUP3 ADD MSTORE PUSH1 0x64 ADD PUSH1 0x0 PUSH1 0x40 MLOAD DUP1 DUP4 SUB DUP2 PUSH1 0x0 DUP8 DUP1 EXTCODESIZE ISZERO DUP1 ISZERO PUSH2 0x1204 JUMPI PUSH1 0x0 DUP1 REVERT JUMPDEST POP GAS CALL ISZERO DUP1 ISZERO PUSH2 0x1218 JUMPI RETURNDATASIZE PUSH1 0x0 DUP1 RETURNDATACOPY RETURNDATASIZE PUSH1 0x0 REVERT JUMPDEST POP POP PUSH1 0x6 SLOAD PUSH1 0x7 SLOAD PUSH1 0x40 MLOAD PUSH32 0x178B8BF00000000000000000000000000000000000000000000000000000000 DUP2 MSTORE PUSH1 0x1 PUSH1 0x1 PUSH1 0xA0 SHL SUB SWAP1 SWAP3 AND SWAP4 POP PUSH4 0x178B8BF SWAP3 POP PUSH2 0x126A SWAP2 PUSH1 0x4 ADD SWAP1 DUP2 MSTORE PUSH1 0x20 ADD SWAP1 JUMP JUMPDEST PUSH1 0x20 PUSH1 0x40 MLOAD DUP1 DUP4 SUB DUP2 DUP7 GAS STATICCALL ISZERO DUP1 ISZERO PUSH2 0x1287 JUMPI RETURNDATASIZE PUSH1 0x0 DUP1 RETURNDATACOPY RETURNDATASIZE PUSH1 0x0 REVERT JUMPDEST POP POP POP POP PUSH1 0x40 MLOAD RETURNDATASIZE PUSH1 0x1F NOT PUSH1 0x1F DUP3 ADD AND DUP3 ADD DUP1 PUSH1 0x40 MSTORE POP DUP2 ADD SWAP1 PUSH2 0x12AB SWAP2 SWAP1 PUSH2 0x1A45 JUMP JUMPDEST PUSH1 0x1 PUSH1 0x1 PUSH1 0xA0 SHL SUB AND PUSH4 0xD5FA2B00 PUSH1 0x7 SLOAD DUP4 PUSH1 0x40 MLOAD PUSH1 0x20 ADD PUSH2 0x12D7 SWAP3 SWAP2 SWAP1 SWAP2 DUP3 MSTORE PUSH1 0x20 DUP3 ADD MSTORE PUSH1 0x40 ADD SWAP1 JUMP JUMPDEST PUSH1 0x40 DUP1 MLOAD PUSH1 0x1F NOT DUP2 DUP5 SUB ADD DUP2 MSTORE SWAP1 DUP3 SWAP1 MSTORE DUP1 MLOAD PUSH1 0x20 SWAP1 SWAP2 ADD KECCAK256 PUSH32 0xFFFFFFFF00000000000000000000000000000000000000000000000000000000 PUSH1 0xE0 DUP5 SWAP1 SHL AND DUP3 MSTORE PUSH1 0x4 DUP3 ADD MSTORE PUSH1 0x1 PUSH1 0x1 PUSH1 0xA0 SHL SUB DUP9 AND PUSH1 0x24 DUP3 ADD MSTORE PUSH1 0x44 ADD PUSH1 0x0 PUSH1 0x40 MLOAD DUP1 DUP4 SUB DUP2 PUSH1 0x0 DUP8 DUP1 EXTCODESIZE ISZERO DUP1 ISZERO PUSH2 0x134A JUMPI PUSH1 0x0 DUP1 REVERT JUMPDEST POP GAS CALL ISZERO DUP1 ISZERO PUSH2 0x135E JUMPI RETURNDATASIZE PUSH1 0x0 DUP1 RETURNDATACOPY RETURNDATASIZE PUSH1 0x0 REVERT JUMPDEST POP POP PUSH1 0x2 SLOAD PUSH1 0x40 MLOAD PUSH32 0x28ED4F6C00000000000000000000000000000000000000000000000000000000 DUP2 MSTORE PUSH1 0x4 DUP2 ADD DUP6 SWAP1 MSTORE PUSH1 0x1 PUSH1 0x1 PUSH1 0xA0 SHL SUB DUP13 DUP2 AND PUSH1 0x24 DUP4 ADD MSTORE DUP6 SWAP5 POP SWAP1 SWAP2 AND SWAP2 POP PUSH4 0x28ED4F6C SWAP1 PUSH1 0x44 ADD PUSH1 0x0 PUSH1 0x40 MLOAD DUP1 DUP4 SUB DUP2 PUSH1 0x0 DUP8 DUP1 EXTCODESIZE ISZERO DUP1 ISZERO PUSH2 0x13CB JUMPI PUSH1 0x0 DUP1 REVERT JUMPDEST POP GAS CALL ISZERO DUP1 ISZERO PUSH2 0x13DF JUMPI RETURNDATASIZE PUSH1 0x0 DUP1 RETURNDATACOPY RETURNDATASIZE PUSH1 0x0 REVERT JUMPDEST POP POP PUSH1 0x2 SLOAD PUSH1 0x40 MLOAD PUSH4 0x23B872DD PUSH1 0xE0 SHL DUP2 MSTORE ADDRESS PUSH1 0x4 DUP3 ADD MSTORE PUSH1 0x1 PUSH1 0x1 PUSH1 0xA0 SHL SUB DUP14 DUP2 AND PUSH1 0x24 DUP4 ADD MSTORE PUSH1 0x44 DUP3 ADD DUP7 SWAP1 MSTORE SWAP1 SWAP2 AND SWAP3 POP PUSH4 0x23B872DD SWAP2 POP PUSH1 0x64 ADD PUSH1 0x0 PUSH1 0x40 MLOAD DUP1 DUP4 SUB DUP2 PUSH1 0x0 DUP8 DUP1 EXTCODESIZE ISZERO DUP1 ISZERO PUSH2 0x1437 JUMPI PUSH1 0x0 DUP1 REVERT JUMPDEST POP GAS CALL ISZERO DUP1 ISZERO PUSH2 0x144B JUMPI RETURNDATASIZE PUSH1 0x0 DUP1 RETURNDATACOPY RETURNDATASIZE PUSH1 0x0 REVERT JUMPDEST POP POP PUSH1 0x2 SLOAD PUSH1 0x40 MLOAD PUSH32 0x7409E4A200000000000000000000000000000000000000000000000000000000 DUP2 MSTORE PUSH1 0x4 DUP2 ADD DUP7 SWAP1 MSTORE PUSH1 0x1 PUSH1 0x1 PUSH1 0xA0 SHL SUB DUP8 DUP2 AND SWAP5 POP PUSH4 0xB7FC1B94 SWAP4 POP DUP15 SWAP3 AND SWAP1 PUSH4 0x7409E4A2 SWAP1 PUSH1 0x24 ADD PUSH1 0x20 PUSH1 0x40 MLOAD DUP1 DUP4 SUB DUP2 DUP7 GAS STATICCALL ISZERO DUP1 ISZERO PUSH2 0x14BB JUMPI RETURNDATASIZE PUSH1 0x0 DUP1 RETURNDATACOPY RETURNDATASIZE PUSH1 0x0 REVERT JUMPDEST POP POP POP POP PUSH1 0x40 MLOAD RETURNDATASIZE PUSH1 0x1F NOT PUSH1 0x1F DUP3 ADD AND DUP3 ADD DUP1 PUSH1 0x40 MSTORE POP DUP2 ADD SWAP1 PUSH2 0x14DF SWAP2 SWAP1 PUSH2 0x1997 JUMP JUMPDEST DUP11 PUSH1 0x40 MLOAD DUP5 PUSH4 0xFFFFFFFF AND PUSH1 0xE0 SHL DUP2 MSTORE PUSH1 0x4 ADD PUSH2 0x14FE SWAP4 SWAP3 SWAP2 SWAP1 PUSH2 0x1B0F JUMP JUMPDEST PUSH1 0x20 PUSH1 0x40 MLOAD DUP1 DUP4 SUB DUP2 DUP7 GAS STATICCALL ISZERO DUP1 ISZERO PUSH2 0x151B JUMPI RETURNDATASIZE PUSH1 0x0 DUP1 RETURNDATACOPY RETURNDATASIZE PUSH1 0x0 REVERT JUMPDEST POP POP POP POP PUSH1 0x40 MLOAD RETURNDATASIZE PUSH1 0x1F NOT PUSH1 0x1F DUP3 ADD AND DUP3 ADD DUP1 PUSH1 0x40 MSTORE POP DUP2 ADD SWAP1 PUSH2 0x153F SWAP2 SWAP1 PUSH2 0x1997 JUMP JUMPDEST SWAP11 SWAP10 POP POP POP POP POP POP POP POP POP POP JUMP JUMPDEST PUSH1 0x5 SLOAD PUSH1 0x1 PUSH1 0x1 PUSH1 0xA0 SHL SUB AND PUSH2 0x15A5 JUMPI PUSH1 0x40 MLOAD PUSH3 0x461BCD PUSH1 0xE5 SHL DUP2 MSTORE PUSH1 0x20 PUSH1 0x4 DUP3 ADD MSTORE PUSH1 0x13 PUSH1 0x24 DUP3 ADD MSTORE PUSH32 0x466565204D616E61676572206E6F742073657400000000000000000000000000 PUSH1 0x44 DUP3 ADD MSTORE PUSH1 0x64 ADD PUSH2 0x260 JUMP JUMPDEST PUSH1 0x3 SLOAD PUSH1 0x5 SLOAD PUSH1 0x40 MLOAD PUSH32 0x95EA7B300000000000000000000000000000000000000000000000000000000 DUP2 MSTORE PUSH1 0x1 PUSH1 0x1 PUSH1 0xA0 SHL SUB SWAP2 DUP3 AND PUSH1 0x4 DUP3 ADD MSTORE PUSH1 0x24 DUP2 ADD DUP5 SWAP1 MSTORE PUSH1 0x0 SWAP3 SWAP2 SWAP1 SWAP2 AND SWAP1 PUSH4 0x95EA7B3 SWAP1 PUSH1 0x44 ADD PUSH1 0x20 PUSH1 0x40 MLOAD DUP1 DUP4 SUB DUP2 PUSH1 0x0 DUP8 GAS CALL ISZERO DUP1 ISZERO PUSH2 0x1618 JUMPI RETURNDATASIZE PUSH1 0x0 DUP1 RETURNDATACOPY RETURNDATASIZE PUSH1 0x0 REVERT JUMPDEST POP POP POP POP PUSH1 0x40 MLOAD RETURNDATASIZE PUSH1 0x1F NOT PUSH1 0x1F DUP3 ADD AND DUP3 ADD DUP1 PUSH1 0x40 MSTORE POP DUP2 ADD SWAP1 PUSH2 0x163C SWAP2 SWAP1 PUSH2 0x1975 JUMP JUMPDEST SWAP1 POP DUP1 PUSH2 0x168B JUMPI PUSH1 0x40 MLOAD PUSH3 0x461BCD PUSH1 0xE5 SHL DUP2 MSTORE PUSH1 0x20 PUSH1 0x4 DUP3 ADD MSTORE PUSH1 0x15 PUSH1 0x24 DUP3 ADD MSTORE PUSH32 0x546F6B656E20617070726F76616C206661696C65640000000000000000000000 PUSH1 0x44 DUP3 ADD MSTORE PUSH1 0x64 ADD PUSH2 0x260 JUMP JUMPDEST PUSH1 0x5 SLOAD PUSH1 0x40 MLOAD PUSH32 0x47E7EF2400000000000000000000000000000000000000000000000000000000 DUP2 MSTORE PUSH1 0x1 PUSH1 0x1 PUSH1 0xA0 SHL SUB DUP6 DUP2 AND PUSH1 0x4 DUP4 ADD MSTORE PUSH1 0x24 DUP3 ADD DUP6 SWAP1 MSTORE SWAP1 SWAP2 AND SWAP1 PUSH4 0x47E7EF24 SWAP1 PUSH1 0x44 ADD PUSH1 0x0 PUSH1 0x40 MLOAD DUP1 DUP4 SUB DUP2 PUSH1 0x0 DUP8 DUP1 EXTCODESIZE ISZERO DUP1 ISZERO PUSH2 0x16F2 JUMPI PUSH1 0x0 DUP1 REVERT JUMPDEST POP GAS CALL ISZERO DUP1 ISZERO PUSH2 0x1706 JUMPI RETURNDATASIZE PUSH1 0x0 DUP1 RETURNDATACOPY RETURNDATASIZE PUSH1 0x0 REVERT JUMPDEST POP POP POP POP POP POP POP JUMP JUMPDEST PUSH1 0x1 PUSH1 0x1 PUSH1 0xA0 SHL SUB DUP2 AND DUP2 EQ PUSH2 0x1724 JUMPI PUSH1 0x0 DUP1 REVERT JUMPDEST POP JUMP JUMPDEST PUSH1 0x0 PUSH1 0x20 DUP3 DUP5 SUB SLT ISZERO PUSH2 0x1739 JUMPI PUSH1 0x0 DUP1 REVERT JUMPDEST DUP2 CALLDATALOAD PUSH2 0x905 DUP2 PUSH2 0x170F JUMP JUMPDEST PUSH1 0x0 DUP1 PUSH1 0x40 DUP4 DUP6 SUB SLT ISZERO PUSH2 0x1757 JUMPI PUSH1 0x0 DUP1 REVERT JUMPDEST DUP3 CALLDATALOAD SWAP2 POP PUSH1 0x20 DUP4 ADD CALLDATALOAD PUSH2 0x1769 DUP2 PUSH2 0x170F JUMP JUMPDEST DUP1 SWAP2 POP POP SWAP3 POP SWAP3 SWAP1 POP JUMP JUMPDEST PUSH1 0x0 DUP1 DUP4 PUSH1 0x1F DUP5 ADD SLT PUSH2 0x1786 JUMPI PUSH1 0x0 DUP1 REVERT JUMPDEST POP DUP2 CALLDATALOAD PUSH8 0xFFFFFFFFFFFFFFFF DUP2 GT ISZERO PUSH2 0x179E JUMPI PUSH1 0x0 DUP1 REVERT JUMPDEST PUSH1 0x20 DUP4 ADD SWAP2 POP DUP4 PUSH1 0x20 DUP3 DUP6 ADD ADD GT ISZERO PUSH2 0x17B6 JUMPI PUSH1 0x0 DUP1 REVERT JUMPDEST SWAP3 POP SWAP3 SWAP1 POP JUMP JUMPDEST PUSH1 0x0 DUP1 PUSH1 0x0 DUP1 PUSH1 0x0 PUSH1 0x80 DUP7 DUP9 SUB SLT ISZERO PUSH2 0x17D5 JUMPI PUSH1 0x0 DUP1 REVERT JUMPDEST DUP6 CALLDATALOAD PUSH8 0xFFFFFFFFFFFFFFFF DUP2 GT ISZERO PUSH2 0x17EC JUMPI PUSH1 0x0 DUP1 REVERT JUMPDEST PUSH2 0x17F8 DUP9 DUP3 DUP10 ADD PUSH2 0x1774 JUMP JUMPDEST SWAP1 SWAP7 POP SWAP5 POP POP PUSH1 0x20 DUP7 ADD CALLDATALOAD SWAP3 POP PUSH1 0x40 DUP7 ADD CALLDATALOAD SWAP2 POP PUSH1 0x60 DUP7 ADD CALLDATALOAD PUSH2 0x181A DUP2 PUSH2 0x170F JUMP JUMPDEST DUP1 SWAP2 POP POP SWAP3 SWAP6 POP SWAP3 SWAP6 SWAP1 SWAP4 POP JUMP JUMPDEST PUSH1 0x0 DUP1 PUSH1 0x0 DUP1 PUSH1 0x60 DUP6 DUP8 SUB SLT ISZERO PUSH2 0x183E JUMPI PUSH1 0x0 DUP1 REVERT JUMPDEST DUP5 CALLDATALOAD PUSH2 0x1849 DUP2 PUSH2 0x170F JUMP JUMPDEST SWAP4 POP PUSH1 0x20 DUP6 ADD CALLDATALOAD SWAP3 POP PUSH1 0x40 DUP6 ADD CALLDATALOAD PUSH8 0xFFFFFFFFFFFFFFFF DUP2 GT ISZERO PUSH2 0x186C JUMPI PUSH1 0x0 DUP1 REVERT JUMPDEST PUSH2 0x1878 DUP8 DUP3 DUP9 ADD PUSH2 0x1774 JUMP JUMPDEST SWAP6 SWAP9 SWAP5 SWAP8 POP SWAP6 POP POP POP POP JUMP JUMPDEST PUSH1 0x0 DUP1 PUSH1 0x0 DUP1 PUSH1 0x0 PUSH1 0xA0 DUP7 DUP9 SUB SLT ISZERO PUSH2 0x189C JUMPI PUSH1 0x0 DUP1 REVERT JUMPDEST DUP6 CALLDATALOAD SWAP5 POP PUSH1 0x20 DUP7 ADD CALLDATALOAD PUSH2 0x18AE DUP2 PUSH2 0x170F JUMP JUMPDEST SWAP4 POP PUSH1 0x40 DUP7 ADD CALLDATALOAD SWAP3 POP PUSH1 0x60 DUP7 ADD CALLDATALOAD SWAP2 POP PUSH1 0x80 DUP7 ADD CALLDATALOAD PUSH2 0x181A DUP2 PUSH2 0x170F JUMP JUMPDEST PUSH1 0x0 PUSH1 0x20 DUP3 DUP5 SUB SLT ISZERO PUSH2 0x18DE JUMPI PUSH1 0x0 DUP1 REVERT JUMPDEST POP CALLDATALOAD SWAP2 SWAP1 POP JUMP JUMPDEST PUSH1 0x0 DUP1 PUSH1 0x0 DUP1 PUSH1 0x0 DUP1 PUSH1 0x0 PUSH1 0xC0 DUP9 DUP11 SUB SLT ISZERO PUSH2 0x1900 JUMPI PUSH1 0x0 DUP1 REVERT JUMPDEST DUP8 CALLDATALOAD PUSH8 0xFFFFFFFFFFFFFFFF DUP2 GT ISZERO PUSH2 0x1917 JUMPI PUSH1 0x0 DUP1 REVERT JUMPDEST PUSH2 0x1923 DUP11 DUP3 DUP12 ADD PUSH2 0x1774 JUMP JUMPDEST SWAP1 SWAP9 POP SWAP7 POP POP PUSH1 0x20 DUP9 ADD CALLDATALOAD PUSH2 0x1937 DUP2 PUSH2 0x170F JUMP JUMPDEST SWAP5 POP PUSH1 0x40 DUP9 ADD CALLDATALOAD SWAP4 POP PUSH1 0x60 DUP9 ADD CALLDATALOAD SWAP3 POP PUSH1 0x80 DUP9 ADD CALLDATALOAD PUSH2 0x1955 DUP2 PUSH2 0x170F JUMP JUMPDEST SWAP2 POP PUSH1 0xA0 DUP9 ADD CALLDATALOAD PUSH2 0x1965 DUP2 PUSH2 0x170F JUMP JUMPDEST DUP1 SWAP2 POP POP SWAP3 SWAP6 SWAP9 SWAP2 SWAP5 SWAP8 POP SWAP3 SWAP6 POP JUMP JUMPDEST PUSH1 0x0 PUSH1 0x20 DUP3 DUP5 SUB SLT ISZERO PUSH2 0x1987 JUMPI PUSH1 0x0 DUP1 REVERT JUMPDEST DUP2 MLOAD DUP1 ISZERO ISZERO DUP2 EQ PUSH2 0x905 JUMPI PUSH1 0x0 DUP1 REVERT JUMPDEST PUSH1 0x0 PUSH1 0x20 DUP3 DUP5 SUB SLT ISZERO PUSH2 0x19A9 JUMPI PUSH1 0x0 DUP1 REVERT JUMPDEST POP MLOAD SWAP2 SWAP1 POP JUMP JUMPDEST PUSH32 0x4E487B7100000000000000000000000000000000000000000000000000000000 PUSH1 0x0 MSTORE PUSH1 0x11 PUSH1 0x4 MSTORE PUSH1 0x24 PUSH1 0x0 REVERT JUMPDEST DUP1 DUP3 ADD DUP1 DUP3 GT ISZERO PUSH2 0xC5B JUMPI PUSH2 0xC5B PUSH2 0x19B0 JUMP JUMPDEST PUSH1 0x60 DUP2 MSTORE DUP4 PUSH1 0x60 DUP3 ADD MSTORE DUP4 DUP6 PUSH1 0x80 DUP4 ADD CALLDATACOPY PUSH1 0x0 PUSH1 0x80 DUP6 DUP4 ADD ADD MSTORE PUSH1 0x0 PUSH1 0x80 PUSH1 0x1F NOT PUSH1 0x1F DUP8 ADD AND DUP4 ADD ADD SWAP1 POP DUP4 PUSH1 0x20 DUP4 ADD MSTORE DUP3 PUSH1 0x40 DUP4 ADD MSTORE SWAP6 SWAP5 POP POP POP POP POP JUMP JUMPDEST DUP2 DUP2 SUB DUP2 DUP2 GT ISZERO PUSH2 0xC5B JUMPI PUSH2 0xC5B PUSH2 0x19B0 JUMP JUMPDEST PUSH1 0x0 PUSH1 0x20 DUP3 DUP5 SUB SLT ISZERO PUSH2 0x1A57 JUMPI PUSH1 0x0 DUP1 REVERT JUMPDEST DUP2 MLOAD PUSH2 0x905 DUP2 PUSH2 0x170F JUMP JUMPDEST PUSH1 0x0 JUMPDEST DUP4 DUP2 LT ISZERO PUSH2 0x1A7D JUMPI DUP2 DUP2 ADD MLOAD DUP4 DUP3 ADD MSTORE PUSH1 0x20 ADD PUSH2 0x1A65 JUMP JUMPDEST POP POP PUSH1 0x0 SWAP2 ADD MSTORE JUMP JUMPDEST PUSH1 0x0 DUP2 MLOAD DUP1 DUP5 MSTORE PUSH2 0x1A9E DUP2 PUSH1 0x20 DUP7 ADD PUSH1 0x20 DUP7 ADD PUSH2 0x1A62 JUMP JUMPDEST PUSH1 0x1F ADD PUSH1 0x1F NOT AND SWAP3 SWAP1 SWAP3 ADD PUSH1 0x20 ADD SWAP3 SWAP2 POP POP JUMP JUMPDEST PUSH1 0x40 DUP2 MSTORE PUSH1 0x0 PUSH2 0x1AC5 PUSH1 0x40 DUP4 ADD DUP6 PUSH2 0x1A86 JUMP JUMPDEST SWAP1 POP DUP3 PUSH1 0x20 DUP4 ADD MSTORE SWAP4 SWAP3 POP POP POP JUMP JUMPDEST PUSH1 0x0 DUP3 MLOAD PUSH2 0x1AE6 DUP2 DUP5 PUSH1 0x20 DUP8 ADD PUSH2 0x1A62 JUMP JUMPDEST SWAP2 SWAP1 SWAP2 ADD SWAP3 SWAP2 POP POP JUMP JUMPDEST PUSH1 0x0 DUP2 PUSH1 0x0 NOT DIV DUP4 GT DUP3 ISZERO ISZERO AND ISZERO PUSH2 0x1B0A JUMPI PUSH2 0x1B0A PUSH2 0x19B0 JUMP JUMPDEST POP MUL SWAP1 JUMP JUMPDEST PUSH1 0x60 DUP2 MSTORE PUSH1 0x0 PUSH2 0x1B22 PUSH1 0x60 DUP4 ADD DUP7 PUSH2 0x1A86 JUMP JUMPDEST PUSH1 0x20 DUP4 ADD SWAP5 SWAP1 SWAP5 MSTORE POP PUSH1 0x40 ADD MSTORE SWAP2 SWAP1 POP JUMP INVALID LOG2 PUSH5 0x6970667358 0x22 SLT KECCAK256 0xBC 0xCA 0xE5 STATICCALL 0xE7 0xE7 MSIZE LOG1 EXTCODESIZE 0xC4 XOR ADDMOD 0x4A 0xCB CREATE2 0xCA 0x4F SWAP15 BALANCE SHR 0xD9 SWAP1 0x4F PUSH1 0x44 0xCD 0xDD SELFBALANCE DUP15 0xF6 0xC9 0x1F PUSH5 0x736F6C6343 STOP ADDMOD LT STOP CALLER "},"methodIdentifiers":{"canReveal(bytes32)":"ed186582","commit(bytes32,address)":"5a746101","getPartnerManager()":"e4f396aa","makeCommitment(bytes32,address,bytes32,uint256,address)":"e0dfa3c8","price(string,uint256,uint256,address)":"89fce619","register(string,address,bytes32,uint256,address,address)":"ed80c1a7","setFeeManager(address)":"472d35b9","tokenFallback(address,uint256,bytes)":"c0ee0b8a"}},"storageLayout":{"storage":[{"astId":2311,"contract":"contracts/Registrar/PartnerRegistrar.sol:PartnerRegistrar","label":"_accessControl","offset":0,"slot":"0","type":"t_contract(IAccessControl)2382"},{"astId":4403,"contract":"contracts/Registrar/PartnerRegistrar.sol:PartnerRegistrar","label":"_commitmentRevealTime","offset":0,"slot":"1","type":"t_mapping(t_bytes32,t_uint256)"},{"astId":4406,"contract":"contracts/Registrar/PartnerRegistrar.sol:PartnerRegistrar","label":"_nodeOwner","offset":0,"slot":"2","type":"t_contract(NodeOwner)3102"},{"astId":4409,"contract":"contracts/Registrar/PartnerRegistrar.sol:PartnerRegistrar","label":"_rif","offset":0,"slot":"3","type":"t_contract(IERC677)2287"},{"astId":4412,"contract":"contracts/Registrar/PartnerRegistrar.sol:PartnerRegistrar","label":"_partnerManager","offset":0,"slot":"4","type":"t_contract(IPartnerManager)4014"},{"astId":4415,"contract":"contracts/Registrar/PartnerRegistrar.sol:PartnerRegistrar","label":"_feeManager","offset":0,"slot":"5","type":"t_contract(IFeeManager)3001"},{"astId":4418,"contract":"contracts/Registrar/PartnerRegistrar.sol:PartnerRegistrar","label":"_rns","offset":0,"slot":"6","type":"t_contract(RNS)4282"},{"astId":4420,"contract":"contracts/Registrar/PartnerRegistrar.sol:PartnerRegistrar","label":"_rootNode","offset":0,"slot":"7","type":"t_bytes32"}],"types":{"t_bytes32":{"encoding":"inplace","label":"bytes32","numberOfBytes":"32"},"t_contract(IAccessControl)2382":{"encoding":"inplace","label":"contract IAccessControl","numberOfBytes":"20"},"t_contract(IERC677)2287":{"encoding":"inplace","label":"contract IERC677","numberOfBytes":"20"},"t_contract(IFeeManager)3001":{"encoding":"inplace","label":"contract IFeeManager","numberOfBytes":"20"},"t_contract(IPartnerManager)4014":{"encoding":"inplace","label":"contract IPartnerManager","numberOfBytes":"20"},"t_contract(NodeOwner)3102":{"encoding":"inplace","label":"contract NodeOwner","numberOfBytes":"20"},"t_contract(RNS)4282":{"encoding":"inplace","label":"contract RNS","numberOfBytes":"20"},"t_mapping(t_bytes32,t_uint256)":{"encoding":"mapping","key":"t_bytes32","label":"mapping(bytes32 => uint256)","numberOfBytes":"32","value":"t_uint256"},"t_uint256":{"encoding":"inplace","label":"uint256","numberOfBytes":"32"}}},"userdoc":{"events":{"FeeManagerChanged(address,address)":{"notice":"event emitted when a fee manager contract is set"},"NameRegistered(address,uint256)":{"notice":"event emitted when a domain has been successfully registered"}},"kind":"user","methods":{"canReveal(bytes32)":{"notice":"reveals if the name is ready to be registered by calling register function. Meant to be called after a commitment."},"commit(bytes32,address)":{"notice":"commits a name if required. This is used to reserve a name for a specific user and prevent a frontrunning attack"},"getPartnerManager()":{"notice":"returns the partner manager that the registrar has been configured to use"},"makeCommitment(bytes32,address,bytes32,uint256,address)":{"notice":"calculates the commitment of a name based on the provided parameters"},"price(string,uint256,uint256,address)":{"notice":"calculates the price of a name"},"register(string,address,bytes32,uint256,address,address)":{"notice":"Registers a .rsk name in RNS."},"setFeeManager(address)":{"notice":"sets the fee manager to use. Mandatory for the renewer to work."},"tokenFallback(address,uint256,bytes)":{"notice":"ERC-677 token fallback function."}},"version":1}}}}