{"contracts/PartnerConfiguration/PartnerConfiguration.sol":{"PartnerConfiguration":{"abi":[{"inputs":[{"internalType":"contract IAccessControl","name":"accessControl","type":"address"},{"internalType":"uint256","name":"minLength","type":"uint256"},{"internalType":"uint256","name":"maxLength","type":"uint256"},{"internalType":"uint256","name":"minDuration","type":"uint256"},{"internalType":"uint256","name":"maxDuration","type":"uint256"},{"internalType":"uint256","name":"feePercentage","type":"uint256"},{"internalType":"uint256","name":"discount","type":"uint256"},{"internalType":"uint256","name":"minCommitmentAge","type":"uint256"}],"stateMutability":"nonpayable","type":"constructor"},{"inputs":[{"internalType":"uint256","name":"duration","type":"uint256"},{"internalType":"string","name":"reason","type":"string"}],"name":"InvalidDuration","type":"error"},{"inputs":[{"internalType":"uint256","name":"length","type":"uint256"},{"internalType":"string","name":"reason","type":"string"}],"name":"InvalidLength","type":"error"},{"inputs":[{"internalType":"string","name":"name","type":"string"},{"internalType":"string","name":"reason","type":"string"}],"name":"InvalidName","type":"error"},{"inputs":[{"internalType":"address","name":"sender","type":"address"}],"name":"OnlyHighLevelOperator","type":"error"},{"anonymous":false,"inputs":[{"indexed":false,"internalType":"uint256","name":"previousValue","type":"uint256"},{"indexed":false,"internalType":"uint256","name":"newValue","type":"uint256"}],"name":"DiscountChanged","type":"event"},{"anonymous":false,"inputs":[{"indexed":false,"internalType":"uint256","name":"previousValue","type":"uint256"},{"indexed":false,"internalType":"uint256","name":"newValue","type":"uint256"}],"name":"FeePercentageChanged","type":"event"},{"anonymous":false,"inputs":[{"indexed":false,"internalType":"uint256","name":"previousValue","type":"uint256"},{"indexed":false,"internalType":"uint256","name":"newValue","type":"uint256"}],"name":"MaxDurationChanged","type":"event"},{"anonymous":false,"inputs":[{"indexed":false,"internalType":"uint256","name":"previousValue","type":"uint256"},{"indexed":false,"internalType":"uint256","name":"newValue","type":"uint256"}],"name":"MaxLengthChanged","type":"event"},{"anonymous":false,"inputs":[{"indexed":false,"internalType":"uint256","name":"previousValue","type":"uint256"},{"indexed":false,"internalType":"uint256","name":"newValue","type":"uint256"}],"name":"MinCommitmentAgeChanged","type":"event"},{"anonymous":false,"inputs":[{"indexed":false,"internalType":"uint256","name":"previousValue","type":"uint256"},{"indexed":false,"internalType":"uint256","name":"newValue","type":"uint256"}],"name":"MinDurationChanged","type":"event"},{"anonymous":false,"inputs":[{"indexed":false,"internalType":"uint256","name":"previousValue","type":"uint256"},{"indexed":false,"internalType":"uint256","name":"newValue","type":"uint256"}],"name":"MinLengthChanged","type":"event"},{"inputs":[],"name":"getDiscount","outputs":[{"internalType":"uint256","name":"","type":"uint256"}],"stateMutability":"view","type":"function"},{"inputs":[],"name":"getFeePercentage","outputs":[{"internalType":"uint256","name":"","type":"uint256"}],"stateMutability":"view","type":"function"},{"inputs":[],"name":"getMaxDuration","outputs":[{"internalType":"uint256","name":"","type":"uint256"}],"stateMutability":"view","type":"function"},{"inputs":[],"name":"getMaxLength","outputs":[{"internalType":"uint256","name":"","type":"uint256"}],"stateMutability":"view","type":"function"},{"inputs":[],"name":"getMinCommitmentAge","outputs":[{"internalType":"uint256","name":"","type":"uint256"}],"stateMutability":"view","type":"function"},{"inputs":[],"name":"getMinDuration","outputs":[{"internalType":"uint256","name":"","type":"uint256"}],"stateMutability":"view","type":"function"},{"inputs":[],"name":"getMinLength","outputs":[{"internalType":"uint256","name":"","type":"uint256"}],"stateMutability":"view","type":"function"},{"inputs":[{"internalType":"string","name":"","type":"string"},{"internalType":"uint256","name":"","type":"uint256"},{"internalType":"uint256","name":"duration","type":"uint256"}],"name":"getPrice","outputs":[{"internalType":"uint256","name":"","type":"uint256"}],"stateMutability":"view","type":"function"},{"inputs":[{"internalType":"uint256","name":"discount","type":"uint256"}],"name":"setDiscount","outputs":[],"stateMutability":"nonpayable","type":"function"},{"inputs":[{"internalType":"uint256","name":"feePercentage","type":"uint256"}],"name":"setFeePercentage","outputs":[],"stateMutability":"nonpayable","type":"function"},{"inputs":[{"internalType":"uint256","name":"maxDuration","type":"uint256"}],"name":"setMaxDuration","outputs":[],"stateMutability":"nonpayable","type":"function"},{"inputs":[{"internalType":"uint256","name":"maxLength","type":"uint256"}],"name":"setMaxLength","outputs":[],"stateMutability":"nonpayable","type":"function"},{"inputs":[{"internalType":"uint256","name":"minCommitmentAge","type":"uint256"}],"name":"setMinCommitmentAge","outputs":[],"stateMutability":"nonpayable","type":"function"},{"inputs":[{"internalType":"uint256","name":"minDuration","type":"uint256"}],"name":"setMinDuration","outputs":[],"stateMutability":"nonpayable","type":"function"},{"inputs":[{"internalType":"uint256","name":"minLength","type":"uint256"}],"name":"setMinLength","outputs":[],"stateMutability":"nonpayable","type":"function"},{"inputs":[{"internalType":"string","name":"name","type":"string"},{"internalType":"uint256","name":"duration","type":"uint256"}],"name":"validateName","outputs":[],"stateMutability":"view","type":"function"}],"devdoc":{"author":"Identity Team @IOVLabs","kind":"dev","methods":{"getPrice(string,uint256,uint256)":{"params":{"duration":"the duration of the domain","expires":"the expiration date of the domain. it is being ignored. left just for compatibility. just send 0.","name":"the name of the domain"}},"setDiscount(uint256)":{"params":{"discount":"the discount assigned to the partner for each domain name registered. represented as a percentage 18 decimals precision representation"}},"setFeePercentage(uint256)":{"params":{"feePercentage":"the percentage assigned to the partner for each domain name registered"}},"setMaxDuration(uint256)":{"params":{"maxDuration":"the maximum duration allowed for a domain name in years"}},"setMaxLength(uint256)":{"params":{"maxLength":"the maximum characters count allowed for a domain name"}},"setMinCommitmentAge(uint256)":{"params":{"minCommitmentAge":"the minimum commitment age allowed for a domain name in seconds"}},"setMinDuration(uint256)":{"params":{"minDuration":"the minimum duration allowed for a domain name in years"}},"setMinLength(uint256)":{"params":{"minLength":"the minimum characters count allowed for a domain name"}},"validateName(string,uint256)":{"params":{"duration":"duration for which the name should be registered","name":"name under validation"}}},"title":"Defines the configuration for a partner in particular","version":1},"evm":{"bytecode":{"linkReferences":{},"object":"60806040523480156200001157600080fd5b506040516200178f3803806200178f83398101604081905262000034916200021c565b600080546001600160a01b0319166001600160a01b038a16178155879003620000b3578660405163023d531160e01b8152600401620000aa918152604060208201819052601a908201527f4d696e696d756d206c656e6774682063616e6e6f742062652030000000000000606082015260800190565b60405180910390fd5b8686101562000125578560405163023d531160e01b8152600401620000aa918152604060208201819052602d908201527f4d6178206c656e6774682063616e6e6f74206265206c657373207468616e207460608201526c0d0ca40dad2dc40d8cadccee8d609b1b608082015260a00190565b8460000362000181578460405163bfbe7a1360e01b8152600401620000aa918152604060208201819052601c908201527f4d696e696d756d206475726174696f6e2063616e6e6f74206265203000000000606082015260800190565b84841015620001f7578360405163bfbe7a1360e01b8152600401620000aa9181526040602082018190526031908201527f4d6178206475726174696f6e2063616e6e6f74206265206c657373207468616e606082015270103a34329036b4b710323ab930ba34b7b760791b608082015260a00190565b6001969096556002949094556003929092556004556005556006556007555062000294565b600080600080600080600080610100898b0312156200023a57600080fd5b88516001600160a01b03811681146200025257600080fd5b809850506020890151965060408901519550606089015194506080890151935060a0890151925060c0890151915060e089015190509295985092959890939650565b6114eb80620002a46000396000f3fe608060405234801561001057600080fd5b50600436106101005760003560e01c8063ae06c1b711610097578063cf0f34c411610066578063cf0f34c4146101b7578063d137874b146101ca578063dabd2719146101d2578063dc2f7867146101e557600080fd5b8063ae06c1b714610176578063b49a2db914610189578063b7fc1b9414610191578063be47152e146101a457600080fd5b806317215250116100d357806317215250146101405780632e4c5d9014610148578063857050a11461015b5780638e99a4221461016357600080fd5b806301a400fa14610105578063034d501b1461011b57806311efbf61146101235780631674bade1461012b575b600080fd5b6002545b60405190815260200160405180910390f35b600354610109565b600554610109565b61013e610139366004611187565b6101f8565b005b600754610109565b61013e610156366004611187565b610405565b600154610109565b61013e610171366004611187565b610524565b61013e610184366004611187565b61072c565b600454610109565b61010961019f3660046111e9565b61088e565b61013e6101b236600461123a565b61091b565b61013e6101c5366004611187565b610aee565b600654610109565b61013e6101e0366004611187565b610c8f565b61013e6101f3366004611187565b610df1565b600054604051632d260be760e11b81523360048201526001600160a01b0390911690635a4c17ce90602401602060405180830381865afa158015610240573d6000803e3d6000fd5b505050506040513d601f19601f820116820180604052508101906102649190611286565b610288576040516307d92ddb60e51b81523360048201526024015b60405180910390fd5b60035460045460408051838152602081018590527f8b85dfe026c89230040eed7faae47e64a506586518e088fb022c34c05aaac682910160405180910390a182820361031957604080518082018252601e81527f6f6c642076616c75652069732073616d65206173206e65772076616c756500006020820152905162461bcd60e51b815261027f91906004016112af565b82600003610373578260405163bfbe7a1360e01b815260040161027f918152604060208201819052601c908201527f4d696e696d756d206475726174696f6e2063616e6e6f74206265203000000000606082015260800190565b801580159061038157508083115b156103fe578260405163bfbe7a1360e01b815260040161027f9181526040602082018190526039908201527f4d696e696d756d206475726174696f6e2063616e6e6f74206265206d6f72652060608201527f7468616e20746865206d6178696d756d206475726174696f6e00000000000000608082015260a00190565b5050600355565b600054604051632d260be760e11b81523360048201526001600160a01b0390911690635a4c17ce90602401602060405180830381865afa15801561044d573d6000803e3d6000fd5b505050506040513d601f19601f820116820180604052508101906104719190611286565b610490576040516307d92ddb60e51b815233600482015260240161027f565b60075460408051828152602081018490527f9373c9efcdb15a5f76f41e32d76f6ddf07db90d0a8ba833c839d7b37e23271e3910160405180910390a181810361051e57604080518082018252601e81527f6f6c642076616c75652069732073616d65206173206e65772076616c756500006020820152905162461bcd60e51b815261027f91906004016112af565b50600755565b600054604051632d260be760e11b81523360048201526001600160a01b0390911690635a4c17ce90602401602060405180830381865afa15801561056c573d6000803e3d6000fd5b505050506040513d601f19601f820116820180604052508101906105909190611286565b6105af576040516307d92ddb60e51b815233600482015260240161027f565b60015460025460408051838152602081018590527f2e1e7828777a0695a640c72a0e441e50706c1f286a0a8e21da57d572b43e3ea4910160405180910390a182820361064057604080518082018252601e81527f6f6c642076616c75652069732073616d65206173206e65772076616c756500006020820152905162461bcd60e51b815261027f91906004016112af565b8260000361069a578260405163023d531160e01b815260040161027f918152604060208201819052601a908201527f4d696e696d756d206c656e6774682063616e6e6f742062652030000000000000606082015260800190565b80158015906106a857508083115b15610725578260405163023d531160e01b815260040161027f9181526040602082018190526031908201527f4d696e696d756d206c656e6774682063616e6e6f74206265206d6f726520746860608201527f616e20746865206d6178206c656e677468000000000000000000000000000000608082015260a00190565b5050600155565b600054604051632d260be760e11b81523360048201526001600160a01b0390911690635a4c17ce90602401602060405180830381865afa158015610774573d6000803e3d6000fd5b505050506040513d601f19601f820116820180604052508101906107989190611286565b6107b7576040516307d92ddb60e51b815233600482015260240161027f565b60055460408051828152602081018490527f2235d343de14bfe1d7efed850d828da476e76eb894c4831ccfa097efc5a45444910160405180910390a181810361084557604080518082018252601e81527f6f6c642076616c75652069732073616d65206173206e65772076616c756500006020820152905162461bcd60e51b815261027f91906004016112af565b68056bc75e2d63100000821115610888576040518060600160405280603581526020016114816035913960405162461bcd60e51b815260040161027f91906112af565b50600555565b60008068056bc75e2d63100000600654036108ad576000915050610913565b600283116108e657670de0b6b3a76400006108c9846002611313565b6108d39190611313565b90506108de81610f92565b915050610913565b670de0b6b3a76400006108fa846002611332565b6109049190611313565b905061090f81610f92565b9150505b949350505050565b60035481101561099d578060405163bfbe7a1360e01b815260040161027f9181526040602082018190526023908201527f4475726174696f6e206c657373207468616e206d696e696d756d20647572617460608201527f696f6e0000000000000000000000000000000000000000000000000000000000608082015260a00190565b600454811115610a1f578060405163bfbe7a1360e01b815260040161027f9181526040602082018190526022908201527f4475726174696f6e206973206d6f7265207468616e206d61782064757261746960608201527f6f6e000000000000000000000000000000000000000000000000000000000000608082015260a00190565b600154610a6184848080601f016020809104026020016040519081016040528093929190818152602001838380828437600092019190915250610ff892505050565b1015610a84578282604051633c11cc7360e21b815260040161027f929190611374565b600254610ac684848080601f016020809104026020016040519081016040528093929190818152602001838380828437600092019190915250610ff892505050565b1115610ae9578282604051633c11cc7360e21b815260040161027f9291906113c8565b505050565b600054604051632d260be760e11b81523360048201526001600160a01b0390911690635a4c17ce90602401602060405180830381865afa158015610b36573d6000803e3d6000fd5b505050506040513d601f19601f82011682018060405250810190610b5a9190611286565b610b79576040516307d92ddb60e51b815233600482015260240161027f565b60045460408051828152602081018490527f857e15edf1573f3e12a56af84632c9624ada2fb1c4b771bfdcc6385926fd9b3c910160405180910390a1818103610c0757604080518082018252601e81527f6f6c642076616c75652069732073616d65206173206e65772076616c756500006020820152905162461bcd60e51b815261027f91906004016112af565b600354821015610c89578160405163bfbe7a1360e01b815260040161027f9181526040602082018190526031908201527f4d6178206475726174696f6e2063616e6e6f74206265206c657373207468616e60608201527f20746865206d696e206475726174696f6e000000000000000000000000000000608082015260a00190565b50600455565b600054604051632d260be760e11b81523360048201526001600160a01b0390911690635a4c17ce90602401602060405180830381865afa158015610cd7573d6000803e3d6000fd5b505050506040513d601f19601f82011682018060405250810190610cfb9190611286565b610d1a576040516307d92ddb60e51b815233600482015260240161027f565b60065460408051828152602081018490527ffc412359346d4878705d935e022c5bf7c40a385b4e462962f31eb785ad7daec2910160405180910390a1818103610da857604080518082018252601e81527f6f6c642076616c75652069732073616d65206173206e65772076616c756500006020820152905162461bcd60e51b815261027f91906004016112af565b68056bc75e2d63100000821115610deb576040518060600160405280603581526020016114816035913960405162461bcd60e51b815260040161027f91906112af565b50600655565b600054604051632d260be760e11b81523360048201526001600160a01b0390911690635a4c17ce90602401602060405180830381865afa158015610e39573d6000803e3d6000fd5b505050506040513d601f19601f82011682018060405250810190610e5d9190611286565b610e7c576040516307d92ddb60e51b815233600482015260240161027f565b60025460408051828152602081018490527f9c1c60340d90a8e95f956f9277d69d2aa09de2bd429705a3bb9713cee078182d910160405180910390a1818103610f0a57604080518082018252601e81527f6f6c642076616c75652069732073616d65206173206e65772076616c756500006020820152905162461bcd60e51b815261027f91906004016112af565b600154821015610f8c578160405163023d531160e01b815260040161027f918152604060208201819052602d908201527f4d6178206c656e6774682063616e6e6f74206265206c657373207468616e207460608201527f6865206d696e206c656e67746800000000000000000000000000000000000000608082015260a00190565b50600255565b60065460009068056bc75e2d630fffff198101610fb25750600092915050565b80600003610fc1575090919050565b600068056bc75e2d63100000610fd78386611313565b610fe1919061141c565b90506000610fef828661143e565b95945050505050565b8051600090819081905b8082101561117e57600085838151811061101e5761101e611451565b01602001516001600160f81b03191690507f800000000000000000000000000000000000000000000000000000000000000081101561106957611062600184611332565b925061116b565b7fe0000000000000000000000000000000000000000000000000000000000000006001600160f81b0319821610156110a657611062600284611332565b7ff0000000000000000000000000000000000000000000000000000000000000006001600160f81b0319821610156110e357611062600384611332565b7ff8000000000000000000000000000000000000000000000000000000000000006001600160f81b03198216101561112057611062600484611332565b7ffc000000000000000000000000000000000000000000000000000000000000006001600160f81b03198216101561115d57611062600584611332565b611168600684611332565b92505b508261117681611467565b935050611002565b50909392505050565b60006020828403121561119957600080fd5b5035919050565b60008083601f8401126111b257600080fd5b50813567ffffffffffffffff8111156111ca57600080fd5b6020830191508360208285010111156111e257600080fd5b9250929050565b600080600080606085870312156111ff57600080fd5b843567ffffffffffffffff81111561121657600080fd5b611222878288016111a0565b90989097506020870135966040013595509350505050565b60008060006040848603121561124f57600080fd5b833567ffffffffffffffff81111561126657600080fd5b611272868287016111a0565b909790965060209590950135949350505050565b60006020828403121561129857600080fd5b815180151581146112a857600080fd5b9392505050565b600060208083528351808285015260005b818110156112dc578581018301518582016040015282016112c0565b506000604082860101526040601f19601f8301168501019250505092915050565b634e487b7160e01b600052601160045260246000fd5b600081600019048311821515161561132d5761132d6112fd565b500290565b80820180821115611345576113456112fd565b92915050565b81835281816020850137506000828201602090810191909152601f909101601f19169091010190565b60408152600061138860408301848661134b565b8281036020840152602081527f4e616d65206973206c657373207468616e206d696e696d756d206c656e6774686020820152604081019150509392505050565b6040815260006113dc60408301848661134b565b8281036020840152601c81527f4e616d65206973206d6f7265207468616e206d6178206c656e677468000000006020820152604081019150509392505050565b60008261143957634e487b7160e01b600052601260045260246000fd5b500490565b81810381811115611345576113456112fd565b634e487b7160e01b600052603260045260246000fd5b600060018201611479576114796112fd565b506001019056fe56616c7565206d7573742062652077697468696e2072616e6765203020746f20313030303030303030303030303030303030303030a26469706673582212205c66f65539bfc88b5e51494d89489fff9f56c8b87bc27e02812477766a73ac4064736f6c63430008100033","opcodes":"PUSH1 0x80 PUSH1 0x40 MSTORE CALLVALUE DUP1 ISZERO PUSH3 0x11 JUMPI PUSH1 0x0 DUP1 REVERT JUMPDEST POP PUSH1 0x40 MLOAD PUSH3 0x178F CODESIZE SUB DUP1 PUSH3 0x178F DUP4 CODECOPY DUP2 ADD PUSH1 0x40 DUP2 SWAP1 MSTORE PUSH3 0x34 SWAP2 PUSH3 0x21C JUMP JUMPDEST PUSH1 0x0 DUP1 SLOAD PUSH1 0x1 PUSH1 0x1 PUSH1 0xA0 SHL SUB NOT AND PUSH1 0x1 PUSH1 0x1 PUSH1 0xA0 SHL SUB DUP11 AND OR DUP2 SSTORE DUP8 SWAP1 SUB PUSH3 0xB3 JUMPI DUP7 PUSH1 0x40 MLOAD PUSH4 0x23D5311 PUSH1 0xE0 SHL DUP2 MSTORE PUSH1 0x4 ADD PUSH3 0xAA SWAP2 DUP2 MSTORE PUSH1 0x40 PUSH1 0x20 DUP3 ADD DUP2 SWAP1 MSTORE PUSH1 0x1A SWAP1 DUP3 ADD MSTORE PUSH32 0x4D696E696D756D206C656E6774682063616E6E6F742062652030000000000000 PUSH1 0x60 DUP3 ADD MSTORE PUSH1 0x80 ADD SWAP1 JUMP JUMPDEST PUSH1 0x40 MLOAD DUP1 SWAP2 SUB SWAP1 REVERT JUMPDEST DUP7 DUP7 LT ISZERO PUSH3 0x125 JUMPI DUP6 PUSH1 0x40 MLOAD PUSH4 0x23D5311 PUSH1 0xE0 SHL DUP2 MSTORE PUSH1 0x4 ADD PUSH3 0xAA SWAP2 DUP2 MSTORE PUSH1 0x40 PUSH1 0x20 DUP3 ADD DUP2 SWAP1 MSTORE PUSH1 0x2D SWAP1 DUP3 ADD MSTORE PUSH32 0x4D6178206C656E6774682063616E6E6F74206265206C657373207468616E2074 PUSH1 0x60 DUP3 ADD MSTORE PUSH13 0xD0CA40DAD2DC40D8CADCCEE8D PUSH1 0x9B SHL PUSH1 0x80 DUP3 ADD MSTORE PUSH1 0xA0 ADD SWAP1 JUMP JUMPDEST DUP5 PUSH1 0x0 SUB PUSH3 0x181 JUMPI DUP5 PUSH1 0x40 MLOAD PUSH4 0xBFBE7A13 PUSH1 0xE0 SHL DUP2 MSTORE PUSH1 0x4 ADD PUSH3 0xAA SWAP2 DUP2 MSTORE PUSH1 0x40 PUSH1 0x20 DUP3 ADD DUP2 SWAP1 MSTORE PUSH1 0x1C SWAP1 DUP3 ADD MSTORE PUSH32 0x4D696E696D756D206475726174696F6E2063616E6E6F74206265203000000000 PUSH1 0x60 DUP3 ADD MSTORE PUSH1 0x80 ADD SWAP1 JUMP JUMPDEST DUP5 DUP5 LT ISZERO PUSH3 0x1F7 JUMPI DUP4 PUSH1 0x40 MLOAD PUSH4 0xBFBE7A13 PUSH1 0xE0 SHL DUP2 MSTORE PUSH1 0x4 ADD PUSH3 0xAA SWAP2 DUP2 MSTORE PUSH1 0x40 PUSH1 0x20 DUP3 ADD DUP2 SWAP1 MSTORE PUSH1 0x31 SWAP1 DUP3 ADD MSTORE PUSH32 0x4D6178206475726174696F6E2063616E6E6F74206265206C657373207468616E PUSH1 0x60 DUP3 ADD MSTORE PUSH17 0x103A34329036B4B710323AB930BA34B7B7 PUSH1 0x79 SHL PUSH1 0x80 DUP3 ADD MSTORE PUSH1 0xA0 ADD SWAP1 JUMP JUMPDEST PUSH1 0x1 SWAP7 SWAP1 SWAP7 SSTORE PUSH1 0x2 SWAP5 SWAP1 SWAP5 SSTORE PUSH1 0x3 SWAP3 SWAP1 SWAP3 SSTORE PUSH1 0x4 SSTORE PUSH1 0x5 SSTORE PUSH1 0x6 SSTORE PUSH1 0x7 SSTORE POP PUSH3 0x294 JUMP JUMPDEST PUSH1 0x0 DUP1 PUSH1 0x0 DUP1 PUSH1 0x0 DUP1 PUSH1 0x0 DUP1 PUSH2 0x100 DUP10 DUP12 SUB SLT ISZERO PUSH3 0x23A JUMPI PUSH1 0x0 DUP1 REVERT JUMPDEST DUP9 MLOAD PUSH1 0x1 PUSH1 0x1 PUSH1 0xA0 SHL SUB DUP2 AND DUP2 EQ PUSH3 0x252 JUMPI PUSH1 0x0 DUP1 REVERT JUMPDEST DUP1 SWAP9 POP POP PUSH1 0x20 DUP10 ADD MLOAD SWAP7 POP PUSH1 0x40 DUP10 ADD MLOAD SWAP6 POP PUSH1 0x60 DUP10 ADD MLOAD SWAP5 POP PUSH1 0x80 DUP10 ADD MLOAD SWAP4 POP PUSH1 0xA0 DUP10 ADD MLOAD SWAP3 POP PUSH1 0xC0 DUP10 ADD MLOAD SWAP2 POP PUSH1 0xE0 DUP10 ADD MLOAD SWAP1 POP SWAP3 SWAP6 SWAP9 POP SWAP3 SWAP6 SWAP9 SWAP1 SWAP4 SWAP7 POP JUMP JUMPDEST PUSH2 0x14EB DUP1 PUSH3 0x2A4 PUSH1 0x0 CODECOPY PUSH1 0x0 RETURN INVALID PUSH1 0x80 PUSH1 0x40 MSTORE CALLVALUE DUP1 ISZERO PUSH2 0x10 JUMPI PUSH1 0x0 DUP1 REVERT JUMPDEST POP PUSH1 0x4 CALLDATASIZE LT PUSH2 0x100 JUMPI PUSH1 0x0 CALLDATALOAD PUSH1 0xE0 SHR DUP1 PUSH4 0xAE06C1B7 GT PUSH2 0x97 JUMPI DUP1 PUSH4 0xCF0F34C4 GT PUSH2 0x66 JUMPI DUP1 PUSH4 0xCF0F34C4 EQ PUSH2 0x1B7 JUMPI DUP1 PUSH4 0xD137874B EQ PUSH2 0x1CA JUMPI DUP1 PUSH4 0xDABD2719 EQ PUSH2 0x1D2 JUMPI DUP1 PUSH4 0xDC2F7867 EQ PUSH2 0x1E5 JUMPI PUSH1 0x0 DUP1 REVERT JUMPDEST DUP1 PUSH4 0xAE06C1B7 EQ PUSH2 0x176 JUMPI DUP1 PUSH4 0xB49A2DB9 EQ PUSH2 0x189 JUMPI DUP1 PUSH4 0xB7FC1B94 EQ PUSH2 0x191 JUMPI DUP1 PUSH4 0xBE47152E EQ PUSH2 0x1A4 JUMPI PUSH1 0x0 DUP1 REVERT JUMPDEST DUP1 PUSH4 0x17215250 GT PUSH2 0xD3 JUMPI DUP1 PUSH4 0x17215250 EQ PUSH2 0x140 JUMPI DUP1 PUSH4 0x2E4C5D90 EQ PUSH2 0x148 JUMPI DUP1 PUSH4 0x857050A1 EQ PUSH2 0x15B JUMPI DUP1 PUSH4 0x8E99A422 EQ PUSH2 0x163 JUMPI PUSH1 0x0 DUP1 REVERT JUMPDEST DUP1 PUSH4 0x1A400FA EQ PUSH2 0x105 JUMPI DUP1 PUSH4 0x34D501B EQ PUSH2 0x11B JUMPI DUP1 PUSH4 0x11EFBF61 EQ PUSH2 0x123 JUMPI DUP1 PUSH4 0x1674BADE EQ PUSH2 0x12B JUMPI JUMPDEST PUSH1 0x0 DUP1 REVERT JUMPDEST PUSH1 0x2 SLOAD JUMPDEST PUSH1 0x40 MLOAD SWAP1 DUP2 MSTORE PUSH1 0x20 ADD PUSH1 0x40 MLOAD DUP1 SWAP2 SUB SWAP1 RETURN JUMPDEST PUSH1 0x3 SLOAD PUSH2 0x109 JUMP JUMPDEST PUSH1 0x5 SLOAD PUSH2 0x109 JUMP JUMPDEST PUSH2 0x13E PUSH2 0x139 CALLDATASIZE PUSH1 0x4 PUSH2 0x1187 JUMP JUMPDEST PUSH2 0x1F8 JUMP JUMPDEST STOP JUMPDEST PUSH1 0x7 SLOAD PUSH2 0x109 JUMP JUMPDEST PUSH2 0x13E PUSH2 0x156 CALLDATASIZE PUSH1 0x4 PUSH2 0x1187 JUMP JUMPDEST PUSH2 0x405 JUMP JUMPDEST PUSH1 0x1 SLOAD PUSH2 0x109 JUMP JUMPDEST PUSH2 0x13E PUSH2 0x171 CALLDATASIZE PUSH1 0x4 PUSH2 0x1187 JUMP JUMPDEST PUSH2 0x524 JUMP JUMPDEST PUSH2 0x13E PUSH2 0x184 CALLDATASIZE PUSH1 0x4 PUSH2 0x1187 JUMP JUMPDEST PUSH2 0x72C JUMP JUMPDEST PUSH1 0x4 SLOAD PUSH2 0x109 JUMP JUMPDEST PUSH2 0x109 PUSH2 0x19F CALLDATASIZE PUSH1 0x4 PUSH2 0x11E9 JUMP JUMPDEST PUSH2 0x88E JUMP JUMPDEST PUSH2 0x13E PUSH2 0x1B2 CALLDATASIZE PUSH1 0x4 PUSH2 0x123A JUMP JUMPDEST PUSH2 0x91B JUMP JUMPDEST PUSH2 0x13E PUSH2 0x1C5 CALLDATASIZE PUSH1 0x4 PUSH2 0x1187 JUMP JUMPDEST PUSH2 0xAEE JUMP JUMPDEST PUSH1 0x6 SLOAD PUSH2 0x109 JUMP JUMPDEST PUSH2 0x13E PUSH2 0x1E0 CALLDATASIZE PUSH1 0x4 PUSH2 0x1187 JUMP JUMPDEST PUSH2 0xC8F JUMP JUMPDEST PUSH2 0x13E PUSH2 0x1F3 CALLDATASIZE PUSH1 0x4 PUSH2 0x1187 JUMP JUMPDEST PUSH2 0xDF1 JUMP JUMPDEST PUSH1 0x0 SLOAD PUSH1 0x40 MLOAD PUSH4 0x2D260BE7 PUSH1 0xE1 SHL DUP2 MSTORE CALLER PUSH1 0x4 DUP3 ADD MSTORE PUSH1 0x1 PUSH1 0x1 PUSH1 0xA0 SHL SUB SWAP1 SWAP2 AND SWAP1 PUSH4 0x5A4C17CE SWAP1 PUSH1 0x24 ADD PUSH1 0x20 PUSH1 0x40 MLOAD DUP1 DUP4 SUB DUP2 DUP7 GAS STATICCALL ISZERO DUP1 ISZERO PUSH2 0x240 JUMPI RETURNDATASIZE PUSH1 0x0 DUP1 RETURNDATACOPY RETURNDATASIZE PUSH1 0x0 REVERT JUMPDEST POP POP POP POP PUSH1 0x40 MLOAD RETURNDATASIZE PUSH1 0x1F NOT PUSH1 0x1F DUP3 ADD AND DUP3 ADD DUP1 PUSH1 0x40 MSTORE POP DUP2 ADD SWAP1 PUSH2 0x264 SWAP2 SWAP1 PUSH2 0x1286 JUMP JUMPDEST PUSH2 0x288 JUMPI PUSH1 0x40 MLOAD PUSH4 0x7D92DDB PUSH1 0xE5 SHL DUP2 MSTORE CALLER PUSH1 0x4 DUP3 ADD MSTORE PUSH1 0x24 ADD JUMPDEST PUSH1 0x40 MLOAD DUP1 SWAP2 SUB SWAP1 REVERT JUMPDEST PUSH1 0x3 SLOAD PUSH1 0x4 SLOAD PUSH1 0x40 DUP1 MLOAD DUP4 DUP2 MSTORE PUSH1 0x20 DUP2 ADD DUP6 SWAP1 MSTORE PUSH32 0x8B85DFE026C89230040EED7FAAE47E64A506586518E088FB022C34C05AAAC682 SWAP2 ADD PUSH1 0x40 MLOAD DUP1 SWAP2 SUB SWAP1 LOG1 DUP3 DUP3 SUB PUSH2 0x319 JUMPI PUSH1 0x40 DUP1 MLOAD DUP1 DUP3 ADD DUP3 MSTORE PUSH1 0x1E DUP2 MSTORE PUSH32 0x6F6C642076616C75652069732073616D65206173206E65772076616C75650000 PUSH1 0x20 DUP3 ADD MSTORE SWAP1 MLOAD PUSH3 0x461BCD PUSH1 0xE5 SHL DUP2 MSTORE PUSH2 0x27F SWAP2 SWAP1 PUSH1 0x4 ADD PUSH2 0x12AF JUMP JUMPDEST DUP3 PUSH1 0x0 SUB PUSH2 0x373 JUMPI DUP3 PUSH1 0x40 MLOAD PUSH4 0xBFBE7A13 PUSH1 0xE0 SHL DUP2 MSTORE PUSH1 0x4 ADD PUSH2 0x27F SWAP2 DUP2 MSTORE PUSH1 0x40 PUSH1 0x20 DUP3 ADD DUP2 SWAP1 MSTORE PUSH1 0x1C SWAP1 DUP3 ADD MSTORE PUSH32 0x4D696E696D756D206475726174696F6E2063616E6E6F74206265203000000000 PUSH1 0x60 DUP3 ADD MSTORE PUSH1 0x80 ADD SWAP1 JUMP JUMPDEST DUP1 ISZERO DUP1 ISZERO SWAP1 PUSH2 0x381 JUMPI POP DUP1 DUP4 GT JUMPDEST ISZERO PUSH2 0x3FE JUMPI DUP3 PUSH1 0x40 MLOAD PUSH4 0xBFBE7A13 PUSH1 0xE0 SHL DUP2 MSTORE PUSH1 0x4 ADD PUSH2 0x27F SWAP2 DUP2 MSTORE PUSH1 0x40 PUSH1 0x20 DUP3 ADD DUP2 SWAP1 MSTORE PUSH1 0x39 SWAP1 DUP3 ADD MSTORE PUSH32 0x4D696E696D756D206475726174696F6E2063616E6E6F74206265206D6F726520 PUSH1 0x60 DUP3 ADD MSTORE PUSH32 0x7468616E20746865206D6178696D756D206475726174696F6E00000000000000 PUSH1 0x80 DUP3 ADD MSTORE PUSH1 0xA0 ADD SWAP1 JUMP JUMPDEST POP POP PUSH1 0x3 SSTORE JUMP JUMPDEST PUSH1 0x0 SLOAD PUSH1 0x40 MLOAD PUSH4 0x2D260BE7 PUSH1 0xE1 SHL DUP2 MSTORE CALLER PUSH1 0x4 DUP3 ADD MSTORE PUSH1 0x1 PUSH1 0x1 PUSH1 0xA0 SHL SUB SWAP1 SWAP2 AND SWAP1 PUSH4 0x5A4C17CE SWAP1 PUSH1 0x24 ADD PUSH1 0x20 PUSH1 0x40 MLOAD DUP1 DUP4 SUB DUP2 DUP7 GAS STATICCALL ISZERO DUP1 ISZERO PUSH2 0x44D JUMPI RETURNDATASIZE PUSH1 0x0 DUP1 RETURNDATACOPY RETURNDATASIZE PUSH1 0x0 REVERT JUMPDEST POP POP POP POP PUSH1 0x40 MLOAD RETURNDATASIZE PUSH1 0x1F NOT PUSH1 0x1F DUP3 ADD AND DUP3 ADD DUP1 PUSH1 0x40 MSTORE POP DUP2 ADD SWAP1 PUSH2 0x471 SWAP2 SWAP1 PUSH2 0x1286 JUMP JUMPDEST PUSH2 0x490 JUMPI PUSH1 0x40 MLOAD PUSH4 0x7D92DDB PUSH1 0xE5 SHL DUP2 MSTORE CALLER PUSH1 0x4 DUP3 ADD MSTORE PUSH1 0x24 ADD PUSH2 0x27F JUMP JUMPDEST PUSH1 0x7 SLOAD PUSH1 0x40 DUP1 MLOAD DUP3 DUP2 MSTORE PUSH1 0x20 DUP2 ADD DUP5 SWAP1 MSTORE PUSH32 0x9373C9EFCDB15A5F76F41E32D76F6DDF07DB90D0A8BA833C839D7B37E23271E3 SWAP2 ADD PUSH1 0x40 MLOAD DUP1 SWAP2 SUB SWAP1 LOG1 DUP2 DUP2 SUB PUSH2 0x51E JUMPI PUSH1 0x40 DUP1 MLOAD DUP1 DUP3 ADD DUP3 MSTORE PUSH1 0x1E DUP2 MSTORE PUSH32 0x6F6C642076616C75652069732073616D65206173206E65772076616C75650000 PUSH1 0x20 DUP3 ADD MSTORE SWAP1 MLOAD PUSH3 0x461BCD PUSH1 0xE5 SHL DUP2 MSTORE PUSH2 0x27F SWAP2 SWAP1 PUSH1 0x4 ADD PUSH2 0x12AF JUMP JUMPDEST POP PUSH1 0x7 SSTORE JUMP JUMPDEST PUSH1 0x0 SLOAD PUSH1 0x40 MLOAD PUSH4 0x2D260BE7 PUSH1 0xE1 SHL DUP2 MSTORE CALLER PUSH1 0x4 DUP3 ADD MSTORE PUSH1 0x1 PUSH1 0x1 PUSH1 0xA0 SHL SUB SWAP1 SWAP2 AND SWAP1 PUSH4 0x5A4C17CE SWAP1 PUSH1 0x24 ADD PUSH1 0x20 PUSH1 0x40 MLOAD DUP1 DUP4 SUB DUP2 DUP7 GAS STATICCALL ISZERO DUP1 ISZERO PUSH2 0x56C JUMPI RETURNDATASIZE PUSH1 0x0 DUP1 RETURNDATACOPY RETURNDATASIZE PUSH1 0x0 REVERT JUMPDEST POP POP POP POP PUSH1 0x40 MLOAD RETURNDATASIZE PUSH1 0x1F NOT PUSH1 0x1F DUP3 ADD AND DUP3 ADD DUP1 PUSH1 0x40 MSTORE POP DUP2 ADD SWAP1 PUSH2 0x590 SWAP2 SWAP1 PUSH2 0x1286 JUMP JUMPDEST PUSH2 0x5AF JUMPI PUSH1 0x40 MLOAD PUSH4 0x7D92DDB PUSH1 0xE5 SHL DUP2 MSTORE CALLER PUSH1 0x4 DUP3 ADD MSTORE PUSH1 0x24 ADD PUSH2 0x27F JUMP JUMPDEST PUSH1 0x1 SLOAD PUSH1 0x2 SLOAD PUSH1 0x40 DUP1 MLOAD DUP4 DUP2 MSTORE PUSH1 0x20 DUP2 ADD DUP6 SWAP1 MSTORE PUSH32 0x2E1E7828777A0695A640C72A0E441E50706C1F286A0A8E21DA57D572B43E3EA4 SWAP2 ADD PUSH1 0x40 MLOAD DUP1 SWAP2 SUB SWAP1 LOG1 DUP3 DUP3 SUB PUSH2 0x640 JUMPI PUSH1 0x40 DUP1 MLOAD DUP1 DUP3 ADD DUP3 MSTORE PUSH1 0x1E DUP2 MSTORE PUSH32 0x6F6C642076616C75652069732073616D65206173206E65772076616C75650000 PUSH1 0x20 DUP3 ADD MSTORE SWAP1 MLOAD PUSH3 0x461BCD PUSH1 0xE5 SHL DUP2 MSTORE PUSH2 0x27F SWAP2 SWAP1 PUSH1 0x4 ADD PUSH2 0x12AF JUMP JUMPDEST DUP3 PUSH1 0x0 SUB PUSH2 0x69A JUMPI DUP3 PUSH1 0x40 MLOAD PUSH4 0x23D5311 PUSH1 0xE0 SHL DUP2 MSTORE PUSH1 0x4 ADD PUSH2 0x27F SWAP2 DUP2 MSTORE PUSH1 0x40 PUSH1 0x20 DUP3 ADD DUP2 SWAP1 MSTORE PUSH1 0x1A SWAP1 DUP3 ADD MSTORE PUSH32 0x4D696E696D756D206C656E6774682063616E6E6F742062652030000000000000 PUSH1 0x60 DUP3 ADD MSTORE PUSH1 0x80 ADD SWAP1 JUMP JUMPDEST DUP1 ISZERO DUP1 ISZERO SWAP1 PUSH2 0x6A8 JUMPI POP DUP1 DUP4 GT JUMPDEST ISZERO PUSH2 0x725 JUMPI DUP3 PUSH1 0x40 MLOAD PUSH4 0x23D5311 PUSH1 0xE0 SHL DUP2 MSTORE PUSH1 0x4 ADD PUSH2 0x27F SWAP2 DUP2 MSTORE PUSH1 0x40 PUSH1 0x20 DUP3 ADD DUP2 SWAP1 MSTORE PUSH1 0x31 SWAP1 DUP3 ADD MSTORE PUSH32 0x4D696E696D756D206C656E6774682063616E6E6F74206265206D6F7265207468 PUSH1 0x60 DUP3 ADD MSTORE PUSH32 0x616E20746865206D6178206C656E677468000000000000000000000000000000 PUSH1 0x80 DUP3 ADD MSTORE PUSH1 0xA0 ADD SWAP1 JUMP JUMPDEST POP POP PUSH1 0x1 SSTORE JUMP JUMPDEST PUSH1 0x0 SLOAD PUSH1 0x40 MLOAD PUSH4 0x2D260BE7 PUSH1 0xE1 SHL DUP2 MSTORE CALLER PUSH1 0x4 DUP3 ADD MSTORE PUSH1 0x1 PUSH1 0x1 PUSH1 0xA0 SHL SUB SWAP1 SWAP2 AND SWAP1 PUSH4 0x5A4C17CE SWAP1 PUSH1 0x24 ADD PUSH1 0x20 PUSH1 0x40 MLOAD DUP1 DUP4 SUB DUP2 DUP7 GAS STATICCALL ISZERO DUP1 ISZERO PUSH2 0x774 JUMPI RETURNDATASIZE PUSH1 0x0 DUP1 RETURNDATACOPY RETURNDATASIZE PUSH1 0x0 REVERT JUMPDEST POP POP POP POP PUSH1 0x40 MLOAD RETURNDATASIZE PUSH1 0x1F NOT PUSH1 0x1F DUP3 ADD AND DUP3 ADD DUP1 PUSH1 0x40 MSTORE POP DUP2 ADD SWAP1 PUSH2 0x798 SWAP2 SWAP1 PUSH2 0x1286 JUMP JUMPDEST PUSH2 0x7B7 JUMPI PUSH1 0x40 MLOAD PUSH4 0x7D92DDB PUSH1 0xE5 SHL DUP2 MSTORE CALLER PUSH1 0x4 DUP3 ADD MSTORE PUSH1 0x24 ADD PUSH2 0x27F JUMP JUMPDEST PUSH1 0x5 SLOAD PUSH1 0x40 DUP1 MLOAD DUP3 DUP2 MSTORE PUSH1 0x20 DUP2 ADD DUP5 SWAP1 MSTORE PUSH32 0x2235D343DE14BFE1D7EFED850D828DA476E76EB894C4831CCFA097EFC5A45444 SWAP2 ADD PUSH1 0x40 MLOAD DUP1 SWAP2 SUB SWAP1 LOG1 DUP2 DUP2 SUB PUSH2 0x845 JUMPI PUSH1 0x40 DUP1 MLOAD DUP1 DUP3 ADD DUP3 MSTORE PUSH1 0x1E DUP2 MSTORE PUSH32 0x6F6C642076616C75652069732073616D65206173206E65772076616C75650000 PUSH1 0x20 DUP3 ADD MSTORE SWAP1 MLOAD PUSH3 0x461BCD PUSH1 0xE5 SHL DUP2 MSTORE PUSH2 0x27F SWAP2 SWAP1 PUSH1 0x4 ADD PUSH2 0x12AF JUMP JUMPDEST PUSH9 0x56BC75E2D63100000 DUP3 GT ISZERO PUSH2 0x888 JUMPI PUSH1 0x40 MLOAD DUP1 PUSH1 0x60 ADD PUSH1 0x40 MSTORE DUP1 PUSH1 0x35 DUP2 MSTORE PUSH1 0x20 ADD PUSH2 0x1481 PUSH1 0x35 SWAP2 CODECOPY PUSH1 0x40 MLOAD PUSH3 0x461BCD PUSH1 0xE5 SHL DUP2 MSTORE PUSH1 0x4 ADD PUSH2 0x27F SWAP2 SWAP1 PUSH2 0x12AF JUMP JUMPDEST POP PUSH1 0x5 SSTORE JUMP JUMPDEST PUSH1 0x0 DUP1 PUSH9 0x56BC75E2D63100000 PUSH1 0x6 SLOAD SUB PUSH2 0x8AD JUMPI PUSH1 0x0 SWAP2 POP POP PUSH2 0x913 JUMP JUMPDEST PUSH1 0x2 DUP4 GT PUSH2 0x8E6 JUMPI PUSH8 0xDE0B6B3A7640000 PUSH2 0x8C9 DUP5 PUSH1 0x2 PUSH2 0x1313 JUMP JUMPDEST PUSH2 0x8D3 SWAP2 SWAP1 PUSH2 0x1313 JUMP JUMPDEST SWAP1 POP PUSH2 0x8DE DUP2 PUSH2 0xF92 JUMP JUMPDEST SWAP2 POP POP PUSH2 0x913 JUMP JUMPDEST PUSH8 0xDE0B6B3A7640000 PUSH2 0x8FA DUP5 PUSH1 0x2 PUSH2 0x1332 JUMP JUMPDEST PUSH2 0x904 SWAP2 SWAP1 PUSH2 0x1313 JUMP JUMPDEST SWAP1 POP PUSH2 0x90F DUP2 PUSH2 0xF92 JUMP JUMPDEST SWAP2 POP POP JUMPDEST SWAP5 SWAP4 POP POP POP POP JUMP JUMPDEST PUSH1 0x3 SLOAD DUP2 LT ISZERO PUSH2 0x99D JUMPI DUP1 PUSH1 0x40 MLOAD PUSH4 0xBFBE7A13 PUSH1 0xE0 SHL DUP2 MSTORE PUSH1 0x4 ADD PUSH2 0x27F SWAP2 DUP2 MSTORE PUSH1 0x40 PUSH1 0x20 DUP3 ADD DUP2 SWAP1 MSTORE PUSH1 0x23 SWAP1 DUP3 ADD MSTORE PUSH32 0x4475726174696F6E206C657373207468616E206D696E696D756D206475726174 PUSH1 0x60 DUP3 ADD MSTORE PUSH32 0x696F6E0000000000000000000000000000000000000000000000000000000000 PUSH1 0x80 DUP3 ADD MSTORE PUSH1 0xA0 ADD SWAP1 JUMP JUMPDEST PUSH1 0x4 SLOAD DUP2 GT ISZERO PUSH2 0xA1F JUMPI DUP1 PUSH1 0x40 MLOAD PUSH4 0xBFBE7A13 PUSH1 0xE0 SHL DUP2 MSTORE PUSH1 0x4 ADD PUSH2 0x27F SWAP2 DUP2 MSTORE PUSH1 0x40 PUSH1 0x20 DUP3 ADD DUP2 SWAP1 MSTORE PUSH1 0x22 SWAP1 DUP3 ADD MSTORE PUSH32 0x4475726174696F6E206973206D6F7265207468616E206D617820647572617469 PUSH1 0x60 DUP3 ADD MSTORE PUSH32 0x6F6E000000000000000000000000000000000000000000000000000000000000 PUSH1 0x80 DUP3 ADD MSTORE PUSH1 0xA0 ADD SWAP1 JUMP JUMPDEST PUSH1 0x1 SLOAD PUSH2 0xA61 DUP5 DUP5 DUP1 DUP1 PUSH1 0x1F ADD PUSH1 0x20 DUP1 SWAP2 DIV MUL PUSH1 0x20 ADD PUSH1 0x40 MLOAD SWAP1 DUP2 ADD PUSH1 0x40 MSTORE DUP1 SWAP4 SWAP3 SWAP2 SWAP1 DUP2 DUP2 MSTORE PUSH1 0x20 ADD DUP4 DUP4 DUP1 DUP3 DUP5 CALLDATACOPY PUSH1 0x0 SWAP3 ADD SWAP2 SWAP1 SWAP2 MSTORE POP PUSH2 0xFF8 SWAP3 POP POP POP JUMP JUMPDEST LT ISZERO PUSH2 0xA84 JUMPI DUP3 DUP3 PUSH1 0x40 MLOAD PUSH4 0x3C11CC73 PUSH1 0xE2 SHL DUP2 MSTORE PUSH1 0x4 ADD PUSH2 0x27F SWAP3 SWAP2 SWAP1 PUSH2 0x1374 JUMP JUMPDEST PUSH1 0x2 SLOAD PUSH2 0xAC6 DUP5 DUP5 DUP1 DUP1 PUSH1 0x1F ADD PUSH1 0x20 DUP1 SWAP2 DIV MUL PUSH1 0x20 ADD PUSH1 0x40 MLOAD SWAP1 DUP2 ADD PUSH1 0x40 MSTORE DUP1 SWAP4 SWAP3 SWAP2 SWAP1 DUP2 DUP2 MSTORE PUSH1 0x20 ADD DUP4 DUP4 DUP1 DUP3 DUP5 CALLDATACOPY PUSH1 0x0 SWAP3 ADD SWAP2 SWAP1 SWAP2 MSTORE POP PUSH2 0xFF8 SWAP3 POP POP POP JUMP JUMPDEST GT ISZERO PUSH2 0xAE9 JUMPI DUP3 DUP3 PUSH1 0x40 MLOAD PUSH4 0x3C11CC73 PUSH1 0xE2 SHL DUP2 MSTORE PUSH1 0x4 ADD PUSH2 0x27F SWAP3 SWAP2 SWAP1 PUSH2 0x13C8 JUMP JUMPDEST POP POP POP JUMP JUMPDEST PUSH1 0x0 SLOAD PUSH1 0x40 MLOAD PUSH4 0x2D260BE7 PUSH1 0xE1 SHL DUP2 MSTORE CALLER PUSH1 0x4 DUP3 ADD MSTORE PUSH1 0x1 PUSH1 0x1 PUSH1 0xA0 SHL SUB SWAP1 SWAP2 AND SWAP1 PUSH4 0x5A4C17CE SWAP1 PUSH1 0x24 ADD PUSH1 0x20 PUSH1 0x40 MLOAD DUP1 DUP4 SUB DUP2 DUP7 GAS STATICCALL ISZERO DUP1 ISZERO PUSH2 0xB36 JUMPI RETURNDATASIZE PUSH1 0x0 DUP1 RETURNDATACOPY RETURNDATASIZE PUSH1 0x0 REVERT JUMPDEST POP POP POP POP PUSH1 0x40 MLOAD RETURNDATASIZE PUSH1 0x1F NOT PUSH1 0x1F DUP3 ADD AND DUP3 ADD DUP1 PUSH1 0x40 MSTORE POP DUP2 ADD SWAP1 PUSH2 0xB5A SWAP2 SWAP1 PUSH2 0x1286 JUMP JUMPDEST PUSH2 0xB79 JUMPI PUSH1 0x40 MLOAD PUSH4 0x7D92DDB PUSH1 0xE5 SHL DUP2 MSTORE CALLER PUSH1 0x4 DUP3 ADD MSTORE PUSH1 0x24 ADD PUSH2 0x27F JUMP JUMPDEST PUSH1 0x4 SLOAD PUSH1 0x40 DUP1 MLOAD DUP3 DUP2 MSTORE PUSH1 0x20 DUP2 ADD DUP5 SWAP1 MSTORE PUSH32 0x857E15EDF1573F3E12A56AF84632C9624ADA2FB1C4B771BFDCC6385926FD9B3C SWAP2 ADD PUSH1 0x40 MLOAD DUP1 SWAP2 SUB SWAP1 LOG1 DUP2 DUP2 SUB PUSH2 0xC07 JUMPI PUSH1 0x40 DUP1 MLOAD DUP1 DUP3 ADD DUP3 MSTORE PUSH1 0x1E DUP2 MSTORE PUSH32 0x6F6C642076616C75652069732073616D65206173206E65772076616C75650000 PUSH1 0x20 DUP3 ADD MSTORE SWAP1 MLOAD PUSH3 0x461BCD PUSH1 0xE5 SHL DUP2 MSTORE PUSH2 0x27F SWAP2 SWAP1 PUSH1 0x4 ADD PUSH2 0x12AF JUMP JUMPDEST PUSH1 0x3 SLOAD DUP3 LT ISZERO PUSH2 0xC89 JUMPI DUP2 PUSH1 0x40 MLOAD PUSH4 0xBFBE7A13 PUSH1 0xE0 SHL DUP2 MSTORE PUSH1 0x4 ADD PUSH2 0x27F SWAP2 DUP2 MSTORE PUSH1 0x40 PUSH1 0x20 DUP3 ADD DUP2 SWAP1 MSTORE PUSH1 0x31 SWAP1 DUP3 ADD MSTORE PUSH32 0x4D6178206475726174696F6E2063616E6E6F74206265206C657373207468616E PUSH1 0x60 DUP3 ADD MSTORE PUSH32 0x20746865206D696E206475726174696F6E000000000000000000000000000000 PUSH1 0x80 DUP3 ADD MSTORE PUSH1 0xA0 ADD SWAP1 JUMP JUMPDEST POP PUSH1 0x4 SSTORE JUMP JUMPDEST PUSH1 0x0 SLOAD PUSH1 0x40 MLOAD PUSH4 0x2D260BE7 PUSH1 0xE1 SHL DUP2 MSTORE CALLER PUSH1 0x4 DUP3 ADD MSTORE PUSH1 0x1 PUSH1 0x1 PUSH1 0xA0 SHL SUB SWAP1 SWAP2 AND SWAP1 PUSH4 0x5A4C17CE SWAP1 PUSH1 0x24 ADD PUSH1 0x20 PUSH1 0x40 MLOAD DUP1 DUP4 SUB DUP2 DUP7 GAS STATICCALL ISZERO DUP1 ISZERO PUSH2 0xCD7 JUMPI RETURNDATASIZE PUSH1 0x0 DUP1 RETURNDATACOPY RETURNDATASIZE PUSH1 0x0 REVERT JUMPDEST POP POP POP POP PUSH1 0x40 MLOAD RETURNDATASIZE PUSH1 0x1F NOT PUSH1 0x1F DUP3 ADD AND DUP3 ADD DUP1 PUSH1 0x40 MSTORE POP DUP2 ADD SWAP1 PUSH2 0xCFB SWAP2 SWAP1 PUSH2 0x1286 JUMP JUMPDEST PUSH2 0xD1A JUMPI PUSH1 0x40 MLOAD PUSH4 0x7D92DDB PUSH1 0xE5 SHL DUP2 MSTORE CALLER PUSH1 0x4 DUP3 ADD MSTORE PUSH1 0x24 ADD PUSH2 0x27F JUMP JUMPDEST PUSH1 0x6 SLOAD PUSH1 0x40 DUP1 MLOAD DUP3 DUP2 MSTORE PUSH1 0x20 DUP2 ADD DUP5 SWAP1 MSTORE PUSH32 0xFC412359346D4878705D935E022C5BF7C40A385B4E462962F31EB785AD7DAEC2 SWAP2 ADD PUSH1 0x40 MLOAD DUP1 SWAP2 SUB SWAP1 LOG1 DUP2 DUP2 SUB PUSH2 0xDA8 JUMPI PUSH1 0x40 DUP1 MLOAD DUP1 DUP3 ADD DUP3 MSTORE PUSH1 0x1E DUP2 MSTORE PUSH32 0x6F6C642076616C75652069732073616D65206173206E65772076616C75650000 PUSH1 0x20 DUP3 ADD MSTORE SWAP1 MLOAD PUSH3 0x461BCD PUSH1 0xE5 SHL DUP2 MSTORE PUSH2 0x27F SWAP2 SWAP1 PUSH1 0x4 ADD PUSH2 0x12AF JUMP JUMPDEST PUSH9 0x56BC75E2D63100000 DUP3 GT ISZERO PUSH2 0xDEB JUMPI PUSH1 0x40 MLOAD DUP1 PUSH1 0x60 ADD PUSH1 0x40 MSTORE DUP1 PUSH1 0x35 DUP2 MSTORE PUSH1 0x20 ADD PUSH2 0x1481 PUSH1 0x35 SWAP2 CODECOPY PUSH1 0x40 MLOAD PUSH3 0x461BCD PUSH1 0xE5 SHL DUP2 MSTORE PUSH1 0x4 ADD PUSH2 0x27F SWAP2 SWAP1 PUSH2 0x12AF JUMP JUMPDEST POP PUSH1 0x6 SSTORE JUMP JUMPDEST PUSH1 0x0 SLOAD PUSH1 0x40 MLOAD PUSH4 0x2D260BE7 PUSH1 0xE1 SHL DUP2 MSTORE CALLER PUSH1 0x4 DUP3 ADD MSTORE PUSH1 0x1 PUSH1 0x1 PUSH1 0xA0 SHL SUB SWAP1 SWAP2 AND SWAP1 PUSH4 0x5A4C17CE SWAP1 PUSH1 0x24 ADD PUSH1 0x20 PUSH1 0x40 MLOAD DUP1 DUP4 SUB DUP2 DUP7 GAS STATICCALL ISZERO DUP1 ISZERO PUSH2 0xE39 JUMPI RETURNDATASIZE PUSH1 0x0 DUP1 RETURNDATACOPY RETURNDATASIZE PUSH1 0x0 REVERT JUMPDEST POP POP POP POP PUSH1 0x40 MLOAD RETURNDATASIZE PUSH1 0x1F NOT PUSH1 0x1F DUP3 ADD AND DUP3 ADD DUP1 PUSH1 0x40 MSTORE POP DUP2 ADD SWAP1 PUSH2 0xE5D SWAP2 SWAP1 PUSH2 0x1286 JUMP JUMPDEST PUSH2 0xE7C JUMPI PUSH1 0x40 MLOAD PUSH4 0x7D92DDB PUSH1 0xE5 SHL DUP2 MSTORE CALLER PUSH1 0x4 DUP3 ADD MSTORE PUSH1 0x24 ADD PUSH2 0x27F JUMP JUMPDEST PUSH1 0x2 SLOAD PUSH1 0x40 DUP1 MLOAD DUP3 DUP2 MSTORE PUSH1 0x20 DUP2 ADD DUP5 SWAP1 MSTORE PUSH32 0x9C1C60340D90A8E95F956F9277D69D2AA09DE2BD429705A3BB9713CEE078182D SWAP2 ADD PUSH1 0x40 MLOAD DUP1 SWAP2 SUB SWAP1 LOG1 DUP2 DUP2 SUB PUSH2 0xF0A JUMPI PUSH1 0x40 DUP1 MLOAD DUP1 DUP3 ADD DUP3 MSTORE PUSH1 0x1E DUP2 MSTORE PUSH32 0x6F6C642076616C75652069732073616D65206173206E65772076616C75650000 PUSH1 0x20 DUP3 ADD MSTORE SWAP1 MLOAD PUSH3 0x461BCD PUSH1 0xE5 SHL DUP2 MSTORE PUSH2 0x27F SWAP2 SWAP1 PUSH1 0x4 ADD PUSH2 0x12AF JUMP JUMPDEST PUSH1 0x1 SLOAD DUP3 LT ISZERO PUSH2 0xF8C JUMPI DUP2 PUSH1 0x40 MLOAD PUSH4 0x23D5311 PUSH1 0xE0 SHL DUP2 MSTORE PUSH1 0x4 ADD PUSH2 0x27F SWAP2 DUP2 MSTORE PUSH1 0x40 PUSH1 0x20 DUP3 ADD DUP2 SWAP1 MSTORE PUSH1 0x2D SWAP1 DUP3 ADD MSTORE PUSH32 0x4D6178206C656E6774682063616E6E6F74206265206C657373207468616E2074 PUSH1 0x60 DUP3 ADD MSTORE PUSH32 0x6865206D696E206C656E67746800000000000000000000000000000000000000 PUSH1 0x80 DUP3 ADD MSTORE PUSH1 0xA0 ADD SWAP1 JUMP JUMPDEST POP PUSH1 0x2 SSTORE JUMP JUMPDEST PUSH1 0x6 SLOAD PUSH1 0x0 SWAP1 PUSH9 0x56BC75E2D630FFFFF NOT DUP2 ADD PUSH2 0xFB2 JUMPI POP PUSH1 0x0 SWAP3 SWAP2 POP POP JUMP JUMPDEST DUP1 PUSH1 0x0 SUB PUSH2 0xFC1 JUMPI POP SWAP1 SWAP2 SWAP1 POP JUMP JUMPDEST PUSH1 0x0 PUSH9 0x56BC75E2D63100000 PUSH2 0xFD7 DUP4 DUP7 PUSH2 0x1313 JUMP JUMPDEST PUSH2 0xFE1 SWAP2 SWAP1 PUSH2 0x141C JUMP JUMPDEST SWAP1 POP PUSH1 0x0 PUSH2 0xFEF DUP3 DUP7 PUSH2 0x143E JUMP JUMPDEST SWAP6 SWAP5 POP POP POP POP POP JUMP JUMPDEST DUP1 MLOAD PUSH1 0x0 SWAP1 DUP2 SWAP1 DUP2 SWAP1 JUMPDEST DUP1 DUP3 LT ISZERO PUSH2 0x117E JUMPI PUSH1 0x0 DUP6 DUP4 DUP2 MLOAD DUP2 LT PUSH2 0x101E JUMPI PUSH2 0x101E PUSH2 0x1451 JUMP JUMPDEST ADD PUSH1 0x20 ADD MLOAD PUSH1 0x1 PUSH1 0x1 PUSH1 0xF8 SHL SUB NOT AND SWAP1 POP PUSH32 0x8000000000000000000000000000000000000000000000000000000000000000 DUP2 LT ISZERO PUSH2 0x1069 JUMPI PUSH2 0x1062 PUSH1 0x1 DUP5 PUSH2 0x1332 JUMP JUMPDEST SWAP3 POP PUSH2 0x116B JUMP JUMPDEST PUSH32 0xE000000000000000000000000000000000000000000000000000000000000000 PUSH1 0x1 PUSH1 0x1 PUSH1 0xF8 SHL SUB NOT DUP3 AND LT ISZERO PUSH2 0x10A6 JUMPI PUSH2 0x1062 PUSH1 0x2 DUP5 PUSH2 0x1332 JUMP JUMPDEST PUSH32 0xF000000000000000000000000000000000000000000000000000000000000000 PUSH1 0x1 PUSH1 0x1 PUSH1 0xF8 SHL SUB NOT DUP3 AND LT ISZERO PUSH2 0x10E3 JUMPI PUSH2 0x1062 PUSH1 0x3 DUP5 PUSH2 0x1332 JUMP JUMPDEST PUSH32 0xF800000000000000000000000000000000000000000000000000000000000000 PUSH1 0x1 PUSH1 0x1 PUSH1 0xF8 SHL SUB NOT DUP3 AND LT ISZERO PUSH2 0x1120 JUMPI PUSH2 0x1062 PUSH1 0x4 DUP5 PUSH2 0x1332 JUMP JUMPDEST PUSH32 0xFC00000000000000000000000000000000000000000000000000000000000000 PUSH1 0x1 PUSH1 0x1 PUSH1 0xF8 SHL SUB NOT DUP3 AND LT ISZERO PUSH2 0x115D JUMPI PUSH2 0x1062 PUSH1 0x5 DUP5 PUSH2 0x1332 JUMP JUMPDEST PUSH2 0x1168 PUSH1 0x6 DUP5 PUSH2 0x1332 JUMP JUMPDEST SWAP3 POP JUMPDEST POP DUP3 PUSH2 0x1176 DUP2 PUSH2 0x1467 JUMP JUMPDEST SWAP4 POP POP PUSH2 0x1002 JUMP JUMPDEST POP SWAP1 SWAP4 SWAP3 POP POP POP JUMP JUMPDEST PUSH1 0x0 PUSH1 0x20 DUP3 DUP5 SUB SLT ISZERO PUSH2 0x1199 JUMPI PUSH1 0x0 DUP1 REVERT JUMPDEST POP CALLDATALOAD SWAP2 SWAP1 POP JUMP JUMPDEST PUSH1 0x0 DUP1 DUP4 PUSH1 0x1F DUP5 ADD SLT PUSH2 0x11B2 JUMPI PUSH1 0x0 DUP1 REVERT JUMPDEST POP DUP2 CALLDATALOAD PUSH8 0xFFFFFFFFFFFFFFFF DUP2 GT ISZERO PUSH2 0x11CA JUMPI PUSH1 0x0 DUP1 REVERT JUMPDEST PUSH1 0x20 DUP4 ADD SWAP2 POP DUP4 PUSH1 0x20 DUP3 DUP6 ADD ADD GT ISZERO PUSH2 0x11E2 JUMPI PUSH1 0x0 DUP1 REVERT JUMPDEST SWAP3 POP SWAP3 SWAP1 POP JUMP JUMPDEST PUSH1 0x0 DUP1 PUSH1 0x0 DUP1 PUSH1 0x60 DUP6 DUP8 SUB SLT ISZERO PUSH2 0x11FF JUMPI PUSH1 0x0 DUP1 REVERT JUMPDEST DUP5 CALLDATALOAD PUSH8 0xFFFFFFFFFFFFFFFF DUP2 GT ISZERO PUSH2 0x1216 JUMPI PUSH1 0x0 DUP1 REVERT JUMPDEST PUSH2 0x1222 DUP8 DUP3 DUP9 ADD PUSH2 0x11A0 JUMP JUMPDEST SWAP1 SWAP9 SWAP1 SWAP8 POP PUSH1 0x20 DUP8 ADD CALLDATALOAD SWAP7 PUSH1 0x40 ADD CALLDATALOAD SWAP6 POP SWAP4 POP POP POP POP JUMP JUMPDEST PUSH1 0x0 DUP1 PUSH1 0x0 PUSH1 0x40 DUP5 DUP7 SUB SLT ISZERO PUSH2 0x124F JUMPI PUSH1 0x0 DUP1 REVERT JUMPDEST DUP4 CALLDATALOAD PUSH8 0xFFFFFFFFFFFFFFFF DUP2 GT ISZERO PUSH2 0x1266 JUMPI PUSH1 0x0 DUP1 REVERT JUMPDEST PUSH2 0x1272 DUP7 DUP3 DUP8 ADD PUSH2 0x11A0 JUMP JUMPDEST SWAP1 SWAP8 SWAP1 SWAP7 POP PUSH1 0x20 SWAP6 SWAP1 SWAP6 ADD CALLDATALOAD SWAP5 SWAP4 POP POP POP POP JUMP JUMPDEST PUSH1 0x0 PUSH1 0x20 DUP3 DUP5 SUB SLT ISZERO PUSH2 0x1298 JUMPI PUSH1 0x0 DUP1 REVERT JUMPDEST DUP2 MLOAD DUP1 ISZERO ISZERO DUP2 EQ PUSH2 0x12A8 JUMPI PUSH1 0x0 DUP1 REVERT JUMPDEST SWAP4 SWAP3 POP POP POP JUMP JUMPDEST PUSH1 0x0 PUSH1 0x20 DUP1 DUP4 MSTORE DUP4 MLOAD DUP1 DUP3 DUP6 ADD MSTORE PUSH1 0x0 JUMPDEST DUP2 DUP2 LT ISZERO PUSH2 0x12DC JUMPI DUP6 DUP2 ADD DUP4 ADD MLOAD DUP6 DUP3 ADD PUSH1 0x40 ADD MSTORE DUP3 ADD PUSH2 0x12C0 JUMP JUMPDEST POP PUSH1 0x0 PUSH1 0x40 DUP3 DUP7 ADD ADD MSTORE PUSH1 0x40 PUSH1 0x1F NOT PUSH1 0x1F DUP4 ADD AND DUP6 ADD ADD SWAP3 POP POP POP SWAP3 SWAP2 POP POP JUMP JUMPDEST PUSH4 0x4E487B71 PUSH1 0xE0 SHL PUSH1 0x0 MSTORE PUSH1 0x11 PUSH1 0x4 MSTORE PUSH1 0x24 PUSH1 0x0 REVERT JUMPDEST PUSH1 0x0 DUP2 PUSH1 0x0 NOT DIV DUP4 GT DUP3 ISZERO ISZERO AND ISZERO PUSH2 0x132D JUMPI PUSH2 0x132D PUSH2 0x12FD JUMP JUMPDEST POP MUL SWAP1 JUMP JUMPDEST DUP1 DUP3 ADD DUP1 DUP3 GT ISZERO PUSH2 0x1345 JUMPI PUSH2 0x1345 PUSH2 0x12FD JUMP JUMPDEST SWAP3 SWAP2 POP POP JUMP JUMPDEST DUP2 DUP4 MSTORE DUP2 DUP2 PUSH1 0x20 DUP6 ADD CALLDATACOPY POP PUSH1 0x0 DUP3 DUP3 ADD PUSH1 0x20 SWAP1 DUP2 ADD SWAP2 SWAP1 SWAP2 MSTORE PUSH1 0x1F SWAP1 SWAP2 ADD PUSH1 0x1F NOT AND SWAP1 SWAP2 ADD ADD SWAP1 JUMP JUMPDEST PUSH1 0x40 DUP2 MSTORE PUSH1 0x0 PUSH2 0x1388 PUSH1 0x40 DUP4 ADD DUP5 DUP7 PUSH2 0x134B JUMP JUMPDEST DUP3 DUP2 SUB PUSH1 0x20 DUP5 ADD MSTORE PUSH1 0x20 DUP2 MSTORE PUSH32 0x4E616D65206973206C657373207468616E206D696E696D756D206C656E677468 PUSH1 0x20 DUP3 ADD MSTORE PUSH1 0x40 DUP2 ADD SWAP2 POP POP SWAP4 SWAP3 POP POP POP JUMP JUMPDEST PUSH1 0x40 DUP2 MSTORE PUSH1 0x0 PUSH2 0x13DC PUSH1 0x40 DUP4 ADD DUP5 DUP7 PUSH2 0x134B JUMP JUMPDEST DUP3 DUP2 SUB PUSH1 0x20 DUP5 ADD MSTORE PUSH1 0x1C DUP2 MSTORE PUSH32 0x4E616D65206973206D6F7265207468616E206D6178206C656E67746800000000 PUSH1 0x20 DUP3 ADD MSTORE PUSH1 0x40 DUP2 ADD SWAP2 POP POP SWAP4 SWAP3 POP POP POP JUMP JUMPDEST PUSH1 0x0 DUP3 PUSH2 0x1439 JUMPI PUSH4 0x4E487B71 PUSH1 0xE0 SHL PUSH1 0x0 MSTORE PUSH1 0x12 PUSH1 0x4 MSTORE PUSH1 0x24 PUSH1 0x0 REVERT JUMPDEST POP DIV SWAP1 JUMP JUMPDEST DUP2 DUP2 SUB DUP2 DUP2 GT ISZERO PUSH2 0x1345 JUMPI PUSH2 0x1345 PUSH2 0x12FD JUMP JUMPDEST PUSH4 0x4E487B71 PUSH1 0xE0 SHL PUSH1 0x0 MSTORE PUSH1 0x32 PUSH1 0x4 MSTORE PUSH1 0x24 PUSH1 0x0 REVERT JUMPDEST PUSH1 0x0 PUSH1 0x1 DUP3 ADD PUSH2 0x1479 JUMPI PUSH2 0x1479 PUSH2 0x12FD JUMP JUMPDEST POP PUSH1 0x1 ADD SWAP1 JUMP INVALID JUMP PUSH2 0x6C75 PUSH6 0x206D75737420 PUSH3 0x652077 PUSH10 0x7468696E2072616E6765 KECCAK256 ADDRESS KECCAK256 PUSH21 0x6F2031303030303030303030303030303030303030 ADDRESS ADDRESS LOG2 PUSH5 0x6970667358 0x22 SLT KECCAK256 0x5C PUSH7 0xF65539BFC88B5E MLOAD 0x49 0x4D DUP10 BASEFEE SWAP16 SELFDESTRUCT SWAP16 JUMP 0xC8 0xB8 PUSH28 0xC27E02812477766A73AC4064736F6C63430008100033000000000000 "},"methodIdentifiers":{"getDiscount()":"d137874b","getFeePercentage()":"11efbf61","getMaxDuration()":"b49a2db9","getMaxLength()":"01a400fa","getMinCommitmentAge()":"17215250","getMinDuration()":"034d501b","getMinLength()":"857050a1","getPrice(string,uint256,uint256)":"b7fc1b94","setDiscount(uint256)":"dabd2719","setFeePercentage(uint256)":"ae06c1b7","setMaxDuration(uint256)":"cf0f34c4","setMaxLength(uint256)":"dc2f7867","setMinCommitmentAge(uint256)":"2e4c5d90","setMinDuration(uint256)":"1674bade","setMinLength(uint256)":"8e99a422","validateName(string,uint256)":"be47152e"}},"storageLayout":{"storage":[{"astId":2311,"contract":"contracts/PartnerConfiguration/PartnerConfiguration.sol:PartnerConfiguration","label":"_accessControl","offset":0,"slot":"0","type":"t_contract(IAccessControl)2382"},{"astId":3290,"contract":"contracts/PartnerConfiguration/PartnerConfiguration.sol:PartnerConfiguration","label":"_minLength","offset":0,"slot":"1","type":"t_uint256"},{"astId":3292,"contract":"contracts/PartnerConfiguration/PartnerConfiguration.sol:PartnerConfiguration","label":"_maxLength","offset":0,"slot":"2","type":"t_uint256"},{"astId":3294,"contract":"contracts/PartnerConfiguration/PartnerConfiguration.sol:PartnerConfiguration","label":"_minDuration","offset":0,"slot":"3","type":"t_uint256"},{"astId":3296,"contract":"contracts/PartnerConfiguration/PartnerConfiguration.sol:PartnerConfiguration","label":"_maxDuration","offset":0,"slot":"4","type":"t_uint256"},{"astId":3298,"contract":"contracts/PartnerConfiguration/PartnerConfiguration.sol:PartnerConfiguration","label":"_feePercentage","offset":0,"slot":"5","type":"t_uint256"},{"astId":3300,"contract":"contracts/PartnerConfiguration/PartnerConfiguration.sol:PartnerConfiguration","label":"_discount","offset":0,"slot":"6","type":"t_uint256"},{"astId":3302,"contract":"contracts/PartnerConfiguration/PartnerConfiguration.sol:PartnerConfiguration","label":"_minCommitmentAge","offset":0,"slot":"7","type":"t_uint256"}],"types":{"t_contract(IAccessControl)2382":{"encoding":"inplace","label":"contract IAccessControl","numberOfBytes":"20"},"t_uint256":{"encoding":"inplace","label":"uint256","numberOfBytes":"32"}}},"userdoc":{"events":{"DiscountChanged(uint256,uint256)":{"notice":"event emitted when the discount is changed"},"FeePercentageChanged(uint256,uint256)":{"notice":"event emitted when the fee percentage is changed"},"MaxDurationChanged(uint256,uint256)":{"notice":"event emitted when the maximum duration is changed"},"MaxLengthChanged(uint256,uint256)":{"notice":"event emitted when the maximum length is changed"},"MinCommitmentAgeChanged(uint256,uint256)":{"notice":"event emitted when the minimum commitment age is changed"},"MinDurationChanged(uint256,uint256)":{"notice":"event emitted when the minimum duration is changed"},"MinLengthChanged(uint256,uint256)":{"notice":"event emitted when the minimum length is changed"}},"kind":"user","methods":{"getDiscount()":{"notice":"returns the discount assigned to the partner for each domain name registered as a percentage"},"getFeePercentage()":{"notice":"returns the fee percentage assigned to the partner for each domain name registered"},"getMaxDuration()":{"notice":"returns the maximum duration in years allowed for a domain name purchase"},"getMaxLength()":{"notice":"returns the maximum characters count allowed for a domain name"},"getMinCommitmentAge()":{"notice":"returns the minimum commitment age allowed for a domain name registration. Represented in seconds."},"getMinDuration()":{"notice":"returns the minimum duration in years allowed for a domain name purchase"},"getMinLength()":{"notice":"returns the minimum characters count allowed for a domain name"},"getPrice(string,uint256,uint256)":{"notice":"returns the price of a domain name"},"setDiscount(uint256)":{"notice":"sets the discount assigned to the partner for each domain name registered"},"setFeePercentage(uint256)":{"notice":"sets the fee percentage assigned to the partner for each domain name registered"},"setMaxDuration(uint256)":{"notice":"sets the maximum duration allowed for a domain name"},"setMaxLength(uint256)":{"notice":"sets the maximum length allowed for a domain name"},"setMinCommitmentAge(uint256)":{"notice":"sets the minimum commitment age allowed for a domain name"},"setMinDuration(uint256)":{"notice":"sets the minimum duration allowed for a domain name"},"setMinLength(uint256)":{"notice":"sets the minimum length allowed for a domain name"},"validateName(string,uint256)":{"notice":"checks if the name is valid and reverts with reason if not"}},"version":1}}}}