{"contracts/PartnerManager/PartnerManager.sol":{"PartnerManager":{"abi":[{"inputs":[{"internalType":"contract IAccessControl","name":"accessControl","type":"address"}],"stateMutability":"nonpayable","type":"constructor"},{"inputs":[{"internalType":"address","name":"sender","type":"address"}],"name":"OnlyHighLevelOperator","type":"error"},{"anonymous":false,"inputs":[{"indexed":true,"internalType":"address","name":"partner","type":"address"},{"indexed":true,"internalType":"address","name":"configurationContract","type":"address"}],"name":"PartnerAdded","type":"event"},{"anonymous":false,"inputs":[{"indexed":false,"internalType":"address","name":"partner","type":"address"},{"indexed":false,"internalType":"address","name":"configurationContract","type":"address"}],"name":"PartnerConfigurationChanged","type":"event"},{"anonymous":false,"inputs":[{"indexed":true,"internalType":"address","name":"partner","type":"address"}],"name":"PartnerRemoved","type":"event"},{"inputs":[{"internalType":"address","name":"partner","type":"address"},{"internalType":"contract IPartnerConfiguration","name":"partnerConfiguration","type":"address"}],"name":"addPartner","outputs":[],"stateMutability":"nonpayable","type":"function"},{"inputs":[{"internalType":"address","name":"partner","type":"address"}],"name":"getPartnerConfiguration","outputs":[{"internalType":"contract IPartnerConfiguration","name":"","type":"address"}],"stateMutability":"view","type":"function"},{"inputs":[{"internalType":"address","name":"partner","type":"address"}],"name":"isPartner","outputs":[{"internalType":"bool","name":"","type":"bool"}],"stateMutability":"view","type":"function"},{"inputs":[{"internalType":"address","name":"partner","type":"address"}],"name":"removePartner","outputs":[],"stateMutability":"nonpayable","type":"function"},{"inputs":[{"internalType":"address","name":"partner","type":"address"},{"internalType":"contract IPartnerConfiguration","name":"partnerConfiguration","type":"address"}],"name":"setPartnerConfiguration","outputs":[],"stateMutability":"nonpayable","type":"function"}],"devdoc":{"author":"Identity Team @IOVLabs","kind":"dev","methods":{"addPartner(address,address)":{"params":{"partner":"address for the partner that will be whitelisted","partnerConfiguration":"address of the contract that implements the partner configuration interface"}},"getPartnerConfiguration(address)":{"params":{"partner":"address for the partner"}},"isPartner(address)":{"params":{"partner":"address for the partner"}},"removePartner(address)":{"params":{"partner":"address for the partner that will be removed from the whitelist"}},"setPartnerConfiguration(address,address)":{"params":{"configuration":"address of the configuration contract","partner":"address for the partner"}}},"title":"Keeps track of the whitelisted partners and its configurations.","version":1},"evm":{"bytecode":{"linkReferences":{},"object":"608060405234801561001057600080fd5b506040516106f73803806106f783398101604081905261002f91610054565b600080546001600160a01b0319166001600160a01b0392909216919091179055610084565b60006020828403121561006657600080fd5b81516001600160a01b038116811461007d57600080fd5b9392505050565b610664806100936000396000f3fe608060405234801561001057600080fd5b50600436106100675760003560e01c8063b16bd79911610050578063b16bd799146100f6578063e1818fbb1461010b578063ea3c281a1461011e57600080fd5b806314049bd91461006c5780638c0f9aac146100ba575b600080fd5b61009d61007a3660046105af565b6001600160a01b0390811660009081526001602052604090205461010090041690565b6040516001600160a01b0390911681526020015b60405180910390f35b6100e66100c83660046105af565b6001600160a01b031660009081526001602052604090205460ff1690565b60405190151581526020016100b1565b6101096101043660046105d3565b610131565b005b6101096101193660046105d3565b6102d2565b61010961012c3660046105af565b6104a3565b600054604051632d260be760e11b81523360048201526001600160a01b0390911690635a4c17ce90602401602060405180830381865afa158015610179573d6000803e3d6000fd5b505050506040513d601f19601f8201168201806040525081019061019d919061060c565b6101c1576040516307d92ddb60e51b81523360048201526024015b60405180910390fd5b6001600160a01b03821660009081526001602052604090205460ff161561022a5760405162461bcd60e51b815260206004820152601660248201527f506172746e657220616c7265616479206578697374730000000000000000000060448201526064016101b8565b60408051808201825260018082526001600160a01b03848116602080850182815288841660008181529590925286852095518654915174ffffffffffffffffffffffffffffffffffffffffff1990921690151574ffffffffffffffffffffffffffffffffffffffff0019161761010091909416029290921790935592519192917f972eb0916813c99d10e0f04093c87cb4c443d43a2f968ec82ab79d814bd106c49190a35050565b600054604051632d260be760e11b81523360048201526001600160a01b0390911690635a4c17ce90602401602060405180830381865afa15801561031a573d6000803e3d6000fd5b505050506040513d601f19601f8201168201806040525081019061033e919061060c565b61035d576040516307d92ddb60e51b81523360048201526024016101b8565b604080516001600160a01b038085168252831660208201527fb06e371dbdf388a6e1c2a1e2e2c613cece0dc769253768eaf2879e61b1cf99a0910160405180910390a16001600160a01b0381166103f65760405162461bcd60e51b815260206004820152601560248201527f496e76616c696420636f6e66696775726174696f6e000000000000000000000060448201526064016101b8565b6001600160a01b03821660009081526001602052604090205460ff1661045e5760405162461bcd60e51b815260206004820152600d60248201527f4e6f74206120706172746e65720000000000000000000000000000000000000060448201526064016101b8565b6001600160a01b0391821660009081526001602052604090208054929091166101000274ffffffffffffffffffffffffffffffffffffffff0019909216919091179055565b600054604051632d260be760e11b81523360048201526001600160a01b0390911690635a4c17ce90602401602060405180830381865afa1580156104eb573d6000803e3d6000fd5b505050506040513d601f19601f8201168201806040525081019061050f919061060c565b61052e576040516307d92ddb60e51b81523360048201526024016101b8565b6040516001600160a01b038216907fd2639eca7fc6fcdba5fa158fc8075b41bc021e97ac1e127b9da5f4fd925f082890600090a26001600160a01b03166000908152600160205260409020805474ffffffffffffffffffffffffffffffffffffffffff19169055565b6001600160a01b03811681146105ac57600080fd5b50565b6000602082840312156105c157600080fd5b81356105cc81610597565b9392505050565b600080604083850312156105e657600080fd5b82356105f181610597565b9150602083013561060181610597565b809150509250929050565b60006020828403121561061e57600080fd5b815180151581146105cc57600080fdfea2646970667358221220a5a493ee29e716169343f5e4644a5077d766f3a25cd49065dc23c5557b90f53364736f6c63430008100033","opcodes":"PUSH1 0x80 PUSH1 0x40 MSTORE CALLVALUE DUP1 ISZERO PUSH2 0x10 JUMPI PUSH1 0x0 DUP1 REVERT JUMPDEST POP PUSH1 0x40 MLOAD PUSH2 0x6F7 CODESIZE SUB DUP1 PUSH2 0x6F7 DUP4 CODECOPY DUP2 ADD PUSH1 0x40 DUP2 SWAP1 MSTORE PUSH2 0x2F SWAP2 PUSH2 0x54 JUMP JUMPDEST PUSH1 0x0 DUP1 SLOAD PUSH1 0x1 PUSH1 0x1 PUSH1 0xA0 SHL SUB NOT AND PUSH1 0x1 PUSH1 0x1 PUSH1 0xA0 SHL SUB SWAP3 SWAP1 SWAP3 AND SWAP2 SWAP1 SWAP2 OR SWAP1 SSTORE PUSH2 0x84 JUMP JUMPDEST PUSH1 0x0 PUSH1 0x20 DUP3 DUP5 SUB SLT ISZERO PUSH2 0x66 JUMPI PUSH1 0x0 DUP1 REVERT JUMPDEST DUP2 MLOAD PUSH1 0x1 PUSH1 0x1 PUSH1 0xA0 SHL SUB DUP2 AND DUP2 EQ PUSH2 0x7D JUMPI PUSH1 0x0 DUP1 REVERT JUMPDEST SWAP4 SWAP3 POP POP POP JUMP JUMPDEST PUSH2 0x664 DUP1 PUSH2 0x93 PUSH1 0x0 CODECOPY PUSH1 0x0 RETURN INVALID PUSH1 0x80 PUSH1 0x40 MSTORE CALLVALUE DUP1 ISZERO PUSH2 0x10 JUMPI PUSH1 0x0 DUP1 REVERT JUMPDEST POP PUSH1 0x4 CALLDATASIZE LT PUSH2 0x67 JUMPI PUSH1 0x0 CALLDATALOAD PUSH1 0xE0 SHR DUP1 PUSH4 0xB16BD799 GT PUSH2 0x50 JUMPI DUP1 PUSH4 0xB16BD799 EQ PUSH2 0xF6 JUMPI DUP1 PUSH4 0xE1818FBB EQ PUSH2 0x10B JUMPI DUP1 PUSH4 0xEA3C281A EQ PUSH2 0x11E JUMPI PUSH1 0x0 DUP1 REVERT JUMPDEST DUP1 PUSH4 0x14049BD9 EQ PUSH2 0x6C JUMPI DUP1 PUSH4 0x8C0F9AAC EQ PUSH2 0xBA JUMPI JUMPDEST PUSH1 0x0 DUP1 REVERT JUMPDEST PUSH2 0x9D PUSH2 0x7A CALLDATASIZE PUSH1 0x4 PUSH2 0x5AF JUMP JUMPDEST PUSH1 0x1 PUSH1 0x1 PUSH1 0xA0 SHL SUB SWAP1 DUP2 AND PUSH1 0x0 SWAP1 DUP2 MSTORE PUSH1 0x1 PUSH1 0x20 MSTORE PUSH1 0x40 SWAP1 KECCAK256 SLOAD PUSH2 0x100 SWAP1 DIV AND SWAP1 JUMP JUMPDEST PUSH1 0x40 MLOAD PUSH1 0x1 PUSH1 0x1 PUSH1 0xA0 SHL SUB SWAP1 SWAP2 AND DUP2 MSTORE PUSH1 0x20 ADD JUMPDEST PUSH1 0x40 MLOAD DUP1 SWAP2 SUB SWAP1 RETURN JUMPDEST PUSH2 0xE6 PUSH2 0xC8 CALLDATASIZE PUSH1 0x4 PUSH2 0x5AF JUMP JUMPDEST PUSH1 0x1 PUSH1 0x1 PUSH1 0xA0 SHL SUB AND PUSH1 0x0 SWAP1 DUP2 MSTORE PUSH1 0x1 PUSH1 0x20 MSTORE PUSH1 0x40 SWAP1 KECCAK256 SLOAD PUSH1 0xFF AND SWAP1 JUMP JUMPDEST PUSH1 0x40 MLOAD SWAP1 ISZERO ISZERO DUP2 MSTORE PUSH1 0x20 ADD PUSH2 0xB1 JUMP JUMPDEST PUSH2 0x109 PUSH2 0x104 CALLDATASIZE PUSH1 0x4 PUSH2 0x5D3 JUMP JUMPDEST PUSH2 0x131 JUMP JUMPDEST STOP JUMPDEST PUSH2 0x109 PUSH2 0x119 CALLDATASIZE PUSH1 0x4 PUSH2 0x5D3 JUMP JUMPDEST PUSH2 0x2D2 JUMP JUMPDEST PUSH2 0x109 PUSH2 0x12C CALLDATASIZE PUSH1 0x4 PUSH2 0x5AF JUMP JUMPDEST PUSH2 0x4A3 JUMP JUMPDEST PUSH1 0x0 SLOAD PUSH1 0x40 MLOAD PUSH4 0x2D260BE7 PUSH1 0xE1 SHL DUP2 MSTORE CALLER PUSH1 0x4 DUP3 ADD MSTORE PUSH1 0x1 PUSH1 0x1 PUSH1 0xA0 SHL SUB SWAP1 SWAP2 AND SWAP1 PUSH4 0x5A4C17CE SWAP1 PUSH1 0x24 ADD PUSH1 0x20 PUSH1 0x40 MLOAD DUP1 DUP4 SUB DUP2 DUP7 GAS STATICCALL ISZERO DUP1 ISZERO PUSH2 0x179 JUMPI RETURNDATASIZE PUSH1 0x0 DUP1 RETURNDATACOPY RETURNDATASIZE PUSH1 0x0 REVERT JUMPDEST POP POP POP POP PUSH1 0x40 MLOAD RETURNDATASIZE PUSH1 0x1F NOT PUSH1 0x1F DUP3 ADD AND DUP3 ADD DUP1 PUSH1 0x40 MSTORE POP DUP2 ADD SWAP1 PUSH2 0x19D SWAP2 SWAP1 PUSH2 0x60C JUMP JUMPDEST PUSH2 0x1C1 JUMPI PUSH1 0x40 MLOAD PUSH4 0x7D92DDB PUSH1 0xE5 SHL DUP2 MSTORE CALLER PUSH1 0x4 DUP3 ADD MSTORE PUSH1 0x24 ADD JUMPDEST PUSH1 0x40 MLOAD DUP1 SWAP2 SUB SWAP1 REVERT JUMPDEST PUSH1 0x1 PUSH1 0x1 PUSH1 0xA0 SHL SUB DUP3 AND PUSH1 0x0 SWAP1 DUP2 MSTORE PUSH1 0x1 PUSH1 0x20 MSTORE PUSH1 0x40 SWAP1 KECCAK256 SLOAD PUSH1 0xFF AND ISZERO PUSH2 0x22A JUMPI PUSH1 0x40 MLOAD PUSH3 0x461BCD PUSH1 0xE5 SHL DUP2 MSTORE PUSH1 0x20 PUSH1 0x4 DUP3 ADD MSTORE PUSH1 0x16 PUSH1 0x24 DUP3 ADD MSTORE PUSH32 0x506172746E657220616C72656164792065786973747300000000000000000000 PUSH1 0x44 DUP3 ADD MSTORE PUSH1 0x64 ADD PUSH2 0x1B8 JUMP JUMPDEST PUSH1 0x40 DUP1 MLOAD DUP1 DUP3 ADD DUP3 MSTORE PUSH1 0x1 DUP1 DUP3 MSTORE PUSH1 0x1 PUSH1 0x1 PUSH1 0xA0 SHL SUB DUP5 DUP2 AND PUSH1 0x20 DUP1 DUP6 ADD DUP3 DUP2 MSTORE DUP9 DUP5 AND PUSH1 0x0 DUP2 DUP2 MSTORE SWAP6 SWAP1 SWAP3 MSTORE DUP7 DUP6 KECCAK256 SWAP6 MLOAD DUP7 SLOAD SWAP2 MLOAD PUSH21 0xFFFFFFFFFFFFFFFFFFFFFFFFFFFFFFFFFFFFFFFFFF NOT SWAP1 SWAP3 AND SWAP1 ISZERO ISZERO PUSH21 0xFFFFFFFFFFFFFFFFFFFFFFFFFFFFFFFFFFFFFFFF00 NOT AND OR PUSH2 0x100 SWAP2 SWAP1 SWAP5 AND MUL SWAP3 SWAP1 SWAP3 OR SWAP1 SWAP4 SSTORE SWAP3 MLOAD SWAP2 SWAP3 SWAP2 PUSH32 0x972EB0916813C99D10E0F04093C87CB4C443D43A2F968EC82AB79D814BD106C4 SWAP2 SWAP1 LOG3 POP POP JUMP JUMPDEST PUSH1 0x0 SLOAD PUSH1 0x40 MLOAD PUSH4 0x2D260BE7 PUSH1 0xE1 SHL DUP2 MSTORE CALLER PUSH1 0x4 DUP3 ADD MSTORE PUSH1 0x1 PUSH1 0x1 PUSH1 0xA0 SHL SUB SWAP1 SWAP2 AND SWAP1 PUSH4 0x5A4C17CE SWAP1 PUSH1 0x24 ADD PUSH1 0x20 PUSH1 0x40 MLOAD DUP1 DUP4 SUB DUP2 DUP7 GAS STATICCALL ISZERO DUP1 ISZERO PUSH2 0x31A JUMPI RETURNDATASIZE PUSH1 0x0 DUP1 RETURNDATACOPY RETURNDATASIZE PUSH1 0x0 REVERT JUMPDEST POP POP POP POP PUSH1 0x40 MLOAD RETURNDATASIZE PUSH1 0x1F NOT PUSH1 0x1F DUP3 ADD AND DUP3 ADD DUP1 PUSH1 0x40 MSTORE POP DUP2 ADD SWAP1 PUSH2 0x33E SWAP2 SWAP1 PUSH2 0x60C JUMP JUMPDEST PUSH2 0x35D JUMPI PUSH1 0x40 MLOAD PUSH4 0x7D92DDB PUSH1 0xE5 SHL DUP2 MSTORE CALLER PUSH1 0x4 DUP3 ADD MSTORE PUSH1 0x24 ADD PUSH2 0x1B8 JUMP JUMPDEST PUSH1 0x40 DUP1 MLOAD PUSH1 0x1 PUSH1 0x1 PUSH1 0xA0 SHL SUB DUP1 DUP6 AND DUP3 MSTORE DUP4 AND PUSH1 0x20 DUP3 ADD MSTORE PUSH32 0xB06E371DBDF388A6E1C2A1E2E2C613CECE0DC769253768EAF2879E61B1CF99A0 SWAP2 ADD PUSH1 0x40 MLOAD DUP1 SWAP2 SUB SWAP1 LOG1 PUSH1 0x1 PUSH1 0x1 PUSH1 0xA0 SHL SUB DUP2 AND PUSH2 0x3F6 JUMPI PUSH1 0x40 MLOAD PUSH3 0x461BCD PUSH1 0xE5 SHL DUP2 MSTORE PUSH1 0x20 PUSH1 0x4 DUP3 ADD MSTORE PUSH1 0x15 PUSH1 0x24 DUP3 ADD MSTORE PUSH32 0x496E76616C696420636F6E66696775726174696F6E0000000000000000000000 PUSH1 0x44 DUP3 ADD MSTORE PUSH1 0x64 ADD PUSH2 0x1B8 JUMP JUMPDEST PUSH1 0x1 PUSH1 0x1 PUSH1 0xA0 SHL SUB DUP3 AND PUSH1 0x0 SWAP1 DUP2 MSTORE PUSH1 0x1 PUSH1 0x20 MSTORE PUSH1 0x40 SWAP1 KECCAK256 SLOAD PUSH1 0xFF AND PUSH2 0x45E JUMPI PUSH1 0x40 MLOAD PUSH3 0x461BCD PUSH1 0xE5 SHL DUP2 MSTORE PUSH1 0x20 PUSH1 0x4 DUP3 ADD MSTORE PUSH1 0xD PUSH1 0x24 DUP3 ADD MSTORE PUSH32 0x4E6F74206120706172746E657200000000000000000000000000000000000000 PUSH1 0x44 DUP3 ADD MSTORE PUSH1 0x64 ADD PUSH2 0x1B8 JUMP JUMPDEST PUSH1 0x1 PUSH1 0x1 PUSH1 0xA0 SHL SUB SWAP2 DUP3 AND PUSH1 0x0 SWAP1 DUP2 MSTORE PUSH1 0x1 PUSH1 0x20 MSTORE PUSH1 0x40 SWAP1 KECCAK256 DUP1 SLOAD SWAP3 SWAP1 SWAP2 AND PUSH2 0x100 MUL PUSH21 0xFFFFFFFFFFFFFFFFFFFFFFFFFFFFFFFFFFFFFFFF00 NOT SWAP1 SWAP3 AND SWAP2 SWAP1 SWAP2 OR SWAP1 SSTORE JUMP JUMPDEST PUSH1 0x0 SLOAD PUSH1 0x40 MLOAD PUSH4 0x2D260BE7 PUSH1 0xE1 SHL DUP2 MSTORE CALLER PUSH1 0x4 DUP3 ADD MSTORE PUSH1 0x1 PUSH1 0x1 PUSH1 0xA0 SHL SUB SWAP1 SWAP2 AND SWAP1 PUSH4 0x5A4C17CE SWAP1 PUSH1 0x24 ADD PUSH1 0x20 PUSH1 0x40 MLOAD DUP1 DUP4 SUB DUP2 DUP7 GAS STATICCALL ISZERO DUP1 ISZERO PUSH2 0x4EB JUMPI RETURNDATASIZE PUSH1 0x0 DUP1 RETURNDATACOPY RETURNDATASIZE PUSH1 0x0 REVERT JUMPDEST POP POP POP POP PUSH1 0x40 MLOAD RETURNDATASIZE PUSH1 0x1F NOT PUSH1 0x1F DUP3 ADD AND DUP3 ADD DUP1 PUSH1 0x40 MSTORE POP DUP2 ADD SWAP1 PUSH2 0x50F SWAP2 SWAP1 PUSH2 0x60C JUMP JUMPDEST PUSH2 0x52E JUMPI PUSH1 0x40 MLOAD PUSH4 0x7D92DDB PUSH1 0xE5 SHL DUP2 MSTORE CALLER PUSH1 0x4 DUP3 ADD MSTORE PUSH1 0x24 ADD PUSH2 0x1B8 JUMP JUMPDEST PUSH1 0x40 MLOAD PUSH1 0x1 PUSH1 0x1 PUSH1 0xA0 SHL SUB DUP3 AND SWAP1 PUSH32 0xD2639ECA7FC6FCDBA5FA158FC8075B41BC021E97AC1E127B9DA5F4FD925F0828 SWAP1 PUSH1 0x0 SWAP1 LOG2 PUSH1 0x1 PUSH1 0x1 PUSH1 0xA0 SHL SUB AND PUSH1 0x0 SWAP1 DUP2 MSTORE PUSH1 0x1 PUSH1 0x20 MSTORE PUSH1 0x40 SWAP1 KECCAK256 DUP1 SLOAD PUSH21 0xFFFFFFFFFFFFFFFFFFFFFFFFFFFFFFFFFFFFFFFFFF NOT AND SWAP1 SSTORE JUMP JUMPDEST PUSH1 0x1 PUSH1 0x1 PUSH1 0xA0 SHL SUB DUP2 AND DUP2 EQ PUSH2 0x5AC JUMPI PUSH1 0x0 DUP1 REVERT JUMPDEST POP JUMP JUMPDEST PUSH1 0x0 PUSH1 0x20 DUP3 DUP5 SUB SLT ISZERO PUSH2 0x5C1 JUMPI PUSH1 0x0 DUP1 REVERT JUMPDEST DUP2 CALLDATALOAD PUSH2 0x5CC DUP2 PUSH2 0x597 JUMP JUMPDEST SWAP4 SWAP3 POP POP POP JUMP JUMPDEST PUSH1 0x0 DUP1 PUSH1 0x40 DUP4 DUP6 SUB SLT ISZERO PUSH2 0x5E6 JUMPI PUSH1 0x0 DUP1 REVERT JUMPDEST DUP3 CALLDATALOAD PUSH2 0x5F1 DUP2 PUSH2 0x597 JUMP JUMPDEST SWAP2 POP PUSH1 0x20 DUP4 ADD CALLDATALOAD PUSH2 0x601 DUP2 PUSH2 0x597 JUMP JUMPDEST DUP1 SWAP2 POP POP SWAP3 POP SWAP3 SWAP1 POP JUMP JUMPDEST PUSH1 0x0 PUSH1 0x20 DUP3 DUP5 SUB SLT ISZERO PUSH2 0x61E JUMPI PUSH1 0x0 DUP1 REVERT JUMPDEST DUP2 MLOAD DUP1 ISZERO ISZERO DUP2 EQ PUSH2 0x5CC JUMPI PUSH1 0x0 DUP1 REVERT INVALID LOG2 PUSH5 0x6970667358 0x22 SLT KECCAK256 0xA5 LOG4 SWAP4 0xEE 0x29 0xE7 AND AND SWAP4 NUMBER CREATE2 0xE4 PUSH5 0x4A5077D766 RETURN LOG2 0x5C 0xD4 SWAP1 PUSH6 0xDC23C5557B90 CREATE2 CALLER PUSH5 0x736F6C6343 STOP ADDMOD LT STOP CALLER "},"methodIdentifiers":{"addPartner(address,address)":"b16bd799","getPartnerConfiguration(address)":"14049bd9","isPartner(address)":"8c0f9aac","removePartner(address)":"ea3c281a","setPartnerConfiguration(address,address)":"e1818fbb"}},"storageLayout":{"storage":[{"astId":2311,"contract":"contracts/PartnerManager/PartnerManager.sol:PartnerManager","label":"_accessControl","offset":0,"slot":"0","type":"t_contract(IAccessControl)2382"},{"astId":4036,"contract":"contracts/PartnerManager/PartnerManager.sol:PartnerManager","label":"_partners","offset":0,"slot":"1","type":"t_mapping(t_address,t_struct(Partner)4031_storage)"}],"types":{"t_address":{"encoding":"inplace","label":"address","numberOfBytes":"20"},"t_bool":{"encoding":"inplace","label":"bool","numberOfBytes":"1"},"t_contract(IAccessControl)2382":{"encoding":"inplace","label":"contract IAccessControl","numberOfBytes":"20"},"t_contract(IPartnerConfiguration)3259":{"encoding":"inplace","label":"contract IPartnerConfiguration","numberOfBytes":"20"},"t_mapping(t_address,t_struct(Partner)4031_storage)":{"encoding":"mapping","key":"t_address","label":"mapping(address => struct PartnerManager.Partner)","numberOfBytes":"32","value":"t_struct(Partner)4031_storage"},"t_struct(Partner)4031_storage":{"encoding":"inplace","label":"struct PartnerManager.Partner","members":[{"astId":4027,"contract":"contracts/PartnerManager/PartnerManager.sol:PartnerManager","label":"isPartner","offset":0,"slot":"0","type":"t_bool"},{"astId":4030,"contract":"contracts/PartnerManager/PartnerManager.sol:PartnerManager","label":"configuration","offset":1,"slot":"0","type":"t_contract(IPartnerConfiguration)3259"}],"numberOfBytes":"32"}}},"userdoc":{"events":{"PartnerAdded(address,address)":{"notice":"event emitted when a partner is whitelisted and its configuration is set"},"PartnerConfigurationChanged(address,address)":{"notice":"event emitted when the configuration for a partner is set"},"PartnerRemoved(address)":{"notice":"event emitted when a partner is removed from the whitelist"}},"kind":"user","methods":{"addPartner(address,address)":{"notice":"adds a partner to the whitelist and sets its configuration"},"getPartnerConfiguration(address)":{"notice":"returns the configuration for a partner"},"isPartner(address)":{"notice":"returns true if the partner is whitelisted"},"removePartner(address)":{"notice":"removes a partner from the whitelist"},"setPartnerConfiguration(address,address)":{"notice":"sets the configuration for a partner"}},"version":1}}}}