{
  "_format": "hh-sol-artifact-1",
  "contractName": "ERC677Token",
  "sourceName": "contracts/test-utils/ERC677Token.sol",
  "abi": [
    {
      "inputs": [
        {
          "internalType": "address",
          "name": "initialAccount",
          "type": "address"
        },
        {
          "internalType": "uint256",
          "name": "initialBalance",
          "type": "uint256"
        },
        {
          "internalType": "string",
          "name": "tokenName",
          "type": "string"
        },
        {
          "internalType": "string",
          "name": "tokenSymbol",
          "type": "string"
        }
      ],
      "stateMutability": "nonpayable",
      "type": "constructor"
    },
    {
      "anonymous": false,
      "inputs": [
        {
          "indexed": true,
          "internalType": "address",
          "name": "owner",
          "type": "address"
        },
        {
          "indexed": true,
          "internalType": "address",
          "name": "spender",
          "type": "address"
        },
        {
          "indexed": false,
          "internalType": "uint256",
          "name": "value",
          "type": "uint256"
        }
      ],
      "name": "Approval",
      "type": "event"
    },
    {
      "anonymous": false,
      "inputs": [
        {
          "indexed": true,
          "internalType": "address",
          "name": "from",
          "type": "address"
        },
        {
          "indexed": true,
          "internalType": "address",
          "name": "to",
          "type": "address"
        },
        {
          "indexed": false,
          "internalType": "uint256",
          "name": "value",
          "type": "uint256"
        },
        {
          "indexed": false,
          "internalType": "bytes",
          "name": "data",
          "type": "bytes"
        }
      ],
      "name": "Transfer",
      "type": "event"
    },
    {
      "anonymous": false,
      "inputs": [
        {
          "indexed": true,
          "internalType": "address",
          "name": "from",
          "type": "address"
        },
        {
          "indexed": true,
          "internalType": "address",
          "name": "to",
          "type": "address"
        },
        {
          "indexed": false,
          "internalType": "uint256",
          "name": "value",
          "type": "uint256"
        }
      ],
      "name": "Transfer",
      "type": "event"
    },
    {
      "inputs": [
        {
          "internalType": "address",
          "name": "owner",
          "type": "address"
        },
        {
          "internalType": "address",
          "name": "spender",
          "type": "address"
        }
      ],
      "name": "allowance",
      "outputs": [
        {
          "internalType": "uint256",
          "name": "",
          "type": "uint256"
        }
      ],
      "stateMutability": "view",
      "type": "function"
    },
    {
      "inputs": [
        {
          "internalType": "address",
          "name": "spender",
          "type": "address"
        },
        {
          "internalType": "uint256",
          "name": "amount",
          "type": "uint256"
        }
      ],
      "name": "approve",
      "outputs": [
        {
          "internalType": "bool",
          "name": "",
          "type": "bool"
        }
      ],
      "stateMutability": "nonpayable",
      "type": "function"
    },
    {
      "inputs": [
        {
          "internalType": "address",
          "name": "account",
          "type": "address"
        }
      ],
      "name": "balanceOf",
      "outputs": [
        {
          "internalType": "uint256",
          "name": "",
          "type": "uint256"
        }
      ],
      "stateMutability": "view",
      "type": "function"
    },
    {
      "inputs": [],
      "name": "decimals",
      "outputs": [
        {
          "internalType": "uint8",
          "name": "",
          "type": "uint8"
        }
      ],
      "stateMutability": "view",
      "type": "function"
    },
    {
      "inputs": [
        {
          "internalType": "address",
          "name": "spender",
          "type": "address"
        },
        {
          "internalType": "uint256",
          "name": "subtractedValue",
          "type": "uint256"
        }
      ],
      "name": "decreaseAllowance",
      "outputs": [
        {
          "internalType": "bool",
          "name": "",
          "type": "bool"
        }
      ],
      "stateMutability": "nonpayable",
      "type": "function"
    },
    {
      "inputs": [
        {
          "internalType": "address",
          "name": "spender",
          "type": "address"
        },
        {
          "internalType": "uint256",
          "name": "addedValue",
          "type": "uint256"
        }
      ],
      "name": "increaseAllowance",
      "outputs": [
        {
          "internalType": "bool",
          "name": "",
          "type": "bool"
        }
      ],
      "stateMutability": "nonpayable",
      "type": "function"
    },
    {
      "inputs": [],
      "name": "name",
      "outputs": [
        {
          "internalType": "string",
          "name": "",
          "type": "string"
        }
      ],
      "stateMutability": "view",
      "type": "function"
    },
    {
      "inputs": [],
      "name": "symbol",
      "outputs": [
        {
          "internalType": "string",
          "name": "",
          "type": "string"
        }
      ],
      "stateMutability": "view",
      "type": "function"
    },
    {
      "inputs": [],
      "name": "totalSupply",
      "outputs": [
        {
          "internalType": "uint256",
          "name": "",
          "type": "uint256"
        }
      ],
      "stateMutability": "view",
      "type": "function"
    },
    {
      "inputs": [
        {
          "internalType": "address",
          "name": "to",
          "type": "address"
        },
        {
          "internalType": "uint256",
          "name": "amount",
          "type": "uint256"
        }
      ],
      "name": "transfer",
      "outputs": [
        {
          "internalType": "bool",
          "name": "",
          "type": "bool"
        }
      ],
      "stateMutability": "nonpayable",
      "type": "function"
    },
    {
      "inputs": [
        {
          "internalType": "address",
          "name": "to",
          "type": "address"
        },
        {
          "internalType": "uint256",
          "name": "value",
          "type": "uint256"
        },
        {
          "internalType": "bytes",
          "name": "data",
          "type": "bytes"
        }
      ],
      "name": "transferAndCall",
      "outputs": [
        {
          "internalType": "bool",
          "name": "",
          "type": "bool"
        }
      ],
      "stateMutability": "nonpayable",
      "type": "function"
    },
    {
      "inputs": [
        {
          "internalType": "address",
          "name": "from",
          "type": "address"
        },
        {
          "internalType": "address",
          "name": "to",
          "type": "address"
        },
        {
          "internalType": "uint256",
          "name": "amount",
          "type": "uint256"
        }
      ],
      "name": "transferFrom",
      "outputs": [
        {
          "internalType": "bool",
          "name": "",
          "type": "bool"
        }
      ],
      "stateMutability": "nonpayable",
      "type": "function"
    }
  ],
  "bytecode": "0x60806040523480156200001157600080fd5b50604051620010083803806200100883398101604081905262000034916200020a565b83838383818160036200004883826200032c565b5060046200005782826200032c565b5050506200006c84846200007a60201b60201c565b505050505050505062000420565b6001600160a01b038216620000d55760405162461bcd60e51b815260206004820152601f60248201527f45524332303a206d696e7420746f20746865207a65726f206164647265737300604482015260640160405180910390fd5b8060026000828254620000e99190620003f8565b90915550506001600160a01b038216600081815260208181526040808320805486019055518481527fddf252ad1be2c89b69c2b068fc378daa952ba7f163c4a11628f55a4df523b3ef910160405180910390a35050565b505050565b634e487b7160e01b600052604160045260246000fd5b600082601f8301126200016d57600080fd5b81516001600160401b03808211156200018a576200018a62000145565b604051601f8301601f19908116603f01168101908282118183101715620001b557620001b562000145565b81604052838152602092508683858801011115620001d257600080fd5b600091505b83821015620001f65785820183015181830184015290820190620001d7565b600093810190920192909252949350505050565b600080600080608085870312156200022157600080fd5b84516001600160a01b03811681146200023957600080fd5b6020860151604087015191955093506001600160401b03808211156200025e57600080fd5b6200026c888389016200015b565b935060608701519150808211156200028357600080fd5b5062000292878288016200015b565b91505092959194509250565b600181811c90821680620002b357607f821691505b602082108103620002d457634e487b7160e01b600052602260045260246000fd5b50919050565b601f8211156200014057600081815260208120601f850160051c81016020861015620003035750805b601f850160051c820191505b8181101562000324578281556001016200030f565b505050505050565b81516001600160401b0381111562000348576200034862000145565b62000360816200035984546200029e565b84620002da565b602080601f8311600181146200039857600084156200037f5750858301515b600019600386901b1c1916600185901b17855562000324565b600085815260208120601f198616915b82811015620003c957888601518255948401946001909101908401620003a8565b5085821015620003e85787850151600019600388901b60f8161c191681555b5050505050600190811b01905550565b808201808211156200041a57634e487b7160e01b600052601160045260246000fd5b92915050565b610bd880620004306000396000f3fe608060405234801561001057600080fd5b50600436106100d45760003560e01c80634000aea011610081578063a457c2d71161005b578063a457c2d7146101a5578063a9059cbb146101b8578063dd62ed3e146101cb57600080fd5b80634000aea01461016157806370a082311461017457806395d89b411461019d57600080fd5b806323b872dd116100b257806323b872dd1461012c578063313ce5671461013f578063395093511461014e57600080fd5b806306fdde03146100d9578063095ea7b3146100f757806318160ddd1461011a575b600080fd5b6100e1610204565b6040516100ee919061090f565b60405180910390f35b61010a61010536600461093e565b610296565b60405190151581526020016100ee565b6002545b6040519081526020016100ee565b61010a61013a366004610968565b6102b0565b604051601281526020016100ee565b61010a61015c36600461093e565b6102d6565b61010a61016f3660046109ba565b610315565b61011e610182366004610a85565b6001600160a01b031660009081526020819052604090205490565b6100e161041b565b61010a6101b336600461093e565b61042a565b61010a6101c636600461093e565b6104e4565b61011e6101d9366004610aa0565b6001600160a01b03918216600090815260016020908152604080832093909416825291909152205490565b60606003805461021390610ad3565b80601f016020809104026020016040519081016040528092919081815260200182805461023f90610ad3565b801561028c5780601f106102615761010080835404028352916020019161028c565b820191906000526020600020905b81548152906001019060200180831161026f57829003601f168201915b5050505050905090565b6000336102a48185856104f2565b60019150505b92915050565b6000336102be85828561064a565b6102c98585856106dc565b60019150505b9392505050565b3360008181526001602090815260408083206001600160a01b03871684529091528120549091906102a49082908690610310908790610b0d565b6104f2565b60008061032285856104e4565b9050806103335760009150506102cf565b846001600160a01b0316336001600160a01b03167fe19260aff97b920c7df27010903aeb9c8d2be5d310a2c67824cf3f15396e4c168686604051610378929190610b2e565b60405180910390a36040517fc0ee0b8a00000000000000000000000000000000000000000000000000000000815285906001600160a01b0382169063c0ee0b8a906103cb90339089908990600401610b4f565b6020604051808303816000875af11580156103ea573d6000803e3d6000fd5b505050506040513d601f19601f8201168201806040525081019061040e9190610b80565b5060019695505050505050565b60606004805461021390610ad3565b3360008181526001602090815260408083206001600160a01b0387168452909152812054909190838110156104cc5760405162461bcd60e51b815260206004820152602560248201527f45524332303a2064656372656173656420616c6c6f77616e63652062656c6f7760448201527f207a65726f00000000000000000000000000000000000000000000000000000060648201526084015b60405180910390fd5b6104d982868684036104f2565b506001949350505050565b6000336102a48185856106dc565b6001600160a01b03831661056d5760405162461bcd60e51b8152602060048201526024808201527f45524332303a20617070726f76652066726f6d20746865207a65726f2061646460448201527f726573730000000000000000000000000000000000000000000000000000000060648201526084016104c3565b6001600160a01b0382166105e95760405162461bcd60e51b815260206004820152602260248201527f45524332303a20617070726f766520746f20746865207a65726f20616464726560448201527f737300000000000000000000000000000000000000000000000000000000000060648201526084016104c3565b6001600160a01b0383811660008181526001602090815260408083209487168084529482529182902085905590518481527f8c5be1e5ebec7d5bd14f71427d1e84f3dd0314c0f7b2291e5b200ac8c7c3b925910160405180910390a3505050565b6001600160a01b0383811660009081526001602090815260408083209386168352929052205460001981146106d657818110156106c95760405162461bcd60e51b815260206004820152601d60248201527f45524332303a20696e73756666696369656e7420616c6c6f77616e636500000060448201526064016104c3565b6106d684848484036104f2565b50505050565b6001600160a01b0383166107585760405162461bcd60e51b815260206004820152602560248201527f45524332303a207472616e736665722066726f6d20746865207a65726f20616460448201527f647265737300000000000000000000000000000000000000000000000000000060648201526084016104c3565b6001600160a01b0382166107d45760405162461bcd60e51b815260206004820152602360248201527f45524332303a207472616e7366657220746f20746865207a65726f206164647260448201527f657373000000000000000000000000000000000000000000000000000000000060648201526084016104c3565b6001600160a01b038316600090815260208190526040902054818110156108635760405162461bcd60e51b815260206004820152602660248201527f45524332303a207472616e7366657220616d6f756e742065786365656473206260448201527f616c616e6365000000000000000000000000000000000000000000000000000060648201526084016104c3565b6001600160a01b03848116600081815260208181526040808320878703905593871680835291849020805487019055925185815290927fddf252ad1be2c89b69c2b068fc378daa952ba7f163c4a11628f55a4df523b3ef910160405180910390a36106d6565b6000815180845260005b818110156108ef576020818501810151868301820152016108d3565b506000602082860101526020601f19601f83011685010191505092915050565b6020815260006102cf60208301846108c9565b80356001600160a01b038116811461093957600080fd5b919050565b6000806040838503121561095157600080fd5b61095a83610922565b946020939093013593505050565b60008060006060848603121561097d57600080fd5b61098684610922565b925061099460208501610922565b9150604084013590509250925092565b634e487b7160e01b600052604160045260246000fd5b6000806000606084860312156109cf57600080fd5b6109d884610922565b925060208401359150604084013567ffffffffffffffff808211156109fc57600080fd5b818601915086601f830112610a1057600080fd5b813581811115610a2257610a226109a4565b604051601f8201601f19908116603f01168101908382118183101715610a4a57610a4a6109a4565b81604052828152896020848701011115610a6357600080fd5b8260208601602083013760006020848301015280955050505050509250925092565b600060208284031215610a9757600080fd5b6102cf82610922565b60008060408385031215610ab357600080fd5b610abc83610922565b9150610aca60208401610922565b90509250929050565b600181811c90821680610ae757607f821691505b602082108103610b0757634e487b7160e01b600052602260045260246000fd5b50919050565b808201808211156102aa57634e487b7160e01b600052601160045260246000fd5b828152604060208201526000610b4760408301846108c9565b949350505050565b6001600160a01b0384168152826020820152606060408201526000610b7760608301846108c9565b95945050505050565b600060208284031215610b9257600080fd5b815180151581146102cf57600080fdfea2646970667358221220945d128c80b72f61503d5945b351f3ec1eeb12ff72805f738fba221228f73dff64736f6c63430008100033",
  "linkReferences": {},
  "deployedLinkReferences": {}
}