{
  "contractName": "MultiChainResolver",
  "abi": [
    {
      "inputs": [
        {
          "internalType": "contract AbstractRNS",
          "name": "_rns",
          "type": "address"
        },
        {
          "internalType": "contract AbstractPublicResolver",
          "name": "_publicResolver",
          "type": "address"
        }
      ],
      "payable": false,
      "stateMutability": "nonpayable",
      "type": "constructor"
    },
    {
      "anonymous": false,
      "inputs": [
        {
          "indexed": true,
          "internalType": "bytes32",
          "name": "node",
          "type": "bytes32"
        },
        {
          "indexed": false,
          "internalType": "address",
          "name": "addr",
          "type": "address"
        }
      ],
      "name": "AddrChanged",
      "type": "event"
    },
    {
      "anonymous": false,
      "inputs": [
        {
          "indexed": true,
          "internalType": "bytes32",
          "name": "node",
          "type": "bytes32"
        },
        {
          "indexed": false,
          "internalType": "bytes4",
          "name": "chain",
          "type": "bytes4"
        },
        {
          "indexed": false,
          "internalType": "string",
          "name": "addr",
          "type": "string"
        }
      ],
      "name": "ChainAddrChanged",
      "type": "event"
    },
    {
      "anonymous": false,
      "inputs": [
        {
          "indexed": false,
          "internalType": "bytes32",
          "name": "node",
          "type": "bytes32"
        },
        {
          "indexed": false,
          "internalType": "bytes4",
          "name": "chain",
          "type": "bytes4"
        },
        {
          "indexed": false,
          "internalType": "bytes32",
          "name": "metadata",
          "type": "bytes32"
        }
      ],
      "name": "ChainMetadataChanged",
      "type": "event"
    },
    {
      "anonymous": false,
      "inputs": [
        {
          "indexed": false,
          "internalType": "bytes32",
          "name": "node",
          "type": "bytes32"
        },
        {
          "indexed": false,
          "internalType": "bytes32",
          "name": "content",
          "type": "bytes32"
        }
      ],
      "name": "ContentChanged",
      "type": "event"
    },
    {
      "payable": false,
      "stateMutability": "nonpayable",
      "type": "fallback"
    },
    {
      "constant": true,
      "inputs": [
        {
          "internalType": "bytes4",
          "name": "interfaceId",
          "type": "bytes4"
        }
      ],
      "name": "supportsInterface",
      "outputs": [
        {
          "internalType": "bool",
          "name": "",
          "type": "bool"
        }
      ],
      "payable": false,
      "stateMutability": "view",
      "type": "function"
    },
    {
      "constant": true,
      "inputs": [
        {
          "internalType": "bytes32",
          "name": "node",
          "type": "bytes32"
        }
      ],
      "name": "addr",
      "outputs": [
        {
          "internalType": "address",
          "name": "",
          "type": "address"
        }
      ],
      "payable": false,
      "stateMutability": "view",
      "type": "function"
    },
    {
      "constant": false,
      "inputs": [
        {
          "internalType": "bytes32",
          "name": "node",
          "type": "bytes32"
        },
        {
          "internalType": "address",
          "name": "addrValue",
          "type": "address"
        }
      ],
      "name": "setAddr",
      "outputs": [],
      "payable": false,
      "stateMutability": "nonpayable",
      "type": "function"
    },
    {
      "constant": true,
      "inputs": [
        {
          "internalType": "bytes32",
          "name": "node",
          "type": "bytes32"
        }
      ],
      "name": "content",
      "outputs": [
        {
          "internalType": "bytes32",
          "name": "",
          "type": "bytes32"
        }
      ],
      "payable": false,
      "stateMutability": "view",
      "type": "function"
    },
    {
      "constant": false,
      "inputs": [
        {
          "internalType": "bytes32",
          "name": "node",
          "type": "bytes32"
        },
        {
          "internalType": "bytes32",
          "name": "contentValue",
          "type": "bytes32"
        }
      ],
      "name": "setContent",
      "outputs": [],
      "payable": false,
      "stateMutability": "nonpayable",
      "type": "function"
    },
    {
      "constant": true,
      "inputs": [
        {
          "internalType": "bytes32",
          "name": "node",
          "type": "bytes32"
        },
        {
          "internalType": "bytes4",
          "name": "chain",
          "type": "bytes4"
        }
      ],
      "name": "chainAddr",
      "outputs": [
        {
          "internalType": "string",
          "name": "",
          "type": "string"
        }
      ],
      "payable": false,
      "stateMutability": "view",
      "type": "function"
    },
    {
      "constant": false,
      "inputs": [
        {
          "internalType": "bytes32",
          "name": "node",
          "type": "bytes32"
        },
        {
          "internalType": "bytes4",
          "name": "chain",
          "type": "bytes4"
        },
        {
          "internalType": "string",
          "name": "addrValue",
          "type": "string"
        }
      ],
      "name": "setChainAddr",
      "outputs": [],
      "payable": false,
      "stateMutability": "nonpayable",
      "type": "function"
    },
    {
      "constant": true,
      "inputs": [
        {
          "internalType": "bytes32",
          "name": "node",
          "type": "bytes32"
        },
        {
          "internalType": "bytes4",
          "name": "chain",
          "type": "bytes4"
        }
      ],
      "name": "chainMetadata",
      "outputs": [
        {
          "internalType": "bytes32",
          "name": "",
          "type": "bytes32"
        }
      ],
      "payable": false,
      "stateMutability": "view",
      "type": "function"
    },
    {
      "constant": false,
      "inputs": [
        {
          "internalType": "bytes32",
          "name": "node",
          "type": "bytes32"
        },
        {
          "internalType": "bytes4",
          "name": "chain",
          "type": "bytes4"
        },
        {
          "internalType": "bytes32",
          "name": "metadataValue",
          "type": "bytes32"
        }
      ],
      "name": "setChainMetadata",
      "outputs": [],
      "payable": false,
      "stateMutability": "nonpayable",
      "type": "function"
    },
    {
      "constant": true,
      "inputs": [
        {
          "internalType": "bytes32",
          "name": "node",
          "type": "bytes32"
        },
        {
          "internalType": "bytes4",
          "name": "chain",
          "type": "bytes4"
        }
      ],
      "name": "chainAddrAndMetadata",
      "outputs": [
        {
          "internalType": "string",
          "name": "",
          "type": "string"
        },
        {
          "internalType": "bytes32",
          "name": "",
          "type": "bytes32"
        }
      ],
      "payable": false,
      "stateMutability": "view",
      "type": "function"
    },
    {
      "constant": false,
      "inputs": [
        {
          "internalType": "bytes32",
          "name": "node",
          "type": "bytes32"
        },
        {
          "internalType": "bytes4",
          "name": "chain",
          "type": "bytes4"
        },
        {
          "internalType": "string",
          "name": "addrValue",
          "type": "string"
        },
        {
          "internalType": "bytes32",
          "name": "metadataValue",
          "type": "bytes32"
        }
      ],
      "name": "setChainAddrWithMetadata",
      "outputs": [],
      "payable": false,
      "stateMutability": "nonpayable",
      "type": "function"
    }
  ],
  "bytecode": "0x608060405234801561001057600080fd5b5060405161235f38038061235f8339818101604052604081101561003357600080fd5b810190808051906020019092919080519060200190929190505050816000806101000a81548173ffffffffffffffffffffffffffffffffffffffff021916908373ffffffffffffffffffffffffffffffffffffffff16021790555080600160006101000a81548173ffffffffffffffffffffffffffffffffffffffff021916908373ffffffffffffffffffffffffffffffffffffffff1602179055506040516100db9061013f565b604051809103906000f0801580156100f7573d6000803e3d6000fd5b50600260006101000a81548173ffffffffffffffffffffffffffffffffffffffff021916908373ffffffffffffffffffffffffffffffffffffffff160217905550505061014c565b6107bf80611ba083390190565b611a458061015b6000396000f3fe608060405234801561001057600080fd5b50600436106100a95760003560e01c80638be4b5f6116100715780638be4b5f6146102fb578063b34e8cd6146103cb578063c3d014d614610436578063d278b4001461046e578063d5fa2b001461055c578063e335bee4146105aa576100a9565b806301ffc9a7146100ae578063245d4d9a146101135780632dff6941146101745780633b3b57de146101b657806382e3bee614610224575b600080fd5b6100f9600480360360208110156100c457600080fd5b8101908080357bffffffffffffffffffffffffffffffffffffffffffffffffffffffff191690602001909291905050506106a2565b604051808215151515815260200191505060405180910390f35b6101726004803603606081101561012957600080fd5b810190808035906020019092919080357bffffffffffffffffffffffffffffffffffffffffffffffffffffffff1916906020019092919080359060200190929190505050610791565b005b6101a06004803603602081101561018a57600080fd5b8101908080359060200190929190505050610967565b6040518082815260200191505060405180910390f35b6101e2600480360360208110156101cc57600080fd5b8101908080359060200190929190505050610a4a565b604051808273ffffffffffffffffffffffffffffffffffffffff1673ffffffffffffffffffffffffffffffffffffffff16815260200191505060405180910390f35b6102796004803603604081101561023a57600080fd5b810190808035906020019092919080357bffffffffffffffffffffffffffffffffffffffffffffffffffffffff19169060200190929190505050610d2d565b6040518080602001838152602001828103825284818151815260200191508051906020019080838360005b838110156102bf5780820151818401526020810190506102a4565b50505050905090810190601f1680156102ec5780820380516001836020036101000a031916815260200191505b50935050505060405180910390f35b6103506004803603604081101561031157600080fd5b810190808035906020019092919080357bffffffffffffffffffffffffffffffffffffffffffffffffffffffff19169060200190929190505050610e43565b6040518080602001828103825283818151815260200191508051906020019080838360005b83811015610390578082015181840152602081019050610375565b50505050905090810190601f1680156103bd5780820380516001836020036101000a031916815260200191505b509250505060405180910390f35b610420600480360360408110156103e157600080fd5b810190808035906020019092919080357bffffffffffffffffffffffffffffffffffffffffffffffffffffffff19169060200190929190505050610f47565b6040518082815260200191505060405180910390f35b61046c6004803603604081101561044c57600080fd5b810190808035906020019092919080359060200190929190505050610fb3565b005b61055a6004803603606081101561048457600080fd5b810190808035906020019092919080357bffffffffffffffffffffffffffffffffffffffffffffffffffffffff19169060200190929190803590602001906401000000008111156104d457600080fd5b8201836020820111156104e657600080fd5b8035906020019184600183028401116401000000008311171561050857600080fd5b91908080601f016020809104026020016040519081016040528093929190818152602001838380828437600081840152601f19601f8201169050808301925050505050505091929192905050506110f4565b005b6105a86004803603604081101561057257600080fd5b8101908080359060200190929190803573ffffffffffffffffffffffffffffffffffffffff169060200190929190505050611507565b005b6106a0600480360360808110156105c057600080fd5b810190808035906020019092919080357bffffffffffffffffffffffffffffffffffffffffffffffffffffffff191690602001909291908035906020019064010000000081111561061057600080fd5b82018360208201111561062257600080fd5b8035906020019184600183028401116401000000008311171561064457600080fd5b91908080601f016020809104026020016040519081016040528093929190818152602001838380828437600081840152601f19601f82011690508083019250505050505050919291929080359060200190929190505050611869565b005b6000633b3b57de60e01b7bffffffffffffffffffffffffffffffffffffffffffffffffffffffff1916827bffffffffffffffffffffffffffffffffffffffffffffffffffffffff1916148061073b5750632dff694160e01b7bffffffffffffffffffffffffffffffffffffffffffffffffffffffff1916827bffffffffffffffffffffffffffffffffffffffffffffffffffffffff1916145b8061078a5750638be4b5f660e01b7bffffffffffffffffffffffffffffffffffffffffffffffffffffffff1916827bffffffffffffffffffffffffffffffffffffffffffffffffffffffff1916145b9050919050565b823373ffffffffffffffffffffffffffffffffffffffff166000809054906101000a900473ffffffffffffffffffffffffffffffffffffffff1673ffffffffffffffffffffffffffffffffffffffff166302571be3836040518263ffffffff1660e01b81526004018082815260200191505060206040518083038186803b15801561081b57600080fd5b505afa15801561082f573d6000803e3d6000fd5b505050506040513d602081101561084557600080fd5b810190808051906020019092919050505073ffffffffffffffffffffffffffffffffffffffff161461087657600080fd5b81600460008681526020019081526020016000206000857bffffffffffffffffffffffffffffffffffffffffffffffffffffffff191677ffffffffffffffffffffffffffffffffffffffffffffffff19168152602001908152602001600020600001819055507f92c52f77ad49286096555eb922ca7a09249e8dd525cf58cd162fb1165686fad484848460405180848152602001837bffffffffffffffffffffffffffffffffffffffffffffffffffffffff19167bffffffffffffffffffffffffffffffffffffffffffffffffffffffff19168152602001828152602001935050505060405180910390a150505050565b600080600360008481526020019081526020016000205490506000801b81146109935780915050610a45565b600160009054906101000a900473ffffffffffffffffffffffffffffffffffffffff1673ffffffffffffffffffffffffffffffffffffffff16632dff6941846040518263ffffffff1660e01b81526004018082815260200191505060206040518083038186803b158015610a0657600080fd5b505afa158015610a1a573d6000803e3d6000fd5b505050506040513d6020811015610a3057600080fd5b81019080805190602001909291905050509150505b919050565b60006060600460008481526020019081526020016000206000638000008960e01b7bffffffffffffffffffffffffffffffffffffffffffffffffffffffff191677ffffffffffffffffffffffffffffffffffffffffffffffff191681526020019081526020016000206001018054600181600116156101000203166002900480601f016020809104026020016040519081016040528092919081815260200182805460018160011615610100020316600290048015610b4a5780601f10610b1f57610100808354040283529160200191610b4a565b820191906000526020600020905b815481529060010190602001808311610b2d57829003601f168201915b50505050509050600081511115610c7657600260009054906101000a900473ffffffffffffffffffffffffffffffffffffffff1673ffffffffffffffffffffffffffffffffffffffff166315706fdf826040518263ffffffff1660e01b81526004018080602001828103825283818151815260200191508051906020019080838360005b83811015610be9578082015181840152602081019050610bce565b50505050905090810190601f168015610c165780820380516001836020036101000a031916815260200191505b509250505060206040518083038186803b158015610c3357600080fd5b505afa158015610c47573d6000803e3d6000fd5b505050506040513d6020811015610c5d57600080fd5b8101908080519060200190929190505050915050610d28565b600160009054906101000a900473ffffffffffffffffffffffffffffffffffffffff1673ffffffffffffffffffffffffffffffffffffffff16633b3b57de846040518263ffffffff1660e01b81526004018082815260200191505060206040518083038186803b158015610ce957600080fd5b505afa158015610cfd573d6000803e3d6000fd5b505050506040513d6020811015610d1357600080fd5b81019080805190602001909291905050509150505b919050565b6060600080600460008681526020019081526020016000206000857bffffffffffffffffffffffffffffffffffffffffffffffffffffffff191677ffffffffffffffffffffffffffffffffffffffffffffffff191681526020019081526020016000209050806001018160000154818054600181600116156101000203166002900480601f016020809104026020016040519081016040528092919081815260200182805460018160011615610100020316600290048015610e305780601f10610e0557610100808354040283529160200191610e30565b820191906000526020600020905b815481529060010190602001808311610e1357829003601f168201915b5050505050915092509250509250929050565b6060600460008481526020019081526020016000206000837bffffffffffffffffffffffffffffffffffffffffffffffffffffffff191677ffffffffffffffffffffffffffffffffffffffffffffffff191681526020019081526020016000206001018054600181600116156101000203166002900480601f016020809104026020016040519081016040528092919081815260200182805460018160011615610100020316600290048015610f3a5780601f10610f0f57610100808354040283529160200191610f3a565b820191906000526020600020905b815481529060010190602001808311610f1d57829003601f168201915b5050505050905092915050565b6000600460008481526020019081526020016000206000837bffffffffffffffffffffffffffffffffffffffffffffffffffffffff191677ffffffffffffffffffffffffffffffffffffffffffffffff1916815260200190815260200160002060000154905092915050565b813373ffffffffffffffffffffffffffffffffffffffff166000809054906101000a900473ffffffffffffffffffffffffffffffffffffffff1673ffffffffffffffffffffffffffffffffffffffff166302571be3836040518263ffffffff1660e01b81526004018082815260200191505060206040518083038186803b15801561103d57600080fd5b505afa158015611051573d6000803e3d6000fd5b505050506040513d602081101561106757600080fd5b810190808051906020019092919050505073ffffffffffffffffffffffffffffffffffffffff161461109857600080fd5b8160036000858152602001908152602001600020819055507f0424b6fe0d9c3bdbece0e7879dc241bb0c22e900be8b6c168b4ee08bd9bf83bc8383604051808381526020018281526020019250505060405180910390a1505050565b823373ffffffffffffffffffffffffffffffffffffffff166000809054906101000a900473ffffffffffffffffffffffffffffffffffffffff1673ffffffffffffffffffffffffffffffffffffffff166302571be3836040518263ffffffff1660e01b81526004018082815260200191505060206040518083038186803b15801561117e57600080fd5b505afa158015611192573d6000803e3d6000fd5b505050506040513d60208110156111a857600080fd5b810190808051906020019092919050505073ffffffffffffffffffffffffffffffffffffffff16146111d957600080fd5b81600460008681526020019081526020016000206000857bffffffffffffffffffffffffffffffffffffffffffffffffffffffff191677ffffffffffffffffffffffffffffffffffffffffffffffff19168152602001908152602001600020600101908051906020019061124e92919061196b565b50638000008960e01b7bffffffffffffffffffffffffffffffffffffffffffffffffffffffff1916837bffffffffffffffffffffffffffffffffffffffffffffffffffffffff1916141561141d576000600260009054906101000a900473ffffffffffffffffffffffffffffffffffffffff1673ffffffffffffffffffffffffffffffffffffffff166315706fdf846040518263ffffffff1660e01b81526004018080602001828103825283818151815260200191508051906020019080838360005b8381101561132c578082015181840152602081019050611311565b50505050905090810190601f1680156113595780820380516001836020036101000a031916815260200191505b509250505060206040518083038186803b15801561137657600080fd5b505afa15801561138a573d6000803e3d6000fd5b505050506040513d60208110156113a057600080fd5b81019080805190602001909291905050509050847f52d7d861f09ab3d26239d492e8968629f95e9e318cf0b73bfddc441522a15fd282604051808273ffffffffffffffffffffffffffffffffffffffff1673ffffffffffffffffffffffffffffffffffffffff16815260200191505060405180910390a250611501565b837f6a3e28813f2e2e5bcd0436779f8c5cb179ceadf0379291a818b9078e772b178d848460405180837bffffffffffffffffffffffffffffffffffffffffffffffffffffffff19167bffffffffffffffffffffffffffffffffffffffffffffffffffffffff1916815260200180602001828103825283818151815260200191508051906020019080838360005b838110156114c55780820151818401526020810190506114aa565b50505050905090810190601f1680156114f25780820380516001836020036101000a031916815260200191505b50935050505060405180910390a25b50505050565b813373ffffffffffffffffffffffffffffffffffffffff166000809054906101000a900473ffffffffffffffffffffffffffffffffffffffff1673ffffffffffffffffffffffffffffffffffffffff166302571be3836040518263ffffffff1660e01b81526004018082815260200191505060206040518083038186803b15801561159157600080fd5b505afa1580156115a5573d6000803e3d6000fd5b505050506040513d60208110156115bb57600080fd5b810190808051906020019092919050505073ffffffffffffffffffffffffffffffffffffffff16146115ec57600080fd5b600260009054906101000a900473ffffffffffffffffffffffffffffffffffffffff1673ffffffffffffffffffffffffffffffffffffffff16635e57966d836040518263ffffffff1660e01b8152600401808273ffffffffffffffffffffffffffffffffffffffff1673ffffffffffffffffffffffffffffffffffffffff16815260200191505060006040518083038186803b15801561168b57600080fd5b505afa15801561169f573d6000803e3d6000fd5b505050506040513d6000823e3d601f19601f8201168201806040525060208110156116c957600080fd5b81019080805160405193929190846401000000008211156116e957600080fd5b838201915060208201858111156116ff57600080fd5b825186600182028301116401000000008211171561171c57600080fd5b8083526020830192505050908051906020019080838360005b83811015611750578082015181840152602081019050611735565b50505050905090810190601f16801561177d5780820380516001836020036101000a031916815260200191505b50604052505050600460008581526020019081526020016000206000638000008960e01b7bffffffffffffffffffffffffffffffffffffffffffffffffffffffff191677ffffffffffffffffffffffffffffffffffffffffffffffff1916815260200190815260200160002060010190805190602001906117ff92919061196b565b50827f52d7d861f09ab3d26239d492e8968629f95e9e318cf0b73bfddc441522a15fd283604051808273ffffffffffffffffffffffffffffffffffffffff1673ffffffffffffffffffffffffffffffffffffffff16815260200191505060405180910390a2505050565b833373ffffffffffffffffffffffffffffffffffffffff166000809054906101000a900473ffffffffffffffffffffffffffffffffffffffff1673ffffffffffffffffffffffffffffffffffffffff166302571be3836040518263ffffffff1660e01b81526004018082815260200191505060206040518083038186803b1580156118f357600080fd5b505afa158015611907573d6000803e3d6000fd5b505050506040513d602081101561191d57600080fd5b810190808051906020019092919050505073ffffffffffffffffffffffffffffffffffffffff161461194e57600080fd5b6119598585856110f4565b611964858584610791565b5050505050565b828054600181600116156101000203166002900490600052602060002090601f016020900481019282601f106119ac57805160ff19168380011785556119da565b828001600101855582156119da579182015b828111156119d95782518255916020019190600101906119be565b5b5090506119e791906119eb565b5090565b611a0d91905b80821115611a095760008160009055506001016119f1565b5090565b9056fea265627a7a723158201c8756aeabfff39875bce471d3361fe8ed04f2a2bc11522d66a2ac1454e7df3364736f6c63430005100032608060405234801561001057600080fd5b5061079f806100206000396000f3fe608060405234801561001057600080fd5b50600436106100415760003560e01c806315706fdf146100465780635e57966d14610141578063b7312707146101fe575b600080fd5b6100ff6004803603602081101561005c57600080fd5b810190808035906020019064010000000081111561007957600080fd5b82018360208201111561008b57600080fd5b803590602001918460018302840111640100000000831117156100ad57600080fd5b91908080601f016020809104026020016040519081016040528093929190818152602001838380828437600081840152601f19601f820116905080830192505050505050509192919290505050610240565b604051808273ffffffffffffffffffffffffffffffffffffffff1673ffffffffffffffffffffffffffffffffffffffff16815260200191505060405180910390f35b6101836004803603602081101561015757600080fd5b81019080803573ffffffffffffffffffffffffffffffffffffffff169060200190929190505050610493565b6040518080602001828103825283818151815260200191508051906020019080838360005b838110156101c35780820151818401526020810190506101a8565b50505050905090810190601f1680156101f05780820380516001836020036101000a031916815260200191505b509250505060405180910390f35b61022a6004803603602081101561021457600080fd5b810190808035906020019092919050505061069f565b6040518082815260200191505060405180910390f35b60006060829050602881511415801561025b5750602a815114155b1561026557600080fd5b60008090506000809050602a8351141561041557600290507f30000000000000000000000000000000000000000000000000000000000000007effffffffffffffffffffffffffffffffffffffffffffffffffffffffffffff1916836000815181106102cd57fe5b602001015160f81c60f81b7effffffffffffffffffffffffffffffffffffffffffffffffffffffffffffff19161461030457600080fd5b7f78000000000000000000000000000000000000000000000000000000000000007effffffffffffffffffffffffffffffffffffffffffffffffffffffffffffff19168360018151811061035457fe5b602001015160f81c60f81b7effffffffffffffffffffffffffffffffffffffffffffffffffffffffffffff19161415801561040a57507f58000000000000000000000000000000000000000000000000000000000000007effffffffffffffffffffffffffffffffffffffffffffffffffffffffffffff1916836001815181106103da57fe5b602001015160f81c60f81b7effffffffffffffffffffffffffffffffffffffffffffffffffffffffffffff191614155b1561041457600080fd5b5b6000806000856020015190508392505b602083101561044e5780831a915061043c8261069f565b60108602019450826001019250610425565b85604001519050600092505b836008018310156104855780831a91506104738261069f565b6010860201945082600101925061045a565b849650505050505050919050565b606080602a6040519080825280601f01601f1916602001820160405280156104ca5781602001600182028038833980820191505090505b5090507f3000000000000000000000000000000000000000000000000000000000000000816000815181106104fb57fe5b60200101907effffffffffffffffffffffffffffffffffffffffffffffffffffffffffffff1916908160001a9053507f78000000000000000000000000000000000000000000000000000000000000008160018151811061055857fe5b60200101907effffffffffffffffffffffffffffffffffffffffffffffffffffffffffffff1916908160001a90535060008090505b60148110156106955760008160130360080260020a8573ffffffffffffffffffffffffffffffffffffffff16816105c057fe5b0460f81b9050600060108260f81c60ff16816105d857fe5b0460f81b905060008160f81c6010028360f81c0360f81b90506105fa82610717565b85600286600202018151811061060c57fe5b60200101907effffffffffffffffffffffffffffffffffffffffffffffffffffffffffffff1916908160001a90535061064481610717565b85600386600202018151811061065657fe5b60200101907effffffffffffffffffffffffffffffffffffffffffffffffffffffffffffff1916908160001a905350505050808060010191505061058d565b5080915050919050565b6000603082101580156106b3575060398211155b156106c357603082039050610712565b606182101580156106d5575060668211155b156106e857606182600a01039050610712565b604182101580156106fa575060468211155b1561070d57604182600a01039050610712565b600080fd5b919050565b6000600a60f81b827effffffffffffffffffffffffffffffffffffffffffffffffffffffffffffff191610156107585760308260f81c0160f81b9050610765565b60578260f81c0160f81b90505b91905056fea265627a7a72315820feb5d8c4230adfe4d37d7ff6d15cddd82b64d10a4f42cd498b5bf772922f021e64736f6c63430005100032",
  "source": "pragma solidity ^0.5.0;\n\nimport \"@rsksmart/rns-registry/contracts/AbstractRNS.sol\";\nimport \"./AbstractPublicResolver.sol\";\nimport \"./AbstractMultiChainResolver.sol\";\nimport \"./AddressUtil.sol\";\n\ncontract MultiChainResolver is AbstractMultiChainResolver {\n    AbstractRNS rns;\n    AbstractPublicResolver publicResolver;\n\n    AddressUtil addressHelper;\n\n    mapping (bytes32 => bytes32) contents;\n    mapping (bytes32 => mapping (bytes8 => ChainAddress)) chainAddresses;\n\n    bytes4 constant ADDR_SIGN = 0x3b3b57de;\n    bytes4 constant CONTENT_SIGN = 0x2dff6941;\n    bytes4 constant CHAIN_ADDR_SIGN = 0x8be4b5f6;\n\n    bytes4 constant RSK_CHAIN_ID = 0x80000089;\n\n    event ContentChanged (bytes32 node, bytes32 content);\n    event ChainMetadataChanged (bytes32 node, bytes4 chain, bytes32 metadata);\n\n    struct ChainAddress {\n        bytes32 metadata;\n        string addr;\n    }\n\n    modifier onlyOwner (bytes32 node) {\n        require(rns.owner(node) == msg.sender);\n        _;\n    }\n\n    constructor (AbstractRNS _rns, AbstractPublicResolver _publicResolver) public {\n        rns = _rns;\n        publicResolver = _publicResolver;\n        addressHelper = new AddressUtil();\n    }\n\n    function () external {\n        revert();\n    }\n\n    function supportsInterface (bytes4 interfaceId) public view returns (bool) {\n        return ((interfaceId == ADDR_SIGN) || (interfaceId == CONTENT_SIGN) || interfaceId == (CHAIN_ADDR_SIGN));\n    }\n\n    function addr (bytes32 node) public view returns (address) {\n        string memory _addr = chainAddresses[node][RSK_CHAIN_ID].addr;\n\n        if (bytes(_addr).length > 0) {\n            return addressHelper.stringToAddress(_addr);\n        }\n\n        return publicResolver.addr(node);\n    }\n\n    function setAddr (bytes32 node, address addrValue) public onlyOwner(node) {\n        chainAddresses[node][RSK_CHAIN_ID].addr = addressHelper.addressToString(addrValue);\n        emit AddrChanged(node, addrValue);\n    }\n\n    function content (bytes32 node) public view returns (bytes32) {\n        bytes32 _content = contents[node];\n\n        if (_content != 0) {\n            return _content;\n        }\n\n        return publicResolver.content(node);\n    }\n\n    function setContent (bytes32 node, bytes32 contentValue) public onlyOwner(node) {\n        contents[node] = contentValue;\n        emit ContentChanged(node, contentValue);\n    }\n\n    function chainAddr (bytes32 node, bytes4 chain) public view returns (string memory) {\n        return chainAddresses[node][chain].addr;\n    }\n\n    function setChainAddr (bytes32 node, bytes4 chain, string memory addrValue) public onlyOwner(node) {\n        chainAddresses[node][chain].addr = addrValue;\n        if (chain == RSK_CHAIN_ID) {\n            address _addr = addressHelper.stringToAddress(addrValue);\n            emit AddrChanged(node, _addr);\n        } else {\n            emit ChainAddrChanged(node, chain, addrValue);\n        }\n    }\n\n    function chainMetadata (bytes32 node, bytes4 chain) public view returns (bytes32) {\n        return chainAddresses[node][chain].metadata;\n    }\n\n    function setChainMetadata (bytes32 node, bytes4 chain, bytes32 metadataValue) public onlyOwner(node) {\n        chainAddresses[node][chain].metadata = metadataValue;\n        emit ChainMetadataChanged(node, chain, metadataValue);\n    }\n\n    function chainAddrAndMetadata (bytes32 node, bytes4 chain) public view returns (string memory, bytes32) {\n        ChainAddress storage chainAddress = chainAddresses[node][chain];\n        return (chainAddress.addr, chainAddress.metadata);\n    }\n\n    function setChainAddrWithMetadata (bytes32 node, bytes4 chain, string memory addrValue, bytes32 metadataValue) public onlyOwner(node) {\n        setChainAddr(node, chain, addrValue);\n        setChainMetadata(node, chain, metadataValue);\n    }\n}\n",
  "sourcePath": "@rsksmart/rns-resolver/contracts/legacy/MultiChainResolver.sol",
  "compiler": {
    "name": "solc",
    "version": "0.5.16+commit.9c3226ce.Emscripten.clang"
  },
  "schemaVersion": "3.0.23",
  "updatedAt": "2022-12-06T16:34:39.140Z",
  "devdoc": {
    "methods": {}
  },
  "userdoc": {
    "methods": {}
  }
}