{
  "contractName": "NameResolver",
  "abi": [
    {
      "inputs": [
        {
          "internalType": "contract AbstractRNS",
          "name": "_rns",
          "type": "address"
        }
      ],
      "payable": false,
      "stateMutability": "nonpayable",
      "type": "constructor"
    },
    {
      "anonymous": false,
      "inputs": [
        {
          "indexed": true,
          "internalType": "bytes32",
          "name": "node",
          "type": "bytes32"
        },
        {
          "indexed": false,
          "internalType": "string",
          "name": "name",
          "type": "string"
        }
      ],
      "name": "NameChanged",
      "type": "event"
    },
    {
      "constant": false,
      "inputs": [
        {
          "internalType": "bytes32",
          "name": "node",
          "type": "bytes32"
        },
        {
          "internalType": "string",
          "name": "newName",
          "type": "string"
        }
      ],
      "name": "setName",
      "outputs": [],
      "payable": false,
      "stateMutability": "nonpayable",
      "type": "function"
    },
    {
      "constant": true,
      "inputs": [
        {
          "internalType": "bytes32",
          "name": "node",
          "type": "bytes32"
        }
      ],
      "name": "name",
      "outputs": [
        {
          "internalType": "string",
          "name": "",
          "type": "string"
        }
      ],
      "payable": false,
      "stateMutability": "view",
      "type": "function"
    },
    {
      "constant": true,
      "inputs": [
        {
          "internalType": "bytes4",
          "name": "interfaceID",
          "type": "bytes4"
        }
      ],
      "name": "supportsInterface",
      "outputs": [
        {
          "internalType": "bool",
          "name": "",
          "type": "bool"
        }
      ],
      "payable": false,
      "stateMutability": "pure",
      "type": "function"
    }
  ],
  "bytecode": "0x608060405234801561001057600080fd5b506040516106853803806106858339818101604052602081101561003357600080fd5b8101908080519060200190929190505050806000806101000a81548173ffffffffffffffffffffffffffffffffffffffff021916908373ffffffffffffffffffffffffffffffffffffffff160217905550506105f1806100946000396000f3fe608060405234801561001057600080fd5b50600436106100415760003560e01c806301ffc9a714610046578063691f3431146100ab5780637737221314610152575b600080fd5b6100916004803603602081101561005c57600080fd5b8101908080357bffffffffffffffffffffffffffffffffffffffffffffffffffffffff191690602001909291905050506101d5565b604051808215151515815260200191505060405180910390f35b6100d7600480360360208110156100c157600080fd5b8101908080359060200190929190505050610236565b6040518080602001828103825283818151815260200191508051906020019080838360005b838110156101175780820151818401526020810190506100fc565b50505050905090810190601f1680156101445780820380516001836020036101000a031916815260200191505b509250505060405180910390f35b6101d36004803603604081101561016857600080fd5b81019080803590602001909291908035906020019064010000000081111561018f57600080fd5b8201836020820111156101a157600080fd5b803590602001918460018302840111640100000000831117156101c357600080fd5b90919293919293905050506102eb565b005b600063691f343160e01b7bffffffffffffffffffffffffffffffffffffffffffffffffffffffff1916827bffffffffffffffffffffffffffffffffffffffffffffffffffffffff1916148061022f575061022e826104c6565b5b9050919050565b6060600160008381526020019081526020016000208054600181600116156101000203166002900480601f0160208091040260200160405190810160405280929190818152602001828054600181600116156101000203166002900480156102df5780601f106102b4576101008083540402835291602001916102df565b820191906000526020600020905b8154815290600101906020018083116102c257829003601f168201915b50505050509050919050565b826000809054906101000a900473ffffffffffffffffffffffffffffffffffffffff1673ffffffffffffffffffffffffffffffffffffffff166302571be3826040518263ffffffff1660e01b81526004018082815260200191505060206040518083038186803b15801561035e57600080fd5b505afa158015610372573d6000803e3d6000fd5b505050506040513d602081101561038857600080fd5b810190808051906020019092919050505073ffffffffffffffffffffffffffffffffffffffff163373ffffffffffffffffffffffffffffffffffffffff1614610439576040517f08c379a000000000000000000000000000000000000000000000000000000000815260040180806020018281038252600a8152602001807f4f6e6c79206f776e65720000000000000000000000000000000000000000000081525060200191505060405180910390fd5b828260016000878152602001908152602001600020919061045b929190610517565b50837fb7d29e911041e8d9b843369e890bcb72c9388692ba48b65ac54e7214c4c348f7848460405180806020018281038252848482818152602001925080828437600081840152601f19601f820116905080830192505050935050505060405180910390a250505050565b60006301ffc9a760e01b7bffffffffffffffffffffffffffffffffffffffffffffffffffffffff1916827bffffffffffffffffffffffffffffffffffffffffffffffffffffffff1916149050919050565b828054600181600116156101000203166002900490600052602060002090601f016020900481019282601f1061055857803560ff1916838001178555610586565b82800160010185558215610586579182015b8281111561058557823582559160200191906001019061056a565b5b5090506105939190610597565b5090565b6105b991905b808211156105b557600081600090555060010161059d565b5090565b9056fea265627a7a72315820334284c74ccf8c91b3e1a23dc1e5d891063a69d52518bb76d1acd9b44841e3a864736f6c63430005100032",
  "source": "pragma solidity ^0.5.3;\n\nimport \"./ReverseResolverBase.sol\";\nimport \"@rsksmart/rns-registry/contracts/AbstractRNS.sol\";\n\n/// source: https://github.com/ensdomains/resolvers/blob/master/contracts/profiles/NameResolver.sol\ncontract NameResolver is ReverseResolverBase {\n    bytes4 constant private NAME_INTERFACE_ID = 0x691f3431;\n    AbstractRNS rns;\n\n    event NameChanged(bytes32 indexed node, string name);\n\n    mapping(bytes32=>string) names;\n\n    modifier onlyOwner (bytes32 node) {\n        require(msg.sender == rns.owner(node), \"Only owner\");\n        _;\n    }\n\n    constructor (AbstractRNS _rns) public {\n        rns = _rns;\n    }\n\n    /// @notice Sets the name associated with an RNS node, for reverse records.\n    /// @dev May only be called by the owner of that node in the RNS registry.\n    /// @param node The node to update.\n    /// @param newName The name to set.\n    function setName(bytes32 node, string calldata newName) external onlyOwner(node) {\n        names[node] = newName;\n        emit NameChanged(node, newName);\n    }\n\n    /// @notice Returns the name associated with an RNS node, for reverse records.\n    /// @dev Defined in EIP181.\n    /// @param node The node to query.\n    /// @return The associated name.\n    function name(bytes32 node) external view returns (string memory) {\n        return names[node];\n    }\n\n    function supportsInterface(bytes4 interfaceID) public pure returns(bool) {\n        return interfaceID == NAME_INTERFACE_ID || super.supportsInterface(interfaceID);\n    }\n}\n",
  "sourcePath": "@rsksmart/rns-reverse/contracts/NameResolver.sol",
  "compiler": {
    "name": "solc",
    "version": "0.5.16+commit.9c3226ce.Emscripten.clang"
  },
  "schemaVersion": "3.0.23",
  "updatedAt": "2022-12-06T16:34:39.143Z",
  "devdoc": {
    "methods": {
      "name(bytes32)": {
        "details": "Defined in EIP181.",
        "params": {
          "node": "The node to query."
        },
        "return": "The associated name."
      },
      "setName(bytes32,string)": {
        "details": "May only be called by the owner of that node in the RNS registry.",
        "params": {
          "newName": "The name to set.",
          "node": "The node to update."
        }
      }
    }
  },
  "userdoc": {
    "methods": {
      "name(bytes32)": {
        "notice": "Returns the name associated with an RNS node, for reverse records."
      },
      "setName(bytes32,string)": {
        "notice": "Sets the name associated with an RNS node, for reverse records."
      }
    },
    "notice": "source: https://github.com/ensdomains/resolvers/blob/master/contracts/profiles/NameResolver.sol"
  }
}