{
  "contractName": "NodeOwner",
  "abi": [
    {
      "inputs": [
        {
          "internalType": "contract AbstractRNS",
          "name": "_rns",
          "type": "address"
        },
        {
          "internalType": "bytes32",
          "name": "_rootNode",
          "type": "bytes32"
        }
      ],
      "payable": false,
      "stateMutability": "nonpayable",
      "type": "constructor"
    },
    {
      "anonymous": false,
      "inputs": [
        {
          "indexed": true,
          "internalType": "address",
          "name": "owner",
          "type": "address"
        },
        {
          "indexed": true,
          "internalType": "address",
          "name": "approved",
          "type": "address"
        },
        {
          "indexed": true,
          "internalType": "uint256",
          "name": "tokenId",
          "type": "uint256"
        }
      ],
      "name": "Approval",
      "type": "event"
    },
    {
      "anonymous": false,
      "inputs": [
        {
          "indexed": true,
          "internalType": "address",
          "name": "owner",
          "type": "address"
        },
        {
          "indexed": true,
          "internalType": "address",
          "name": "operator",
          "type": "address"
        },
        {
          "indexed": false,
          "internalType": "bool",
          "name": "approved",
          "type": "bool"
        }
      ],
      "name": "ApprovalForAll",
      "type": "event"
    },
    {
      "anonymous": false,
      "inputs": [
        {
          "indexed": false,
          "internalType": "uint256",
          "name": "tokenId",
          "type": "uint256"
        },
        {
          "indexed": false,
          "internalType": "uint256",
          "name": "expirationTime",
          "type": "uint256"
        }
      ],
      "name": "ExpirationChanged",
      "type": "event"
    },
    {
      "anonymous": false,
      "inputs": [
        {
          "indexed": true,
          "internalType": "address",
          "name": "previousOwner",
          "type": "address"
        },
        {
          "indexed": true,
          "internalType": "address",
          "name": "newOwner",
          "type": "address"
        }
      ],
      "name": "OwnershipTransferred",
      "type": "event"
    },
    {
      "anonymous": false,
      "inputs": [
        {
          "indexed": true,
          "internalType": "address",
          "name": "from",
          "type": "address"
        },
        {
          "indexed": true,
          "internalType": "address",
          "name": "to",
          "type": "address"
        },
        {
          "indexed": true,
          "internalType": "uint256",
          "name": "tokenId",
          "type": "uint256"
        }
      ],
      "name": "Transfer",
      "type": "event"
    },
    {
      "constant": false,
      "inputs": [
        {
          "internalType": "address",
          "name": "to",
          "type": "address"
        },
        {
          "internalType": "uint256",
          "name": "tokenId",
          "type": "uint256"
        }
      ],
      "name": "approve",
      "outputs": [],
      "payable": false,
      "stateMutability": "nonpayable",
      "type": "function"
    },
    {
      "constant": true,
      "inputs": [
        {
          "internalType": "address",
          "name": "owner",
          "type": "address"
        }
      ],
      "name": "balanceOf",
      "outputs": [
        {
          "internalType": "uint256",
          "name": "",
          "type": "uint256"
        }
      ],
      "payable": false,
      "stateMutability": "view",
      "type": "function"
    },
    {
      "constant": true,
      "inputs": [
        {
          "internalType": "uint256",
          "name": "",
          "type": "uint256"
        }
      ],
      "name": "expirationTime",
      "outputs": [
        {
          "internalType": "uint256",
          "name": "",
          "type": "uint256"
        }
      ],
      "payable": false,
      "stateMutability": "view",
      "type": "function"
    },
    {
      "constant": true,
      "inputs": [
        {
          "internalType": "uint256",
          "name": "tokenId",
          "type": "uint256"
        }
      ],
      "name": "getApproved",
      "outputs": [
        {
          "internalType": "address",
          "name": "",
          "type": "address"
        }
      ],
      "payable": false,
      "stateMutability": "view",
      "type": "function"
    },
    {
      "constant": true,
      "inputs": [
        {
          "internalType": "address",
          "name": "owner",
          "type": "address"
        },
        {
          "internalType": "address",
          "name": "operator",
          "type": "address"
        }
      ],
      "name": "isApprovedForAll",
      "outputs": [
        {
          "internalType": "bool",
          "name": "",
          "type": "bool"
        }
      ],
      "payable": false,
      "stateMutability": "view",
      "type": "function"
    },
    {
      "constant": true,
      "inputs": [],
      "name": "isOwner",
      "outputs": [
        {
          "internalType": "bool",
          "name": "",
          "type": "bool"
        }
      ],
      "payable": false,
      "stateMutability": "view",
      "type": "function"
    },
    {
      "constant": true,
      "inputs": [],
      "name": "owner",
      "outputs": [
        {
          "internalType": "address",
          "name": "",
          "type": "address"
        }
      ],
      "payable": false,
      "stateMutability": "view",
      "type": "function"
    },
    {
      "constant": false,
      "inputs": [],
      "name": "renounceOwnership",
      "outputs": [],
      "payable": false,
      "stateMutability": "nonpayable",
      "type": "function"
    },
    {
      "constant": false,
      "inputs": [
        {
          "internalType": "address",
          "name": "from",
          "type": "address"
        },
        {
          "internalType": "address",
          "name": "to",
          "type": "address"
        },
        {
          "internalType": "uint256",
          "name": "tokenId",
          "type": "uint256"
        }
      ],
      "name": "safeTransferFrom",
      "outputs": [],
      "payable": false,
      "stateMutability": "nonpayable",
      "type": "function"
    },
    {
      "constant": false,
      "inputs": [
        {
          "internalType": "address",
          "name": "from",
          "type": "address"
        },
        {
          "internalType": "address",
          "name": "to",
          "type": "address"
        },
        {
          "internalType": "uint256",
          "name": "tokenId",
          "type": "uint256"
        },
        {
          "internalType": "bytes",
          "name": "_data",
          "type": "bytes"
        }
      ],
      "name": "safeTransferFrom",
      "outputs": [],
      "payable": false,
      "stateMutability": "nonpayable",
      "type": "function"
    },
    {
      "constant": false,
      "inputs": [
        {
          "internalType": "address",
          "name": "to",
          "type": "address"
        },
        {
          "internalType": "bool",
          "name": "approved",
          "type": "bool"
        }
      ],
      "name": "setApprovalForAll",
      "outputs": [],
      "payable": false,
      "stateMutability": "nonpayable",
      "type": "function"
    },
    {
      "constant": true,
      "inputs": [
        {
          "internalType": "bytes4",
          "name": "interfaceId",
          "type": "bytes4"
        }
      ],
      "name": "supportsInterface",
      "outputs": [
        {
          "internalType": "bool",
          "name": "",
          "type": "bool"
        }
      ],
      "payable": false,
      "stateMutability": "view",
      "type": "function"
    },
    {
      "constant": false,
      "inputs": [
        {
          "internalType": "address",
          "name": "from",
          "type": "address"
        },
        {
          "internalType": "address",
          "name": "to",
          "type": "address"
        },
        {
          "internalType": "uint256",
          "name": "tokenId",
          "type": "uint256"
        }
      ],
      "name": "transferFrom",
      "outputs": [],
      "payable": false,
      "stateMutability": "nonpayable",
      "type": "function"
    },
    {
      "constant": false,
      "inputs": [
        {
          "internalType": "address",
          "name": "newOwner",
          "type": "address"
        }
      ],
      "name": "transferOwnership",
      "outputs": [],
      "payable": false,
      "stateMutability": "nonpayable",
      "type": "function"
    },
    {
      "constant": true,
      "inputs": [
        {
          "internalType": "uint256",
          "name": "tokenId",
          "type": "uint256"
        }
      ],
      "name": "ownerOf",
      "outputs": [
        {
          "internalType": "address",
          "name": "",
          "type": "address"
        }
      ],
      "payable": false,
      "stateMutability": "view",
      "type": "function"
    },
    {
      "constant": true,
      "inputs": [
        {
          "internalType": "uint256",
          "name": "tokenId",
          "type": "uint256"
        }
      ],
      "name": "available",
      "outputs": [
        {
          "internalType": "bool",
          "name": "",
          "type": "bool"
        }
      ],
      "payable": false,
      "stateMutability": "view",
      "type": "function"
    },
    {
      "constant": false,
      "inputs": [
        {
          "internalType": "address",
          "name": "resolver",
          "type": "address"
        }
      ],
      "name": "setRootResolver",
      "outputs": [],
      "payable": false,
      "stateMutability": "nonpayable",
      "type": "function"
    },
    {
      "constant": false,
      "inputs": [
        {
          "internalType": "uint64",
          "name": "ttl",
          "type": "uint64"
        }
      ],
      "name": "setRootTTL",
      "outputs": [],
      "payable": false,
      "stateMutability": "nonpayable",
      "type": "function"
    },
    {
      "constant": false,
      "inputs": [
        {
          "internalType": "address",
          "name": "registrar",
          "type": "address"
        }
      ],
      "name": "addRegistrar",
      "outputs": [],
      "payable": false,
      "stateMutability": "nonpayable",
      "type": "function"
    },
    {
      "constant": true,
      "inputs": [
        {
          "internalType": "address",
          "name": "registrar",
          "type": "address"
        }
      ],
      "name": "isRegistrar",
      "outputs": [
        {
          "internalType": "bool",
          "name": "",
          "type": "bool"
        }
      ],
      "payable": false,
      "stateMutability": "view",
      "type": "function"
    },
    {
      "constant": false,
      "inputs": [
        {
          "internalType": "address",
          "name": "registrar",
          "type": "address"
        }
      ],
      "name": "removeRegistrar",
      "outputs": [],
      "payable": false,
      "stateMutability": "nonpayable",
      "type": "function"
    },
    {
      "constant": false,
      "inputs": [
        {
          "internalType": "bytes32",
          "name": "label",
          "type": "bytes32"
        },
        {
          "internalType": "address",
          "name": "tokenOwner",
          "type": "address"
        },
        {
          "internalType": "uint256",
          "name": "duration",
          "type": "uint256"
        }
      ],
      "name": "register",
      "outputs": [],
      "payable": false,
      "stateMutability": "nonpayable",
      "type": "function"
    },
    {
      "constant": false,
      "inputs": [
        {
          "internalType": "uint256",
          "name": "tokenId",
          "type": "uint256"
        },
        {
          "internalType": "address",
          "name": "newOwner",
          "type": "address"
        }
      ],
      "name": "reclaim",
      "outputs": [],
      "payable": false,
      "stateMutability": "nonpayable",
      "type": "function"
    },
    {
      "constant": false,
      "inputs": [
        {
          "internalType": "address",
          "name": "renewer",
          "type": "address"
        }
      ],
      "name": "addRenewer",
      "outputs": [],
      "payable": false,
      "stateMutability": "nonpayable",
      "type": "function"
    },
    {
      "constant": true,
      "inputs": [
        {
          "internalType": "address",
          "name": "renewer",
          "type": "address"
        }
      ],
      "name": "isRenewer",
      "outputs": [
        {
          "internalType": "bool",
          "name": "",
          "type": "bool"
        }
      ],
      "payable": false,
      "stateMutability": "view",
      "type": "function"
    },
    {
      "constant": false,
      "inputs": [
        {
          "internalType": "address",
          "name": "renewer",
          "type": "address"
        }
      ],
      "name": "removeRenewer",
      "outputs": [],
      "payable": false,
      "stateMutability": "nonpayable",
      "type": "function"
    },
    {
      "constant": false,
      "inputs": [
        {
          "internalType": "bytes32",
          "name": "label",
          "type": "bytes32"
        },
        {
          "internalType": "uint256",
          "name": "time",
          "type": "uint256"
        }
      ],
      "name": "renew",
      "outputs": [],
      "payable": false,
      "stateMutability": "nonpayable",
      "type": "function"
    },
    {
      "constant": false,
      "inputs": [
        {
          "internalType": "uint256[]",
          "name": "tokenIds",
          "type": "uint256[]"
        }
      ],
      "name": "removeExpired",
      "outputs": [],
      "payable": false,
      "stateMutability": "nonpayable",
      "type": "function"
    }
  ],
  "bytecode": "0x60806040523480156200001157600080fd5b506040516200377b3803806200377b833981810160405260408110156200003757600080fd5b8101908080519060200190929190805190602001909291905050506200006a6301ffc9a760e01b6200019f60201b60201c565b620000826380ac58cd60e01b6200019f60201b60201c565b62000092620002a860201b60201c565b600560006101000a81548173ffffffffffffffffffffffffffffffffffffffff021916908373ffffffffffffffffffffffffffffffffffffffff160217905550600560009054906101000a900473ffffffffffffffffffffffffffffffffffffffff1673ffffffffffffffffffffffffffffffffffffffff16600073ffffffffffffffffffffffffffffffffffffffff167f8be0079c531659141344cd1fd0a4f28419497f9722a3daafe3b4186f6b6457e060405160405180910390a381600660006101000a81548173ffffffffffffffffffffffffffffffffffffffff021916908373ffffffffffffffffffffffffffffffffffffffff160217905550806007819055505050620002b0565b63ffffffff60e01b817bffffffffffffffffffffffffffffffffffffffffffffffffffffffff191614156200023c576040517f08c379a000000000000000000000000000000000000000000000000000000000815260040180806020018281038252601c8152602001807f4552433136353a20696e76616c696420696e746572666163652069640000000081525060200191505060405180910390fd5b6001600080837bffffffffffffffffffffffffffffffffffffffffffffffffffffffff19167bffffffffffffffffffffffffffffffffffffffffffffffffffffffff1916815260200190815260200160002060006101000a81548160ff02191690831515021790555050565b600033905090565b6134bb80620002c06000396000f3fe608060405234801561001057600080fd5b50600436106101c45760003560e01c806396e494e8116100f9578063d5db72eb11610097578063e985e9c511610071578063e985e9c5146109c9578063f2fde38b14610a45578063f544d82f14610a89578063f9091b8314610ac1576101c4565b8063d5db72eb146108f1578063d6245aee1461094d578063d752c85a14610985576101c4565b8063af92a693116100d3578063af92a69314610720578063b35aa7a114610764578063b88d4fde146107a8578063ba904eed146108ad576101c4565b806396e494e814610632578063a22cb46514610678578063a5b0d68c146106c8576101c4565b80636352211e116101665780637409e4a2116101405780637409e4a2146105405780638da5cb5b146105825780638ecc81de146105cc5780638f32d59b14610610576101c4565b80636352211e1461047057806370a08231146104de578063715018a614610536576101c4565b8063095ea7b3116101a2578063095ea7b3146102f857806323b872dd1461034657806328ed4f6c146103b457806342842e0e14610402576101c4565b806301ffc9a7146101c957806307afca3e1461022e578063081812fc1461028a575b600080fd5b610214600480360360208110156101df57600080fd5b8101908080357bffffffffffffffffffffffffffffffffffffffffffffffffffffffff19169060200190929190505050610b3a565b604051808215151515815260200191505060405180910390f35b6102706004803603602081101561024457600080fd5b81019080803573ffffffffffffffffffffffffffffffffffffffff169060200190929190505050610ba1565b604051808215151515815260200191505060405180910390f35b6102b6600480360360208110156102a057600080fd5b8101908080359060200190929190505050610bbe565b604051808273ffffffffffffffffffffffffffffffffffffffff1673ffffffffffffffffffffffffffffffffffffffff16815260200191505060405180910390f35b6103446004803603604081101561030e57600080fd5b81019080803573ffffffffffffffffffffffffffffffffffffffff16906020019092919080359060200190929190505050610c59565b005b6103b26004803603606081101561035c57600080fd5b81019080803573ffffffffffffffffffffffffffffffffffffffff169060200190929190803573ffffffffffffffffffffffffffffffffffffffff16906020019092919080359060200190929190505050610e40565b005b610400600480360360408110156103ca57600080fd5b8101908080359060200190929190803573ffffffffffffffffffffffffffffffffffffffff169060200190929190505050610eb6565b005b61046e6004803603606081101561041857600080fd5b81019080803573ffffffffffffffffffffffffffffffffffffffff169060200190929190803573ffffffffffffffffffffffffffffffffffffffff16906020019092919080359060200190929190505050611004565b005b61049c6004803603602081101561048657600080fd5b8101908080359060200190929190505050611024565b604051808273ffffffffffffffffffffffffffffffffffffffff1673ffffffffffffffffffffffffffffffffffffffff16815260200191505060405180910390f35b610520600480360360208110156104f457600080fd5b81019080803573ffffffffffffffffffffffffffffffffffffffff1690602001909291905050506110a1565b6040518082815260200191505060405180910390f35b61053e611176565b005b61056c6004803603602081101561055657600080fd5b81019080803590602001909291905050506112b1565b6040518082815260200191505060405180910390f35b61058a6112c9565b604051808273ffffffffffffffffffffffffffffffffffffffff1673ffffffffffffffffffffffffffffffffffffffff16815260200191505060405180910390f35b61060e600480360360208110156105e257600080fd5b81019080803573ffffffffffffffffffffffffffffffffffffffff1690602001909291905050506112f3565b005b610618611384565b604051808215151515815260200191505060405180910390f35b61065e6004803603602081101561064857600080fd5b81019080803590602001909291905050506113e3565b604051808215151515815260200191505060405180910390f35b6106c66004803603604081101561068e57600080fd5b81019080803573ffffffffffffffffffffffffffffffffffffffff169060200190929190803515159060200190929190505050611402565b005b61071e600480360360608110156106de57600080fd5b8101908080359060200190929190803573ffffffffffffffffffffffffffffffffffffffff169060200190929190803590602001909291905050506115ba565b005b6107626004803603602081101561073657600080fd5b81019080803573ffffffffffffffffffffffffffffffffffffffff169060200190929190505050611825565b005b6107a66004803603602081101561077a57600080fd5b81019080803573ffffffffffffffffffffffffffffffffffffffff1690602001909291905050506118b6565b005b6108ab600480360360808110156107be57600080fd5b81019080803573ffffffffffffffffffffffffffffffffffffffff169060200190929190803573ffffffffffffffffffffffffffffffffffffffff169060200190929190803590602001909291908035906020019064010000000081111561082557600080fd5b82018360208201111561083757600080fd5b8035906020019184600183028401116401000000008311171561085957600080fd5b91908080601f016020809104026020016040519081016040528093929190818152602001838380828437600081840152601f19601f8201169050808301925050505050505091929192905050506119f6565b005b6108ef600480360360208110156108c357600080fd5b81019080803573ffffffffffffffffffffffffffffffffffffffff169060200190929190505050611a6e565b005b6109336004803603602081101561090757600080fd5b81019080803573ffffffffffffffffffffffffffffffffffffffff169060200190929190505050611aff565b604051808215151515815260200191505060405180910390f35b6109836004803603602081101561096357600080fd5b81019080803567ffffffffffffffff169060200190929190505050611b1c565b005b6109c76004803603602081101561099b57600080fd5b81019080803573ffffffffffffffffffffffffffffffffffffffff169060200190929190505050611c44565b005b610a2b600480360360408110156109df57600080fd5b81019080803573ffffffffffffffffffffffffffffffffffffffff169060200190929190803573ffffffffffffffffffffffffffffffffffffffff169060200190929190505050611cd5565b604051808215151515815260200191505060405180910390f35b610a8760048036036020811015610a5b57600080fd5b81019080803573ffffffffffffffffffffffffffffffffffffffff169060200190929190505050611d69565b005b610abf60048036036040811015610a9f57600080fd5b810190808035906020019092919080359060200190929190505050611def565b005b610b3860048036036020811015610ad757600080fd5b8101908080359060200190640100000000811115610af457600080fd5b820183602082011115610b0657600080fd5b80359060200191846020830284011164010000000083111715610b2857600080fd5b9091929391929390505050611f8c565b005b6000806000837bffffffffffffffffffffffffffffffffffffffffffffffffffffffff19167bffffffffffffffffffffffffffffffffffffffffffffffffffffffff1916815260200190815260200160002060009054906101000a900460ff169050919050565b6000610bb782600a6120f790919063ffffffff16565b9050919050565b6000610bc9826121d5565b610c1e576040517f08c379a000000000000000000000000000000000000000000000000000000000815260040180806020018281038252602c815260200180613399602c913960400191505060405180910390fd5b6002600083815260200190815260200160002060009054906101000a900473ffffffffffffffffffffffffffffffffffffffff169050919050565b6000610c6482611024565b90508073ffffffffffffffffffffffffffffffffffffffff168373ffffffffffffffffffffffffffffffffffffffff161415610ceb576040517f08c379a00000000000000000000000000000000000000000000000000000000081526004018080602001828103825260218152602001806134106021913960400191505060405180910390fd5b8073ffffffffffffffffffffffffffffffffffffffff16610d0a612247565b73ffffffffffffffffffffffffffffffffffffffff161480610d395750610d3881610d33612247565b611cd5565b5b610d8e576040517f08c379a00000000000000000000000000000000000000000000000000000000081526004018080602001828103825260388152602001806132ed6038913960400191505060405180910390fd5b826002600084815260200190815260200160002060006101000a81548173ffffffffffffffffffffffffffffffffffffffff021916908373ffffffffffffffffffffffffffffffffffffffff160217905550818373ffffffffffffffffffffffffffffffffffffffff168273ffffffffffffffffffffffffffffffffffffffff167f8c5be1e5ebec7d5bd14f71427d1e84f3dd0314c0f7b2291e5b200ac8c7c3b92560405160405180910390a4505050565b610e51610e4b612247565b8261224f565b610ea6576040517f08c379a00000000000000000000000000000000000000000000000000000000081526004018080602001828103825260318152602001806134316031913960400191505060405180910390fd5b610eb1838383612343565b505050565b610ec0338361224f565b610f32576040517f08c379a00000000000000000000000000000000000000000000000000000000081526004018080602001828103825260158152602001807f4e6f7420617070726f766564206f72206f776e6572000000000000000000000081525060200191505060405180910390fd5b600660009054906101000a900473ffffffffffffffffffffffffffffffffffffffff1673ffffffffffffffffffffffffffffffffffffffff166306ab59236007548460001b846040518463ffffffff1660e01b8152600401808481526020018381526020018273ffffffffffffffffffffffffffffffffffffffff1673ffffffffffffffffffffffffffffffffffffffff1681526020019350505050600060405180830381600087803b158015610fe857600080fd5b505af1158015610ffc573d6000803e3d6000fd5b505050505050565b61101f838383604051806020016040528060008152506119f6565b505050565b600042600860008481526020019081526020016000205411611091576040517f08c379a000000000000000000000000000000000000000000000000000000000815260040180806020018281038252602981526020018061334f6029913960400191505060405180910390fd5b61109a8261259e565b9050919050565b60008073ffffffffffffffffffffffffffffffffffffffff168273ffffffffffffffffffffffffffffffffffffffff161415611128576040517f08c379a000000000000000000000000000000000000000000000000000000000815260040180806020018281038252602a815260200180613325602a913960400191505060405180910390fd5b61116f600360008473ffffffffffffffffffffffffffffffffffffffff1673ffffffffffffffffffffffffffffffffffffffff168152602001908152602001600020612666565b9050919050565b61117e611384565b6111f0576040517f08c379a00000000000000000000000000000000000000000000000000000000081526004018080602001828103825260208152602001807f4f776e61626c653a2063616c6c6572206973206e6f7420746865206f776e657281525060200191505060405180910390fd5b600073ffffffffffffffffffffffffffffffffffffffff16600560009054906101000a900473ffffffffffffffffffffffffffffffffffffffff1673ffffffffffffffffffffffffffffffffffffffff167f8be0079c531659141344cd1fd0a4f28419497f9722a3daafe3b4186f6b6457e060405160405180910390a36000600560006101000a81548173ffffffffffffffffffffffffffffffffffffffff021916908373ffffffffffffffffffffffffffffffffffffffff160217905550565b60086020528060005260406000206000915090505481565b6000600560009054906101000a900473ffffffffffffffffffffffffffffffffffffffff16905090565b6112fb611384565b61136d576040517f08c379a00000000000000000000000000000000000000000000000000000000081526004018080602001828103825260208152602001807f4f776e61626c653a2063616c6c6572206973206e6f7420746865206f776e657281525060200191505060405180910390fd5b61138181600a61267490919063ffffffff16565b50565b6000600560009054906101000a900473ffffffffffffffffffffffffffffffffffffffff1673ffffffffffffffffffffffffffffffffffffffff166113c7612247565b73ffffffffffffffffffffffffffffffffffffffff1614905090565b6000426008600084815260200190815260200160002054109050919050565b61140a612247565b73ffffffffffffffffffffffffffffffffffffffff168273ffffffffffffffffffffffffffffffffffffffff1614156114ab576040517f08c379a00000000000000000000000000000000000000000000000000000000081526004018080602001828103825260198152602001807f4552433732313a20617070726f766520746f2063616c6c65720000000000000081525060200191505060405180910390fd5b80600460006114b8612247565b73ffffffffffffffffffffffffffffffffffffffff1673ffffffffffffffffffffffffffffffffffffffff16815260200190815260200160002060008473ffffffffffffffffffffffffffffffffffffffff1673ffffffffffffffffffffffffffffffffffffffff16815260200190815260200160002060006101000a81548160ff0219169083151502179055508173ffffffffffffffffffffffffffffffffffffffff16611565612247565b73ffffffffffffffffffffffffffffffffffffffff167f17307eab39ab6107e8899845ad3d59bd9653f200f220920489ca2b5937696c3183604051808215151515815260200191505060405180910390a35050565b6115ce3360096120f790919063ffffffff16565b611640576040517f08c379a000000000000000000000000000000000000000000000000000000000815260040180806020018281038252600f8152602001807f4f6e6c79207265676973747261722e000000000000000000000000000000000081525060200191505060405180910390fd5b60008360001c9050611651816113e3565b6116c3576040517f08c379a000000000000000000000000000000000000000000000000000000000815260040180806020018281038252600d8152602001807f4e6f7420617661696c61626c650000000000000000000000000000000000000081525060200191505060405180910390fd5b60006116d8834261274f90919063ffffffff16565b90508060086000848152602001908152602001600020819055507f9aa6fad74a092697838e399f30ea908478bb2747b84bedf64798609770f445878282604051808381526020018281526020019250505060405180910390a161173a826121d5565b1561174957611748826127d7565b5b61175384836127ec565b600660009054906101000a900473ffffffffffffffffffffffffffffffffffffffff1673ffffffffffffffffffffffffffffffffffffffff166306ab592360075487876040518463ffffffff1660e01b8152600401808481526020018381526020018273ffffffffffffffffffffffffffffffffffffffff1673ffffffffffffffffffffffffffffffffffffffff1681526020019350505050600060405180830381600087803b15801561180657600080fd5b505af115801561181a573d6000803e3d6000fd5b505050505050505050565b61182d611384565b61189f576040517f08c379a00000000000000000000000000000000000000000000000000000000081526004018080602001828103825260208152602001807f4f776e61626c653a2063616c6c6572206973206e6f7420746865206f776e657281525060200191505060405180910390fd5b6118b381600961267490919063ffffffff16565b50565b6118be611384565b611930576040517f08c379a00000000000000000000000000000000000000000000000000000000081526004018080602001828103825260208152602001807f4f776e61626c653a2063616c6c6572206973206e6f7420746865206f776e657281525060200191505060405180910390fd5b600660009054906101000a900473ffffffffffffffffffffffffffffffffffffffff1673ffffffffffffffffffffffffffffffffffffffff16631896f70a600754836040518363ffffffff1660e01b8152600401808381526020018273ffffffffffffffffffffffffffffffffffffffff1673ffffffffffffffffffffffffffffffffffffffff16815260200192505050600060405180830381600087803b1580156119db57600080fd5b505af11580156119ef573d6000803e3d6000fd5b5050505050565b611a07611a01612247565b8361224f565b611a5c576040517f08c379a00000000000000000000000000000000000000000000000000000000081526004018080602001828103825260318152602001806134316031913960400191505060405180910390fd5b611a6884848484612a04565b50505050565b611a76611384565b611ae8576040517f08c379a00000000000000000000000000000000000000000000000000000000081526004018080602001828103825260208152602001807f4f776e61626c653a2063616c6c6572206973206e6f7420746865206f776e657281525060200191505060405180910390fd5b611afc816009612a7690919063ffffffff16565b50565b6000611b158260096120f790919063ffffffff16565b9050919050565b611b24611384565b611b96576040517f08c379a00000000000000000000000000000000000000000000000000000000081526004018080602001828103825260208152602001807f4f776e61626c653a2063616c6c6572206973206e6f7420746865206f776e657281525060200191505060405180910390fd5b600660009054906101000a900473ffffffffffffffffffffffffffffffffffffffff1673ffffffffffffffffffffffffffffffffffffffff166314ab9038600754836040518363ffffffff1660e01b8152600401808381526020018267ffffffffffffffff1667ffffffffffffffff16815260200192505050600060405180830381600087803b158015611c2957600080fd5b505af1158015611c3d573d6000803e3d6000fd5b5050505050565b611c4c611384565b611cbe576040517f08c379a00000000000000000000000000000000000000000000000000000000081526004018080602001828103825260208152602001807f4f776e61626c653a2063616c6c6572206973206e6f7420746865206f776e657281525060200191505060405180910390fd5b611cd281600a612a7690919063ffffffff16565b50565b6000600460008473ffffffffffffffffffffffffffffffffffffffff1673ffffffffffffffffffffffffffffffffffffffff16815260200190815260200160002060008373ffffffffffffffffffffffffffffffffffffffff1673ffffffffffffffffffffffffffffffffffffffff16815260200190815260200160002060009054906101000a900460ff16905092915050565b611d71611384565b611de3576040517f08c379a00000000000000000000000000000000000000000000000000000000081526004018080602001828103825260208152602001807f4f776e61626c653a2063616c6c6572206973206e6f7420746865206f776e657281525060200191505060405180910390fd5b611dec81612b33565b50565b611e0333600a6120f790919063ffffffff16565b611e75576040517f08c379a000000000000000000000000000000000000000000000000000000000815260040180806020018281038252600d8152602001807f4f6e6c792072656e657765722e0000000000000000000000000000000000000081525060200191505060405180910390fd5b60008260001c905042600860008381526020019081526020016000205411611f05576040517f08c379a00000000000000000000000000000000000000000000000000000000081526004018080602001828103825260148152602001807f4e616d6520616c7265616479206578706972656400000000000000000000000081525060200191505060405180910390fd5b6000611f2d83600860008581526020019081526020016000205461274f90919063ffffffff16565b90508060086000848152602001908152602001600020819055507f9aa6fad74a092697838e399f30ea908478bb2747b84bedf64798609770f445878282604051808381526020018281526020019250505060405180910390a150505050565b60008060008090505b848490508110156120f057848482818110611fac57fe5b905060200201359250611fbe836121d5565b8015611fcf5750611fce836113e3565b5b156120e3576000196008600085815260200190815260200160002081905550611ff7836127d7565b600060086000858152602001908152602001600020819055508260001b9150600660009054906101000a900473ffffffffffffffffffffffffffffffffffffffff1673ffffffffffffffffffffffffffffffffffffffff166306ab59236007548460006040518463ffffffff1660e01b8152600401808481526020018381526020018273ffffffffffffffffffffffffffffffffffffffff1673ffffffffffffffffffffffffffffffffffffffff1681526020019350505050600060405180830381600087803b1580156120ca57600080fd5b505af11580156120de573d6000803e3d6000fd5b505050505b8080600101915050611f95565b5050505050565b60008073ffffffffffffffffffffffffffffffffffffffff168273ffffffffffffffffffffffffffffffffffffffff16141561217e576040517f08c379a00000000000000000000000000000000000000000000000000000000081526004018080602001828103825260228152602001806133c56022913960400191505060405180910390fd5b8260000160008373ffffffffffffffffffffffffffffffffffffffff1673ffffffffffffffffffffffffffffffffffffffff16815260200190815260200160002060009054906101000a900460ff16905092915050565b6000806001600084815260200190815260200160002060009054906101000a900473ffffffffffffffffffffffffffffffffffffffff169050600073ffffffffffffffffffffffffffffffffffffffff168173ffffffffffffffffffffffffffffffffffffffff161415915050919050565b600033905090565b600061225a826121d5565b6122af576040517f08c379a000000000000000000000000000000000000000000000000000000000815260040180806020018281038252602c8152602001806132c1602c913960400191505060405180910390fd5b60006122ba83611024565b90508073ffffffffffffffffffffffffffffffffffffffff168473ffffffffffffffffffffffffffffffffffffffff16148061232957508373ffffffffffffffffffffffffffffffffffffffff1661231184610bbe565b73ffffffffffffffffffffffffffffffffffffffff16145b8061233a57506123398185611cd5565b5b91505092915050565b8273ffffffffffffffffffffffffffffffffffffffff1661236382611024565b73ffffffffffffffffffffffffffffffffffffffff16146123cf576040517f08c379a00000000000000000000000000000000000000000000000000000000081526004018080602001828103825260298152602001806133e76029913960400191505060405180910390fd5b600073ffffffffffffffffffffffffffffffffffffffff168273ffffffffffffffffffffffffffffffffffffffff161415612455576040517f08c379a000000000000000000000000000000000000000000000000000000000815260040180806020018281038252602481526020018061329d6024913960400191505060405180910390fd5b61245e81612c79565b6124a5600360008573ffffffffffffffffffffffffffffffffffffffff1673ffffffffffffffffffffffffffffffffffffffff168152602001908152602001600020612d37565b6124ec600360008473ffffffffffffffffffffffffffffffffffffffff1673ffffffffffffffffffffffffffffffffffffffff168152602001908152602001600020612d5a565b816001600083815260200190815260200160002060006101000a81548173ffffffffffffffffffffffffffffffffffffffff021916908373ffffffffffffffffffffffffffffffffffffffff160217905550808273ffffffffffffffffffffffffffffffffffffffff168473ffffffffffffffffffffffffffffffffffffffff167fddf252ad1be2c89b69c2b068fc378daa952ba7f163c4a11628f55a4df523b3ef60405160405180910390a4505050565b6000806001600084815260200190815260200160002060009054906101000a900473ffffffffffffffffffffffffffffffffffffffff169050600073ffffffffffffffffffffffffffffffffffffffff168173ffffffffffffffffffffffffffffffffffffffff16141561265d576040517f08c379a000000000000000000000000000000000000000000000000000000000815260040180806020018281038252602981526020018061334f6029913960400191505060405180910390fd5b80915050919050565b600081600001549050919050565b61267e82826120f7565b156126f1576040517f08c379a000000000000000000000000000000000000000000000000000000000815260040180806020018281038252601f8152602001807f526f6c65733a206163636f756e7420616c72656164792068617320726f6c650081525060200191505060405180910390fd5b60018260000160008373ffffffffffffffffffffffffffffffffffffffff1673ffffffffffffffffffffffffffffffffffffffff16815260200190815260200160002060006101000a81548160ff0219169083151502179055505050565b6000808284019050838110156127cd576040517f08c379a000000000000000000000000000000000000000000000000000000000815260040180806020018281038252601b8152602001807f536166654d6174683a206164646974696f6e206f766572666c6f77000000000081525060200191505060405180910390fd5b8091505092915050565b6127e96127e382611024565b82612d70565b50565b600073ffffffffffffffffffffffffffffffffffffffff168273ffffffffffffffffffffffffffffffffffffffff16141561288f576040517f08c379a00000000000000000000000000000000000000000000000000000000081526004018080602001828103825260208152602001807f4552433732313a206d696e7420746f20746865207a65726f206164647265737381525060200191505060405180910390fd5b612898816121d5565b1561290b576040517f08c379a000000000000000000000000000000000000000000000000000000000815260040180806020018281038252601c8152602001807f4552433732313a20746f6b656e20616c7265616479206d696e7465640000000081525060200191505060405180910390fd5b816001600083815260200190815260200160002060006101000a81548173ffffffffffffffffffffffffffffffffffffffff021916908373ffffffffffffffffffffffffffffffffffffffff1602179055506129a4600360008473ffffffffffffffffffffffffffffffffffffffff1673ffffffffffffffffffffffffffffffffffffffff168152602001908152602001600020612d5a565b808273ffffffffffffffffffffffffffffffffffffffff16600073ffffffffffffffffffffffffffffffffffffffff167fddf252ad1be2c89b69c2b068fc378daa952ba7f163c4a11628f55a4df523b3ef60405160405180910390a45050565b612a0f848484612343565b612a1b84848484612eff565b612a70576040517f08c379a00000000000000000000000000000000000000000000000000000000081526004018080602001828103825260328152602001806132456032913960400191505060405180910390fd5b50505050565b612a8082826120f7565b612ad5576040517f08c379a00000000000000000000000000000000000000000000000000000000081526004018080602001828103825260218152602001806133786021913960400191505060405180910390fd5b60008260000160008373ffffffffffffffffffffffffffffffffffffffff1673ffffffffffffffffffffffffffffffffffffffff16815260200190815260200160002060006101000a81548160ff0219169083151502179055505050565b600073ffffffffffffffffffffffffffffffffffffffff168173ffffffffffffffffffffffffffffffffffffffff161415612bb9576040517f08c379a00000000000000000000000000000000000000000000000000000000081526004018080602001828103825260268152602001806132776026913960400191505060405180910390fd5b8073ffffffffffffffffffffffffffffffffffffffff16600560009054906101000a900473ffffffffffffffffffffffffffffffffffffffff1673ffffffffffffffffffffffffffffffffffffffff167f8be0079c531659141344cd1fd0a4f28419497f9722a3daafe3b4186f6b6457e060405160405180910390a380600560006101000a81548173ffffffffffffffffffffffffffffffffffffffff021916908373ffffffffffffffffffffffffffffffffffffffff16021790555050565b600073ffffffffffffffffffffffffffffffffffffffff166002600083815260200190815260200160002060009054906101000a900473ffffffffffffffffffffffffffffffffffffffff1673ffffffffffffffffffffffffffffffffffffffff1614612d345760006002600083815260200190815260200160002060006101000a81548173ffffffffffffffffffffffffffffffffffffffff021916908373ffffffffffffffffffffffffffffffffffffffff1602179055505b50565b612d4f600182600001546130ef90919063ffffffff16565b816000018190555050565b6001816000016000828254019250508190555050565b8173ffffffffffffffffffffffffffffffffffffffff16612d9082611024565b73ffffffffffffffffffffffffffffffffffffffff1614612dfc576040517f08c379a00000000000000000000000000000000000000000000000000000000081526004018080602001828103825260258152602001806134626025913960400191505060405180910390fd5b612e0581612c79565b612e4c600360008473ffffffffffffffffffffffffffffffffffffffff1673ffffffffffffffffffffffffffffffffffffffff168152602001908152602001600020612d37565b60006001600083815260200190815260200160002060006101000a81548173ffffffffffffffffffffffffffffffffffffffff021916908373ffffffffffffffffffffffffffffffffffffffff16021790555080600073ffffffffffffffffffffffffffffffffffffffff168373ffffffffffffffffffffffffffffffffffffffff167fddf252ad1be2c89b69c2b068fc378daa952ba7f163c4a11628f55a4df523b3ef60405160405180910390a45050565b6000612f208473ffffffffffffffffffffffffffffffffffffffff16613139565b612f2d57600190506130e7565b60008473ffffffffffffffffffffffffffffffffffffffff1663150b7a02612f53612247565b8887876040518563ffffffff1660e01b8152600401808573ffffffffffffffffffffffffffffffffffffffff1673ffffffffffffffffffffffffffffffffffffffff1681526020018473ffffffffffffffffffffffffffffffffffffffff1673ffffffffffffffffffffffffffffffffffffffff16815260200183815260200180602001828103825283818151815260200191508051906020019080838360005b8381101561300f578082015181840152602081019050612ff4565b50505050905090810190601f16801561303c5780820380516001836020036101000a031916815260200191505b5095505050505050602060405180830381600087803b15801561305e57600080fd5b505af1158015613072573d6000803e3d6000fd5b505050506040513d602081101561308857600080fd5b8101908080519060200190929190505050905063150b7a0260e01b7bffffffffffffffffffffffffffffffffffffffffffffffffffffffff1916817bffffffffffffffffffffffffffffffffffffffffffffffffffffffff1916149150505b949350505050565b600061313183836040518060400160405280601e81526020017f536166654d6174683a207375627472616374696f6e206f766572666c6f770000815250613184565b905092915050565b60008060007fc5d2460186f7233c927e7db2dcc703c0e500b653ca82273b7bfad8045d85a47060001b9050833f91506000801b821415801561317b5750808214155b92505050919050565b6000838311158290613231576040517f08c379a00000000000000000000000000000000000000000000000000000000081526004018080602001828103825283818151815260200191508051906020019080838360005b838110156131f65780820151818401526020810190506131db565b50505050905090810190601f1680156132235780820380516001836020036101000a031916815260200191505b509250505060405180910390fd5b506000838503905080915050939250505056fe4552433732313a207472616e7366657220746f206e6f6e20455243373231526563656976657220696d706c656d656e7465724f776e61626c653a206e6577206f776e657220697320746865207a65726f20616464726573734552433732313a207472616e7366657220746f20746865207a65726f20616464726573734552433732313a206f70657261746f7220717565727920666f72206e6f6e6578697374656e7420746f6b656e4552433732313a20617070726f76652063616c6c6572206973206e6f74206f776e6572206e6f7220617070726f76656420666f7220616c6c4552433732313a2062616c616e636520717565727920666f7220746865207a65726f20616464726573734552433732313a206f776e657220717565727920666f72206e6f6e6578697374656e7420746f6b656e526f6c65733a206163636f756e7420646f6573206e6f74206861766520726f6c654552433732313a20617070726f76656420717565727920666f72206e6f6e6578697374656e7420746f6b656e526f6c65733a206163636f756e7420697320746865207a65726f20616464726573734552433732313a207472616e73666572206f6620746f6b656e2074686174206973206e6f74206f776e4552433732313a20617070726f76616c20746f2063757272656e74206f776e65724552433732313a207472616e736665722063616c6c6572206973206e6f74206f776e6572206e6f7220617070726f7665644552433732313a206275726e206f6620746f6b656e2074686174206973206e6f74206f776ea265627a7a72315820d2fe2cfa5a12e242853baa9bcd7b4f73d82fef8a585091a916032a5c3e74a23d64736f6c63430005100032",
  "source": "pragma solidity ^0.5.3;\n\nimport \"@openzeppelin/contracts/token/ERC721/ERC721.sol\";\nimport \"@openzeppelin/contracts/ownership/Ownable.sol\";\nimport \"@openzeppelin/contracts/access/Roles.sol\";\nimport \"@rsksmart/rns-registry/contracts/AbstractRNS.sol\";\nimport \"./AbstractNodeOwner.sol\";\n\ncontract NodeOwner is ERC721, Ownable, AbstractNodeOwner {\n    using Roles for Roles.Role;\n\n    AbstractRNS private rns;\n    bytes32 private rootNode;\n\n    mapping (uint256 => uint) public expirationTime;\n\n    event ExpirationChanged(uint256 tokenId, uint expirationTime);\n\n    modifier onlyRegistrar {\n        require(registrars.has(msg.sender), \"Only registrar.\");\n        _;\n    }\n\n    modifier onlyRenewer {\n        require(renewers.has(msg.sender), \"Only renewer.\");\n        _;\n    }\n\n    constructor (\n        AbstractRNS _rns,\n        bytes32 _rootNode\n    ) public {\n        rns = _rns;\n        rootNode = _rootNode;\n    }\n\n    /// @notice Gets the owner of the specified domain.\n    /// @param tokenId keccak256 of the domain label.\n    /// @return domain owner.\n    function ownerOf(uint256 tokenId) public view returns (address) {\n        require(expirationTime[tokenId] > now, \"ERC721: owner query for nonexistent token\");\n        return super.ownerOf(tokenId);\n    }\n\n    /// @notice Check if a domain is available to be registered.\n    /// @dev The name must be registered via account with registrar role.\n    /// @param tokenId keccak256 of the domain label.\n    /// @return true if the specified domain can be registered.\n    function available(uint256 tokenId) public view returns(bool) {\n        return expirationTime[tokenId] < now;\n    }\n\n    ///////////////////\n    // RSK TLD ADMIN //\n    ///////////////////\n\n    /*\n        This contract owns a node in RNS, so it is capable to\n        change it's resolution and ttl.\n    */\n\n    /// @notice set root node resolver in RNS.\n    /// @param resolver to be set.\n    function setRootResolver (address resolver) external onlyOwner {\n        rns.setResolver(rootNode, resolver);\n    }\n\n    /// @notice set root node ttl in RNS.\n    /// @param ttl to be set.\n    function setRootTTL (uint64 ttl) external onlyOwner {\n        rns.setTTL(rootNode, ttl);\n    }\n\n    //////////////////\n    // REGISTRATION //\n    //////////////////\n\n    /*\n        Only available domains can be registered. Once a domain is\n        registered, it cannot be revoked until expiration.\n    */\n\n    // An account with registrar role can register domains.\n    Roles.Role registrars;\n\n    /// @notice Give an account access to registrar role.\n    /// @dev Only owner.\n    /// @param registrar new registrar.\n    function addRegistrar(address registrar) external onlyOwner {\n        registrars.add(registrar);\n    }\n\n    /// @notice Check if an account has registrar role.\n    /// @param registrar to query if has registrar role.\n    /// @return true if it has registrar role.\n    function isRegistrar(address registrar) external view returns (bool) {\n        return registrars.has(registrar);\n    }\n\n    /// @notice Remove an account's access to registrar role.\n    /// @dev Only owner\n    /// @param registrar registrar to remove from registrar role.\n    function removeRegistrar(address registrar) external onlyOwner {\n        registrars.remove(registrar);\n    }\n\n    /// @notice Registers a domain in RNS for a given duration.\n    /// @dev Only accounts with registrar role.\n    /// @param label keccak256 of the domain label to register.\n    /// @param tokenOwner account that will own the registered domain.\n    /// @param duration time to register the domain for.\n    function register(bytes32 label, address tokenOwner, uint duration) external onlyRegistrar {\n        uint256 tokenId = uint256(label);\n\n        require(available(tokenId), \"Not available\");\n\n        uint newExpirationTime = now.add(duration);\n        expirationTime[tokenId] = newExpirationTime;\n        emit ExpirationChanged(tokenId, newExpirationTime);\n\n        if (_exists(tokenId))\n            _burn(tokenId);\n\n        _mint(tokenOwner, tokenId);\n\n        rns.setSubnodeOwner(rootNode, label, tokenOwner);\n    }\n\n    ////////////////\n    // RECLAIMING //\n    ////////////////\n\n    /*\n        Names might be lost by transferring to contracts, or by\n        error. This allows any owner (or approved) to reclaim the\n        domain ownership in RNS.\n    */\n\n    /// @notice Reclaim ownership of a domain in RNS.\n    /// @dev Only owner or approved for the domain.\n    /// @param tokenId keccak256 of the domain\n    /// @param newOwner the owner to set in RNS.\n    function reclaim(uint256 tokenId, address newOwner) external {\n        require(_isApprovedOrOwner(msg.sender, tokenId), \"Not approved or owner\");\n        rns.setSubnodeOwner(rootNode, bytes32(tokenId), newOwner);\n    }\n\n    ////////////////\n    // RENOVATION //\n    ////////////////\n\n    /*\n        Only owned domains can be renewed. A renovation extends\n        domain ownership.\n    */\n\n    // An account with renewer role can extend domain expirations.\n    Roles.Role renewers;\n\n    /// @notice Give an account access to renewer role.\n    /// @dev Only owner\n    /// @param renewer new renewer.\n    function addRenewer(address renewer) external onlyOwner {\n        renewers.add(renewer);\n    }\n\n    /// @notice Check if an account has renewer role.\n    /// @param renewer to query if has renewer role.\n    /// @return true if it has renewer role.\n    function isRenewer(address renewer) external view returns (bool) {\n        return renewers.has(renewer);\n    }\n\n    /// @notice Remove an account's access to renewer role.\n    /// @dev Only owner\n    /// @param renewer renewer to remove from renewer role.\n    function removeRenewer(address renewer) external onlyOwner {\n        renewers.remove(renewer);\n    }\n\n    /// @notice Renew a domain for a given duraiton.\n    /// @dev Only accounts with renewer role.\n    /// @param label keccak256 of the domain label to renew.\n    /// @param time to extend the duration for.\n    function renew (bytes32 label, uint time) external onlyRenewer {\n        uint256 tokenId = uint256(label);\n        require(expirationTime[tokenId] > now, \"Name already expired\");\n        uint newExpirationTime = expirationTime[tokenId].add(time);\n        expirationTime[tokenId] = newExpirationTime;\n        emit ExpirationChanged(tokenId, newExpirationTime);\n    }\n\n    //////////////////////\n    // AFTER EXPIRATION //\n    //////////////////////\n\n    /// @notice This method removes expired domains.\n    /// @dev Use this to set 0 address in RNS ownership\n    /// and burn the domains to keep balance up to date.\n    /// @param tokenIds keccak256s of the domain labels to remove.\n    function removeExpired(uint256[] calldata tokenIds) external {\n        uint256 tokenId;\n        bytes32 label;\n\n        for (uint i = 0; i < tokenIds.length; i++) {\n            tokenId = tokenIds[i];\n\n            if (_exists(tokenId) && available(tokenId)) {\n                expirationTime[tokenId] = ~uint(0);\n                _burn(tokenId);\n                expirationTime[tokenId] = 0;\n\n                label = bytes32(tokenId);\n                rns.setSubnodeOwner(rootNode, label, address(0));\n            }\n        }\n    }\n}\n",
  "sourcePath": "/Users/sergiojara/Developer/iov/rns-rskregistrar/contracts/NodeOwner.sol",
  "compiler": {
    "name": "solc",
    "version": "0.5.16+commit.9c3226ce.Emscripten.clang"
  },
  "schemaVersion": "3.2.2",
  "updatedAt": "2022-11-14T21:48:15.507Z",
  "devdoc": {
    "methods": {
      "addRegistrar(address)": {
        "details": "Only owner.",
        "params": {
          "registrar": "new registrar."
        }
      },
      "addRenewer(address)": {
        "details": "Only owner",
        "params": {
          "renewer": "new renewer."
        }
      },
      "approve(address,uint256)": {
        "details": "Approves another address to transfer the given token ID The zero address indicates there is no approved address. There can only be one approved address per token at a given time. Can only be called by the token owner or an approved operator.",
        "params": {
          "to": "address to be approved for the given token ID",
          "tokenId": "uint256 ID of the token to be approved"
        }
      },
      "available(uint256)": {
        "details": "The name must be registered via account with registrar role.",
        "params": {
          "tokenId": "keccak256 of the domain label."
        },
        "return": "true if the specified domain can be registered."
      },
      "balanceOf(address)": {
        "details": "Gets the balance of the specified address.",
        "params": {
          "owner": "address to query the balance of"
        },
        "return": "uint256 representing the amount owned by the passed address"
      },
      "getApproved(uint256)": {
        "details": "Gets the approved address for a token ID, or zero if no address set Reverts if the token ID does not exist.",
        "params": {
          "tokenId": "uint256 ID of the token to query the approval of"
        },
        "return": "address currently approved for the given token ID"
      },
      "isApprovedForAll(address,address)": {
        "details": "Tells whether an operator is approved by a given owner.",
        "params": {
          "operator": "operator address which you want to query the approval of",
          "owner": "owner address which you want to query the approval of"
        },
        "return": "bool whether the given operator is approved by the given owner"
      },
      "isOwner()": {
        "details": "Returns true if the caller is the current owner."
      },
      "isRegistrar(address)": {
        "params": {
          "registrar": "to query if has registrar role."
        },
        "return": "true if it has registrar role."
      },
      "isRenewer(address)": {
        "params": {
          "renewer": "to query if has renewer role."
        },
        "return": "true if it has renewer role."
      },
      "owner()": {
        "details": "Returns the address of the current owner."
      },
      "ownerOf(uint256)": {
        "params": {
          "tokenId": "keccak256 of the domain label."
        },
        "return": "domain owner."
      },
      "reclaim(uint256,address)": {
        "details": "Only owner or approved for the domain.",
        "params": {
          "newOwner": "the owner to set in RNS.",
          "tokenId": "keccak256 of the domain"
        }
      },
      "register(bytes32,address,uint256)": {
        "details": "Only accounts with registrar role.",
        "params": {
          "duration": "time to register the domain for.",
          "label": "keccak256 of the domain label to register.",
          "tokenOwner": "account that will own the registered domain."
        }
      },
      "removeExpired(uint256[])": {
        "details": "Use this to set 0 address in RNS ownership and burn the domains to keep balance up to date.",
        "params": {
          "tokenIds": "keccak256s of the domain labels to remove."
        }
      },
      "removeRegistrar(address)": {
        "details": "Only owner",
        "params": {
          "registrar": "registrar to remove from registrar role."
        }
      },
      "removeRenewer(address)": {
        "details": "Only owner",
        "params": {
          "renewer": "renewer to remove from renewer role."
        }
      },
      "renew(bytes32,uint256)": {
        "details": "Only accounts with renewer role.",
        "params": {
          "label": "keccak256 of the domain label to renew.",
          "time": "to extend the duration for."
        }
      },
      "renounceOwnership()": {
        "details": "Leaves the contract without owner. It will not be possible to call `onlyOwner` functions anymore. Can only be called by the current owner.     * NOTE: Renouncing ownership will leave the contract without an owner, thereby removing any functionality that is only available to the owner."
      },
      "safeTransferFrom(address,address,uint256)": {
        "details": "Safely transfers the ownership of a given token ID to another address If the target address is a contract, it must implement {IERC721Receiver-onERC721Received}, which is called upon a safe transfer, and return the magic value `bytes4(keccak256(\"onERC721Received(address,address,uint256,bytes)\"))`; otherwise, the transfer is reverted. Requires the msg.sender to be the owner, approved, or operator",
        "params": {
          "from": "current owner of the token",
          "to": "address to receive the ownership of the given token ID",
          "tokenId": "uint256 ID of the token to be transferred"
        }
      },
      "safeTransferFrom(address,address,uint256,bytes)": {
        "details": "Safely transfers the ownership of a given token ID to another address If the target address is a contract, it must implement {IERC721Receiver-onERC721Received}, which is called upon a safe transfer, and return the magic value `bytes4(keccak256(\"onERC721Received(address,address,uint256,bytes)\"))`; otherwise, the transfer is reverted. Requires the _msgSender() to be the owner, approved, or operator",
        "params": {
          "_data": "bytes data to send along with a safe transfer check",
          "from": "current owner of the token",
          "to": "address to receive the ownership of the given token ID",
          "tokenId": "uint256 ID of the token to be transferred"
        }
      },
      "setApprovalForAll(address,bool)": {
        "details": "Sets or unsets the approval of a given operator An operator is allowed to transfer all tokens of the sender on their behalf.",
        "params": {
          "approved": "representing the status of the approval to be set",
          "to": "operator address to set the approval"
        }
      },
      "setRootResolver(address)": {
        "params": {
          "resolver": "to be set."
        }
      },
      "setRootTTL(uint64)": {
        "params": {
          "ttl": "to be set."
        }
      },
      "supportsInterface(bytes4)": {
        "details": "See {IERC165-supportsInterface}.     * Time complexity O(1), guaranteed to always use less than 30 000 gas."
      },
      "transferFrom(address,address,uint256)": {
        "details": "Transfers the ownership of a given token ID to another address. Usage of this method is discouraged, use {safeTransferFrom} whenever possible. Requires the msg.sender to be the owner, approved, or operator.",
        "params": {
          "from": "current owner of the token",
          "to": "address to receive the ownership of the given token ID",
          "tokenId": "uint256 ID of the token to be transferred"
        }
      },
      "transferOwnership(address)": {
        "details": "Transfers ownership of the contract to a new account (`newOwner`). Can only be called by the current owner."
      }
    }
  },
  "userdoc": {
    "methods": {
      "addRegistrar(address)": {
        "notice": "Give an account access to registrar role."
      },
      "addRenewer(address)": {
        "notice": "Give an account access to renewer role."
      },
      "available(uint256)": {
        "notice": "Check if a domain is available to be registered."
      },
      "isRegistrar(address)": {
        "notice": "Check if an account has registrar role."
      },
      "isRenewer(address)": {
        "notice": "Check if an account has renewer role."
      },
      "ownerOf(uint256)": {
        "notice": "Gets the owner of the specified domain."
      },
      "reclaim(uint256,address)": {
        "notice": "Reclaim ownership of a domain in RNS."
      },
      "register(bytes32,address,uint256)": {
        "notice": "Registers a domain in RNS for a given duration."
      },
      "removeExpired(uint256[])": {
        "notice": "///////////////////This method removes expired domains."
      },
      "removeRegistrar(address)": {
        "notice": "Remove an account's access to registrar role."
      },
      "removeRenewer(address)": {
        "notice": "Remove an account's access to renewer role."
      },
      "renew(bytes32,uint256)": {
        "notice": "Renew a domain for a given duraiton."
      },
      "setRootResolver(address)": {
        "notice": "set root node resolver in RNS."
      },
      "setRootTTL(uint64)": {
        "notice": "set root node ttl in RNS."
      }
    }
  }
}