{
    "_format": "hh-sol-artifact-1",
    "contractName": "PartnerManager",
    "sourceName": "contracts/PartnerManager/PartnerManager.sol",
    "abi": [
        {
            "inputs": [
                {
                    "internalType": "contract IAccessControl",
                    "name": "accessControl",
                    "type": "address"
                }
            ],
            "stateMutability": "nonpayable",
            "type": "constructor"
        },
        {
            "inputs": [
                {
                    "internalType": "address",
                    "name": "sender",
                    "type": "address"
                }
            ],
            "name": "OnlyHighLevelOperator",
            "type": "error"
        },
        {
            "anonymous": false,
            "inputs": [
                {
                    "indexed": true,
                    "internalType": "address",
                    "name": "partner",
                    "type": "address"
                },
                {
                    "indexed": true,
                    "internalType": "address",
                    "name": "configurationContract",
                    "type": "address"
                }
            ],
            "name": "PartnerAdded",
            "type": "event"
        },
        {
            "anonymous": false,
            "inputs": [
                {
                    "indexed": false,
                    "internalType": "address",
                    "name": "partner",
                    "type": "address"
                },
                {
                    "indexed": false,
                    "internalType": "address",
                    "name": "configurationContract",
                    "type": "address"
                }
            ],
            "name": "PartnerConfigurationChanged",
            "type": "event"
        },
        {
            "anonymous": false,
            "inputs": [
                {
                    "indexed": true,
                    "internalType": "address",
                    "name": "partner",
                    "type": "address"
                }
            ],
            "name": "PartnerRemoved",
            "type": "event"
        },
        {
            "inputs": [
                {
                    "internalType": "address",
                    "name": "partner",
                    "type": "address"
                },
                {
                    "internalType": "contract IPartnerConfiguration",
                    "name": "partnerConfiguration",
                    "type": "address"
                }
            ],
            "name": "addPartner",
            "outputs": [],
            "stateMutability": "nonpayable",
            "type": "function"
        },
        {
            "inputs": [
                {
                    "internalType": "address",
                    "name": "partner",
                    "type": "address"
                }
            ],
            "name": "getPartnerConfiguration",
            "outputs": [
                {
                    "internalType": "contract IPartnerConfiguration",
                    "name": "",
                    "type": "address"
                }
            ],
            "stateMutability": "view",
            "type": "function"
        },
        {
            "inputs": [
                {
                    "internalType": "address",
                    "name": "partner",
                    "type": "address"
                }
            ],
            "name": "isPartner",
            "outputs": [
                {
                    "internalType": "bool",
                    "name": "",
                    "type": "bool"
                }
            ],
            "stateMutability": "view",
            "type": "function"
        },
        {
            "inputs": [
                {
                    "internalType": "address",
                    "name": "partner",
                    "type": "address"
                }
            ],
            "name": "removePartner",
            "outputs": [],
            "stateMutability": "nonpayable",
            "type": "function"
        },
        {
            "inputs": [
                {
                    "internalType": "address",
                    "name": "partner",
                    "type": "address"
                },
                {
                    "internalType": "contract IPartnerConfiguration",
                    "name": "partnerConfiguration",
                    "type": "address"
                }
            ],
            "name": "setPartnerConfiguration",
            "outputs": [],
            "stateMutability": "nonpayable",
            "type": "function"
        }
    ],
    "bytecode": "0x608060405234801561001057600080fd5b506040516106f73803806106f783398101604081905261002f91610054565b600080546001600160a01b0319166001600160a01b0392909216919091179055610084565b60006020828403121561006657600080fd5b81516001600160a01b038116811461007d57600080fd5b9392505050565b610664806100936000396000f3fe608060405234801561001057600080fd5b50600436106100675760003560e01c8063b16bd79911610050578063b16bd799146100f6578063e1818fbb1461010b578063ea3c281a1461011e57600080fd5b806314049bd91461006c5780638c0f9aac146100ba575b600080fd5b61009d61007a3660046105af565b6001600160a01b0390811660009081526001602052604090205461010090041690565b6040516001600160a01b0390911681526020015b60405180910390f35b6100e66100c83660046105af565b6001600160a01b031660009081526001602052604090205460ff1690565b60405190151581526020016100b1565b6101096101043660046105d3565b610131565b005b6101096101193660046105d3565b6102d2565b61010961012c3660046105af565b6104a3565b600054604051632d260be760e11b81523360048201526001600160a01b0390911690635a4c17ce90602401602060405180830381865afa158015610179573d6000803e3d6000fd5b505050506040513d601f19601f8201168201806040525081019061019d919061060c565b6101c1576040516307d92ddb60e51b81523360048201526024015b60405180910390fd5b6001600160a01b03821660009081526001602052604090205460ff161561022a5760405162461bcd60e51b815260206004820152601660248201527f506172746e657220616c7265616479206578697374730000000000000000000060448201526064016101b8565b60408051808201825260018082526001600160a01b03848116602080850182815288841660008181529590925286852095518654915174ffffffffffffffffffffffffffffffffffffffffff1990921690151574ffffffffffffffffffffffffffffffffffffffff0019161761010091909416029290921790935592519192917f972eb0916813c99d10e0f04093c87cb4c443d43a2f968ec82ab79d814bd106c49190a35050565b600054604051632d260be760e11b81523360048201526001600160a01b0390911690635a4c17ce90602401602060405180830381865afa15801561031a573d6000803e3d6000fd5b505050506040513d601f19601f8201168201806040525081019061033e919061060c565b61035d576040516307d92ddb60e51b81523360048201526024016101b8565b604080516001600160a01b038085168252831660208201527fb06e371dbdf388a6e1c2a1e2e2c613cece0dc769253768eaf2879e61b1cf99a0910160405180910390a16001600160a01b0381166103f65760405162461bcd60e51b815260206004820152601560248201527f496e76616c696420636f6e66696775726174696f6e000000000000000000000060448201526064016101b8565b6001600160a01b03821660009081526001602052604090205460ff1661045e5760405162461bcd60e51b815260206004820152600d60248201527f4e6f74206120706172746e65720000000000000000000000000000000000000060448201526064016101b8565b6001600160a01b0391821660009081526001602052604090208054929091166101000274ffffffffffffffffffffffffffffffffffffffff0019909216919091179055565b600054604051632d260be760e11b81523360048201526001600160a01b0390911690635a4c17ce90602401602060405180830381865afa1580156104eb573d6000803e3d6000fd5b505050506040513d601f19601f8201168201806040525081019061050f919061060c565b61052e576040516307d92ddb60e51b81523360048201526024016101b8565b6040516001600160a01b038216907fd2639eca7fc6fcdba5fa158fc8075b41bc021e97ac1e127b9da5f4fd925f082890600090a26001600160a01b03166000908152600160205260409020805474ffffffffffffffffffffffffffffffffffffffffff19169055565b6001600160a01b03811681146105ac57600080fd5b50565b6000602082840312156105c157600080fd5b81356105cc81610597565b9392505050565b600080604083850312156105e657600080fd5b82356105f181610597565b9150602083013561060181610597565b809150509250929050565b60006020828403121561061e57600080fd5b815180151581146105cc57600080fdfea2646970667358221220a5a493ee29e716169343f5e4644a5077d766f3a25cd49065dc23c5557b90f53364736f6c63430008100033",
    "linkReferences": {},
    "deployedLinkReferences": {}
}