{
  "contractName": "ProxyAdmin",
  "abi": [
    {
      "anonymous": false,
      "inputs": [
        {
          "indexed": true,
          "internalType": "address",
          "name": "previousOwner",
          "type": "address"
        },
        {
          "indexed": true,
          "internalType": "address",
          "name": "newOwner",
          "type": "address"
        }
      ],
      "name": "OwnershipTransferred",
      "type": "event"
    },
    {
      "constant": true,
      "inputs": [],
      "name": "isOwner",
      "outputs": [
        {
          "internalType": "bool",
          "name": "",
          "type": "bool"
        }
      ],
      "payable": false,
      "stateMutability": "view",
      "type": "function"
    },
    {
      "constant": true,
      "inputs": [],
      "name": "owner",
      "outputs": [
        {
          "internalType": "address",
          "name": "",
          "type": "address"
        }
      ],
      "payable": false,
      "stateMutability": "view",
      "type": "function"
    },
    {
      "constant": false,
      "inputs": [],
      "name": "renounceOwnership",
      "outputs": [],
      "payable": false,
      "stateMutability": "nonpayable",
      "type": "function"
    },
    {
      "constant": false,
      "inputs": [
        {
          "internalType": "address",
          "name": "newOwner",
          "type": "address"
        }
      ],
      "name": "transferOwnership",
      "outputs": [],
      "payable": false,
      "stateMutability": "nonpayable",
      "type": "function"
    },
    {
      "constant": true,
      "inputs": [
        {
          "internalType": "contract AdminUpgradeabilityProxy",
          "name": "proxy",
          "type": "address"
        }
      ],
      "name": "getProxyImplementation",
      "outputs": [
        {
          "internalType": "address",
          "name": "",
          "type": "address"
        }
      ],
      "payable": false,
      "stateMutability": "view",
      "type": "function"
    },
    {
      "constant": true,
      "inputs": [
        {
          "internalType": "contract AdminUpgradeabilityProxy",
          "name": "proxy",
          "type": "address"
        }
      ],
      "name": "getProxyAdmin",
      "outputs": [
        {
          "internalType": "address",
          "name": "",
          "type": "address"
        }
      ],
      "payable": false,
      "stateMutability": "view",
      "type": "function"
    },
    {
      "constant": false,
      "inputs": [
        {
          "internalType": "contract AdminUpgradeabilityProxy",
          "name": "proxy",
          "type": "address"
        },
        {
          "internalType": "address",
          "name": "newAdmin",
          "type": "address"
        }
      ],
      "name": "changeProxyAdmin",
      "outputs": [],
      "payable": false,
      "stateMutability": "nonpayable",
      "type": "function"
    },
    {
      "constant": false,
      "inputs": [
        {
          "internalType": "contract AdminUpgradeabilityProxy",
          "name": "proxy",
          "type": "address"
        },
        {
          "internalType": "address",
          "name": "implementation",
          "type": "address"
        }
      ],
      "name": "upgrade",
      "outputs": [],
      "payable": false,
      "stateMutability": "nonpayable",
      "type": "function"
    },
    {
      "constant": false,
      "inputs": [
        {
          "internalType": "contract AdminUpgradeabilityProxy",
          "name": "proxy",
          "type": "address"
        },
        {
          "internalType": "address",
          "name": "implementation",
          "type": "address"
        },
        {
          "internalType": "bytes",
          "name": "data",
          "type": "bytes"
        }
      ],
      "name": "upgradeAndCall",
      "outputs": [],
      "payable": true,
      "stateMutability": "payable",
      "type": "function"
    }
  ],
  "bytecode": "0x6080604052336000806101000a81548173ffffffffffffffffffffffffffffffffffffffff021916908373ffffffffffffffffffffffffffffffffffffffff1602179055506000809054906101000a900473ffffffffffffffffffffffffffffffffffffffff1673ffffffffffffffffffffffffffffffffffffffff16600073ffffffffffffffffffffffffffffffffffffffff167f8be0079c531659141344cd1fd0a4f28419497f9722a3daafe3b4186f6b6457e060405160405180910390a3610b15806100cf6000396000f3fe6080604052600436106100865760003560e01c80638f32d59b116100595780638f32d59b146101fb5780639623609d1461022a57806399a88ec414610325578063f2fde38b14610396578063f3b7dead146103e757610086565b8063204e1c7a1461008b578063715018a61461011c5780637eff275e146101335780638da5cb5b146101a4575b600080fd5b34801561009757600080fd5b506100da600480360360208110156100ae57600080fd5b81019080803573ffffffffffffffffffffffffffffffffffffffff169060200190929190505050610478565b604051808273ffffffffffffffffffffffffffffffffffffffff1673ffffffffffffffffffffffffffffffffffffffff16815260200191505060405180910390f35b34801561012857600080fd5b50610131610540565b005b34801561013f57600080fd5b506101a26004803603604081101561015657600080fd5b81019080803573ffffffffffffffffffffffffffffffffffffffff169060200190929190803573ffffffffffffffffffffffffffffffffffffffff169060200190929190505050610610565b005b3480156101b057600080fd5b506101b96106bc565b604051808273ffffffffffffffffffffffffffffffffffffffff1673ffffffffffffffffffffffffffffffffffffffff16815260200191505060405180910390f35b34801561020757600080fd5b506102106106e5565b604051808215151515815260200191505060405180910390f35b6103236004803603606081101561024057600080fd5b81019080803573ffffffffffffffffffffffffffffffffffffffff169060200190929190803573ffffffffffffffffffffffffffffffffffffffff1690602001909291908035906020019064010000000081111561029d57600080fd5b8201836020820111156102af57600080fd5b803590602001918460018302840111640100000000831117156102d157600080fd5b91908080601f016020809104026020016040519081016040528093929190818152602001838380828437600081840152601f19601f82011690508083019250505050505050919291929050505061073c565b005b34801561033157600080fd5b506103946004803603604081101561034857600080fd5b81019080803573ffffffffffffffffffffffffffffffffffffffff169060200190929190803573ffffffffffffffffffffffffffffffffffffffff169060200190929190505050610857565b005b3480156103a257600080fd5b506103e5600480360360208110156103b957600080fd5b81019080803573ffffffffffffffffffffffffffffffffffffffff169060200190929190505050610903565b005b3480156103f357600080fd5b506104366004803603602081101561040a57600080fd5b81019080803573ffffffffffffffffffffffffffffffffffffffff169060200190929190505050610920565b604051808273ffffffffffffffffffffffffffffffffffffffff1673ffffffffffffffffffffffffffffffffffffffff16815260200191505060405180910390f35b60008060608373ffffffffffffffffffffffffffffffffffffffff1660405180807f5c60da1b000000000000000000000000000000000000000000000000000000008152506004019050600060405180830381855afa9150503d80600081146104fd576040519150601f19603f3d011682016040523d82523d6000602084013e610502565b606091505b50915091508161051157600080fd5b80806020019051602081101561052657600080fd5b810190808051906020019092919050505092505050919050565b6105486106e5565b61055157600080fd5b600073ffffffffffffffffffffffffffffffffffffffff166000809054906101000a900473ffffffffffffffffffffffffffffffffffffffff1673ffffffffffffffffffffffffffffffffffffffff167f8be0079c531659141344cd1fd0a4f28419497f9722a3daafe3b4186f6b6457e060405160405180910390a360008060006101000a81548173ffffffffffffffffffffffffffffffffffffffff021916908373ffffffffffffffffffffffffffffffffffffffff160217905550565b6106186106e5565b61062157600080fd5b8173ffffffffffffffffffffffffffffffffffffffff16638f283970826040518263ffffffff1660e01b8152600401808273ffffffffffffffffffffffffffffffffffffffff1673ffffffffffffffffffffffffffffffffffffffff168152602001915050600060405180830381600087803b1580156106a057600080fd5b505af11580156106b4573d6000803e3d6000fd5b505050505050565b60008060009054906101000a900473ffffffffffffffffffffffffffffffffffffffff16905090565b60008060009054906101000a900473ffffffffffffffffffffffffffffffffffffffff1673ffffffffffffffffffffffffffffffffffffffff163373ffffffffffffffffffffffffffffffffffffffff1614905090565b6107446106e5565b61074d57600080fd5b8273ffffffffffffffffffffffffffffffffffffffff16634f1ef2863484846040518463ffffffff1660e01b8152600401808373ffffffffffffffffffffffffffffffffffffffff1673ffffffffffffffffffffffffffffffffffffffff16815260200180602001828103825283818151815260200191508051906020019080838360005b838110156107ed5780820151818401526020810190506107d2565b50505050905090810190601f16801561081a5780820380516001836020036101000a031916815260200191505b5093505050506000604051808303818588803b15801561083957600080fd5b505af115801561084d573d6000803e3d6000fd5b5050505050505050565b61085f6106e5565b61086857600080fd5b8173ffffffffffffffffffffffffffffffffffffffff16633659cfe6826040518263ffffffff1660e01b8152600401808273ffffffffffffffffffffffffffffffffffffffff1673ffffffffffffffffffffffffffffffffffffffff168152602001915050600060405180830381600087803b1580156108e757600080fd5b505af11580156108fb573d6000803e3d6000fd5b505050505050565b61090b6106e5565b61091457600080fd5b61091d816109e8565b50565b60008060608373ffffffffffffffffffffffffffffffffffffffff1660405180807ff851a440000000000000000000000000000000000000000000000000000000008152506004019050600060405180830381855afa9150503d80600081146109a5576040519150601f19603f3d011682016040523d82523d6000602084013e6109aa565b606091505b5091509150816109b957600080fd5b8080602001905160208110156109ce57600080fd5b810190808051906020019092919050505092505050919050565b600073ffffffffffffffffffffffffffffffffffffffff168173ffffffffffffffffffffffffffffffffffffffff161415610a2257600080fd5b8073ffffffffffffffffffffffffffffffffffffffff166000809054906101000a900473ffffffffffffffffffffffffffffffffffffffff1673ffffffffffffffffffffffffffffffffffffffff167f8be0079c531659141344cd1fd0a4f28419497f9722a3daafe3b4186f6b6457e060405160405180910390a3806000806101000a81548173ffffffffffffffffffffffffffffffffffffffff021916908373ffffffffffffffffffffffffffffffffffffffff1602179055505056fea265627a7a72315820f9fa5f4056a82fc6924be0114c6bf0ad4985b381d5d7a37a096d8f1ff1b2653264736f6c63430005100032",
  "source": "pragma solidity ^0.5.0;\n\nimport \"../ownership/Ownable.sol\";\nimport \"./AdminUpgradeabilityProxy.sol\";\n\n/**\n * @title ProxyAdmin\n * @dev This contract is the admin of a proxy, and is in charge\n * of upgrading it as well as transferring it to another admin.\n */\ncontract ProxyAdmin is OpenZeppelinUpgradesOwnable {\n  \n  /**\n   * @dev Returns the current implementation of a proxy.\n   * This is needed because only the proxy admin can query it.\n   * @return The address of the current implementation of the proxy.\n   */\n  function getProxyImplementation(AdminUpgradeabilityProxy proxy) public view returns (address) {\n    // We need to manually run the static call since the getter cannot be flagged as view\n    // bytes4(keccak256(\"implementation()\")) == 0x5c60da1b\n    (bool success, bytes memory returndata) = address(proxy).staticcall(hex\"5c60da1b\");\n    require(success);\n    return abi.decode(returndata, (address));\n  }\n\n  /**\n   * @dev Returns the admin of a proxy. Only the admin can query it.\n   * @return The address of the current admin of the proxy.\n   */\n  function getProxyAdmin(AdminUpgradeabilityProxy proxy) public view returns (address) {\n    // We need to manually run the static call since the getter cannot be flagged as view\n    // bytes4(keccak256(\"admin()\")) == 0xf851a440\n    (bool success, bytes memory returndata) = address(proxy).staticcall(hex\"f851a440\");\n    require(success);\n    return abi.decode(returndata, (address));\n  }\n\n  /**\n   * @dev Changes the admin of a proxy.\n   * @param proxy Proxy to change admin.\n   * @param newAdmin Address to transfer proxy administration to.\n   */\n  function changeProxyAdmin(AdminUpgradeabilityProxy proxy, address newAdmin) public onlyOwner {\n    proxy.changeAdmin(newAdmin);\n  }\n\n  /**\n   * @dev Upgrades a proxy to the newest implementation of a contract.\n   * @param proxy Proxy to be upgraded.\n   * @param implementation the address of the Implementation.\n   */\n  function upgrade(AdminUpgradeabilityProxy proxy, address implementation) public onlyOwner {\n    proxy.upgradeTo(implementation);\n  }\n\n  /**\n   * @dev Upgrades a proxy to the newest implementation of a contract and forwards a function call to it.\n   * This is useful to initialize the proxied contract.\n   * @param proxy Proxy to be upgraded.\n   * @param implementation Address of the Implementation.\n   * @param data Data to send as msg.data in the low level call.\n   * It should include the signature and the parameters of the function to be called, as described in\n   * https://solidity.readthedocs.io/en/v0.4.24/abi-spec.html#function-selector-and-argument-encoding.\n   */\n  function upgradeAndCall(AdminUpgradeabilityProxy proxy, address implementation, bytes memory data) payable public onlyOwner {\n    proxy.upgradeToAndCall.value(msg.value)(implementation, data);\n  }\n}\n",
  "sourcePath": "@openzeppelin/upgrades/contracts/upgradeability/ProxyAdmin.sol",
  "compiler": {
    "name": "solc",
    "version": "0.5.16+commit.9c3226ce.Emscripten.clang"
  },
  "schemaVersion": "3.0.21",
  "updatedAt": "2022-11-15T23:52:13.401Z",
  "devdoc": {
    "details": "This contract is the admin of a proxy, and is in charge of upgrading it as well as transferring it to another admin.",
    "methods": {
      "changeProxyAdmin(address,address)": {
        "details": "Changes the admin of a proxy.",
        "params": {
          "newAdmin": "Address to transfer proxy administration to.",
          "proxy": "Proxy to change admin."
        }
      },
      "getProxyAdmin(address)": {
        "details": "Returns the admin of a proxy. Only the admin can query it.",
        "return": "The address of the current admin of the proxy."
      },
      "getProxyImplementation(address)": {
        "details": "Returns the current implementation of a proxy. This is needed because only the proxy admin can query it.",
        "return": "The address of the current implementation of the proxy."
      },
      "isOwner()": {
        "return": "true if `msg.sender` is the owner of the contract."
      },
      "owner()": {
        "return": "the address of the owner."
      },
      "renounceOwnership()": {
        "details": "Allows the current owner to relinquish control of the contract."
      },
      "transferOwnership(address)": {
        "details": "Allows the current owner to transfer control of the contract to a newOwner.",
        "params": {
          "newOwner": "The address to transfer ownership to."
        }
      },
      "upgrade(address,address)": {
        "details": "Upgrades a proxy to the newest implementation of a contract.",
        "params": {
          "implementation": "the address of the Implementation.",
          "proxy": "Proxy to be upgraded."
        }
      },
      "upgradeAndCall(address,address,bytes)": {
        "details": "Upgrades a proxy to the newest implementation of a contract and forwards a function call to it. This is useful to initialize the proxied contract.",
        "params": {
          "data": "Data to send as msg.data in the low level call. It should include the signature and the parameters of the function to be called, as described in https://solidity.readthedocs.io/en/v0.4.24/abi-spec.html#function-selector-and-argument-encoding.",
          "implementation": "Address of the Implementation.",
          "proxy": "Proxy to be upgraded."
        }
      }
    },
    "title": "ProxyAdmin"
  },
  "userdoc": {
    "methods": {
      "renounceOwnership()": {
        "notice": "Renouncing to ownership will leave the contract without an owner. It will not be possible to call the functions with the `onlyOwner` modifier anymore."
      }
    }
  }
}