{
  "contractName": "ResolverV1",
  "abi": [
    {
      "anonymous": false,
      "inputs": [
        {
          "indexed": true,
          "internalType": "bytes32",
          "name": "node",
          "type": "bytes32"
        },
        {
          "indexed": true,
          "internalType": "uint256",
          "name": "contentType",
          "type": "uint256"
        }
      ],
      "name": "ABIChanged",
      "type": "event"
    },
    {
      "anonymous": false,
      "inputs": [
        {
          "indexed": true,
          "internalType": "bytes32",
          "name": "node",
          "type": "bytes32"
        },
        {
          "indexed": false,
          "internalType": "address",
          "name": "a",
          "type": "address"
        }
      ],
      "name": "AddrChanged",
      "type": "event"
    },
    {
      "anonymous": false,
      "inputs": [
        {
          "indexed": true,
          "internalType": "bytes32",
          "name": "node",
          "type": "bytes32"
        },
        {
          "indexed": false,
          "internalType": "uint256",
          "name": "coinType",
          "type": "uint256"
        },
        {
          "indexed": false,
          "internalType": "bytes",
          "name": "newAddress",
          "type": "bytes"
        }
      ],
      "name": "AddressChanged",
      "type": "event"
    },
    {
      "anonymous": false,
      "inputs": [
        {
          "indexed": true,
          "internalType": "bytes32",
          "name": "node",
          "type": "bytes32"
        },
        {
          "indexed": true,
          "internalType": "address",
          "name": "owner",
          "type": "address"
        },
        {
          "indexed": true,
          "internalType": "address",
          "name": "target",
          "type": "address"
        },
        {
          "indexed": false,
          "internalType": "bool",
          "name": "isAuthorised",
          "type": "bool"
        }
      ],
      "name": "AuthorisationChanged",
      "type": "event"
    },
    {
      "anonymous": false,
      "inputs": [
        {
          "indexed": true,
          "internalType": "bytes32",
          "name": "node",
          "type": "bytes32"
        },
        {
          "indexed": false,
          "internalType": "bytes",
          "name": "hash",
          "type": "bytes"
        }
      ],
      "name": "ContenthashChanged",
      "type": "event"
    },
    {
      "anonymous": false,
      "inputs": [
        {
          "indexed": true,
          "internalType": "bytes32",
          "name": "node",
          "type": "bytes32"
        },
        {
          "indexed": true,
          "internalType": "bytes4",
          "name": "interfaceID",
          "type": "bytes4"
        },
        {
          "indexed": false,
          "internalType": "address",
          "name": "implementer",
          "type": "address"
        }
      ],
      "name": "InterfaceChanged",
      "type": "event"
    },
    {
      "anonymous": false,
      "inputs": [
        {
          "indexed": true,
          "internalType": "bytes32",
          "name": "node",
          "type": "bytes32"
        },
        {
          "indexed": false,
          "internalType": "bytes32",
          "name": "x",
          "type": "bytes32"
        },
        {
          "indexed": false,
          "internalType": "bytes32",
          "name": "y",
          "type": "bytes32"
        }
      ],
      "name": "PubkeyChanged",
      "type": "event"
    },
    {
      "anonymous": false,
      "inputs": [
        {
          "indexed": true,
          "internalType": "bytes32",
          "name": "node",
          "type": "bytes32"
        },
        {
          "indexed": true,
          "internalType": "string",
          "name": "indexedKey",
          "type": "string"
        },
        {
          "indexed": false,
          "internalType": "string",
          "name": "key",
          "type": "string"
        }
      ],
      "name": "TextChanged",
      "type": "event"
    },
    {
      "constant": true,
      "inputs": [
        {
          "internalType": "bytes32",
          "name": "node",
          "type": "bytes32"
        },
        {
          "internalType": "uint256",
          "name": "contentTypes",
          "type": "uint256"
        }
      ],
      "name": "ABI",
      "outputs": [
        {
          "internalType": "uint256",
          "name": "",
          "type": "uint256"
        },
        {
          "internalType": "bytes",
          "name": "",
          "type": "bytes"
        }
      ],
      "payable": false,
      "stateMutability": "view",
      "type": "function"
    },
    {
      "constant": true,
      "inputs": [
        {
          "internalType": "bytes32",
          "name": "node",
          "type": "bytes32"
        }
      ],
      "name": "addr",
      "outputs": [
        {
          "internalType": "address payable",
          "name": "",
          "type": "address"
        }
      ],
      "payable": false,
      "stateMutability": "view",
      "type": "function"
    },
    {
      "constant": true,
      "inputs": [
        {
          "internalType": "bytes32",
          "name": "node",
          "type": "bytes32"
        },
        {
          "internalType": "uint256",
          "name": "coinType",
          "type": "uint256"
        }
      ],
      "name": "addr",
      "outputs": [
        {
          "internalType": "bytes",
          "name": "",
          "type": "bytes"
        }
      ],
      "payable": false,
      "stateMutability": "view",
      "type": "function"
    },
    {
      "constant": true,
      "inputs": [
        {
          "internalType": "bytes32",
          "name": "",
          "type": "bytes32"
        },
        {
          "internalType": "address",
          "name": "",
          "type": "address"
        },
        {
          "internalType": "address",
          "name": "",
          "type": "address"
        }
      ],
      "name": "authorisations",
      "outputs": [
        {
          "internalType": "bool",
          "name": "",
          "type": "bool"
        }
      ],
      "payable": false,
      "stateMutability": "view",
      "type": "function"
    },
    {
      "constant": true,
      "inputs": [
        {
          "internalType": "bytes32",
          "name": "node",
          "type": "bytes32"
        }
      ],
      "name": "contenthash",
      "outputs": [
        {
          "internalType": "bytes",
          "name": "",
          "type": "bytes"
        }
      ],
      "payable": false,
      "stateMutability": "view",
      "type": "function"
    },
    {
      "constant": true,
      "inputs": [
        {
          "internalType": "bytes32",
          "name": "node",
          "type": "bytes32"
        },
        {
          "internalType": "bytes4",
          "name": "interfaceID",
          "type": "bytes4"
        }
      ],
      "name": "interfaceImplementer",
      "outputs": [
        {
          "internalType": "address",
          "name": "",
          "type": "address"
        }
      ],
      "payable": false,
      "stateMutability": "view",
      "type": "function"
    },
    {
      "constant": true,
      "inputs": [
        {
          "internalType": "bytes32",
          "name": "node",
          "type": "bytes32"
        }
      ],
      "name": "pubkey",
      "outputs": [
        {
          "internalType": "bytes32",
          "name": "x",
          "type": "bytes32"
        },
        {
          "internalType": "bytes32",
          "name": "y",
          "type": "bytes32"
        }
      ],
      "payable": false,
      "stateMutability": "view",
      "type": "function"
    },
    {
      "constant": true,
      "inputs": [],
      "name": "rns",
      "outputs": [
        {
          "internalType": "contract AbstractRNS",
          "name": "",
          "type": "address"
        }
      ],
      "payable": false,
      "stateMutability": "view",
      "type": "function"
    },
    {
      "constant": false,
      "inputs": [
        {
          "internalType": "bytes32",
          "name": "node",
          "type": "bytes32"
        },
        {
          "internalType": "uint256",
          "name": "contentType",
          "type": "uint256"
        },
        {
          "internalType": "bytes",
          "name": "data",
          "type": "bytes"
        }
      ],
      "name": "setABI",
      "outputs": [],
      "payable": false,
      "stateMutability": "nonpayable",
      "type": "function"
    },
    {
      "constant": false,
      "inputs": [
        {
          "internalType": "bytes32",
          "name": "node",
          "type": "bytes32"
        },
        {
          "internalType": "uint256",
          "name": "coinType",
          "type": "uint256"
        },
        {
          "internalType": "bytes",
          "name": "a",
          "type": "bytes"
        }
      ],
      "name": "setAddr",
      "outputs": [],
      "payable": false,
      "stateMutability": "nonpayable",
      "type": "function"
    },
    {
      "constant": false,
      "inputs": [
        {
          "internalType": "bytes32",
          "name": "node",
          "type": "bytes32"
        },
        {
          "internalType": "address",
          "name": "a",
          "type": "address"
        }
      ],
      "name": "setAddr",
      "outputs": [],
      "payable": false,
      "stateMutability": "nonpayable",
      "type": "function"
    },
    {
      "constant": false,
      "inputs": [
        {
          "internalType": "bytes32",
          "name": "node",
          "type": "bytes32"
        },
        {
          "internalType": "bytes",
          "name": "hash",
          "type": "bytes"
        }
      ],
      "name": "setContenthash",
      "outputs": [],
      "payable": false,
      "stateMutability": "nonpayable",
      "type": "function"
    },
    {
      "constant": false,
      "inputs": [
        {
          "internalType": "bytes32",
          "name": "node",
          "type": "bytes32"
        },
        {
          "internalType": "bytes4",
          "name": "interfaceID",
          "type": "bytes4"
        },
        {
          "internalType": "address",
          "name": "implementer",
          "type": "address"
        }
      ],
      "name": "setInterface",
      "outputs": [],
      "payable": false,
      "stateMutability": "nonpayable",
      "type": "function"
    },
    {
      "constant": false,
      "inputs": [
        {
          "internalType": "bytes32",
          "name": "node",
          "type": "bytes32"
        },
        {
          "internalType": "bytes32",
          "name": "x",
          "type": "bytes32"
        },
        {
          "internalType": "bytes32",
          "name": "y",
          "type": "bytes32"
        }
      ],
      "name": "setPubkey",
      "outputs": [],
      "payable": false,
      "stateMutability": "nonpayable",
      "type": "function"
    },
    {
      "constant": false,
      "inputs": [
        {
          "internalType": "bytes32",
          "name": "node",
          "type": "bytes32"
        },
        {
          "internalType": "string",
          "name": "key",
          "type": "string"
        },
        {
          "internalType": "string",
          "name": "value",
          "type": "string"
        }
      ],
      "name": "setText",
      "outputs": [],
      "payable": false,
      "stateMutability": "nonpayable",
      "type": "function"
    },
    {
      "constant": true,
      "inputs": [
        {
          "internalType": "bytes4",
          "name": "interfaceID",
          "type": "bytes4"
        }
      ],
      "name": "supportsInterface",
      "outputs": [
        {
          "internalType": "bool",
          "name": "",
          "type": "bool"
        }
      ],
      "payable": false,
      "stateMutability": "pure",
      "type": "function"
    },
    {
      "constant": true,
      "inputs": [
        {
          "internalType": "bytes32",
          "name": "node",
          "type": "bytes32"
        },
        {
          "internalType": "string",
          "name": "key",
          "type": "string"
        }
      ],
      "name": "text",
      "outputs": [
        {
          "internalType": "string",
          "name": "",
          "type": "string"
        }
      ],
      "payable": false,
      "stateMutability": "view",
      "type": "function"
    },
    {
      "constant": false,
      "inputs": [
        {
          "internalType": "contract AbstractRNS",
          "name": "_rns",
          "type": "address"
        }
      ],
      "name": "initialize",
      "outputs": [],
      "payable": false,
      "stateMutability": "nonpayable",
      "type": "function"
    },
    {
      "constant": false,
      "inputs": [
        {
          "internalType": "bytes32",
          "name": "node",
          "type": "bytes32"
        },
        {
          "internalType": "address",
          "name": "target",
          "type": "address"
        },
        {
          "internalType": "bool",
          "name": "isAuthorised",
          "type": "bool"
        }
      ],
      "name": "setAuthorisation",
      "outputs": [],
      "payable": false,
      "stateMutability": "nonpayable",
      "type": "function"
    },
    {
      "constant": false,
      "inputs": [
        {
          "internalType": "bytes[]",
          "name": "data",
          "type": "bytes[]"
        }
      ],
      "name": "multicall",
      "outputs": [
        {
          "internalType": "bytes[]",
          "name": "results",
          "type": "bytes[]"
        }
      ],
      "payable": false,
      "stateMutability": "nonpayable",
      "type": "function"
    }
  ],
  "bytecode": "0x608060405234801561001057600080fd5b50612b12806100206000396000f3fe608060405234801561001057600080fd5b506004361061012c5760003560e01c8063663b44c5116100ad578063c869023311610071578063c869023314610364578063d5fa2b0014610395578063e59d895d146103b1578063f1cb7e06146103cd578063f86bc879146103fd5761012c565b8063663b44c5146102ae5780638b95dd71146102cc578063ac9650d8146102e8578063bc1c58d114610318578063c4d66de8146103485761012c565b8063304e6ade116100f4578063304e6ade146101fa5780633b3b57de146102165780633e9ce7941461024657806359d1d43c14610262578063623195b0146102925761012c565b806301ffc9a71461013157806310f13a8c14610161578063124a319c1461017d5780632203ab56146101ad57806329cd62ea146101de575b600080fd5b61014b60048036036101469190810190612219565b61042d565b6040516101589190612689565b60405180910390f35b61017b60048036036101769190810190612081565b61049a565b005b61019760048036036101929190810190611f46565b610548565b6040516101a49190612616565b60405180910390f35b6101c760048036036101c2919081019061210a565b610933565b6040516101d59291906127ca565b60405180910390f35b6101f860048036036101f39190810190611ef7565b610a83565b005b610214600480360361020f9190810190611fd1565b610b15565b005b610230600480360361022b9190810190611df4565b610b8b565b60405161023d919061264c565b60405180910390f35b610260600480360361025b9190810190611ea8565b610bc2565b005b61027c60048036036102779190810190612029565b610cd2565b6040516102899190612788565b60405180910390f35b6102ac60048036036102a79190810190612146565b610da7565b005b6102b6610e35565b6040516102c39190612749565b60405180910390f35b6102e660048036036102e191908101906121b2565b610e5b565b005b61030260048036036102fd9190810190611daf565b610f31565b60405161030f9190612667565b60405180910390f35b610332600480360361032d9190810190611df4565b611087565b60405161033f9190612727565b60405180910390f35b610362600480360361035d9190810190612242565b61113c565b005b61037e60048036036103799190810190611df4565b611267565b60405161038c9291906126bf565b60405180910390f35b6103af60048036036103aa9190810190611e1d565b6112a1565b005b6103cb60048036036103c69190810190611f82565b611374565b005b6103e760048036036103e2919081019061210a565b611486565b6040516103f49190612727565b60405180910390f35b61041760048036036104129190810190611e59565b61154d565b6040516104249190612689565b60405180910390f35b600060405161043b90612601565b60405180910390207bffffffffffffffffffffffffffffffffffffffffffffffffffffffff1916827bffffffffffffffffffffffffffffffffffffffffffffffffffffffff19161480610493575061049282611589565b5b9050919050565b846104a4816115ea565b6104ad57600080fd5b82826037600089815260200190815260200160002087876040516104d29291906125e8565b908152602001604051809103902091906104ed929190611a1c565b5084846040516104fe9291906125e8565b6040518091039020867fd8c9334b1a9c2f9da342a0a2b32629c1a229b6445dad78947f674b44444a75508787604051610538929190612764565b60405180910390a3505050505050565b600080603860008581526020019081526020016000206000847bffffffffffffffffffffffffffffffffffffffffffffffffffffffff19167bffffffffffffffffffffffffffffffffffffffffffffffffffffffff1916815260200190815260200160002060009054906101000a900473ffffffffffffffffffffffffffffffffffffffff169050600073ffffffffffffffffffffffffffffffffffffffff168173ffffffffffffffffffffffffffffffffffffffff161461060d578091505061092d565b600061061885610b8b565b9050600073ffffffffffffffffffffffffffffffffffffffff168173ffffffffffffffffffffffffffffffffffffffff16141561065a5760009250505061092d565b600060608273ffffffffffffffffffffffffffffffffffffffff166301ffc9a760e01b60405160240161068d91906126e8565b6040516020818303038152906040527f01ffc9a7000000000000000000000000000000000000000000000000000000007bffffffffffffffffffffffffffffffffffffffffffffffffffffffff19166020820180517bffffffffffffffffffffffffffffffffffffffffffffffffffffffff838183161783525050505060405161071791906125d1565b600060405180830381855afa9150503d8060008114610752576040519150601f19603f3d011682016040523d82523d6000602084013e610757565b606091505b509150915081158061076a575060208151105b806107b15750600060f81b81601f8151811061078257fe5b602001015160f81c60f81b7effffffffffffffffffffffffffffffffffffffffffffffffffffffffffffff1916145b156107c357600094505050505061092d565b8273ffffffffffffffffffffffffffffffffffffffff16866040516024016107eb91906126e8565b6040516020818303038152906040527f01ffc9a7000000000000000000000000000000000000000000000000000000007bffffffffffffffffffffffffffffffffffffffffffffffffffffffff19166020820180517bffffffffffffffffffffffffffffffffffffffffffffffffffffffff838183161783525050505060405161087591906125d1565b600060405180830381855afa9150503d80600081146108b0576040519150601f19603f3d011682016040523d82523d6000602084013e6108b5565b606091505b5080925081935050508115806108cc575060208151105b806109135750600060f81b81601f815181106108e457fe5b602001015160f81c60f81b7effffffffffffffffffffffffffffffffffffffffffffffffffffffffffffff1916145b1561092557600094505050505061092d565b829450505050505b92915050565b6000606060006035600086815260200190815260200160002090506000600190505b848111610a605760008582161415801561099557506000826000838152602001908152602001600020805460018160011615610100020316600290049050115b15610a545780826000838152602001908152602001600020808054600181600116156101000203166002900480601f016020809104026020016040519081016040528092919081815260200182805460018160011615610100020316600290048015610a425780601f10610a1757610100808354040283529160200191610a42565b820191906000526020600020905b815481529060010190602001808311610a2557829003601f168201915b50505050509050935093505050610a7c565b600181901b9050610955565b5060006040518060200160405280600081525081915092509250505b9250929050565b82610a8d816115ea565b610a9657600080fd5b604051806040016040528084815260200183815250603660008681526020019081526020016000206000820151816000015560208201518160010155905050837f1d6f5e03d3f63eb58751986629a5439baee5079ff04f345becb66e23eb154e468484604051610b079291906126bf565b60405180910390a250505050565b82610b1f816115ea565b610b2857600080fd5b8282603460008781526020019081526020016000209190610b4a929190611a9c565b50837fe379c1624ed7e714cc0937528a32359d69d5281337765313dba4e081b72d75788484604051610b7d929190612703565b60405180910390a250505050565b60006060610b9a836089611486565b9050600081511415610bb0576000915050610bbd565b610bb981611773565b9150505b919050565b80603a600085815260200190815260200160002060003373ffffffffffffffffffffffffffffffffffffffff1673ffffffffffffffffffffffffffffffffffffffff16815260200190815260200160002060008473ffffffffffffffffffffffffffffffffffffffff1673ffffffffffffffffffffffffffffffffffffffff16815260200190815260200160002060006101000a81548160ff0219169083151502179055508173ffffffffffffffffffffffffffffffffffffffff163373ffffffffffffffffffffffffffffffffffffffff16847fe1c5610a6e0cbe10764ecd182adcef1ec338dc4e199c99c32ce98f38e12791df84604051610cc59190612689565b60405180910390a4505050565b6060603760008581526020019081526020016000208383604051610cf79291906125e8565b90815260200160405180910390208054600181600116156101000203166002900480601f016020809104026020016040519081016040528092919081815260200182805460018160011615610100020316600290048015610d995780601f10610d6e57610100808354040283529160200191610d99565b820191906000526020600020905b815481529060010190602001808311610d7c57829003601f168201915b505050505090509392505050565b83610db1816115ea565b610dba57600080fd5b600084600186031614610dcc57600080fd5b82826035600088815260200190815260200160002060008781526020019081526020016000209190610dff929190611a9c565b5083857faa121bbeef5f32f5961a2a28966e769023910fc9479059ee3495d4c1a696efe360405160405180910390a35050505050565b603960009054906101000a900473ffffffffffffffffffffffffffffffffffffffff1681565b82610e65816115ea565b610e6e57600080fd5b837f65412581168e88a1e60c6459d7f44ae83ad0832e670826c05a4e2476b57af7528484604051610ea09291906127ca565b60405180910390a26089831415610ef257837f52d7d861f09ab3d26239d492e8968629f95e9e318cf0b73bfddc441522a15fd2610edc84611773565b604051610ee99190612631565b60405180910390a25b816033600086815260200190815260200160002060008581526020019081526020016000209080519060200190610f2a929190611b1c565b5050505050565b606082829050604051908082528060200260200182016040528015610f6a57816020015b6060815260200190600190039081610f555790505b50905060008090505b8383905081101561107d57600060603073ffffffffffffffffffffffffffffffffffffffff16868685818110610fa557fe5b9050602002810180356001602003833603038112610fc257600080fd5b8083019250508135905060208201915067ffffffffffffffff811115610fe757600080fd5b600181023603821315610ff957600080fd5b6040516110079291906125b8565b600060405180830381855af49150503d8060008114611042576040519150601f19603f3d011682016040523d82523d6000602084013e611047565b606091505b50915091508161105657600080fd5b8084848151811061106357fe5b602002602001018190525050508080600101915050610f73565b5080905092915050565b6060603460008381526020019081526020016000208054600181600116156101000203166002900480601f0160208091040260200160405190810160405280929190818152602001828054600181600116156101000203166002900480156111305780601f1061110557610100808354040283529160200191611130565b820191906000526020600020905b81548152906001019060200180831161111357829003601f168201915b50505050509050919050565b600060019054906101000a900460ff168061115b575061115a611796565b5b8061117257506000809054906101000a900460ff16155b6111b1576040517f08c379a00000000000000000000000000000000000000000000000000000000081526004016111a8906127aa565b60405180910390fd5b60008060019054906101000a900460ff161590508015611201576001600060016101000a81548160ff02191690831515021790555060016000806101000a81548160ff0219169083151502179055505b81603960006101000a81548173ffffffffffffffffffffffffffffffffffffffff021916908373ffffffffffffffffffffffffffffffffffffffff16021790555080156112635760008060016101000a81548160ff0219169083151502179055505b5050565b6000806036600084815260200190815260200160002060000154603660008581526020019081526020016000206001015491509150915091565b816112ab816115ea565b6112b457600080fd5b60606112bf836117ad565b9050837f65412581168e88a1e60c6459d7f44ae83ad0832e670826c05a4e2476b57af7526089836040516112f49291906127ca565b60405180910390a2837f52d7d861f09ab3d26239d492e8968629f95e9e318cf0b73bfddc441522a15fd28460405161132c9190612616565b60405180910390a28060336000868152602001908152602001600020600060898152602001908152602001600020908051906020019061136d929190611b1c565b5050505050565b8261137e816115ea565b61138757600080fd5b81603860008681526020019081526020016000206000857bffffffffffffffffffffffffffffffffffffffffffffffffffffffff19167bffffffffffffffffffffffffffffffffffffffffffffffffffffffff1916815260200190815260200160002060006101000a81548173ffffffffffffffffffffffffffffffffffffffff021916908373ffffffffffffffffffffffffffffffffffffffff160217905550827bffffffffffffffffffffffffffffffffffffffffffffffffffffffff1916847f7c69f06bea0bdef565b709e93a147836b0063ba2dd89f02d0b7e8d931e6a6daa846040516114789190612616565b60405180910390a350505050565b60606033600084815260200190815260200160002060008381526020019081526020016000208054600181600116156101000203166002900480601f0160208091040260200160405190810160405280929190818152602001828054600181600116156101000203166002900480156115405780601f1061151557610100808354040283529160200191611540565b820191906000526020600020905b81548152906001019060200180831161152357829003601f168201915b5050505050905092915050565b603a602052826000526040600020602052816000526040600020602052806000526040600020600092509250509054906101000a900460ff1681565b60006359d1d43c60e01b7bffffffffffffffffffffffffffffffffffffffffffffffffffffffff1916827bffffffffffffffffffffffffffffffffffffffffffffffffffffffff191614806115e357506115e2826117f8565b5b9050919050565b600080603960009054906101000a900473ffffffffffffffffffffffffffffffffffffffff1673ffffffffffffffffffffffffffffffffffffffff166302571be3846040518263ffffffff1660e01b815260040161164891906126a4565b60206040518083038186803b15801561166057600080fd5b505afa158015611674573d6000803e3d6000fd5b505050506040513d601f19601f820116820180604052506116989190810190611d86565b90503373ffffffffffffffffffffffffffffffffffffffff168173ffffffffffffffffffffffffffffffffffffffff16148061176b5750603a600084815260200190815260200160002060008273ffffffffffffffffffffffffffffffffffffffff1673ffffffffffffffffffffffffffffffffffffffff16815260200190815260200160002060003373ffffffffffffffffffffffffffffffffffffffff1673ffffffffffffffffffffffffffffffffffffffff16815260200190815260200160002060009054906101000a900460ff165b915050919050565b6000601482511461178357600080fd5b600c6101000a6020830151049050919050565b6000803090506000813b9050600081149250505090565b606060146040519080825280601f01601f1916602001820160405280156117e35781602001600182028038833980820191505090505b509050600c6101000a82026020820152919050565b600063c869023360e01b7bffffffffffffffffffffffffffffffffffffffffffffffffffffffff1916827bffffffffffffffffffffffffffffffffffffffffffffffffffffffff19161480611852575061185182611859565b5b9050919050565b6000632203ab5660e01b7bffffffffffffffffffffffffffffffffffffffffffffffffffffffff1916827bffffffffffffffffffffffffffffffffffffffffffffffffffffffff191614806118b357506118b2826118ba565b5b9050919050565b600063bc1c58d160e01b7bffffffffffffffffffffffffffffffffffffffffffffffffffffffff1916827bffffffffffffffffffffffffffffffffffffffffffffffffffffffff1916148061191457506119138261191b565b5b9050919050565b6000633b3b57de60e01b7bffffffffffffffffffffffffffffffffffffffffffffffffffffffff1916827bffffffffffffffffffffffffffffffffffffffffffffffffffffffff191614806119b4575063f1cb7e0660e01b7bffffffffffffffffffffffffffffffffffffffffffffffffffffffff1916827bffffffffffffffffffffffffffffffffffffffffffffffffffffffff1916145b806119c457506119c3826119cb565b5b9050919050565b60006301ffc9a760e01b7bffffffffffffffffffffffffffffffffffffffffffffffffffffffff1916827bffffffffffffffffffffffffffffffffffffffffffffffffffffffff1916149050919050565b828054600181600116156101000203166002900490600052602060002090601f016020900481019282601f10611a5d57803560ff1916838001178555611a8b565b82800160010185558215611a8b579182015b82811115611a8a578235825591602001919060010190611a6f565b5b509050611a989190611b9c565b5090565b828054600181600116156101000203166002900490600052602060002090601f016020900481019282601f10611add57803560ff1916838001178555611b0b565b82800160010185558215611b0b579182015b82811115611b0a578235825591602001919060010190611aef565b5b509050611b189190611b9c565b5090565b828054600181600116156101000203166002900490600052602060002090601f016020900481019282601f10611b5d57805160ff1916838001178555611b8b565b82800160010185558215611b8b579182015b82811115611b8a578251825591602001919060010190611b6f565b5b509050611b989190611b9c565b5090565b611bbe91905b80821115611bba576000816000905550600101611ba2565b5090565b90565b600081359050611bd081612a45565b92915050565b600081519050611be581612a45565b92915050565b60008083601f840112611bfd57600080fd5b8235905067ffffffffffffffff811115611c1657600080fd5b602083019150836020820283011115611c2e57600080fd5b9250929050565b600081359050611c4481612a5c565b92915050565b600081359050611c5981612a73565b92915050565b600081359050611c6e81612a8a565b92915050565b60008083601f840112611c8657600080fd5b8235905067ffffffffffffffff811115611c9f57600080fd5b602083019150836001820283011115611cb757600080fd5b9250929050565b600082601f830112611ccf57600080fd5b8135611ce2611cdd82612827565b6127fa565b91508082526020830160208301858383011115611cfe57600080fd5b611d098382846129f2565b50505092915050565b600081359050611d2181612aa1565b92915050565b60008083601f840112611d3957600080fd5b8235905067ffffffffffffffff811115611d5257600080fd5b602083019150836001820283011115611d6a57600080fd5b9250929050565b600081359050611d8081612ab8565b92915050565b600060208284031215611d9857600080fd5b6000611da684828501611bd6565b91505092915050565b60008060208385031215611dc257600080fd5b600083013567ffffffffffffffff811115611ddc57600080fd5b611de885828601611beb565b92509250509250929050565b600060208284031215611e0657600080fd5b6000611e1484828501611c4a565b91505092915050565b60008060408385031215611e3057600080fd5b6000611e3e85828601611c4a565b9250506020611e4f85828601611bc1565b9150509250929050565b600080600060608486031215611e6e57600080fd5b6000611e7c86828701611c4a565b9350506020611e8d86828701611bc1565b9250506040611e9e86828701611bc1565b9150509250925092565b600080600060608486031215611ebd57600080fd5b6000611ecb86828701611c4a565b9350506020611edc86828701611bc1565b9250506040611eed86828701611c35565b9150509250925092565b600080600060608486031215611f0c57600080fd5b6000611f1a86828701611c4a565b9350506020611f2b86828701611c4a565b9250506040611f3c86828701611c4a565b9150509250925092565b60008060408385031215611f5957600080fd5b6000611f6785828601611c4a565b9250506020611f7885828601611c5f565b9150509250929050565b600080600060608486031215611f9757600080fd5b6000611fa586828701611c4a565b9350506020611fb686828701611c5f565b9250506040611fc786828701611bc1565b9150509250925092565b600080600060408486031215611fe657600080fd5b6000611ff486828701611c4a565b935050602084013567ffffffffffffffff81111561201157600080fd5b61201d86828701611c74565b92509250509250925092565b60008060006040848603121561203e57600080fd5b600061204c86828701611c4a565b935050602084013567ffffffffffffffff81111561206957600080fd5b61207586828701611d27565b92509250509250925092565b60008060008060006060868803121561209957600080fd5b60006120a788828901611c4a565b955050602086013567ffffffffffffffff8111156120c457600080fd5b6120d088828901611d27565b9450945050604086013567ffffffffffffffff8111156120ef57600080fd5b6120fb88828901611d27565b92509250509295509295909350565b6000806040838503121561211d57600080fd5b600061212b85828601611c4a565b925050602061213c85828601611d71565b9150509250929050565b6000806000806060858703121561215c57600080fd5b600061216a87828801611c4a565b945050602061217b87828801611d71565b935050604085013567ffffffffffffffff81111561219857600080fd5b6121a487828801611c74565b925092505092959194509250565b6000806000606084860312156121c757600080fd5b60006121d586828701611c4a565b93505060206121e686828701611d71565b925050604084013567ffffffffffffffff81111561220357600080fd5b61220f86828701611cbe565b9150509250925092565b60006020828403121561222b57600080fd5b600061223984828501611c5f565b91505092915050565b60006020828403121561225457600080fd5b600061226284828501611d12565b91505092915050565b6000612277838361240a565b905092915050565b61228881612998565b82525050565b61229781612908565b82525050565b6122a6816128f6565b82525050565b60006122b782612863565b6122c1818561289c565b9350836020820285016122d385612853565b8060005b8581101561230f57848403895281516122f0858261226b565b94506122fb8361288f565b925060208a019950506001810190506122d7565b50829750879550505050505092915050565b61232a8161291a565b82525050565b61233981612926565b82525050565b61234881612930565b82525050565b600061235a83856128be565b93506123678385846129f2565b61237083612a34565b840190509392505050565b600061238783856128cf565b93506123948385846129f2565b82840190509392505050565b60006123ab82612879565b6123b581856128be565b93506123c5818560208601612a01565b6123ce81612a34565b840191505092915050565b60006123e482612879565b6123ee81856128cf565b93506123fe818560208601612a01565b80840191505092915050565b60006124158261286e565b61241f81856128ad565b935061242f818560208601612a01565b61243881612a34565b840191505092915050565b61244c816129aa565b82525050565b600061245e83856128da565b935061246b8385846129f2565b61247483612a34565b840190509392505050565b600061248b83856128eb565b93506124988385846129f2565b82840190509392505050565b60006124af82612884565b6124b981856128da565b93506124c9818560208601612a01565b6124d281612a34565b840191505092915050565b60006124ea6024836128eb565b91507f696e74657266616365496d706c656d656e74657228627974657333322c62797460008301527f65733429000000000000000000000000000000000000000000000000000000006020830152602482019050919050565b6000612550602e836128da565b91507f436f6e747261637420696e7374616e63652068617320616c726561647920626560008301527f656e20696e697469616c697a65640000000000000000000000000000000000006020830152604082019050919050565b6125b28161298e565b82525050565b60006125c582848661237b565b91508190509392505050565b60006125dd82846123d9565b915081905092915050565b60006125f582848661247f565b91508190509392505050565b600061260c826124dd565b9150819050919050565b600060208201905061262b600083018461229d565b92915050565b6000602082019050612646600083018461227f565b92915050565b6000602082019050612661600083018461228e565b92915050565b6000602082019050818103600083015261268181846122ac565b905092915050565b600060208201905061269e6000830184612321565b92915050565b60006020820190506126b96000830184612330565b92915050565b60006040820190506126d46000830185612330565b6126e16020830184612330565b9392505050565b60006020820190506126fd600083018461233f565b92915050565b6000602082019050818103600083015261271e81848661234e565b90509392505050565b6000602082019050818103600083015261274181846123a0565b905092915050565b600060208201905061275e6000830184612443565b92915050565b6000602082019050818103600083015261277f818486612452565b90509392505050565b600060208201905081810360008301526127a281846124a4565b905092915050565b600060208201905081810360008301526127c381612543565b9050919050565b60006040820190506127df60008301856125a9565b81810360208301526127f181846123a0565b90509392505050565b6000604051905081810181811067ffffffffffffffff8211171561281d57600080fd5b8060405250919050565b600067ffffffffffffffff82111561283e57600080fd5b601f19601f8301169050602081019050919050565b6000819050602082019050919050565b600081519050919050565b600081519050919050565b600081519050919050565b600081519050919050565b6000602082019050919050565b600082825260208201905092915050565b600082825260208201905092915050565b600082825260208201905092915050565b600081905092915050565b600082825260208201905092915050565b600081905092915050565b60006129018261296e565b9050919050565b60006129138261296e565b9050919050565b60008115159050919050565b6000819050919050565b60007fffffffff0000000000000000000000000000000000000000000000000000000082169050919050565b6000612967826128f6565b9050919050565b600073ffffffffffffffffffffffffffffffffffffffff82169050919050565b6000819050919050565b60006129a3826129ce565b9050919050565b60006129b5826129bc565b9050919050565b60006129c78261296e565b9050919050565b60006129d9826129e0565b9050919050565b60006129eb8261296e565b9050919050565b82818337600083830152505050565b60005b83811015612a1f578082015181840152602081019050612a04565b83811115612a2e576000848401525b50505050565b6000601f19601f8301169050919050565b612a4e816128f6565b8114612a5957600080fd5b50565b612a658161291a565b8114612a7057600080fd5b50565b612a7c81612926565b8114612a8757600080fd5b50565b612a9381612930565b8114612a9e57600080fd5b50565b612aaa8161295c565b8114612ab557600080fd5b50565b612ac18161298e565b8114612acc57600080fd5b5056fea365627a7a72315820aa74d01ff956d35d4b6a8582869a1dab5f038f463851920f4c5e1fbbe20764c76c6578706572696d656e74616cf564736f6c63430005100040",
  "source": "pragma solidity ^0.5.0;\npragma experimental ABIEncoderV2;\n\nimport \"@rsksmart/rns-registry/contracts/AbstractRNS.sol\";\nimport \"@openzeppelin/upgrades/contracts/Initializable.sol\";\nimport \"./RSKAddrResolver.sol\";\nimport \"@ensdomains/resolver/contracts/profiles/ContentHashResolver.sol\";\nimport \"@ensdomains/resolver/contracts/profiles/ABIResolver.sol\";\nimport \"@ensdomains/resolver/contracts/profiles/PubkeyResolver.sol\";\nimport \"@ensdomains/resolver/contracts/profiles/TextResolver.sol\";\nimport \"@ensdomains/resolver/contracts/profiles/InterfaceResolver.sol\";\n\n/**\n * @title ResolverV1\n * @dev A public resolver implementation. This implementation can\n * be as an openzeppelin/upgrades v2.8 proxy contract implementation.\n * Source: https://github.com/ensdomains/resolvers/blob/9c3ed5377501d77738089c81c2a0b141878048f9/contracts/PublicResolver.sol\n */\ncontract ResolverV1 is Initializable, RSKAddrResolver, ContentHashResolver, ABIResolver, PubkeyResolver, TextResolver, InterfaceResolver {\n    AbstractRNS public rns;\n\n    /**\n     * A mapping of authorisations. An address that is authorised for a name\n     * may make any changes to the name that the owner could, but may not update\n     * the set of authorisations.\n     * (node, owner, caller) => isAuthorised\n     */\n    mapping(bytes32=>mapping(address=>mapping(address=>bool))) public authorisations;\n\n    event AuthorisationChanged(bytes32 indexed node, address indexed owner, address indexed target, bool isAuthorised);\n\n    /**\n     * @notice Initializes the contract.\n     * @dev Replace the usage of a constructor.\n     * @param _rns the RNS Registry address.\n     */\n    function initialize(AbstractRNS _rns) initializer external {\n        rns = _rns;\n    }\n\n    /**\n     * @dev Sets or clears an authorisation.\n     * Authorisations are specific to the caller. Any account can set an authorisation\n     * for any name, but the authorisation that is checked will be that of the\n     * current owner of a name. Thus, transferring a name effectively clears any\n     * existing authorisations, and new authorisations can be set in advance of\n     * an ownership transfer if desired.\n     *\n     * @param node The name to change the authorisation on.\n     * @param target The address that is to be authorised or deauthorised.\n     * @param isAuthorised True if the address should be authorised, or false if it should be deauthorised.\n     */\n    function setAuthorisation(bytes32 node, address target, bool isAuthorised) external {\n        authorisations[node][msg.sender][target] = isAuthorised;\n        emit AuthorisationChanged(node, msg.sender, target, isAuthorised);\n    }\n\n    function isAuthorised(bytes32 node) internal view returns(bool) {\n        address owner = rns.owner(node);\n        return owner == msg.sender || authorisations[node][owner][msg.sender];\n    }\n\n    function multicall(bytes[] calldata data) external returns(bytes[] memory results) {\n        results = new bytes[](data.length);\n        for(uint i = 0; i < data.length; i++) {\n            (bool success, bytes memory result) = address(this).delegatecall(data[i]);\n            require(success);\n            results[i] = result;\n        }\n        return results;\n    }\n}\n",
  "sourcePath": "/Users/sergiojara/Developer/iov/rns-resolver/contracts/ResolverV1.sol",
  "compiler": {
    "name": "solc",
    "version": "0.5.16+commit.9c3226ce.Emscripten.clang"
  },
  "schemaVersion": "3.0.21",
  "updatedAt": "2022-11-15T23:52:13.376Z",
  "devdoc": {
    "details": "A public resolver implementation. This implementation can be as an openzeppelin/upgrades v2.8 proxy contract implementation. Source: https://github.com/ensdomains/resolvers/blob/9c3ed5377501d77738089c81c2a0b141878048f9/contracts/PublicResolver.sol",
    "methods": {
      "ABI(bytes32,uint256)": {
        "params": {
          "contentTypes": "A bitwise OR of the ABI formats accepted by the caller.",
          "node": "The ENS node to query"
        },
        "return": "contentType The content type of the return valuedata The ABI data"
      },
      "addr(bytes32)": {
        "params": {
          "node": "The RNS node to query."
        },
        "return": "The associated address."
      },
      "contenthash(bytes32)": {
        "params": {
          "node": "The ENS node to query."
        },
        "return": "The associated contenthash."
      },
      "initialize(address)": {
        "details": "Replace the usage of a constructor.",
        "params": {
          "_rns": "the RNS Registry address."
        }
      },
      "interfaceImplementer(bytes32,bytes4)": {
        "params": {
          "interfaceID": "The EIP 168 interface ID to check for.",
          "node": "The ENS node to query."
        },
        "return": "The address that implements this interface, or 0 if the interface is unsupported."
      },
      "pubkey(bytes32)": {
        "params": {
          "node": "The ENS node to query"
        },
        "return": "x, y the X and Y coordinates of the curve point for the public key."
      },
      "setABI(bytes32,uint256,bytes)": {
        "params": {
          "contentType": "The content type of the ABI",
          "data": "The ABI data.",
          "node": "The node to update."
        }
      },
      "setAddr(bytes32,address)": {
        "params": {
          "a": "The address to set.",
          "node": "The node to update."
        }
      },
      "setAddr(bytes32,uint256,bytes)": {
        "params": {
          "a": "The address to set.",
          "coinType": "slip0044 coin type.",
          "node": "The node to update."
        }
      },
      "setAuthorisation(bytes32,address,bool)": {
        "details": "Sets or clears an authorisation. Authorisations are specific to the caller. Any account can set an authorisation for any name, but the authorisation that is checked will be that of the current owner of a name. Thus, transferring a name effectively clears any existing authorisations, and new authorisations can be set in advance of an ownership transfer if desired.",
        "params": {
          "isAuthorised": "True if the address should be authorised, or false if it should be deauthorised.",
          "node": "The name to change the authorisation on.",
          "target": "The address that is to be authorised or deauthorised."
        }
      },
      "setContenthash(bytes32,bytes)": {
        "params": {
          "hash": "The contenthash to set",
          "node": "The node to update."
        }
      },
      "setInterface(bytes32,bytes4,address)": {
        "params": {
          "implementer": "The address of a contract that implements this interface for this node.",
          "interfaceID": "The EIP 168 interface ID.",
          "node": "The node to update."
        }
      },
      "setPubkey(bytes32,bytes32,bytes32)": {
        "params": {
          "node": "The ENS node to query",
          "x": "the X coordinate of the curve point for the public key.",
          "y": "the Y coordinate of the curve point for the public key."
        }
      },
      "setText(bytes32,string,string)": {
        "params": {
          "key": "The key to set.",
          "node": "The node to update.",
          "value": "The text data value to set."
        }
      },
      "text(bytes32,string)": {
        "params": {
          "key": "The text data key to query.",
          "node": "The ENS node to query."
        },
        "return": "The associated text data."
      }
    },
    "title": "ResolverV1"
  },
  "userdoc": {
    "methods": {
      "ABI(bytes32,uint256)": {
        "notice": "Returns the ABI associated with an ENS node. Defined in EIP205."
      },
      "addr(bytes32)": {
        "notice": "Returns the address associated with an RNS node."
      },
      "contenthash(bytes32)": {
        "notice": "Returns the contenthash associated with an ENS node."
      },
      "initialize(address)": {
        "notice": "Initializes the contract."
      },
      "interfaceImplementer(bytes32,bytes4)": {
        "notice": "Returns the address of a contract that implements the specified interface for this name. If an implementer has not been set for this interfaceID and name, the resolver will query the contract at `addr()`. If `addr()` is set, a contract exists at that address, and that contract implements EIP168 and returns `true` for the specified interfaceID, its address will be returned."
      },
      "pubkey(bytes32)": {
        "notice": "Returns the SECP256k1 public key associated with an ENS node. Defined in EIP 619."
      },
      "setABI(bytes32,uint256,bytes)": {
        "notice": "Sets the ABI associated with an ENS node. Nodes may have one ABI of each content type. To remove an ABI, set it to the empty string."
      },
      "setAddr(bytes32,address)": {
        "notice": "Sets the address associated with an RNS node."
      },
      "setAddr(bytes32,uint256,bytes)": {
        "notice": "Sets the coin address associated with an RNS node ."
      },
      "setContenthash(bytes32,bytes)": {
        "notice": "Sets the contenthash associated with an ENS node. May only be called by the owner of that node in the ENS registry."
      },
      "setInterface(bytes32,bytes4,address)": {
        "notice": "Sets an interface associated with a name. Setting the address to 0 restores the default behaviour of querying the contract at `addr()` for interface support."
      },
      "setPubkey(bytes32,bytes32,bytes32)": {
        "notice": "Sets the SECP256k1 public key associated with an ENS node."
      },
      "setText(bytes32,string,string)": {
        "notice": "Sets the text data associated with an ENS node and key. May only be called by the owner of that node in the ENS registry."
      },
      "text(bytes32,string)": {
        "notice": "Returns the text data associated with an ENS node and key."
      }
    }
  }
}