{
  "contractName": "ReverseSetup",
  "abi": [
    {
      "inputs": [
        {
          "internalType": "contract AbstractRNS",
          "name": "_rns",
          "type": "address"
        },
        {
          "internalType": "address",
          "name": "_nameResolver",
          "type": "address"
        },
        {
          "internalType": "address",
          "name": "_reverseRegistrar",
          "type": "address"
        },
        {
          "internalType": "address payable",
          "name": "_reverseOwner",
          "type": "address"
        }
      ],
      "payable": false,
      "stateMutability": "nonpayable",
      "type": "constructor"
    },
    {
      "constant": false,
      "inputs": [],
      "name": "run",
      "outputs": [],
      "payable": false,
      "stateMutability": "nonpayable",
      "type": "function"
    }
  ],
  "bytecode": "0x608060405234801561001057600080fd5b50604051610b76380380610b768339818101604052608081101561003357600080fd5b8101908080519060200190929190805190602001909291908051906020019092919080519060200190929190505050836000806101000a81548173ffffffffffffffffffffffffffffffffffffffff021916908373ffffffffffffffffffffffffffffffffffffffff16021790555082600160006101000a81548173ffffffffffffffffffffffffffffffffffffffff021916908373ffffffffffffffffffffffffffffffffffffffff16021790555081600260006101000a81548173ffffffffffffffffffffffffffffffffffffffff021916908373ffffffffffffffffffffffffffffffffffffffff16021790555080600360006101000a81548173ffffffffffffffffffffffffffffffffffffffff021916908373ffffffffffffffffffffffffffffffffffffffff160217905550505050506109fe806101786000396000f3fe608060405234801561001057600080fd5b506004361061002b5760003560e01c8063c040622614610030575b600080fd5b61003861003a565b005b3073ffffffffffffffffffffffffffffffffffffffff166000809054906101000a900473ffffffffffffffffffffffffffffffffffffffff1673ffffffffffffffffffffffffffffffffffffffff166302571be37fa097f6721ce401e757d1223a763fef49b8b5f90bb18567ddb86fd205dff71d3460001b6040518263ffffffff1660e01b81526004018082815260200191505060206040518083038186803b1580156100e657600080fd5b505afa1580156100fa573d6000803e3d6000fd5b505050506040513d602081101561011057600080fd5b810190808051906020019092919050505073ffffffffffffffffffffffffffffffffffffffff16146101aa576040517f08c379a00000000000000000000000000000000000000000000000000000000081526004018080602001828103825260118152602001807f4e6f742072657665727365206f776e657200000000000000000000000000000081525060200191505060405180910390fd5b6000809054906101000a900473ffffffffffffffffffffffffffffffffffffffff1673ffffffffffffffffffffffffffffffffffffffff16631896f70a7fa097f6721ce401e757d1223a763fef49b8b5f90bb18567ddb86fd205dff71d3460001b600160009054906101000a900473ffffffffffffffffffffffffffffffffffffffff166040518363ffffffff1660e01b8152600401808381526020018273ffffffffffffffffffffffffffffffffffffffff1673ffffffffffffffffffffffffffffffffffffffff16815260200192505050600060405180830381600087803b15801561029757600080fd5b505af11580156102ab573d6000803e3d6000fd5b505050506000809054906101000a900473ffffffffffffffffffffffffffffffffffffffff1673ffffffffffffffffffffffffffffffffffffffff166306ab59237fa097f6721ce401e757d1223a763fef49b8b5f90bb18567ddb86fd205dff71d3460001b60405180807f616464720000000000000000000000000000000000000000000000000000000081525060040190506040518091039020600260009054906101000a900473ffffffffffffffffffffffffffffffffffffffff166040518463ffffffff1660e01b8152600401808481526020018381526020018273ffffffffffffffffffffffffffffffffffffffff1673ffffffffffffffffffffffffffffffffffffffff1681526020019350505050600060405180830381600087803b1580156103d957600080fd5b505af11580156103ed573d6000803e3d6000fd5b505050506000809054906101000a900473ffffffffffffffffffffffffffffffffffffffff1673ffffffffffffffffffffffffffffffffffffffff16635b0fc9c37fa097f6721ce401e757d1223a763fef49b8b5f90bb18567ddb86fd205dff71d3460001b600360009054906101000a900473ffffffffffffffffffffffffffffffffffffffff166040518363ffffffff1660e01b8152600401808381526020018273ffffffffffffffffffffffffffffffffffffffff1673ffffffffffffffffffffffffffffffffffffffff16815260200192505050600060405180830381600087803b1580156104de57600080fd5b505af11580156104f2573d6000803e3d6000fd5b50505050600360009054906101000a900473ffffffffffffffffffffffffffffffffffffffff1673ffffffffffffffffffffffffffffffffffffffff166000809054906101000a900473ffffffffffffffffffffffffffffffffffffffff1673ffffffffffffffffffffffffffffffffffffffff166302571be37fa097f6721ce401e757d1223a763fef49b8b5f90bb18567ddb86fd205dff71d3460001b6040518263ffffffff1660e01b81526004018082815260200191505060206040518083038186803b1580156105c457600080fd5b505afa1580156105d8573d6000803e3d6000fd5b505050506040513d60208110156105ee57600080fd5b810190808051906020019092919050505073ffffffffffffffffffffffffffffffffffffffff161461061c57fe5b600260009054906101000a900473ffffffffffffffffffffffffffffffffffffffff1673ffffffffffffffffffffffffffffffffffffffff166000809054906101000a900473ffffffffffffffffffffffffffffffffffffffff1673ffffffffffffffffffffffffffffffffffffffff166302571be37f91d1777781884d03a6757a803996e38de2a42967fb37eeaca72729271025a9e260001b6040518263ffffffff1660e01b81526004018082815260200191505060206040518083038186803b1580156106ea57600080fd5b505afa1580156106fe573d6000803e3d6000fd5b505050506040513d602081101561071457600080fd5b810190808051906020019092919050505073ffffffffffffffffffffffffffffffffffffffff161461074257fe5b600160009054906101000a900473ffffffffffffffffffffffffffffffffffffffff1673ffffffffffffffffffffffffffffffffffffffff166000809054906101000a900473ffffffffffffffffffffffffffffffffffffffff1673ffffffffffffffffffffffffffffffffffffffff16630178b8bf7fa097f6721ce401e757d1223a763fef49b8b5f90bb18567ddb86fd205dff71d3460001b6040518263ffffffff1660e01b81526004018082815260200191505060206040518083038186803b15801561081057600080fd5b505afa158015610824573d6000803e3d6000fd5b505050506040513d602081101561083a57600080fd5b810190808051906020019092919050505073ffffffffffffffffffffffffffffffffffffffff161461086857fe5b600160009054906101000a900473ffffffffffffffffffffffffffffffffffffffff1673ffffffffffffffffffffffffffffffffffffffff166000809054906101000a900473ffffffffffffffffffffffffffffffffffffffff1673ffffffffffffffffffffffffffffffffffffffff16630178b8bf7f91d1777781884d03a6757a803996e38de2a42967fb37eeaca72729271025a9e260001b6040518263ffffffff1660e01b81526004018082815260200191505060206040518083038186803b15801561093657600080fd5b505afa15801561094a573d6000803e3d6000fd5b505050506040513d602081101561096057600080fd5b810190808051906020019092919050505073ffffffffffffffffffffffffffffffffffffffff161461098e57fe5b600360009054906101000a900473ffffffffffffffffffffffffffffffffffffffff1673ffffffffffffffffffffffffffffffffffffffff16fffea265627a7a72315820c64e90e779fcb4f58ed05c657548583fd99f1a539235fa8b38683fc4f9b6319664736f6c63430005100032",
  "source": "pragma solidity ^0.5.3;\n\nimport \"@rsksmart/rns-registry/contracts/AbstractRNS.sol\";\n\ncontract ReverseSetup {\n    AbstractRNS rns;\n    address nameResolver;\n    address reverseRegistrar;\n    address payable reverseOwner;\n\n    bytes32 constant REVERSE = 0xa097f6721ce401e757d1223a763fef49b8b5f90bb18567ddb86fd205dff71d34;\n    bytes32 constant ADDR_REVERSE = 0x91d1777781884d03a6757a803996e38de2a42967fb37eeaca72729271025a9e2;\n\n    constructor (\n        AbstractRNS _rns,\n        address _nameResolver,\n        address _reverseRegistrar,\n        address payable _reverseOwner\n    ) public {\n        rns = _rns;\n        nameResolver = _nameResolver;\n        reverseRegistrar = _reverseRegistrar;\n        reverseOwner = _reverseOwner;\n    }\n\n   function run() external {\n        require(rns.owner(REVERSE) == address(this), \"Not reverse owner\");\n\n        // run\n        rns.setResolver(REVERSE, nameResolver);\n        rns.setSubnodeOwner(REVERSE, keccak256('addr'), reverseRegistrar);\n        rns.setOwner(REVERSE, reverseOwner);\n\n        // assert\n        assert(rns.owner(REVERSE) == reverseOwner);\n        assert(rns.owner(ADDR_REVERSE) == reverseRegistrar);\n        assert(rns.resolver(REVERSE) == nameResolver);\n        assert(rns.resolver(ADDR_REVERSE) == nameResolver);\n\n        // self destruct\n        selfdestruct(reverseOwner);\n   }\n}\n",
  "sourcePath": "@rsksmart/rns-reverse/contracts/ReverseSetup.sol",
  "compiler": {
    "name": "solc",
    "version": "0.5.16+commit.9c3226ce.Emscripten.clang"
  },
  "schemaVersion": "3.0.23",
  "updatedAt": "2022-12-06T16:34:39.146Z",
  "devdoc": {
    "methods": {}
  },
  "userdoc": {
    "methods": {}
  }
}