{
  "contractName": "ReverseRegistrar",
  "abi": [
    {
      "inputs": [
        {
          "internalType": "contract AbstractRNS",
          "name": "rnsAddr",
          "type": "address"
        }
      ],
      "payable": false,
      "stateMutability": "nonpayable",
      "type": "constructor"
    },
    {
      "anonymous": false,
      "inputs": [
        {
          "indexed": true,
          "internalType": "address",
          "name": "previousOwner",
          "type": "address"
        },
        {
          "indexed": true,
          "internalType": "address",
          "name": "newOwner",
          "type": "address"
        }
      ],
      "name": "OwnershipTransferred",
      "type": "event"
    },
    {
      "constant": true,
      "inputs": [],
      "name": "ADDR_REVERSE_NODE",
      "outputs": [
        {
          "internalType": "bytes32",
          "name": "",
          "type": "bytes32"
        }
      ],
      "payable": false,
      "stateMutability": "view",
      "type": "function"
    },
    {
      "constant": true,
      "inputs": [],
      "name": "isOwner",
      "outputs": [
        {
          "internalType": "bool",
          "name": "",
          "type": "bool"
        }
      ],
      "payable": false,
      "stateMutability": "view",
      "type": "function"
    },
    {
      "constant": true,
      "inputs": [],
      "name": "owner",
      "outputs": [
        {
          "internalType": "address",
          "name": "",
          "type": "address"
        }
      ],
      "payable": false,
      "stateMutability": "view",
      "type": "function"
    },
    {
      "constant": false,
      "inputs": [],
      "name": "renounceOwnership",
      "outputs": [],
      "payable": false,
      "stateMutability": "nonpayable",
      "type": "function"
    },
    {
      "constant": true,
      "inputs": [],
      "name": "rns",
      "outputs": [
        {
          "internalType": "contract AbstractRNS",
          "name": "",
          "type": "address"
        }
      ],
      "payable": false,
      "stateMutability": "view",
      "type": "function"
    },
    {
      "constant": false,
      "inputs": [
        {
          "internalType": "address",
          "name": "newOwner",
          "type": "address"
        }
      ],
      "name": "transferOwnership",
      "outputs": [],
      "payable": false,
      "stateMutability": "nonpayable",
      "type": "function"
    },
    {
      "constant": false,
      "inputs": [
        {
          "internalType": "string",
          "name": "name",
          "type": "string"
        }
      ],
      "name": "setName",
      "outputs": [
        {
          "internalType": "bytes32",
          "name": "_node",
          "type": "bytes32"
        }
      ],
      "payable": false,
      "stateMutability": "nonpayable",
      "type": "function"
    },
    {
      "constant": false,
      "inputs": [
        {
          "internalType": "address",
          "name": "recordOwner",
          "type": "address"
        }
      ],
      "name": "claim",
      "outputs": [
        {
          "internalType": "bytes32",
          "name": "",
          "type": "bytes32"
        }
      ],
      "payable": false,
      "stateMutability": "nonpayable",
      "type": "function"
    },
    {
      "constant": false,
      "inputs": [
        {
          "internalType": "address",
          "name": "recordOwner",
          "type": "address"
        },
        {
          "internalType": "address",
          "name": "resolver",
          "type": "address"
        }
      ],
      "name": "claimWithResolver",
      "outputs": [
        {
          "internalType": "bytes32",
          "name": "_node",
          "type": "bytes32"
        }
      ],
      "payable": false,
      "stateMutability": "nonpayable",
      "type": "function"
    },
    {
      "constant": true,
      "inputs": [
        {
          "internalType": "address",
          "name": "addr",
          "type": "address"
        }
      ],
      "name": "node",
      "outputs": [
        {
          "internalType": "bytes32",
          "name": "",
          "type": "bytes32"
        }
      ],
      "payable": false,
      "stateMutability": "pure",
      "type": "function"
    },
    {
      "constant": false,
      "inputs": [
        {
          "internalType": "address",
          "name": "addr",
          "type": "address"
        },
        {
          "internalType": "string",
          "name": "label",
          "type": "string"
        }
      ],
      "name": "rskClaim",
      "outputs": [],
      "payable": false,
      "stateMutability": "nonpayable",
      "type": "function"
    },
    {
      "constant": false,
      "inputs": [
        {
          "internalType": "address",
          "name": "registrar",
          "type": "address"
        }
      ],
      "name": "addRskRegistrar",
      "outputs": [],
      "payable": false,
      "stateMutability": "nonpayable",
      "type": "function"
    },
    {
      "constant": true,
      "inputs": [
        {
          "internalType": "address",
          "name": "registrar",
          "type": "address"
        }
      ],
      "name": "isRskRegistrar",
      "outputs": [
        {
          "internalType": "bool",
          "name": "",
          "type": "bool"
        }
      ],
      "payable": false,
      "stateMutability": "view",
      "type": "function"
    },
    {
      "constant": false,
      "inputs": [
        {
          "internalType": "address",
          "name": "registrar",
          "type": "address"
        }
      ],
      "name": "removeRskRegistrar",
      "outputs": [],
      "payable": false,
      "stateMutability": "nonpayable",
      "type": "function"
    }
  ],
  "bytecode": "0x608060405234801561001057600080fd5b50604051611b76380380611b768339818101604052602081101561003357600080fd5b8101908080519060200190929190505050600061005461013960201b60201c565b9050806000806101000a81548173ffffffffffffffffffffffffffffffffffffffff021916908373ffffffffffffffffffffffffffffffffffffffff1602179055508073ffffffffffffffffffffffffffffffffffffffff16600073ffffffffffffffffffffffffffffffffffffffff167f8be0079c531659141344cd1fd0a4f28419497f9722a3daafe3b4186f6b6457e060405160405180910390a35080600160006101000a81548173ffffffffffffffffffffffffffffffffffffffff021916908373ffffffffffffffffffffffffffffffffffffffff16021790555050610141565b600033905090565b611a26806101506000396000f3fe608060405234801561001057600080fd5b50600436106100ea5760003560e01c80637cf8a2eb1161008c578063a8fe64be11610066578063a8fe64be146103d6578063bffbe61c1461041a578063c47f002714610472578063f2fde38b146104ff576100ea565b80637cf8a2eb1461034c5780638da5cb5b1461036a5780638f32d59b146103b4576100ea565b80632638e256116100c85780632638e2561461021b5780634f347ec7146102b4578063663b44c5146102f8578063715018a614610342576100ea565b80630f5a5466146100ef5780631e524f16146101675780631e83409a146101c3575b600080fd5b6101516004803603604081101561010557600080fd5b81019080803573ffffffffffffffffffffffffffffffffffffffff169060200190929190803573ffffffffffffffffffffffffffffffffffffffff169060200190929190505050610543565b6040518082815260200191505060405180910390f35b6101a96004803603602081101561017d57600080fd5b81019080803573ffffffffffffffffffffffffffffffffffffffff169060200190929190505050610a6e565b604051808215151515815260200191505060405180910390f35b610205600480360360208110156101d957600080fd5b81019080803573ffffffffffffffffffffffffffffffffffffffff169060200190929190505050610a8b565b6040518082815260200191505060405180910390f35b6102b26004803603604081101561023157600080fd5b81019080803573ffffffffffffffffffffffffffffffffffffffff1690602001909291908035906020019064010000000081111561026e57600080fd5b82018360208201111561028057600080fd5b803590602001918460018302840111640100000000831117156102a257600080fd5b9091929391929390505050610bdf565b005b6102f6600480360360208110156102ca57600080fd5b81019080803573ffffffffffffffffffffffffffffffffffffffff169060200190929190505050610fe5565b005b610300611076565b604051808273ffffffffffffffffffffffffffffffffffffffff1673ffffffffffffffffffffffffffffffffffffffff16815260200191505060405180910390f35b61034a61109c565b005b6103546111d5565b6040518082815260200191505060405180910390f35b6103726111fc565b604051808273ffffffffffffffffffffffffffffffffffffffff1673ffffffffffffffffffffffffffffffffffffffff16815260200191505060405180910390f35b6103bc611225565b604051808215151515815260200191505060405180910390f35b610418600480360360208110156103ec57600080fd5b81019080803573ffffffffffffffffffffffffffffffffffffffff169060200190929190505050611283565b005b61045c6004803603602081101561043057600080fd5b81019080803573ffffffffffffffffffffffffffffffffffffffff169060200190929190505050611314565b6040518082815260200191505060405180910390f35b6104e96004803603602081101561048857600080fd5b81019080803590602001906401000000008111156104a557600080fd5b8201836020820111156104b757600080fd5b803590602001918460018302840111640100000000831117156104d957600080fd5b9091929391929390505050611377565b6040518082815260200191505060405180910390f35b6105416004803603602081101561051557600080fd5b81019080803573ffffffffffffffffffffffffffffffffffffffff1690602001909291905050506114d6565b005b60008061054f3361155c565b90507f91d1777781884d03a6757a803996e38de2a42967fb37eeaca72729271025a9e260001b8160405160200180838152602001828152602001925050506040516020818303038152906040528051906020012091503073ffffffffffffffffffffffffffffffffffffffff16600160009054906101000a900473ffffffffffffffffffffffffffffffffffffffff1673ffffffffffffffffffffffffffffffffffffffff166302571be3846040518263ffffffff1660e01b81526004018082815260200191505060206040518083038186803b15801561062f57600080fd5b505afa158015610643573d6000803e3d6000fd5b505050506040513d602081101561065957600080fd5b810190808051906020019092919050505073ffffffffffffffffffffffffffffffffffffffff161461077257600160009054906101000a900473ffffffffffffffffffffffffffffffffffffffff1673ffffffffffffffffffffffffffffffffffffffff166306ab59237f91d1777781884d03a6757a803996e38de2a42967fb37eeaca72729271025a9e260001b83306040518463ffffffff1660e01b8152600401808481526020018381526020018273ffffffffffffffffffffffffffffffffffffffff1673ffffffffffffffffffffffffffffffffffffffff1681526020019350505050600060405180830381600087803b15801561075957600080fd5b505af115801561076d573d6000803e3d6000fd5b505050505b600073ffffffffffffffffffffffffffffffffffffffff168373ffffffffffffffffffffffffffffffffffffffff16141580156108ab5750600160009054906101000a900473ffffffffffffffffffffffffffffffffffffffff1673ffffffffffffffffffffffffffffffffffffffff16630178b8bf7f91d1777781884d03a6757a803996e38de2a42967fb37eeaca72729271025a9e260001b6040518263ffffffff1660e01b81526004018082815260200191505060206040518083038186803b15801561084057600080fd5b505afa158015610854573d6000803e3d6000fd5b505050506040513d602081101561086a57600080fd5b810190808051906020019092919050505073ffffffffffffffffffffffffffffffffffffffff168373ffffffffffffffffffffffffffffffffffffffff1614155b1561097257600160009054906101000a900473ffffffffffffffffffffffffffffffffffffffff1673ffffffffffffffffffffffffffffffffffffffff16631896f70a83856040518363ffffffff1660e01b8152600401808381526020018273ffffffffffffffffffffffffffffffffffffffff1673ffffffffffffffffffffffffffffffffffffffff16815260200192505050600060405180830381600087803b15801561095957600080fd5b505af115801561096d573d6000803e3d6000fd5b505050505b3073ffffffffffffffffffffffffffffffffffffffff168473ffffffffffffffffffffffffffffffffffffffff1614610a6757600160009054906101000a900473ffffffffffffffffffffffffffffffffffffffff1673ffffffffffffffffffffffffffffffffffffffff16635b0fc9c383866040518363ffffffff1660e01b8152600401808381526020018273ffffffffffffffffffffffffffffffffffffffff1673ffffffffffffffffffffffffffffffffffffffff16815260200192505050600060405180830381600087803b158015610a4e57600080fd5b505af1158015610a62573d6000803e3d6000fd5b505050505b5092915050565b6000610a848260026115c690919063ffffffff16565b9050919050565b600080610a973361155c565b9050600160009054906101000a900473ffffffffffffffffffffffffffffffffffffffff1673ffffffffffffffffffffffffffffffffffffffff166306ab59237f91d1777781884d03a6757a803996e38de2a42967fb37eeaca72729271025a9e260001b83866040518463ffffffff1660e01b8152600401808481526020018381526020018273ffffffffffffffffffffffffffffffffffffffff1673ffffffffffffffffffffffffffffffffffffffff1681526020019350505050600060405180830381600087803b158015610b6d57600080fd5b505af1158015610b81573d6000803e3d6000fd5b505050507f91d1777781884d03a6757a803996e38de2a42967fb37eeaca72729271025a9e260001b81604051602001808381526020018281526020019250505060405160208183030381529060405280519060200120915050919050565b610be833610a6e565b610c5a576040517f08c379a00000000000000000000000000000000000000000000000000000000081526004018080602001828103825260128152602001807f4e6f742072736b207265676973747261722e000000000000000000000000000081525060200191505060405180910390fd5b6000610c658461155c565b9050600160009054906101000a900473ffffffffffffffffffffffffffffffffffffffff1673ffffffffffffffffffffffffffffffffffffffff166306ab59237f91d1777781884d03a6757a803996e38de2a42967fb37eeaca72729271025a9e260001b83306040518463ffffffff1660e01b8152600401808481526020018381526020018273ffffffffffffffffffffffffffffffffffffffff1673ffffffffffffffffffffffffffffffffffffffff1681526020019350505050600060405180830381600087803b158015610d3b57600080fd5b505af1158015610d4f573d6000803e3d6000fd5b5050505060007f91d1777781884d03a6757a803996e38de2a42967fb37eeaca72729271025a9e260001b826040516020018083815260200182815260200192505050604051602081830303815290604052805190602001209050600160009054906101000a900473ffffffffffffffffffffffffffffffffffffffff1673ffffffffffffffffffffffffffffffffffffffff16630178b8bf826040518263ffffffff1660e01b81526004018082815260200191505060206040518083038186803b158015610e1c57600080fd5b505afa158015610e30573d6000803e3d6000fd5b505050506040513d6020811015610e4657600080fd5b810190808051906020019092919050505073ffffffffffffffffffffffffffffffffffffffff1663773722138286866040518060400160405280600481526020017f2e72736b00000000000000000000000000000000000000000000000000000000815250604051602001808484808284378083019250505082805190602001908083835b60208310610eee5780518252602082019150602081019050602083039250610ecb565b6001836020036101000a03801982511681845116808217855250505050505090500193505050506040516020818303038152906040526040518363ffffffff1660e01b81526004018083815260200180602001828103825283818151815260200191508051906020019080838360005b83811015610f79578082015181840152602081019050610f5e565b50505050905090810190601f168015610fa65780820380516001836020036101000a031916815260200191505b509350505050600060405180830381600087803b158015610fc657600080fd5b505af1158015610fda573d6000803e3d6000fd5b505050505050505050565b610fed611225565b61105f576040517f08c379a00000000000000000000000000000000000000000000000000000000081526004018080602001828103825260208152602001807f4f776e61626c653a2063616c6c6572206973206e6f7420746865206f776e657281525060200191505060405180910390fd5b6110738160026116a490919063ffffffff16565b50565b600160009054906101000a900473ffffffffffffffffffffffffffffffffffffffff1681565b6110a4611225565b611116576040517f08c379a00000000000000000000000000000000000000000000000000000000081526004018080602001828103825260208152602001807f4f776e61626c653a2063616c6c6572206973206e6f7420746865206f776e657281525060200191505060405180910390fd5b600073ffffffffffffffffffffffffffffffffffffffff166000809054906101000a900473ffffffffffffffffffffffffffffffffffffffff1673ffffffffffffffffffffffffffffffffffffffff167f8be0079c531659141344cd1fd0a4f28419497f9722a3daafe3b4186f6b6457e060405160405180910390a360008060006101000a81548173ffffffffffffffffffffffffffffffffffffffff021916908373ffffffffffffffffffffffffffffffffffffffff160217905550565b7f91d1777781884d03a6757a803996e38de2a42967fb37eeaca72729271025a9e260001b81565b60008060009054906101000a900473ffffffffffffffffffffffffffffffffffffffff16905090565b60008060009054906101000a900473ffffffffffffffffffffffffffffffffffffffff1673ffffffffffffffffffffffffffffffffffffffff1661126761177f565b73ffffffffffffffffffffffffffffffffffffffff1614905090565b61128b611225565b6112fd576040517f08c379a00000000000000000000000000000000000000000000000000000000081526004018080602001828103825260208152602001807f4f776e61626c653a2063616c6c6572206973206e6f7420746865206f776e657281525060200191505060405180910390fd5b61131181600261178790919063ffffffff16565b50565b60007f91d1777781884d03a6757a803996e38de2a42967fb37eeaca72729271025a9e260001b6113438361155c565b6040516020018083815260200182815260200192505050604051602081830303815290604052805190602001209050919050565b600061138230610a8b565b9050600160009054906101000a900473ffffffffffffffffffffffffffffffffffffffff1673ffffffffffffffffffffffffffffffffffffffff16630178b8bf826040518263ffffffff1660e01b81526004018082815260200191505060206040518083038186803b1580156113f757600080fd5b505afa15801561140b573d6000803e3d6000fd5b505050506040513d602081101561142157600080fd5b810190808051906020019092919050505073ffffffffffffffffffffffffffffffffffffffff1663773722138285856040518463ffffffff1660e01b815260040180848152602001806020018281038252848482818152602001925080828437600081840152601f19601f820116905080830192505050945050505050600060405180830381600087803b1580156114b857600080fd5b505af11580156114cc573d6000803e3d6000fd5b5050505092915050565b6114de611225565b611550576040517f08c379a00000000000000000000000000000000000000000000000000000000081526004018080602001828103825260208152602001807f4f776e61626c653a2063616c6c6572206973206e6f7420746865206f776e657281525060200191505060405180910390fd5b61155981611844565b50565b60007f303132333435363738396162636465660000000000000000000000000000000060285b60008111156115b85760018103905081600f85161a815360108404935060018103905081600f85161a8153601084049350611582565b506028600020915050919050565b60008073ffffffffffffffffffffffffffffffffffffffff168273ffffffffffffffffffffffffffffffffffffffff16141561164d576040517f08c379a00000000000000000000000000000000000000000000000000000000081526004018080602001828103825260228152602001806119d06022913960400191505060405180910390fd5b8260000160008373ffffffffffffffffffffffffffffffffffffffff1673ffffffffffffffffffffffffffffffffffffffff16815260200190815260200160002060009054906101000a900460ff16905092915050565b6116ae82826115c6565b15611721576040517f08c379a000000000000000000000000000000000000000000000000000000000815260040180806020018281038252601f8152602001807f526f6c65733a206163636f756e7420616c72656164792068617320726f6c650081525060200191505060405180910390fd5b60018260000160008373ffffffffffffffffffffffffffffffffffffffff1673ffffffffffffffffffffffffffffffffffffffff16815260200190815260200160002060006101000a81548160ff0219169083151502179055505050565b600033905090565b61179182826115c6565b6117e6576040517f08c379a00000000000000000000000000000000000000000000000000000000081526004018080602001828103825260218152602001806119af6021913960400191505060405180910390fd5b60008260000160008373ffffffffffffffffffffffffffffffffffffffff1673ffffffffffffffffffffffffffffffffffffffff16815260200190815260200160002060006101000a81548160ff0219169083151502179055505050565b600073ffffffffffffffffffffffffffffffffffffffff168173ffffffffffffffffffffffffffffffffffffffff1614156118ca576040517f08c379a00000000000000000000000000000000000000000000000000000000081526004018080602001828103825260268152602001806119896026913960400191505060405180910390fd5b8073ffffffffffffffffffffffffffffffffffffffff166000809054906101000a900473ffffffffffffffffffffffffffffffffffffffff1673ffffffffffffffffffffffffffffffffffffffff167f8be0079c531659141344cd1fd0a4f28419497f9722a3daafe3b4186f6b6457e060405160405180910390a3806000806101000a81548173ffffffffffffffffffffffffffffffffffffffff021916908373ffffffffffffffffffffffffffffffffffffffff1602179055505056fe4f776e61626c653a206e6577206f776e657220697320746865207a65726f2061646472657373526f6c65733a206163636f756e7420646f6573206e6f74206861766520726f6c65526f6c65733a206163636f756e7420697320746865207a65726f2061646472657373a265627a7a723158209d009c3205f1409e4acf60098f6bf9ca300b167fc4c3c878b6e811e964cd63b464736f6c63430005100032",
  "source": "pragma solidity ^0.5.3;\n\nimport \"@rsksmart/rns-registry/contracts/AbstractRNS.sol\";\nimport \"@openzeppelin/contracts/ownership/Ownable.sol\";\nimport \"@openzeppelin/contracts/access/Roles.sol\";\nimport \"./NameResolver.sol\";\n\ncontract ReverseRegistrar is Ownable {\n    using Roles for Roles.Role;\n\n    // namehash('addr.reverse')\n    bytes32 public constant ADDR_REVERSE_NODE = 0x91d1777781884d03a6757a803996e38de2a42967fb37eeaca72729271025a9e2;\n\n    AbstractRNS public rns;\n\n    modifier onlyRskRegistrar {\n        require(isRskRegistrar(msg.sender), \"Not rsk registrar.\");\n        _;\n    }\n\n    /// @dev Constructor\n    /// @param rnsAddr The address of the RNS registry.\n    constructor(AbstractRNS rnsAddr) public {\n        rns = rnsAddr;\n    }\n\n    /// @notice Sets the name record on that name to the specified name\n    /// @dev Sets the resolver for the name hex(msg.sender).addr.reverse to a default resolver\n    /// @param name The name to set for this address.\n    /// @return The RNS node hash of the reverse record.\n    function setName(string calldata name) external returns (bytes32 _node) {\n        _node = claim(address(this));\n        NameResolver(rns.resolver(_node)).setName(_node, name);\n    }\n\n    /// @notice Transfer ownership of the name hex(msg.sender).addr.reverse\n    /// @dev Allows the caller to specify an owner other than themselves.\n    /// The resulting account has `name()` resolver.\n    /// @param recordOwner The address to set as the owner of the reverse record in RNS.\n    /// @return The RNS node hash of the reverse record.\n    function claim(address recordOwner) public returns (bytes32) {\n        bytes32 label = sha3HexAddress(msg.sender);\n        rns.setSubnodeOwner(ADDR_REVERSE_NODE, label, recordOwner);\n        return keccak256(abi.encodePacked(ADDR_REVERSE_NODE, label));\n    }\n\n    /// @notice Sets the resolver of the name hex(msg.sender).addr.reverse to the specified resolver\n    /// @dev Transfer ownership of the name to the provided address.\n    /// @param recordOwner The address to set as the owner of the reverse record in RNS.\n    /// @param resolver The address of the resolver to set; 0 to leave default.\n    /// @return The RNS node hash of the reverse record.\n    function claimWithResolver(address recordOwner, address resolver) external returns (bytes32 _node) {\n        bytes32 label = sha3HexAddress(msg.sender);\n        _node = keccak256(abi.encodePacked(ADDR_REVERSE_NODE, label));\n\n        if (rns.owner(_node) != address(this))\n            rns.setSubnodeOwner(ADDR_REVERSE_NODE, label, address(this));\n        // registrar owns the node, with default resolver\n\n        if (resolver != address(0x0) && resolver != rns.resolver(ADDR_REVERSE_NODE))\n            rns.setResolver(_node, resolver);\n        // node has default resolver for 0x00 or resolver value\n\n        if (recordOwner != address(this))\n            rns.setOwner(_node, recordOwner);\n        // owner owns node\n    }\n\n    /// @dev Returns the node hash for a given account's reverse records.\n    /// @param addr The address to hash\n    /// @return The RNS node hash.\n    function node(address addr) external pure returns (bytes32) {\n        return keccak256(abi.encodePacked(ADDR_REVERSE_NODE, sha3HexAddress(addr)));\n    }\n\n    /// @dev An optimised function to compute the sha3 of the lower-case\n    /// hexadecimal representation of an Ethereum address.\n    /// @param addr The address to hash\n    /// @return The SHA3 hash of the lower-case hexadecimal encoding of the\n    /// input address.\n    function sha3HexAddress(address addr) private pure returns (bytes32 ret) {\n        assembly {\n            let lookup := 0x3031323334353637383961626364656600000000000000000000000000000000\n\n            for { let i := 40 } gt(i, 0) { } {\n                i := sub(i, 1)\n                mstore8(i, byte(and(addr, 0xf), lookup))\n                addr := div(addr, 0x10)\n                i := sub(i, 1)\n                mstore8(i, byte(and(addr, 0xf), lookup))\n                addr := div(addr, 0x10)\n            }\n\n            ret := keccak256(0, 40)\n        }\n    }\n\n    /**********************/\n    /* .rsk registrations */\n    /**********************/\n\n    // Allow different contracts to register reverse records for .rsk domains.\n    // It is assumed that these contracts register rsk names and send to this contract\n    // an address that is appropriate by the registrant\n\n    /// @notice Allows .rsk registrars to create reverse records.\n    /// @param addr The addr to register\n    /// @param label The label to prepend to .rsk and set as name.\n    function rskClaim(address addr, string calldata label) external onlyRskRegistrar {\n        bytes32 _label = sha3HexAddress(addr);\n        rns.setSubnodeOwner(ADDR_REVERSE_NODE, _label, address(this));\n        bytes32 _node = keccak256(abi.encodePacked(ADDR_REVERSE_NODE, _label));\n        NameResolver(\n            rns.resolver(_node)\n        ).setName(\n            _node,\n            string(\n                abi.encodePacked(\n                    bytes(label),\n                    bytes(\".rsk\")\n                )\n            )\n        );\n    }\n\n    Roles.Role rskRegistrars;\n\n    /// @notice Give an account access to registrar role.\n    /// @dev Only owner.\n    /// @param registrar new registrar.\n    function addRskRegistrar(address registrar) external onlyOwner {\n        rskRegistrars.add(registrar);\n    }\n\n    /// @notice Check if an account has registrar role.\n    /// @param registrar to query if has registrar role.\n    /// @return true if it has registrar role.\n    function isRskRegistrar(address registrar) public view returns (bool) {\n        return rskRegistrars.has(registrar);\n    }\n\n    /// @notice Remove an account's access to registrar role.\n    /// @dev Only owner\n    /// @param registrar registrar to remove from registrar role.\n    function removeRskRegistrar(address registrar) external onlyOwner {\n        rskRegistrars.remove(registrar);\n    }\n}\n",
  "sourcePath": "@rsksmart/rns-reverse/contracts/ReverseRegistrar.sol",
  "compiler": {
    "name": "solc",
    "version": "0.5.16+commit.9c3226ce.Emscripten.clang"
  },
  "schemaVersion": "3.0.23",
  "updatedAt": "2022-12-06T16:34:39.144Z",
  "devdoc": {
    "methods": {
      "addRskRegistrar(address)": {
        "details": "Only owner.",
        "params": {
          "registrar": "new registrar."
        }
      },
      "claim(address)": {
        "details": "Allows the caller to specify an owner other than themselves. The resulting account has `name()` resolver.",
        "params": {
          "recordOwner": "The address to set as the owner of the reverse record in RNS."
        },
        "return": "The RNS node hash of the reverse record."
      },
      "claimWithResolver(address,address)": {
        "details": "Transfer ownership of the name to the provided address.",
        "params": {
          "recordOwner": "The address to set as the owner of the reverse record in RNS.",
          "resolver": "The address of the resolver to set; 0 to leave default."
        },
        "return": "The RNS node hash of the reverse record."
      },
      "constructor": {
        "details": "Constructor",
        "params": {
          "rnsAddr": "The address of the RNS registry."
        }
      },
      "isOwner()": {
        "details": "Returns true if the caller is the current owner."
      },
      "isRskRegistrar(address)": {
        "params": {
          "registrar": "to query if has registrar role."
        },
        "return": "true if it has registrar role."
      },
      "node(address)": {
        "details": "Returns the node hash for a given account's reverse records.",
        "params": {
          "addr": "The address to hash"
        },
        "return": "The RNS node hash."
      },
      "owner()": {
        "details": "Returns the address of the current owner."
      },
      "removeRskRegistrar(address)": {
        "details": "Only owner",
        "params": {
          "registrar": "registrar to remove from registrar role."
        }
      },
      "renounceOwnership()": {
        "details": "Leaves the contract without owner. It will not be possible to call `onlyOwner` functions anymore. Can only be called by the current owner.     * NOTE: Renouncing ownership will leave the contract without an owner, thereby removing any functionality that is only available to the owner."
      },
      "rskClaim(address,string)": {
        "params": {
          "addr": "The addr to register",
          "label": "The label to prepend to .rsk and set as name."
        }
      },
      "setName(string)": {
        "details": "Sets the resolver for the name hex(msg.sender).addr.reverse to a default resolver",
        "params": {
          "name": "The name to set for this address."
        },
        "return": "The RNS node hash of the reverse record."
      },
      "transferOwnership(address)": {
        "details": "Transfers ownership of the contract to a new account (`newOwner`). Can only be called by the current owner."
      }
    }
  },
  "userdoc": {
    "methods": {
      "addRskRegistrar(address)": {
        "notice": "Give an account access to registrar role."
      },
      "claim(address)": {
        "notice": "Transfer ownership of the name hex(msg.sender).addr.reverse"
      },
      "claimWithResolver(address,address)": {
        "notice": "Sets the resolver of the name hex(msg.sender).addr.reverse to the specified resolver"
      },
      "isRskRegistrar(address)": {
        "notice": "Check if an account has registrar role."
      },
      "removeRskRegistrar(address)": {
        "notice": "Remove an account's access to registrar role."
      },
      "rskClaim(address,string)": {
        "notice": "Allows .rsk registrars to create reverse records."
      },
      "setName(string)": {
        "notice": "Sets the name record on that name to the specified name"
      }
    }
  }
}