{
  "contractName": "RNS",
  "abi": [
    {
      "inputs": [],
      "payable": false,
      "stateMutability": "nonpayable",
      "type": "constructor"
    },
    {
      "anonymous": false,
      "inputs": [
        {
          "indexed": true,
          "internalType": "bytes32",
          "name": "node",
          "type": "bytes32"
        },
        {
          "indexed": true,
          "internalType": "bytes32",
          "name": "label",
          "type": "bytes32"
        },
        {
          "indexed": false,
          "internalType": "address",
          "name": "ownerAddress",
          "type": "address"
        }
      ],
      "name": "NewOwner",
      "type": "event"
    },
    {
      "anonymous": false,
      "inputs": [
        {
          "indexed": true,
          "internalType": "bytes32",
          "name": "node",
          "type": "bytes32"
        },
        {
          "indexed": false,
          "internalType": "address",
          "name": "resolverAddress",
          "type": "address"
        }
      ],
      "name": "NewResolver",
      "type": "event"
    },
    {
      "anonymous": false,
      "inputs": [
        {
          "indexed": true,
          "internalType": "bytes32",
          "name": "node",
          "type": "bytes32"
        },
        {
          "indexed": false,
          "internalType": "uint64",
          "name": "ttlValue",
          "type": "uint64"
        }
      ],
      "name": "NewTTL",
      "type": "event"
    },
    {
      "anonymous": false,
      "inputs": [
        {
          "indexed": true,
          "internalType": "bytes32",
          "name": "node",
          "type": "bytes32"
        },
        {
          "indexed": false,
          "internalType": "address",
          "name": "ownerAddress",
          "type": "address"
        }
      ],
      "name": "Transfer",
      "type": "event"
    },
    {
      "constant": true,
      "inputs": [
        {
          "internalType": "bytes32",
          "name": "node",
          "type": "bytes32"
        }
      ],
      "name": "owner",
      "outputs": [
        {
          "internalType": "address",
          "name": "",
          "type": "address"
        }
      ],
      "payable": false,
      "stateMutability": "view",
      "type": "function"
    },
    {
      "constant": true,
      "inputs": [
        {
          "internalType": "bytes32",
          "name": "node",
          "type": "bytes32"
        }
      ],
      "name": "resolver",
      "outputs": [
        {
          "internalType": "address",
          "name": "",
          "type": "address"
        }
      ],
      "payable": false,
      "stateMutability": "view",
      "type": "function"
    },
    {
      "constant": true,
      "inputs": [
        {
          "internalType": "bytes32",
          "name": "node",
          "type": "bytes32"
        }
      ],
      "name": "ttl",
      "outputs": [
        {
          "internalType": "uint64",
          "name": "",
          "type": "uint64"
        }
      ],
      "payable": false,
      "stateMutability": "view",
      "type": "function"
    },
    {
      "constant": false,
      "inputs": [
        {
          "internalType": "bytes32",
          "name": "node",
          "type": "bytes32"
        },
        {
          "internalType": "address",
          "name": "ownerAddress",
          "type": "address"
        }
      ],
      "name": "setOwner",
      "outputs": [],
      "payable": false,
      "stateMutability": "nonpayable",
      "type": "function"
    },
    {
      "constant": false,
      "inputs": [
        {
          "internalType": "bytes32",
          "name": "node",
          "type": "bytes32"
        },
        {
          "internalType": "bytes32",
          "name": "label",
          "type": "bytes32"
        },
        {
          "internalType": "address",
          "name": "ownerAddress",
          "type": "address"
        }
      ],
      "name": "setSubnodeOwner",
      "outputs": [],
      "payable": false,
      "stateMutability": "nonpayable",
      "type": "function"
    },
    {
      "constant": false,
      "inputs": [
        {
          "internalType": "bytes32",
          "name": "node",
          "type": "bytes32"
        },
        {
          "internalType": "address",
          "name": "resolverAddress",
          "type": "address"
        }
      ],
      "name": "setResolver",
      "outputs": [],
      "payable": false,
      "stateMutability": "nonpayable",
      "type": "function"
    },
    {
      "constant": false,
      "inputs": [
        {
          "internalType": "bytes32",
          "name": "node",
          "type": "bytes32"
        },
        {
          "internalType": "uint64",
          "name": "ttlValue",
          "type": "uint64"
        }
      ],
      "name": "setTTL",
      "outputs": [],
      "payable": false,
      "stateMutability": "nonpayable",
      "type": "function"
    },
    {
      "constant": false,
      "inputs": [
        {
          "internalType": "address",
          "name": "_resolver",
          "type": "address"
        }
      ],
      "name": "setDefaultResolver",
      "outputs": [],
      "payable": false,
      "stateMutability": "nonpayable",
      "type": "function"
    }
  ],
  "bytecode": "0x608060405234801561001057600080fd5b50336000808060001b815260200190815260200160002060000160006101000a81548173ffffffffffffffffffffffffffffffffffffffff021916908373ffffffffffffffffffffffffffffffffffffffff160217905550610ccc806100776000396000f3fe608060405234801561001057600080fd5b50600436106100885760003560e01c806316a25cbd1161005b57806316a25cbd146102035780631896f70a146102595780635b0fc9c3146102a7578063c66485b2146102f557610088565b80630178b8bf1461008d57806302571be3146100fb57806306ab59231461016957806314ab9038146101c1575b600080fd5b6100b9600480360360208110156100a357600080fd5b8101908080359060200190929190505050610339565b604051808273ffffffffffffffffffffffffffffffffffffffff1673ffffffffffffffffffffffffffffffffffffffff16815260200191505060405180910390f35b6101276004803603602081101561011157600080fd5b8101908080359060200190929190505050610378565b604051808273ffffffffffffffffffffffffffffffffffffffff1673ffffffffffffffffffffffffffffffffffffffff16815260200191505060405180910390f35b6101bf6004803603606081101561017f57600080fd5b810190808035906020019092919080359060200190929190803573ffffffffffffffffffffffffffffffffffffffff1690602001909291905050506103b7565b005b610201600480360360408110156101d757600080fd5b8101908080359060200190929190803567ffffffffffffffff1690602001909291905050506106a3565b005b61022f6004803603602081101561021957600080fd5b8101908080359060200190929190505050610807565b604051808267ffffffffffffffff1667ffffffffffffffff16815260200191505060405180910390f35b6102a56004803603604081101561026f57600080fd5b8101908080359060200190929190803573ffffffffffffffffffffffffffffffffffffffff16906020019092919050505061083a565b005b6102f3600480360360408110156102bd57600080fd5b8101908080359060200190929190803573ffffffffffffffffffffffffffffffffffffffff1690602001909291905050506109ce565b005b6103376004803603602081101561030b57600080fd5b81019080803573ffffffffffffffffffffffffffffffffffffffff169060200190929190505050610b62565b005b600080600083815260200190815260200160002060010160009054906101000a900473ffffffffffffffffffffffffffffffffffffffff169050919050565b600080600083815260200190815260200160002060000160009054906101000a900473ffffffffffffffffffffffffffffffffffffffff169050919050565b823373ffffffffffffffffffffffffffffffffffffffff1660008083815260200190815260200160002060000160009054906101000a900473ffffffffffffffffffffffffffffffffffffffff1673ffffffffffffffffffffffffffffffffffffffff161461048e576040517f08c379a000000000000000000000000000000000000000000000000000000000815260040180806020018281038252600d8152602001807f6e6f7420646f6d206f776e65720000000000000000000000000000000000000081525060200191505060405180910390fd5b60008484604051602001808381526020018281526020019250505060405160208183030381529060405280519060200120905083857fce0457fe73731f824cc272376169235128c118b49d344817417c6d108d155e8285604051808273ffffffffffffffffffffffffffffffffffffffff1673ffffffffffffffffffffffffffffffffffffffff16815260200191505060405180910390a38260008083815260200190815260200160002060000160006101000a81548173ffffffffffffffffffffffffffffffffffffffff021916908373ffffffffffffffffffffffffffffffffffffffff160217905550807f335721b01866dc23fbee8b6b2c7b1e14d6f05c28cd35a2c934239f94095602a060008088815260200190815260200160002060010160009054906101000a900473ffffffffffffffffffffffffffffffffffffffff16604051808273ffffffffffffffffffffffffffffffffffffffff1673ffffffffffffffffffffffffffffffffffffffff16815260200191505060405180910390a260008086815260200190815260200160002060010160009054906101000a900473ffffffffffffffffffffffffffffffffffffffff1660008083815260200190815260200160002060010160006101000a81548173ffffffffffffffffffffffffffffffffffffffff021916908373ffffffffffffffffffffffffffffffffffffffff1602179055505050505050565b813373ffffffffffffffffffffffffffffffffffffffff1660008083815260200190815260200160002060000160009054906101000a900473ffffffffffffffffffffffffffffffffffffffff1673ffffffffffffffffffffffffffffffffffffffff161461077a576040517f08c379a000000000000000000000000000000000000000000000000000000000815260040180806020018281038252600d8152602001807f6e6f7420646f6d206f776e65720000000000000000000000000000000000000081525060200191505060405180910390fd5b827f1d4f9bbfc9cab89d66e1a1562f2233ccbf1308cb4f63de2ead5787adddb8fa6883604051808267ffffffffffffffff1667ffffffffffffffff16815260200191505060405180910390a28160008085815260200190815260200160002060010160146101000a81548167ffffffffffffffff021916908367ffffffffffffffff160217905550505050565b600080600083815260200190815260200160002060010160149054906101000a900467ffffffffffffffff169050919050565b813373ffffffffffffffffffffffffffffffffffffffff1660008083815260200190815260200160002060000160009054906101000a900473ffffffffffffffffffffffffffffffffffffffff1673ffffffffffffffffffffffffffffffffffffffff1614610911576040517f08c379a000000000000000000000000000000000000000000000000000000000815260040180806020018281038252600d8152602001807f6e6f7420646f6d206f776e65720000000000000000000000000000000000000081525060200191505060405180910390fd5b827f335721b01866dc23fbee8b6b2c7b1e14d6f05c28cd35a2c934239f94095602a083604051808273ffffffffffffffffffffffffffffffffffffffff1673ffffffffffffffffffffffffffffffffffffffff16815260200191505060405180910390a28160008085815260200190815260200160002060010160006101000a81548173ffffffffffffffffffffffffffffffffffffffff021916908373ffffffffffffffffffffffffffffffffffffffff160217905550505050565b813373ffffffffffffffffffffffffffffffffffffffff1660008083815260200190815260200160002060000160009054906101000a900473ffffffffffffffffffffffffffffffffffffffff1673ffffffffffffffffffffffffffffffffffffffff1614610aa5576040517f08c379a000000000000000000000000000000000000000000000000000000000815260040180806020018281038252600d8152602001807f6e6f7420646f6d206f776e65720000000000000000000000000000000000000081525060200191505060405180910390fd5b827fd4735d920b0f87494915f556dd9b54c8f309026070caea5c737245152564d26683604051808273ffffffffffffffffffffffffffffffffffffffff1673ffffffffffffffffffffffffffffffffffffffff16815260200191505060405180910390a28160008085815260200190815260200160002060000160006101000a81548173ffffffffffffffffffffffffffffffffffffffff021916908373ffffffffffffffffffffffffffffffffffffffff160217905550505050565b6000801b3373ffffffffffffffffffffffffffffffffffffffff1660008083815260200190815260200160002060000160009054906101000a900473ffffffffffffffffffffffffffffffffffffffff1673ffffffffffffffffffffffffffffffffffffffff1614610c3c576040517f08c379a000000000000000000000000000000000000000000000000000000000815260040180806020018281038252600d8152602001807f6e6f7420646f6d206f776e65720000000000000000000000000000000000000081525060200191505060405180910390fd5b816000808060001b815260200190815260200160002060010160006101000a81548173ffffffffffffffffffffffffffffffffffffffff021916908373ffffffffffffffffffffffffffffffffffffffff160217905550505056fea265627a7a72315820f1d5cb434019e441773441454cb34a5500ed20ce111befa753cd60f9523d0cb764736f6c63430005100032",
  "source": "pragma solidity ^0.5.0;\n\nimport './AbstractRNS.sol';\n\n/// @title RNS Registry\ncontract RNS is AbstractRNS {\n    struct Record {\n        address owner;\n        address resolver;\n        uint64 ttl;\n    }\n\n    mapping(bytes32=>Record) records;\n\n    modifier only_owner(bytes32 node) {\n        require(records[node].owner == msg.sender, \"not dom owner\");\n        _;\n    }\n\n    constructor() public {\n        records[bytes32(0)].owner = msg.sender;\n    }\n\n    /// @notice Returns the current owner of a domain.\n    /// @param node namehash of the domain.\n    /// @return The owner of the domain.\n    function owner(bytes32 node) public view returns (address) {\n        return records[node].owner;\n    }\n\n    /// @notice Returns the current resolver of a domain.\n    /// @param node namehash of the domain.\n    /// @return The resolver of the domain.\n    function resolver(bytes32 node) public view returns (address) {\n        return records[node].resolver;\n    }\n\n    /// @notice Returns the time to live of a domain and any records\n    /// associated with it.\n    /// @param node namehash of the domain.\n    /// @return The ttl of the domain.\n    function ttl(bytes32 node) public view returns (uint64) {\n        return records[node].ttl;\n    }\n\n    /// @notice Transfers ownership of a domain.\n    /// @dev Only owner of the node.\n    /// @param node namehash of the domain to transfer ownership of.\n    /// @param ownerAddress The new owner.\n    function setOwner(bytes32 node, address ownerAddress) public only_owner(node) {\n        emit Transfer(node, ownerAddress);\n        records[node].owner = ownerAddress;\n    }\n\n    /// @notice Transfers ownership of label.node subdomain.\n    /// @dev Only owner of the parent domain.\n    /// @param node namehash of the parent domain.\n    /// @param label keccak256 of the label specifying the subnode.\n    /// @param ownerAddress The new owner.\n    function setSubnodeOwner(bytes32 node, bytes32 label, address ownerAddress) public only_owner(node) {\n        bytes32 subnode = keccak256(abi.encodePacked(node, label));\n        emit NewOwner(node, label, ownerAddress);\n        records[subnode].owner = ownerAddress;\n\n        emit NewResolver(subnode, records[node].resolver);\n        records[subnode].resolver = records[node].resolver;\n    }\n\n    /// @notice Sets the resolver of a given node.\n    /// @dev Only owner of the node.\n    /// @param node namehash of the domain to set the resolver of.\n    /// @param resolverAddress The new resolver.\n    function setResolver(bytes32 node, address resolverAddress) public only_owner(node) {\n        emit NewResolver(node, resolverAddress);\n        records[node].resolver = resolverAddress;\n    }\n\n    /// @notice Sets the time to live of a given node.\n    /// @dev Only owner of the node.\n    /// @param node namehash of the domain to set the ttl of.\n    /// @param ttlValue The new ttl.\n    function setTTL(bytes32 node, uint64 ttlValue) public only_owner(node) {\n        emit NewTTL(node, ttlValue);\n        records[node].ttl = ttlValue;\n    }\n\n    /// @notice Sets the root node resolver.\n    /// @dev Only owner of the root node.\n    /// @param _resolver The new resolver.\n    function setDefaultResolver(address _resolver) public only_owner(0) {\n        records[bytes32(0)].resolver = _resolver;\n    }\n}\n",
  "sourcePath": "@rsksmart/rns-registry/contracts/RNS.sol",
  "compiler": {
    "name": "solc",
    "version": "0.5.16+commit.9c3226ce.Emscripten.clang"
  },
  "schemaVersion": "3.2.2",
  "updatedAt": "2022-11-15T15:43:39.806Z",
  "devdoc": {
    "methods": {
      "owner(bytes32)": {
        "params": {
          "node": "namehash of the domain."
        },
        "return": "The owner of the domain."
      },
      "resolver(bytes32)": {
        "params": {
          "node": "namehash of the domain."
        },
        "return": "The resolver of the domain."
      },
      "setDefaultResolver(address)": {
        "details": "Only owner of the root node.",
        "params": {
          "_resolver": "The new resolver."
        }
      },
      "setOwner(bytes32,address)": {
        "details": "Only owner of the node.",
        "params": {
          "node": "namehash of the domain to transfer ownership of.",
          "ownerAddress": "The new owner."
        }
      },
      "setResolver(bytes32,address)": {
        "details": "Only owner of the node.",
        "params": {
          "node": "namehash of the domain to set the resolver of.",
          "resolverAddress": "The new resolver."
        }
      },
      "setSubnodeOwner(bytes32,bytes32,address)": {
        "details": "Only owner of the parent domain.",
        "params": {
          "label": "keccak256 of the label specifying the subnode.",
          "node": "namehash of the parent domain.",
          "ownerAddress": "The new owner."
        }
      },
      "setTTL(bytes32,uint64)": {
        "details": "Only owner of the node.",
        "params": {
          "node": "namehash of the domain to set the ttl of.",
          "ttlValue": "The new ttl."
        }
      },
      "ttl(bytes32)": {
        "params": {
          "node": "namehash of the domain."
        },
        "return": "The ttl of the domain."
      }
    },
    "title": "RNS Registry"
  },
  "userdoc": {
    "methods": {
      "owner(bytes32)": {
        "notice": "Returns the current owner of a domain."
      },
      "resolver(bytes32)": {
        "notice": "Returns the current resolver of a domain."
      },
      "setDefaultResolver(address)": {
        "notice": "Sets the root node resolver."
      },
      "setOwner(bytes32,address)": {
        "notice": "Transfers ownership of a domain."
      },
      "setResolver(bytes32,address)": {
        "notice": "Sets the resolver of a given node."
      },
      "setSubnodeOwner(bytes32,bytes32,address)": {
        "notice": "Transfers ownership of label.node subdomain."
      },
      "setTTL(bytes32,uint64)": {
        "notice": "Sets the time to live of a given node."
      },
      "ttl(bytes32)": {
        "notice": "Returns the time to live of a domain and any records associated with it."
      }
    }
  }
}